:100000000C945D000C9485000C9485000C94850084
:100010000C9485000C9485000C9485000C9485004C
:100020000C9485000C9485000C9485000C9485003C
:100030000C9485000C9485000C9485000C9485002C
:100040000C9442020C9485000C9410020C94EA016A
:100050000C9485000C9485000C9485000C9485000C
:100060000C9485000C9485000000000024002700FB
:100070002A0000000000250028002B0004040404CE
:100080000404040402020202020203030303030342
:10009000010204081020408001020408102001021F
:1000A00004081020000000080002010000030407FB
:1000B00000000000000000008C0211241FBECFEFE2
:1000C000D8E0DEBFCDBF22E0AAE2B1E001C01D92C0
:1000D000A631B207E1F711E0A0E0B1E0E8E6F8E010
:1000E00002C005900D92AA32B107D9F710E0CDE514
:1000F000D0E004C02197FE010E942C04CC35D1072A
:10010000C9F70E94CB020C9432040C940000CF92E9
:10011000DF92EF92FF920F931F932FB7F894C09046
:100120002F01D0903001E0903101F09032012FBFCB
:100130006C0D7D1D8E1D9F1D4FB7F89400912F01F2
:100140001091300120913101309132014FBF0C15D7
:100150001D052E053F0528F06017710782079307DC
:1001600058F71F910F91FF90EF90DF90CF90089577
:10017000AF92BF92CF92DF92EF92FF920F931F93B5
:10018000CF93DF936C017B018B01040F151FEB01F3
:100190005E01AE18BF08C017D10759F06991D601AA
:1001A000ED91FC910190F081E02DC6010995892B1C
:1001B00079F7C501DF91CF911F910F91FF90EF90DB
:1001C000DF90CF90BF90AF900895FC01538D448D88
:1001D000252F30E0842F90E0821B930B541710F0F2
:1001E000CF96089501970895FC01918D828D9817FF
:1001F00061F0A28DAE0FBF2FB11D5D968C91928DD7
:100200009F5F9F73928F90E008958FEF9FEF089507
:10021000FC01918D828D981731F0828DE80FF11DD0
:10022000858D90E008958FEF9FEF0895FC01918DEB
:10023000228D892F90E0805C9F4F821B91098F73E4
:100240009927089583E391E00E94160121E0892B0C
:1002500009F420E0822F089580E090E0892B29F0B6
:100260000E94220181110C9400000895FC01A48DCC
:10027000A80FB92FB11DA35ABF4F2C91848D90E0C8
:1002800001968F739927848FA689B7892C93A089AB
:10029000B1898C91837080648C93938D848D981335
:1002A00006C00288F389E02D80818F7D80830895C8
:1002B000EF92FF920F931F93CF93DF93EC0181E0B6
:1002C000888F9B8D8C8D98131AC0E889F98980815D
:1002D00085FF15C09FB7F894EE89FF896083E88990
:1002E000F98980818370806480839FBF81E090E082
:1002F000DF91CF911F910F91FF90EF900895F62E0F
:100300000B8D10E00F5F1F4F0F731127E02E8C8DA8
:100310008E110CC00FB607FCFACFE889F9898081ED
:1003200085FFF5CFCE010E943601F1CFEB8DEC0FAA
:10033000FD2FF11DE35AFF4FF0829FB7F8940B8F0A
:10034000EA89FB8980818062CFCFCF93DF93EC0174
:10035000888D8823B9F0AA89BB89E889F9898C91AD
:1003600085FD03C0808186FD0DC00FB607FCF7CF69
:100370008C9185FFF2CF808185FFEDCFCE010E9469
:100380003601E9CFDF91CF9108953FB7F89480917E
:100390002B0190912C01A0912D01B0912E0126B539
:1003A000A89B05C02F3F19F00196A11DB11D3FBFAD
:1003B000BA2FA92F982F8827BC01CD01620F711D7C
:1003C000811D911D42E0660F771F881F991F4A9576
:1003D000D1F708951F920F920FB60F9211242F9309
:1003E0003F934F935F936F937F938F939F93AF93BD
:1003F000BF93EF93FF9383E391E00E943601FF9157
:10040000EF91BF91AF919F918F917F916F915F918C
:100410004F913F912F910F900FBE0F901F90189505
:100420001F920F920FB60F9211242F938F939F93C9
:10043000EF93FF93E0914301F09144018081E091BB
:100440004901F0914A0182FD1BC0908180914C01CD
:100450008F5F8F7320914D01821741F0E0914C0125
:10046000F0E0ED5CFE4F958F80934C01FF91EF9192
:100470009F918F912F910F900FBE0F901F90189505
:100480008081F4CF1F920F920FB60F9211242F93F9
:100490003F938F939F93AF93BF9380912F01909140
:1004A0003001A0913101B091320130912A0123E055
:1004B000230F2D3758F50196A11DB11D20932A0158
:1004C00080932F0190933001A0933101B0933201BA
:1004D00080912B0190912C01A0912D01B0912E01C2
:1004E0000196A11DB11D80932B0190932C01A09327
:1004F0002D01B0932E01BF91AF919F918F913F91AC
:100500002F910F900FBE0F901F90189526E8230F84
:100510000296A11DB11DD2CFE3E3F1E01382128256
:1005200088EE93E0A0E0B0E084839583A683B78350
:1005300084E091E09183808385EC90E095878487C7
:1005400084EC90E09787868780EC90E0918B808B9D
:1005500081EC90E0938B828B82EC90E0958B848B86
:1005600086EC90E0978B868B118E128E138E148EF4
:10057000E0EDF1E01682178210861186128613864E
:100580001486158616861786108A118A128A138A8F
:10059000148A158A0895789484B5826084BD84B5E0
:1005A000816084BD85B5826085BD85B5816085BD6E
:1005B00080916E00816080936E0010928100809126
:1005C00081008260809381008091810081608093AE
:1005D0008100809180008160809380008091B100D3
:1005E00084608093B1008091B00081608093B000FE
:1005F00080917A00846080937A0080917A00826092
:1006000080937A0080917A00816080937A00809153
:100610007A00806880937A001092C10010921202D2
:100620001092130210921402109215021092D2012D
:100630001092D3011092D4011092D50168EB7BE0A7
:1006400080E090E00E9487000E94C5014B015C01A0
:1006500048EEC42E43E0D42EE12CF12C0E94C501BB
:10066000681979098A099B09683E734081059105DB
:10067000A8F321E0C21AD108E108F10888EE880E3B
:1006800083E0981EA11CB11CC114D104E104F10443
:1006900029F7E0914301F091440182E08083E091E9
:1006A0003F01F09140011082E0914101F09142013F
:1006B00080E1808310924B01E0914701F091480165
:1006C00086E08083E0914501F09146018081806160
:1006D0008083E0914501F0914601808188608083AC
:1006E000E0914501F0914601808180688083E0912E
:1006F0004501F091460180818F7D80832FB7F8946A
:1007000080912F0190913001A0913101B09132017F
:100710002FBF8093D2019093D301A093D401B093C3
:10072000D50140E150E062E171E083E391E00E9495
:10073000B8006AE070E080E090E00E94870081E00D
:100740008093E6012FB7F89480912F0190913001AA
:10075000A0913101B09132012FBF8093D2019093CB
:10076000D301A093D401B093D50146E050E063E2F9
:1007700071E083E391E00E94B800CDE9D0E0FE0192
:10078000249109E810E0F8018491882399F090E021
:10079000880F991FFC01E859FF4FA591B491FC0106
:1007A000EE58FF4F859194918FB7F8949C91292B27
:1007B0002C938FBF91EBE92E90E0F92E20E0C22E12
:1007C00020E0D22EF7018491FE019491F80124914A
:1007D0002223B9F0882339F0833039F1E0F48130F5
:1007E00051F1823061F1E22FF0E0EE0FFF1FEE5881
:1007F000FF4FA591B4918FB7F8942C91922B9C93B5
:100800008FBFC114D104F1F20E9422018823D1F2DA
:100810000E940000D7CF8730A9F08830C9F084301B
:1008200011F7809180008F7D03C0809180008F77C9
:1008300080938000D8CF84B58F7784BDD4CF84B522
:100840008F7DFBCF8091B0008F778093B000CBCFAE
:100850008091B0008F7DF9CFEE0FFF1F0590F491CE
:08086000E02D0994F894FFCF8C
:10086800000000005801B800E500A5011601F400D9
:100878000801564D4450565F317C315F564D445007
:0A088800560A00564D4450525F001E
:00000001FF
