:100000000C949A000C94C2000C94C2000C94C20090
:100010000C94C2000C94C2000C94C2000C94C20058
:100020000C94EB0A0C94C2000C94C2000C94C20015
:100030000C94C2000C94C2000C94C2000C94C20038
:100040000C9486090C94C2000C9454090C942E094B
:100050000C94C2000C94C2000C94C2000C94C20018
:100060000C94D0090C94C2000086227E6D00000220
:1000700030066300044080523F065B4F666D7D276B
:100080007F6F0000004800535F777F393F79713DF3
:1000900076061E693815373F7367316D783E2A1D25
:1000A000766E5B39640F0008205F7C585E7B316F91
:1000B00074040E753055545C7367506D781C2A1D9E
:1000C000766E47460670013F065B4F666D7D077F83
:1000D0006F777C395E797100000000240027002AC8
:1000E0000000000000250028002B00000000080090
:1000F00002010000030407000000000000000000EF
:100100000000002300260029000404040404040461
:1001100004020202020202030303030303010204B6
:100120000810204080010204081020010204081079
:100130002000BB0B11241FBECFEFD8E0DEBFCDBF28
:1001400024E0AAE2B2E001C01D92A03BB207E1F7B1
:1001500012E0A0E0B1E0E8EDF3E202C005900D92FC
:10016000AA32B107D9F710E0CAE9D0E004C021975C
:10017000FE010E94E411C939D107C9F70E94440C5D
:100180000C94EA110C940000ECEBF2E0A089B18928
:1001900082E08C93A485B5851C92A685B78584E4FE
:1001A0008C93108EA489B58986E08C93A289B3893B
:1001B0008C9180618C93A289B3898C9188608C9397
:1001C000A289B3898C9180688C930288F389E02D91
:1001D00080818F7D808308950F931F93CF93DF934A
:1001E000E0918604F09187044091BB02808510E085
:1001F000481708F064C0142F11700091BA02011161
:100200004FC0842F90E0880F991FE80FF91F0184D9
:10021000F285E02D2CEE3FEF112311F024E130E0C8
:10022000C091B802D091B9022C0F3D1FC90163E4FF
:1002300070E00E94BC11E617F70760F0C90168E2A0
:1002400070E00E94BC116F5F7F4F81E090E06E17FD
:100250007F0710F52C0F3D1FC90163E470E00E9479
:10026000BC11E617F70750F0C90168E270E00E9480
:10027000BC116F5F7F4F6E177F0760F42C0F3D1F1F
:10028000C90163E470E00E94BC11E617F707E8F4C7
:100290001FEF15C082E090E09093B7028093B60202
:1002A0000F5F0093BA028091B6029091B7020817CF
:1002B000190628F01092BA024F5F4093BB02812FBB
:1002C000DF91CF911F910F910895C90168E270E00D
:1002D0000E94BC116F5F7F4F6E177F07C8F283E0EB
:1002E00090E0DACFCF92DF92EF92FF920F931F93BD
:1002F0002FB7F894C090B202D090B302E090B4024D
:10030000F090B5022FBF6C0D7D1D8E1D9F1D4FB748
:10031000F8940091B2021091B3022091B40230918E
:10032000B5024FBF0C151D052E053F0528F06017BF
:1003300071078207930758F71F910F91FF90EF9075
:10034000DF90CF900895AF92BF92CF92DF92EF925D
:10035000FF920F931F93CF93DF936C017B018B016F
:10036000040F151FEB015E01AE18BF08C017D107BF
:1003700059F06991D601ED91FC910190F081E02D49
:10038000C6010995892B79F7C501DF91CF911F919E
:100390000F91FF90EF90DF90CF90BF90AF900895B6
:1003A0000895FC01538D448D252F30E0842F90E07B
:1003B000821B930B541710F0CF9608950197089560
:1003C000FC01918D828D981761F0A28DAE0FBF2F29
:1003D000B11D5D968C91928D9F5F9F73928F90E07F
:1003E00008958FEF9FEF0895FC01918D828D9817EE
:1003F00031F0828DE80FF11D858D90E008958FEF2B
:100400009FEF0895FC01918D228D892F90E0805CF3
:100410009F4F821B91098F73992708958CEB92E06F
:100420000E94020221E0892B09F420E0822F089526
:1004300080E090E0892B29F00E940E0281110C943B
:1004400000000895FC01A48DA80FB92FB11DA35A77
:10045000BF4F2C91848D90E001968F739927848FE4
:10046000A689B7892C93A089B1898C918370806407
:100470008C93938D848D981306C00288F389E02DA8
:1004800080818F7D80830895EF92FF920F931F9359
:10049000CF93DF93EC0181E0888F9B8D8C8D981337
:1004A0001AC0E889F989808185FF15C09FB7F89443
:1004B000EE89FF896083E889F9898081837080648F
:1004C00080839FBF81E090E0DF91CF911F910F91DA
:1004D000FF90EF900895F62E0B8D10E00F5F1F4FE9
:1004E0000F731127E02E8C8D8E110CC00FB607FCF8
:1004F000FACFE889F989808185FFF5CFCE010E9486
:100500002202F1CFEB8DEC0FFD2FF11DE35AFF4FCF
:10051000F0829FB7F8940B8FEA89FB898081806213
:10052000CFCFCF93DF93EC01888D8823B9F0AA89D0
:10053000BB89E889F9898C9185FD03C0808186FD9E
:100540000DC00FB607FCF7CF8C9185FFF2CF8081ED
:1005500085FFEDCFCE010E942202E9CFDF91CF913E
:100560000895833081F028F4813099F08230A9F029
:1005700008958730A9F08830C9F08430B1F48091B3
:1005800080008F7D03C0809180008F7780938000F2
:10059000089584B58F7784BD089584B58F7DFBCF92
:1005A0008091B0008F778093B00008958091B00063
:1005B0008F7DF9CFCF93DF93282F30E0F901E551FC
:1005C000FF4F8491F901E35EFE4FD491F901E75F9B
:1005D000FE4FC491CC23A1F081110E94B102EC2FF7
:1005E000F0E0EE0FFF1FE150FF4FA591B491EC91A9
:1005F000ED2381E090E009F480E0DF91CF91089550
:1006000080E090E0FACF1F93CF93DF93282F30E064
:10061000F901E551FF4F8491F901E35EFE4FD4915A
:10062000F901E75FFE4FC491CC23A9F0162F811189
:100630000E94B102EC2FF0E0EE0FFF1FEF51FF4FD1
:10064000A591B4918FB7F894EC91111108C0D09591
:10065000DE23DC938FBFDF91CF911F910895DE2BB6
:10066000F8CFCF93DF9390E0FC01E35EFE4F24913F
:10067000875F9E4FFC0184918823D1F090E0880F22
:10068000991FFC01E952FF4FA591B491FC01EF5174
:10069000FF4FC591D49161110EC09FB7F8948C9112
:1006A000E22FE0958E238C932881E223E8839FBF7D
:1006B000DF91CF9108958FB7F894EC91E22BEC93F2
:1006C0008FBFF6CF3FB7F89480919C0290919D0226
:1006D000A0919E02B0919F0226B5A89B05C02F3F16
:1006E00019F00196A11DB11D3FBFBA2FA92F982F58
:1006F0008827BC01CD01620F711D811D911D43E052
:10070000660F771F881F991F4A95D1F7089520918A
:100710005102260F3327331F21323105ECF420918B
:100720007502FC0190E080E0243069F082E00895D9
:10073000A09151022191AC014F5C5D4FA40FB52FE8
:10074000B11D2C930196861798F380915102680F82
:100750006093510280E0089581E008958FEF9FEF4C
:1007600008958FEF9FEF089580912A0290E0919570
:10077000819591090895CF93DF93CB01EA01642F0E
:100780000E948703CE01DF91CF910895CF93DF932D
:100790001F92CDB7DEB7698361E0CE0101960E945A
:1007A000870381E090E00F90DF91CF91089590E072
:1007B00080E00895CF92DF92EF92FF921F93CF9344
:1007C000DF93EC0160E08D810E94310361E08D8157
:1007D0000E94030398E0C92ED12C10E0E12EF12CE9
:1007E000F594E7941E2D60E08E810E940303E8815A
:1007F000F981028CF38DE02DCE0109958D810E9447
:10080000DA02892B09F0106861E08E810E940303EF
:10081000E881F981028CF38DE02DCE01099581E00C
:10082000C81AD108D9F661E08D810E94310360E0D9
:100830008D810E940303812FDF91CF911F91FF9043
:10084000EF90DF90CF9008950F931F93CF93DF9396
:10085000EC01162F042FE881F98102A0F3A1E02D0D
:1008600064E40995E881F981048CF58DE02DCE01D1
:100870000995612F606CE881F98100A0F1A1E02D5C
:10088000CE010995E881F98100A0F1A1E02D602F4A
:10089000CE010995E881F981068CF78DE02DCE0116
:1008A000DF91CF911F910F9109941F93CF93DF9305
:1008B000EC01162FE881F981048CF58DE02D099566
:1008C000E881F98100A0F1A1E02D612FCE01099509
:1008D000E881F981068CF78DE02DCE01DF91CF9173
:1008E0001F910994FF920F931F93CF93DF93EC0115
:1008F000F62E08E010E060E08E810E940303E8819C
:10090000F981028CF38DE02DCE0109956F2D617078
:100910008D810E940303E881F981028CF38DE02D23
:10092000CE010995F69461E08E810E940303E8816F
:10093000F981028CF38DE02DCE010995015011094A
:10094000D1F6E881F981028CF38DE02DCE01DF91A3
:10095000CF911F910F91FF900994CF93DF93EC01FA
:1009600061E08F810E940303E881F981028CF38D9D
:10097000E02DCE01DF91CF910994CF93DF93EC016D
:1009800060E08F810E940303E881F981028CF38D7E
:10099000E02DCE01DF91CF91099460E070E0CB01B2
:1009A0000895FC01848108957F928F929F92AF9267
:1009B000BF92CF92DF92EF92FF920F931F93CF934C
:1009C000DF937C016A01722E8B01D0E0C0E0A22E81
:1009D000B12C88248394912CD70114968C9190E0AB
:1009E0009C012A193B09C217D3070CF5F801419164
:1009F0008F014423E1F08C1B9D0B0197940102C0F1
:100A0000220F331F8A95E2F7C9018C219D2121E035
:100A1000892B09F420E06C2F670DD701ED91FC9133
:100A20000688F789E02DC70109952196D5CFDF917A
:100A3000CF911F910F91FF90EF90DF90CF90BF90DB
:100A4000AF909F908F907F900895CF92DF92EF921A
:100A5000FF920F931F93CF93DF937C016B01042FC1
:100A600010E0D0E0C0E0C017D10781F0F601EC0F34
:100A7000FD1F4491D701ED91FC910288F389E02D8F
:100A800020E06C2FC70109952196EDCFDF91CF9122
:100A90001F910F91FF90EF90DF90CF900895242F3A
:100AA000DC01ED91FC910288F389E02D40E009948E
:100AB0009F92AF92BF92CF92DF92EF92FF920F93ED
:100AC0001F93CF93DF937C01C1E0C42ED12C8AE029
:100AD000A82EB12CD70114964C914C17F0F096012A
:100AE0000C2E02C0359527950A94E2F721704C1B15
:100AF000CB01B5010E94D011962ED72FD701ED91D1
:100B0000FC910084F185E02D07EC10E0682FC7010F
:100B10000995692D7D2FCF5FDDCFDF91CF911F919B
:100B20000F91FF90EF90DF90CF90BF90AF909F908C
:100B300008950F931F93E62F642FEF70E00FF12FAE
:100B4000F11D4491DC01ED91FC910288F389E02DC7
:100B50001F910F910994E42F440FFF0BE85BFF4FA7
:100B60004491DC01ED91FC910288F389E02D099418
:100B7000362FDC01ED91FC910480F581E02D60E0E1
:100B8000211160E8642B432F09940895242FDC0180
:100B900012963C911297431740F4ED91FC9104A0FA
:100BA000F5A1E02D462F622F099408950F931F930E
:100BB000CF93DF93EC01E881F98102A0F3A1E02D4E
:100BC00060E40995E881F981048CF58DE02DCE0172
:100BD0000995E881F98100A0F1A1E02D60ECCE013A
:100BE000099510E000E0E881F9818A8180171106FB
:100BF000A9F0A4F000A0F1A1E02D60E0CE010995DC
:100C00008B81893040F0E881F98100A0F1A1E02DCD
:100C100060E0CE0109950F5F1F4FE5CF068CF78D81
:100C2000E02DCE01DF91CF911F910F910994DC014E
:100C3000ED91FC9102A0F3A1E02D611106C060E8E6
:100C4000483008F047E0642B099468E8F9CF0F9327
:100C50001F93CF938C01DC01ED91FC91048CF58DF9
:100C6000E02D0995D801ED91FC9100A0F1A1E02DB6
:100C700069E4C8010995D801ED91FC9106A0F7A19E
:100C8000E02DC8010995C82FD801ED91FC91068C83
:100C9000F78DE02DC801099560E070E0CB01C43408
:100CA00070F0C83480F4C45461E070E080E090E0FB
:100CB00004C0660F771F881F991FCA95D2F7CF917E
:100CC0001F910F910895C03510F4C854EDCFC83569
:100CD00010F4CC54E9CFC03610F4C055E5CFC83677
:100CE00010F4C455E1CFC03710F4C855DDCFC83774
:100CF000D8F6CC55D9CFEF92FF921F93CF93DF93C5
:100D0000EC0160E08E810E94030360E08D810E940F
:100D1000310361E08D810E94030388E0E82EF12C0D
:100D200010E0110F61E08E810E940303E881F981D8
:100D3000028CF38DE02DCE0109958D810E94DA029F
:100D4000892B09F0116060E08E810E940303E88125
:100D5000F981028CF38DE02DCE01099581E0E81A2E
:100D6000F108F9F660E08E810E94030360E08D8156
:100D70000E94310361E08D810E940303E881F981C3
:100D8000028CF38DE02DCE01099561E08E810E94E9
:100D90000303E881F981028CF38DE02DCE010995E2
:100DA0008D810E94DA02F82E60E08E810E9403039A
:100DB000F11004C060E08D810E94030361E08D8129
:100DC0000E943103812FDF91CF911F91FF90EF900F
:100DD00008950F931F93CF93DF93EC01062F4830B4
:100DE00008F047E011E0140F183009F410E0E88132
:100DF000F981048CF58DE02DCE010995E881F9810A
:100E000000A0F1A1E02D68E4CE010995E881F98107
:100E100000A0F1A1E02D80E1189FA00111248B8199
:100E200060E0873009F468E0402B642BCE0109951F
:100E3000E881F981068CF78DE02DCE01DF91CF910D
:100E40001F910F9109940F931F93CF93DF938C0100
:100E5000D0E0C0E0D80112968C9112978C171D0635
:100E600061F05CF0ED91FC9104A0F5A1E02D40E073
:100E70006C2FC80109952196EDCFDF91CF911F917D
:100E80000F9108950F931F93CF93DF93EC01162FCB
:100E9000042FE881F981048CF58DE02D0995612FEF
:100EA000660F6866E881F98100A0F1A1E02DCE010E
:100EB0000995E881F98100A0F1A1E02D602FCE0114
:100EC0000995E881F981068CF78DE02DCE01DF913F
:100ED000CF911F910F910994FF920F931F93CF937E
:100EE000DF93EC01F62E08E010E060E08E810E94B6
:100EF0000303E881F981028CF38DE02DCE01099581
:100F00006F2D661F6627661F8D810E940303FF0CED
:100F100061E08E810E940303E881F981028CF38DE8
:100F2000E02DCE01099501501109F9F6E881F9810A
:100F3000028CF38DE02DCE010995E881F981028CB8
:100F4000F38DE02DCE01099560E08E810E940303B0
:100F500060E08D810E943103E881F981028CF38D7C
:100F6000E02DCE01099561E08E810E940303E881A6
:100F7000F981028CF38DE02DCE0109958D810E94BF
:100F8000DA02811104C060E08D810E94030361E0F8
:100F90008D81DF91CF911F910F91FF900C943103C0
:100FA000CF93DF93EC0160E08E810E94030360E049
:100FB0008D810E940303E881F981028CF38DE02D7D
:100FC000CE01099561E08E810E94030361E08D816D
:100FD0000E940303E881F981028CF38DE02DCE019C
:100FE000DF91CF910994CF93DF93EC0161E08D8184
:100FF0000E94030361E08E810E940303E881F9816E
:10100000028CF38DE02DCE01099560E08D810E9468
:10101000030360E08E810E940303E881F981028C62
:10102000F38DE02DCE01DF91CF91099486E090E021
:101030000197F1F70895FC0101900020E9F731973D
:10104000AF01481B590BBC018CEB92E00C94A3013F
:10105000CF93DF930E941B08EC018AE691E00E9487
:101060001B088C0F9D1FDF91CF9108957F928F9267
:101070009F92AF92BF92CF92DF92EF92FF920F9327
:101080001F93CF93DF93782EEA01E0918604F091CD
:1010900087043F968B010C5E1F4F43E4C42ED12C76
:1010A000C801B6010E94BC115B0158E2E52EF12C8B
:1010B000C801B7010E94BC118B010F5F1F4F6497DD
:1010C000CE01B6010E94BC114B01CE01B7010E94B6
:1010D000BC11EB01219624513109C901B6010E94CE
:1010E000BC116B01C901B7010E94BC116F5F7F4F3A
:1010F00020E030E0A901A0E0808191818A159B0564
:1011000070F10817190758F18281938188159905A4
:1011100018F1C817D90728F1220F331F441F551F94
:1011200021603496AF5F7A12E7CF20938204309328
:101130008304409384045093850481E0DF91CF9130
:101140001F910F91FF90EF90DF90CF90BF90AF90E5
:101150009F908F907F9008958C159D0510F480E0EE
:10116000EDCF68177907D8F3220F331F441F551F9F
:10117000D8CF1F93CF93DF9385ED8093BC008091F0
:101180002D0290912E02A0912F02B091300207966D
:10119000A11DB11D23E0B695A795979587952A9532
:1011A000D1F72091BC0024FD03C01092750252C0FB
:1011B00040912D0250912E0260912F0270913002C9
:1011C000452B462B472B69F30097A105B10541F04C
:1011D0002AE12A95F1F700C00197A109B109E1CFF1
:1011E00080912C02C1E0C0932B02882399F1D09109
:1011F000B8001091BA008091BC008A7B8093BC003B
:1012000060E082E10E94030360E083E10E94030347
:1012100010927502C09377021092760261E082E12B
:101220000E94030361E083E10E9403038091B900FF
:101230008E7F8093B9008091B9008D7F8093B90033
:1012400080E28093B80085E48093BC001093BA00DC
:10125000D093B800DF91CF911F9108951F920F9204
:101260000FB60F9211242F933F934F935F936F9379
:101270007F938F939F93AF93BF93EF93FF938CEBE9
:1012800092E00E942202FF91EF91BF91AF919F9156
:101290008F917F916F915F914F913F912F910F901F
:1012A0000FBE0F901F9018951F920F920FB60F92BE
:1012B00011242F938F939F93EF93FF93E091CC0290
:1012C000F091CD028081E091D202F091D30282FDB3
:1012D0001BC090818091D5028F5F8F732091D602C1
:1012E000821741F0E091D502F0E0E454FD4F958F74
:1012F0008093D502FF91EF919F918F912F910F9045
:101300000FBE0F901F9018958081F4CF1F920F92FF
:101310000FB60F9211242F933F938F939F93AF9308
:10132000BF938091B2029091B302A091B402B091A8
:10133000B50230919B0226E0230F2D3758F5029617
:10134000A11DB11D20939B028093B2029093B30222
:10135000A093B402B093B50280919C0290919D023B
:10136000A0919E02B0919F020196A11DB11D809394
:101370009C0290939D02A0939E02B0939F02BF9106
:10138000AF919F918F913F912F910F900FBE0F9032
:101390001F90189529E8230F0396A11DB11DD2CFE8
:1013A0001F920F920FB60F9211242F933F934F93DA
:1013B0005F936F937F938F939F93AF93BF93EF93BD
:1013C000FF938091B900887F803609F44AC0F0F518
:1013D000883209F4A5C018F5803109F499C0B8F431
:1013E000882309F4F5C0883009F492C0FF91EF9189
:1013F000BF91AF919F918F917F916F915F914F912D
:101400003F912F910F900FBE0F901F90189588312C
:1014100009F486C0803251F78093740214C080347E
:1014200009F49BC040F48033B9F38833F9F6809314
:10143000740285ECAEC0803509F483C0883509F4A8
:1014400094C0883499F60E94B908D0CF883909F43D
:101450008AC038F5883729F050F4883611F0803783
:1014600029F683E0809375021092730255C0883884
:1014700009F479C0803919F0803809F0B7CF80912C
:101480007302803208F06FC0E091730281E08E0F2A
:10149000809373028091BB00F0E0ED5AFD4F808392
:1014A0003BC0803B39F0D0F4803A09F477C0883AE9
:1014B00009F09CCF84E08093750210925202109242
:1014C0005102F0E0E0E009958091510281110FC0D6
:1014D00081E0809351021092310209C0803C09F4EE
:1014E000A8CF883C09F4A5CF883B09F07FCFE091D5
:1014F000520281E08E0F80935202F0E0EF5CFD4FCC
:1015000080818093BB00909152028091510229C04A
:1015100080919A028093BB0085EC8093BC0066CFDB
:101520009091990280919802981758F5E09199024C
:1015300081E08E0F80939902F0E0E858FD4F8081A2
:10154000E9CFE091990281E08E0F8093990280911A
:10155000BB00F0E0E858FD4F8083909199028091A4
:1015600098029817C8F285E8D8CFE091990281E0F7
:101570008E0F809399028091BB00F0E0E858FD4FF8
:1015800080838091770281115ECF81E08093760223
:1015900084EA8093BC001092750228CF85EC80937A
:1015A000BC001092750280917302803230F4E09199
:1015B0007302F0E0ED5AFD4F10826091730270E00B
:1015C00083E592E0F0E0E0E00995109273020ECF1F
:1015D0001092740238CF1F920F920FB60F921124FF
:1015E0002F933F934F935F936F937F938F939F932B
:1015F000AF93BF93EF93FF93E091A103F091A20308
:1016000090818091A30398232091A4033091A50396
:101610002F3F320731F02F5F3F4F3093A5032093C8
:10162000A40380919F03811135C0911116C02091B0
:10163000A4033091A5032536310558F01092A60376
:101640003093A9032093A80381E08093A70380939C
:101650009F031092A5031092A40380919404882301
:1016600041F080919304911161C061E0811161C0EA
:101670002D9AFF91EF91BF91AF919F918F917F91A3
:101680006F915F914F913F912F910F900FBE0F90EF
:101690001F90189580919F038130A1F49923E9F25E
:1016A000E091A7038E0F8093A703F0E0EE0FFF1FDA
:1016B000E156FC4F2091A4033091A5033287218786
:1016C00082E0C5CF80919F03823039F5911119C016
:1016D000E091A70381E0E43620F08093A60383E045
:1016E000B6CF8E0F8093A703F0E0EE0FFF1FE156F9
:1016F000FC4F2091A4033091A5033287218781E01C
:10170000A6CF2091A4033091A5032536310508F416
:10171000A4CF83E080939F03A0CF80919F03833069
:1017200009F09BCF992309F494CF97CF882321F018
:1017300060E00E9403039DCF2D989BCFAFE9B3E0FB
:1017400011968C93119790E0FC01E35EFE4FE491BB
:101750001496EC931497FC01E75FFE4FE491F0E0E0
:10176000EE0FFF1FE150FF4F8591949113969C93CC
:101770008E93129708951F93CF93DF93ECEBF2E0D3
:101780001382128288EE93E0A0E0B0E08483958318
:10179000A683B78384E091E09183808385EC90E019
:1017A0009587848784EC90E09787868780EC90E02B
:1017B000918B808B81EC90E0938B828B82EC90E01C
:1017C000958B848B86EC90E0978B868B118E128E96
:1017D000138E148EE9E5F3E01682178210861186C7
:1017E000128613861486158616861786108A118A25
:1017F000128A138A148A158ACFE9D3E0D093A404FD
:10180000C093A30480E00E949E0BE3E9F4E0108201
:101810001182D0938704C093860486E00E949E0BB9
:10182000C0E7D4E086E191E09983888318E01B83C8
:101830008BE08D839CE09E838F8384E08A838C83FE
:1018400061E08BE00E94310361E08CE00E94310393
:1018500061E08BE00E94310361E08BE00E940303B2
:1018600061E08CE00E94030382E491E09983888325
:10187000CE010E9423071B8347E061E0CE01DF9188
:10188000CF911F910C94E906CF93DF93CDB7DEB7CC
:10189000A1970FB6F894DEBF0FBECDBF789484B584
:1018A000826084BD84B5816084BD85B5826085BD5C
:1018B00085B5816085BD80916E00816080936E00EA
:1018C00010928100809181008260809381008091DC
:1018D000810081608093810080918000816080938D
:1018E00080008091B10084608093B1008091B0004D
:1018F00081608093B00080917A00846080937A0048
:1019000080917A00826080937A0080917A008E7F45
:1019100080937A0080917A00806880937A00109298
:10192000C10010929B0310929C0310929D03109291
:101930009E0310925B0310925C0310925D03109261
:101940005E0368EB7BE080E090E00E9472010E9401
:1019500062032B013C0188EE882E83E0982EA12C97
:10196000B12C0E9462036419750986099709683EC3
:10197000734081059105A8F321E0821A9108A1081E
:10198000B10888EE480E83E0581E611C711C81145A
:101990009104A104B10429F70E94C4002FB7F89460
:1019A0008091B2029091B302A091B402B091B502BD
:1019B0002FBF80935B0390935C03A0935D03B09370
:1019C0005E038DE691E00E941B086AE070E080E013
:1019D00090E00E94720181E080936F032FB7F8942A
:1019E0008091B2029091B302A091B402B091B5027D
:1019F0002FBF80935B0390935C03A0935D03B09330
:101A00005E038EE791E00E941B08F89482E08093C9
:101A1000B0008093B10082E38093B3008093B40060
:101A20001092B20084E08093700080919F03833015
:101A300011F410929F03789460E08091A0030E94BB
:101A400031030E94C40085E891E00E94280810E15B
:101A5000212E312C88248A94982C5401B5E0CB2E69
:101A6000D12C85E891E00E94280880919F03833063
:101A700009F08CC08091A002811107C08EE891E02E
:101A80000E94280881E08093A00288EA93E0909366
:101A9000AE028093AD028091A70390E09093B002D4
:101AA0008093AF022091A603222321F01092A60377
:101AB0001092A7032091A6032093B1021092A502D1
:101AC0001092A6021092A7021092A80220E820937A
:101AD00081042091AA033091AB03265831092C359B
:101AE000310508F09BC08430910509F05CC08091FD
:101AF000AC039091AD038197489708F08FC0809117
:101B0000AE039091AF030897089708F087C0109232
:101B1000A9028092A5029092A602A092A702B0927A
:101B2000A80281E88093810487E090E09093790493
:101B3000809378042091A5023091A6024091A702DB
:101B40005091A80219A28E010F5D1F4FCA01B90161
:101B50002AE030E040E050E00E948011605DF80132
:101B600062938F01211531054105510579F73097B1
:101B700019F0CF010E941B088AE691E00E941B0821
:101B800080919F03833011F410929F0380E090E0D6
:101B9000892B09F466CF0E940E02882309F45ECFD8
:101BA0000E9400005BCF84349105C1F58091AC03A5
:101BB0009091AD03825491098F9780F520E332E034
:101BC00040E956E060E372E080E20E943608882334
:101BD00029F1E091AD02F091AE02EA57FF4F80810A
:101BE000918108970897D0F48091820490918304A2
:101BF000A0918404B09185048093A5029093A602DD
:101C0000A093A702B093A80280E28093A90287E084
:101C100090E09093A2028093A10288CF4091AF02FE
:101C20005091B0024A31510508F453C0E091AD0221
:101C3000F091AE02808191810A9780F41092A902FE
:101C40008092A5029092A602A092A702B092A8024A
:101C500081E08093810482E190E068CF828193816A
:101C600084974A97B0F523E030E060E0412C512C96
:101C70003201848195810897089758F5868197816C
:101C800082319105E0F0809720F5440C551C661CCC
:101C9000771C689440F86F5F2E5F3F4F349624178F
:101CA000350738F36093A9024092A5025092A6022C
:101CB0006092A7027092A80282E190E0AACF8930D8
:101CC000910538F0419728F4440C551C661C771C8C
:101CD000E2CF81E08093BB02E9E7F3E0F093B90241
:101CE000E093B8021092BA020E94EC00813009F031
:101CF00075C0412C512C320110E0E0918604F09126
:101D0000870490858091BB028917E0F40E94EC0063
:101D1000082F0E94EC0001110BC0813009F05EC059
:101D2000440C551C661C771C689440F81F5FE5CF77
:101D3000013009F053C0811151C0440C551C661C80
:101D4000771CF4CF10938004409282045092830455
:101D50006092840470928504842D8F7390E0909338
:101D60007D0480937C04920146E0369527954A9540
:101D7000E1F72F71332730937B0420937A0492018B
:101D800022273071232B31F4805C9F4F90937D0488
:101D900080937C0480E853FC88E8809381048185EB
:101DA0009285833E984028F48091810481608093DD
:101DB00081048EE090E090937904809378041093EE
:101DC000A9024092A5025092A6026092A7027092C8
:101DD000A8029093A2028093A102ACCEE091860467
:101DE000F09187048385948588974D9708F046C0C5
:101DF000858596850C970B9708F040C083E080930B
:101E0000BB028CEB91E09093B9028093B8021092E0
:101E1000BA020E94EC00813089F50E94EC00182F74
:101E200081112CC0412C512C3201E0918604F0919B
:101E3000870490858091BB02891708F071C00E94C9
:101E4000EC00F82E1330B1F00E94EC00082F133094
:101E500021F40E94EC00081311C021E0F21256C0D8
:101E600001110CC0440C551C661C771C689440F88A
:101E70001F5FDBCF0E94EC00F81631F38091AF02B8
:101E80009091B0028236910508F48FC0E091AD02C6
:101E9000F091AE0282819381C397859708F085C047
:101EA000848195814A97439708F07FC020EB31E009
:101EB00040E155E060EB71E08CE20E943608882337
:101EC00009F473C080E38093A90280918204909109
:101ED0008304A0918404B09185048093A50290931B
:101EE000A602A093A702B093A80282E090E290938A
:101EF000A4028093A302E8E0F0E0F093A202E09352
:101F0000A102F0937904E093780414CEF110B6CFD7
:101F1000013009F0B3CF440C551C661C771CA8CFC8
:101F2000109380044092820450928304609284044F
:101F300070928504242D30E0852D1432F8F480E869
:101F40008093810430937D0420937C04852D90E060
:101F500090937B0480937A0460FE03C088E88093AA
:101F60008104818592858A389C4028F4809181047F
:101F70008160809381048FE090E01DCF90E9909381
:101F8000810457FE03C098E99093810430937D0447
:101F900020937C048F7790E090937B0480937A0465
:101FA00070927F0460927E04DCCF8091AF029091AA
:101FB000B002CC97E9F5E091AD02F091AE028281DA
:101FC0009381865891098C35910590F5848195818E
:101FD000825491098F9760F520E332E040E956E0A2
:101FE00060E372E08CE10E943608882309F1E091F9
:101FF000AD02F091AE02EA58FF4F808191810897BF
:102000000897B0F48091820490918304A091840495
:10201000B09185048093A5029093A602A093A70295
:10202000B093A8028CE18093A90286E090E0F1CD04
:102030002091AF023091B002E091AD02F091AE027A
:10204000828193812232310511F5AC01485051094A
:1020500047305105E0F4DF01AE5BBF4F4D915C911D
:10206000485051094730510590F41092A9028092CE
:10207000A5029092A602A092A702B092A80281E0C7
:1020800080938104D0927904C092780453CD8D5707
:10209000910987359105B0F52432310598F1848195
:1020A0009581CE978C9770F52EE032E04AE256E0AB
:1020B0006EE072E080E10E943608882319F1E09119
:1020C000AD02F091AE02EA5BFF4F808191810897EB
:1020D0000797C0F48091820490918304A0918404B6
:1020E000B09185048093A5029093A602A093A702C5
:1020F000B093A80280E18093A902D092A202C0927C
:10210000A102C0CFE091AD02F091AE028281938135
:10211000815491098F9708F050C08091AF0290913F
:10212000B00284309105E9F48481958181974897C4
:1021300008F043C08681978108970897F0F51092C0
:10214000A9028092A5029092A602A092A702B09244
:10215000A80281E08093810430927904209278046F
:10216000E9CC8434910548F18481958181549109A9
:102170008E9718F526E232E042E756E066E272E01A
:1021800080E20E9436088823C1F0809182049091F9
:102190008304A0918404B09185048093A502909358
:1021A000A602A093A702B093A80280E28093A9029E
:1021B0003092A2022092A102CFCFE0918604F0914A
:1021C00087048085823279F5E091AD02F091AE020C
:1021D000828193810497059730F5848195810B97CF
:1021E0000A9708F52CE033E04CE157E064E071E039
:1021F0008FE00E9436088823B1F08091820490918C
:102200008304A0918404B09185048093A5029093E7
:10221000A602A093A702B093A8028FE08093A90220
:10222000E3E0F0E06ACEE090AF02F090B002F6E0BA
:10223000EF16F10408F4A4CCE091AD02F091AE02E7
:10224000329625EC3DE94CE151E803E010E08AE0EC
:10225000682E8481958141905190689EB001699E5D
:10226000700D1124D201AA0FBB1FAA0FBB1FAA0F0A
:10227000BB1F712C6A177B0788F0649CB001659CBA
:10228000700D1124A3E0880F991FAA95E1F7772418
:1022900073946817790710F482E0782E63E971E08F
:1022A00080E091E00E9470119B01AC0127250F5F37
:1022B0001F4F0E151F0569F62093A5023093A60245
:1022C0004093A7025093A80280E28093A902109243
:1022D000A2021092A10210927904109278042ACCE2
:1022E000DB018F939F930E94A211BF91AF91A29F98
:1022F000800D911DA39F900DB29F900D1124089504
:10230000A1E21A2EAA1BBB1BFD010DC0AA1FBB1FF9
:10231000EE1FFF1FA217B307E407F50720F0A21B6B
:10232000B30BE40BF50B661F771F881F991F1A94D8
:1023300069F760957095809590959B01AC01BD0102
:10234000CF0108950E94AD11A59F900DB49F900DEF
:10235000A49F800D911D11240895A29FB001B39FE9
:10236000C001A39F700D811D1124911DB29F700D9E
:10237000811D1124911D0895AA1BBB1B51E107C0AB
:10238000AA1FBB1FA617B70710F0A61BB70B881F05
:10239000991F5A95A9F780959095BC01CD01089594
:1023A00097FB072E16F4009407D077FD09D00E9402
:1023B000BC1107FC05D03EF4909581959F4F089580
:1023C000709561957F4F0895EE0FFF1F0590F49172
:0823D000E02D0994F894FFCF01
:1023D800000000004402A301D10191020202E001C1
:1023E800F401000000001706D605C605C5059905C5
:1023F80058054F052505D404B805D104AB05CD040F
:10240800D001BD04AD04720455042404DA030000AD
:102418000000E9062307C605C505990558054F05B7
:102428002505D404B805D104AB0527061608F3071B
:10243800D0076C07550442077B060D0A00564D4429
:1024480050565F317C315F564D4450560A00564D08
:102458004450525F00436F6E6E6563742100546888
:10246800652066756E6374696F6E206465636F645A
:10247800652826726573756C747329292069732021
:102488006465707265636174656420616E64206D53
:102498006179206E6F7420776F726B20617320658D
:1024A8007870656374656421204A75737420757348
:1024B80065206465636F6465282920776974686F8F
:1024C8007574206120706172616D65746572206138
:1024D8006E6420497252656365697665722E64651B
:1024E800636F6465644952446174612E3C66696532
:0A24F8006C646E616D653E202E00DD
:107800000C94343C0C94513C0C94513C0C94513CE1
:107810000C94513C0C94513C0C94513C0C94513CB4
:107820000C94513C0C94513C0C94513C0C94513CA4
:107830000C94513C0C94513C0C94513C0C94513C94
:107840000C94513C0C94513C0C94513C0C94513C84
:107850000C94513C0C94513C0C94513C0C94513C74
:107860000C94513C0C94513C11241FBECFEFD8E036
:10787000DEBFCDBF11E0A0E0B1E0EAE8FFE702C063
:1078800005900D92A230B107D9F712E0A2E0B1E065
:1078900001C01D92AD30B107E1F70E942D3D0C945F
:1078A000C33F0C94003C982F95959595959595958B
:1078B000905D8F708A307CF0282F295A8091C0000B
:1078C00085FFFCCF9093C6008091C00085FFFCCF60
:1078D0002093C6000895282F205DF0CF982F809127
:1078E000C00085FFFCCF9093C6000895EF92FF92F1
:1078F0000F931F93EE24FF2487018091C00087FD22
:1079000017C00894E11CF11C011D111D81E2E8164D
:1079100081EAF80687E0080780E0180770F3E09135
:107920000401F091050109958091C00087FFE9CF1E
:107930008091C6001F910F91FF90EF9008950E94D3
:10794000763C982F8091C00085FFFCCF9093C600B5
:1079500091362CF490330CF09053892F089597555D
:10796000892F08951F930E949F3C182F0E949F3CCF
:107970001295107F810F1F9108951F93182F882350
:1079800021F00E94763C1150E1F71F9108951F935A
:10799000182F0E94763C803249F0809103018F5F5E
:1079A000809303018530C1F01F9108958091C0003C
:1079B00085FFFCCF84E18093C6008091C00085FFE5
:1079C000FCCF1093C6008091C00085FFFCCF80E102
:1079D0008093C6001F910895E0910401F091050184
:1079E00009951F9108950E94763C803241F0809164
:1079F00003018F5F80930301853081F008958091AA
:107A0000C00085FFFCCF84E18093C6008091C00058
:107A100085FFFCCF80E18093C6000895E0910401CA
:107A2000F09105010995089548EC50E08823A1F0F4
:107A30002D9A28EE33E0FA013197F1F721503040CA
:107A4000D1F72D9828EE33E0FA013197F1F7215064
:107A50003040D1F7815061F708953F924F925F9285
:107A60006F927F928F929F92AF92BF92CF92DF924E
:107A7000EF92FF920F931F93CF93DF93000082E06A
:107A80008093C00080E18093C4001092C50088E11B
:107A90008093C10086E08093C2005098589A259A3E
:107AA00081E00E94143D24E1F22E9EE1E92E85E959
:107AB000D82E0FE0C02E10E1B12EAA24A394B1E479
:107AC0009B2EA6E58A2EF2E57F2EE0E26E2E79E46B
:107AD000572E63E5462E50E5352E0E94763C8033C6
:107AE000B1F18133B9F1803409F46FC0813409F404
:107AF00076C0823409F485C0853409F488C08035A5
:107B000031F1823521F1813511F1853509F485C0D6
:107B1000863509F48DC0843609F496C0843709F49B
:107B200003C1853709F472C1863709F466C08091B4
:107B300003018F5F80930301853079F6E0910401A2
:107B4000F091050109950E94763C803351F60E9420
:107B5000F33CC3CF0E94763C803249F78091C0004D
:107B600085FFFCCFF092C6008091C00085FFFCCF5E
:107B70009092C6008091C00085FFFCCF8092C60025
:107B80008091C00085FFFCCF7092C6008091C0003C
:107B900085FFFCCF6092C6008091C00085FFFCCFBE
:107BA0005092C6008091C00085FFFCCF4092C60075
:107BB0008091C00085FFFCCF3092C6008091C0004C
:107BC00085FFFCCFB092C60088CF0E94763C8638F5
:107BD00008F4BDCF0E94763C0E94F33C7ECF0E9409
:107BE000763C803809F49CC0813809F40BC1823896
:107BF00009F430C1883909F48FC080E00E94C73C85
:107C00006CCF84E10E94BD3C0E94F33C66CF85E0CE
:107C10000E94BD3C0E94F33C60CF0E94763C809362
:107C200006010E94763C809307010E94F33C55CFE9
:107C30000E94763C803309F411C183E00E94BD3C70
:107C400080E00E94C73C49CF0E94763C80930902A5
:107C50000E94763C8093080280910C028E7F809374
:107C60000C020E94763C853409F409C18091080217
:107C700090910902892B89F000E010E00E94763C87
:107C8000F801E85FFE4F80830F5F1F4F809108026D
:107C9000909109020817190788F30E94763C8032F8
:107CA00009F045CF80910C0280FFF5C0609106017C
:107CB00070910701660F771F7093070160930601AB
:107CC000A0910802B09109021097C9F0E8E0F1E034
:107CD0009B01AD014E0F5F1FF999FECF32BD21BD53
:107CE000819180BDFA9AF99A2F5F3F4FE417F5070B
:107CF00099F76A0F7B1F70930701609306018091CB
:107D0000C00085FFFCCFF092C6008091C00085FFC7
:107D1000FCCFB092C600E1CE83E00E94C73CDDCE2E
:107D200082E00E94C73CD9CE0E94763C8093090233
:107D30000E94763C80930802809106019091070191
:107D4000880F991F90930701809306010E94763C4B
:107D5000853409F49AC080910C028E7F80930C02C6
:107D60000E94763C803209F0B8CE8091C00085FF39
:107D7000FCCFF092C600A0910802B09109021097C2
:107D8000C1F180910C02082F0170182F1695117007
:107D9000E0910601F0910701AF014F5F5F4FBA011B
:107DA00020E030E00023B1F4112339F49491809164
:107DB000C00085FFFCCF9093C6002F5F3F4FCB01E3
:107DC0000196FA012A173B0780F4BC014F5F5F4F11
:107DD000002351F3F999FECFF2BDE1BDF89A90B5B9
:107DE0008091C00085FFFCCFE6CF709307016093C0
:107DF00006018091C00085FDE5CE8091C00085FF21
:107E0000F8CFE0CE81E00E94C73C67CE0E94763C6E
:107E1000803209F08CCE8091C00085FFFCCFF092BB
:107E2000C6008091C00085FFFCCFE092C600809123
:107E3000C00085FFFCCFD092C6008091C00085FFB6
:107E4000FCCFC092C6008091C00085FFFCCFB092ED
:107E5000C60043CE80E10E94C73C3FCE0E94763CE4
:107E60000E94763C182F0E94763C112309F483C0AF
:107E7000113009F484C08FE00E94C73C2ECE80915F
:107E80000C02816080930C02F1CE80910C02816023
:107E900080930C0265CF809107018823880F880B9F
:107EA0008A2180930B028091060190910701880F2F
:107EB000991F90930701809306018091080280FF2B
:107EC00009C08091080290910902019690930902DD
:107ED00080930802F894F999FECF1127E0910601EA
:107EE000F0910701C8E0D1E0809108029091090269
:107EF000103091F40091570001700130D9F303E084
:107F000000935700E8950091570001700130D9F3B4
:107F100001E100935700E8950990199000915700EE
:107F200001700130D9F301E000935700E8951395F3
:107F3000103498F011270091570001700130D9F3E7
:107F400005E000935700E89500915700017001305B
:107F5000D9F301E100935700E8953296029709F0B2
:107F6000C7CF103011F00296E5CF11248091C000E8
:107F700085FFC5CEC8CE8EE10E94C73CAECD85E957
:0A7F80000E94C73CAACDF894FFCF81
:027F8A00800075
:040000030000780081
:00000001FF