:100000000C9412010C943A010C943A010C943A01AC
:100010000C943A010C943A010C943A010C943A0174
:100020000C94380F0C943A010C943A010C943A0158
:100030000C943A010C943A010C943A010C943A0154
:100040000C94CF0D0C943A010C949D0D0C94770DEB
:100050000C943A010C943A010C943A010C943A0134
:100060000C94190E0C943A0107634236B79BD8A73B
:100070001A39685618AEBAAB558C1D3CB7CC5763CD
:10008000BD6DEDFD753EF6177231BF000000803F7B
:1000900008000000BE922449123EABAAAA2ABECD97
:1000A000CCCC4C3E00000080BEABAAAAAA3E000009
:1000B0000000BF000000803F000000000008417801
:1000C000D3BB4387D1133D190E3CC3BD4282AD2B38
:1000D0003E68EC8276BED98FE1A93E4C80EFFFBE30
:1000E00001C4FF7F3F00000000000086227E6D00FB
:1000F000000230066300044080523F065B4F666D8D
:100100007D277F6F0000004800535F777F393F797C
:10011000713D76061E693815373F7367316D783E3D
:100120002A1D766E5B39640F0008205F7C585E7B69
:10013000316F74040E753055545C7367506D781CC4
:100140002A1D766E47460670013F065B4F666D7D41
:10015000077F6F777C395E797100000000240027EB
:10016000002A0000000000250028002B003F065B4D
:100170004F666D7D077F6F777C395E7971008622CF
:100180007E6D00000230066300044080523F065B33
:100190004F666D7D277F6F0000004800535F777FBB
:1001A000393F79713D76061E693815373F736731DF
:1001B0006D783E2A1D766E5B39640F0008205F7CE7
:1001C000585E7B316F74040E753055545C73675004
:1001D0006D781C2A1D766E474606700100000000EF
:1001E0002300260029000404040404040404020279
:1001F00002020202030303030303010204081020A6
:1002000040800102040810200102040810200000B0
:1002100000080002010000030407000000000000C5
:100220000000221011241FBECFEFD8E0DEBFCDBFEB
:1002300026E0ACE3B3E001C01D92AC39B207E1F7B0
:1002400013E0A0E0B1E0E0E8F3E402C005900D9215
:10025000AC33B107D9F711E0C2E1D1E004C0219776
:10026000FE010E949320C131D107C9F70E94F4100A
:100270000C94BE210C940000CF93DF93D091140511
:10028000C0911305DC3339F4C43101F560E070E04E
:1002900080E89FE316C06C2F0C2E000C770B880BA8
:1002A000990B0E945E1CDC3478F025E531EC48E2C5
:1002B0005CEB0E94BD1C23E23AE443E95FE30E9449
:1002C000C81DDF91CF910895D33390F06C2FCC0FE0
:1002D000770B880B990B0E945E1C28E338EF42E4F1
:1002E0005CEB0E94BD1C25EA3DEB49EA5FE3E7CFEA
:1002F00020EB33E047E65CEB0E94BD1C22E739EFC0
:1003000047EC5FE3DCCFEDE4F4E0A089B18982E063
:100310008C93A485B5851C92A685B78587E68C93BA
:10032000108EA489B58986E08C93A289B3898C91BB
:1003300080618C93A289B3898C9188608C93A28907
:10034000B3898C9180688C930288F389E02D808139
:100350008F7D808308950F931F93CF93DF93E09158
:100360005D06F0915E0640914C04828510E04817CE
:1003700008F064C0142F117000914B0401114FC09C
:10038000842F90E0880F991FE80FF91F0384F485EC
:10039000E02D2CEE3FEF112311F024E130E0C0916D
:1003A0004904D0914A042C0F3D1FC90163E470E059
:1003B0000E946B20E617F70760F0C90168E270E061
:1003C0000E946B206F5F7F4F81E090E06E177F0788
:1003D00010F52C0F3D1FC90163E470E00E946B20F3
:1003E000E617F70750F0C90168E270E00E946B2041
:1003F0006F5F7F4F6E177F0760F42C0F3D1FC901A1
:1004000063E470E00E946B20E617F707E8F41FEF43
:1004100015C082E090E090934804809347040F5FFA
:1004200000934B04809147049091480408171906E3
:1004300028F010924B044F5F40934C04812FDF91C2
:10044000CF911F910F910895C90168E270E00E9459
:100450006B206F5F7F4F6E177F07C8F283E090E0DD
:10046000DACFCF93DF93482FE0915D06F0915E06DF
:1004700071969B012C5E3F4FC90163E470E00E94BE
:100480006B20EB01C90168E270E00E946B206F5F96
:100490007F4F80E090E0DC01208131813496880F2D
:1004A000991FAA1FBB1F2C173D0720F06217730767
:1004B00008F08160415081F7809351069093520675
:1004C000A0935306B093540681E0DF91CF91089535
:1004D000AF92BF92CF92DF92EF92FF920F931F9352
:1004E000CF93DF936C017B018B01040F151FEB0190
:1004F0005E01AE18BF08C017D10759F06991D60147
:10050000ED91FC910190F081E02DC6010995892BB8
:1005100079F7C501DF91CF911F910F91FF90EF9077
:10052000DF90CF90BF90AF900895089508950895FB
:10053000FC01538D448D252F30E0842F90E0821BE9
:10054000930B541710F0CF96089501970895FC016E
:10055000918D828D981761F0A28DAE0FBF2FB11DC6
:100560005D968C91928D9F5F9F73928F90E008951E
:100570008FEF9FEF0895FC01918D828D981731F0D8
:10058000828DE80FF11D858D90E008958FEF9FEF2C
:100590000895FC01918D228D892F90E0805C9F4F02
:1005A000821B91098F73992708958DE494E00E942E
:1005B000C90221E0892B09F420E0822F089580E010
:1005C00090E0892B29F00E94D50281110C94000043
:1005D0000895FC01A48DA80FB92FB11DA35ABF4FD8
:1005E0002C91848D90E001968F739927848FA68932
:1005F000B7892C93A089B1898C91837080648C9386
:10060000938D848D981306C00288F389E02D808134
:100610008F7D80830895EF92FF920F931F93CF9366
:10062000DF93EC0181E0888F9B8D8C8D98131AC02D
:10063000E889F989808185FF15C09FB7F894EE8914
:10064000FF896083E889F989808183708064808371
:100650009FBF81E090E0DF91CF911F910F91FF90BC
:10066000EF900895F62E0B8D10E00F5F1F4F0F7364
:100670001127E02E8C8D8E110CC00FB607FCFACF1F
:10068000E889F989808185FFF5CFCE010E94E902D2
:10069000F1CFEB8DEC0FFD2FF11DE35AFF4FF082F0
:1006A0009FB7F8940B8FEA89FB8980818062CFCF56
:1006B000CF93DF93EC01888D8823B9F0AA89BB8999
:1006C000E889F9898C9185FD03C0808186FD0DC084
:1006D0000FB607FCF7CF8C9185FFF2CF808185FFA5
:1006E000EDCFCE010E94E902E9CFDF91CF910895CD
:1006F000833081F028F4813099F08230A9F0089598
:100700008730A9F08830C9F08430B1F4809180003E
:100710008F7D03C0809180008F7780938000089543
:1007200084B58F7784BD089584B58F7DFBCF80918C
:10073000B0008F778093B00008958091B0008F7DD6
:10074000F9CFCF93DF93282F30E0F901E25FFD4F1F
:100750008491F901E650FE4FD491F901EA51FE4F20
:10076000C491CC23A1F081110E947803EC2FF0E01A
:10077000EE0FFF1FE452FE4FA591B491EC91ED23D3
:1007800081E090E009F480E0DF91CF91089580E06E
:1007900090E0FACF1F93CF93DF93282F30E0F90139
:1007A000E25FFD4F8491F901E650FE4FD491F901CB
:1007B000EA51FE4FC491CC23A9F0162F81110E945B
:1007C0007803EC2FF0E0EE0FFF1FED59FE4FA591DF
:1007D000B4918FB7F894EC91111108C0D095DE2335
:1007E000DC938FBFDF91CF911F910895DE2BF8CF5F
:1007F000E7E1F2E0E491E33039F160F4E130D1F087
:10080000E230E9F060E0803891050CF061E089E0C9
:100810000C94CA03E73011F1E83041F1E43091F76C
:100820002091800020622093800090938B00809321
:100830008A00089594B5906894BD87BD089594B5D5
:10084000906294BD88BD0895209180002068209317
:100850008000909389008093880008959091B00063
:1008600090689093B0008093B30008959091B00089
:1008700090629093B0008093B4000895CF93DF937B
:1008800090E0FC01E650FE4F24918A519E4FFC01FE
:1008900084918823D1F090E0880F991FFC01E75ADA
:1008A000FE4FA591B491FC01ED59FE4FC591D49135
:1008B00061110EC09FB7F8948C91E22FE0958E23C2
:1008C0008C932881E223E8839FBFDF91CF91089525
:1008D0008FB7F894EC91E22BEC938FBFF6CF3FB734
:1008E000F8948091870390918803A0918903B09137
:1008F0008A0326B5A89B05C02F3F19F00196A11DBC
:10090000B11D3FBFBA2FA92F982F8827BC01CD0159
:10091000620F711D811D911D42E0660F771F881FB8
:10092000991F4A95D1F708958F929F92AF92BF92E7
:10093000CF92DF92EF92FF924B015C010E946F0415
:100940006B017C010E946F046C197D098E099F095F
:10095000683E734081059105A8F321E0821A910851
:10096000A108B10888EEC80E83E0D81EE11CF11C76
:1009700081149104A104B10429F7FF90EF90DF9056
:10098000CF90BF90AF909F908F9008952FB7F8941D
:100990006091830370918403809185039091860315
:1009A0002FBF0895CF92DF92EF92FF921F93CF93C4
:1009B000DF93EC0160E08D810E943E0461E08D8157
:1009C0000E94CA0398E0C92ED12C10E0E12EF12C30
:1009D000F594E7941E2D60E08E810E94CA03E881A1
:1009E000F981028CF38DE02DCE0109958D810E9455
:1009F000A103892B09F0106861E08E810E94CA036F
:100A0000E881F981028CF38DE02DCE01099581E01A
:100A1000C81AD108D9F661E08D810E943E0460E0D9
:100A20008D810E94CA03812FDF91CF911F91FF908A
:100A3000EF90DF90CF9008950F931F93CF93DF93A4
:100A4000EC01162F042FE881F98102A0F3A1E02D1B
:100A500064E40995E881F981048CF58DE02DCE01DF
:100A60000995612F606CE881F98100A0F1A1E02D6A
:100A7000CE010995E881F98100A0F1A1E02D602F58
:100A8000CE010995E881F981068CF78DE02DCE0124
:100A9000DF91CF911F910F9109941F93CF93DF9313
:100AA000EC01162FE881F981048CF58DE02D099574
:100AB000E881F98100A0F1A1E02D612FCE01099517
:100AC000E881F981068CF78DE02DCE01DF91CF9181
:100AD0001F910994FF920F931F93CF93DF93EC0123
:100AE000F62E08E010E060E08E810E94CA03E881E3
:100AF000F981028CF38DE02DCE0109956F2D617087
:100B00008D810E94CA03E881F981028CF38DE02D6A
:100B1000CE010995F69461E08E810E94CA03E881B6
:100B2000F981028CF38DE02DCE0109950150110958
:100B3000D1F6E881F981028CF38DE02DCE01DF91B1
:100B4000CF911F910F91FF900994CF93DF93EC0108
:100B500061E08F810E94CA03E881F981028CF38DE4
:100B6000E02DCE01DF91CF910994CF93DF93EC017B
:100B700060E08F810E94CA03E881F981028CF38DC5
:100B8000E02DCE01DF91CF91099460E070E0CB01C0
:100B90000895FC01848108957F928F929F92AF9275
:100BA000BF92CF92DF92EF92FF920F931F93CF935A
:100BB000DF937C016A01722E8B01D0E0C0E0A22E8F
:100BC000B12C88248394912CD70114968C9190E0B9
:100BD0009C012A193B09C217D3070CF5F801419172
:100BE0008F014423E1F08C1B9D0B0197940102C0FF
:100BF000220F331F8A95E2F7C9018C219D2121E044
:100C0000892B09F420E06C2F670DD701ED91FC9141
:100C10000688F789E02DC70109952196D5CFDF9188
:100C2000CF911F910F91FF90EF90DF90CF90BF90E9
:100C3000AF909F908F907F900895CF92DF92EF9228
:100C4000FF920F931F93CF93DF937C016B01042FCF
:100C500010E0D0E0C0E0C017D10781F0F601EC0F42
:100C6000FD1F4491D701ED91FC910288F389E02D9D
:100C700020E06C2FC70109952196EDCFDF91CF9130
:100C80001F910F91FF90EF90DF90CF900895242F48
:100C9000DC01ED91FC910288F389E02D40E009949C
:100CA0009F92AF92BF92CF92DF92EF92FF920F93FB
:100CB0001F93CF93DF937C01C1E0C42ED12C8AE037
:100CC000A82EB12CD70114964C914C17F0F0960138
:100CD0000C2E02C0359527950A94E2F721704C1B23
:100CE000CB01B5010E947F20962ED72FD701ED9121
:100CF000FC910084F185E02D09E411E0682FC70123
:100D00000995692D7D2FCF5FDDCFDF91CF911F91A9
:100D10000F91FF90EF90DF90CF90BF90AF909F909A
:100D200008950F931F93E62F642FEF70E00FF12FBC
:100D3000F11D4491DC01ED91FC910288F389E02DD5
:100D40001F910F910994E42F440FFF0BE653FF4FBF
:100D50004491DC01ED91FC910288F389E02D099426
:100D6000362FDC01ED91FC910480F581E02D60E0EF
:100D7000211160E8642B432F09940895242FDC018E
:100D800012963C911297431740F4ED91FC9104A008
:100D9000F5A1E02D462F622F099408950F931F931C
:100DA000CF93DF93EC01E881F98102A0F3A1E02D5C
:100DB00060E40995E881F981048CF58DE02DCE0180
:100DC0000995E881F98100A0F1A1E02D60ECCE0148
:100DD000099510E000E0E881F9818A818017110609
:100DE000A9F0A4F000A0F1A1E02D60E0CE010995EA
:100DF0008B81893040F0E881F98100A0F1A1E02DDC
:100E000060E0CE0109950F5F1F4FE5CF068CF78D8F
:100E1000E02DCE01DF91CF911F910F910994DC015C
:100E2000ED91FC9102A0F3A1E02D611106C060E8F4
:100E3000483008F047E0642B099468E8F9CF0F9335
:100E40001F93CF938C01DC01ED91FC91048CF58D07
:100E5000E02D0995D801ED91FC9100A0F1A1E02DC4
:100E600069E4C8010995D801ED91FC9106A0F7A1AC
:100E7000E02DC8010995C82FD801ED91FC91068C91
:100E8000F78DE02DC801099560E070E0CB01C43416
:100E900070F0C83480F4C45461E070E080E090E009
:100EA00004C0660F771F881F991FCA95D2F7CF918C
:100EB0001F910F910895C03510F4C854EDCFC83577
:100EC00010F4CC54E9CFC03610F4C055E5CFC83685
:100ED00010F4C455E1CFC03710F4C855DDCFC83782
:100EE000D8F6CC55D9CFEF92FF921F93CF93DF93D3
:100EF000EC0160E08E810E94CA0360E08D810E9457
:100F00003E0461E08D810E94CA0388E0E82EF12C46
:100F100010E0110F61E08E810E94CA03E881F9811F
:100F2000028CF38DE02DCE0109958D810E94A103E5
:100F3000892B09F0116060E08E810E94CA03E8816C
:100F4000F981028CF38DE02DCE01099581E0E81A3C
:100F5000F108F9F660E08E810E94CA0360E08D819D
:100F60000E943E0461E08D810E94CA03E881F981FC
:100F7000028CF38DE02DCE01099561E08E810E94F7
:100F8000CA03E881F981028CF38DE02DCE01099529
:100F90008D810E94A103F82E60E08E810E94CA0319
:100FA000F11004C060E08D810E94CA0361E08D8170
:100FB0000E943E04812FDF91CF911F91FF90EF900F
:100FC00008950F931F93CF93DF93EC01062F4830C2
:100FD00008F047E011E0140F183009F410E0E88140
:100FE000F981048CF58DE02DCE010995E881F98118
:100FF00000A0F1A1E02D68E4CE010995E881F98116
:1010000000A0F1A1E02D80E1189FA00111248B81A7
:1010100060E0873009F468E0402B642BCE0109952D
:10102000E881F981068CF78DE02DCE01DF91CF911B
:101030001F910F9109940F931F93CF93DF938C010E
:10104000D0E0C0E0D80112968C9112978C171D0643
:1010500061F05CF0ED91FC9104A0F5A1E02D40E081
:101060006C2FC80109952196EDCFDF91CF911F918B
:101070000F9108950F931F93CF93DF93EC01162FD9
:10108000042FE881F981048CF58DE02D0995612FFD
:10109000660F6866E881F98100A0F1A1E02DCE011C
:1010A0000995E881F98100A0F1A1E02D602FCE0122
:1010B0000995E881F981068CF78DE02DCE01DF914D
:1010C000CF911F910F910994FF920F931F93CF938C
:1010D000DF93EC01F62E08E010E060E08E810E94C4
:1010E000CA03E881F981028CF38DE02DCE010995C8
:1010F0006F2D661F6627661F8D810E94CA03FF0C35
:1011000061E08E810E94CA03E881F981028CF38D2F
:10111000E02DCE01099501501109F9F6E881F98118
:10112000028CF38DE02DCE010995E881F981028CC6
:10113000F38DE02DCE01099560E08E810E94CA03F7
:1011400060E08D810E943E04E881F981028CF38D7C
:10115000E02DCE01099561E08E810E94CA03E881ED
:10116000F981028CF38DE02DCE0109958D810E94CD
:10117000A103811104C060E08D810E94CA0361E077
:101180008D81DF91CF911F910F91FF900C943E04C0
:10119000CF93DF93EC0160E08E810E94CA0360E090
:1011A0008D810E94CA03E881F981028CF38DE02DC4
:1011B000CE01099561E08E810E94CA0361E08D81B4
:1011C0000E94CA03E881F981028CF38DE02DCE01E3
:1011D000DF91CF910994CF93DF93EC0161E08D8192
:1011E0000E94CA0361E08E810E94CA03E881F981EE
:1011F000028CF38DE02DCE01099560E08D810E9477
:10120000CA0360E08E810E94CA03E881F981028CE2
:10121000F38DE02DCE01DF91CF9109948FE090E026
:101220000197F1F7089520915F03260F3327331FAD
:1012300021323105ECF42091D203FC0190E080E0F2
:10124000243069F082E00895A0915F032191AC0100
:10125000415C5C4FA40FB52FB11D2C9301968617EE
:1012600098F380915F03680F60935F0380E00895B7
:1012700081E008951092D20381E08093D10310920F
:10128000CC0361E082E10E94CA0361E083E10E9435
:10129000CA03E9EBF0E080818E7F808380818D7FBF
:1012A000808388E48093B80085E48093BC0008952F
:1012B000CF93DF9391E090933E038823B9F0C091E0
:1012C000B800D091BA008091BC008A7B8093BC00AA
:1012D00060E082E10E94CA0360E083E10E94CA03E9
:1012E0000E943A09D093BA00C093B800DF91CF9121
:1012F0000895E091D9038091D803E81730F4F0E025
:10130000E652FC4F808190E008958FEF9FEF0895A3
:101310009091D9038091D8032FEF3FEF981748F4AD
:10132000E92FF0E0E652FC4F208130E09F5F909380
:10133000D903C90108958091D8039091D903891BDD
:10134000990B0895CF93DF93CB01EA01642F0E949C
:101350001309CE01DF91CF910895CF93DF931F92B0
:10136000CDB7DEB7698361E0CE0101960E94130913
:1013700081E090E00F90DF91CF91089590E080E0C0
:10138000089522303105A1F02330310521F12130BB
:10139000310539F020E030E04AE754E40E94341E81
:1013A000089520E030E04AE754E40E94BD1C08950F
:1013B000452B31F020E030E04AE754E40E94341E2F
:1013C00020E030E040E452E40E94BD1C2BE430EB0E
:1013D00045EB51E4E3CF4130510591F320E030E09B
:1013E0004AE754E40E94BD1CEBCF08958F929F9270
:1013F000AF92BF92EF92FF920F931F93CF93DF9321
:101400004B015C01F42E8AE696E00E941B08C501A0
:10141000B4010E94A61EEB01CB0164E670E00E94BD
:101420007F20E62E42E0BC018AE696E00E9450064C
:101430002AE030E0CE01B9010E947F20CB01B90142
:101440000E947F200DE611E021E041E0682F8AE64E
:1014500096E00E94910620E040E06E2D8AE696E03C
:101460000E94910620E043E061E0F11005C00DE626
:1014700011E020E043E065E08AE696E00E949106F4
:10148000DF91CF911F910F91FF90EF90BF90AF90A0
:101490009F908F900895FC0101900020E9F731970B
:1014A000AF01481B590BBC018DE494E00C94680219
:1014B0008F929F92AF92BF920F931F93CF93DF9320
:1014C000CDB7DEB7A1970FB6F894DEBF0FBECDBF84
:1014D00019A2423008F44AE08E010F5D1F4F842E9E
:1014E000912CB12CA12CA50194010E948B1DE62FFB
:1014F000B901CA01EA30F4F4E05DD801EE938D0140
:10150000232B242B252B79F790E080E0109719F0FE
:10151000CD010E944B0AA1960FB6F894DEBF0FBE14
:10152000CDBFDF91CF911F910F91BF90AF909F9052
:101530008F900895E95CE1CFCF93DF930E944B0A2F
:10154000EC0181E991E00E944B0A8C0F9D1FDF9115
:10155000CF9108950C944B0ACF92DF92EF92FF92B5
:10156000CF93DF93EC01C0900F05D0901005E09071
:101570001105F090120520E030E0A901C701B60185
:101580000E94571C87FD0CC08091F8049091F904CB
:101590008130910509F442C090F0029709F478C0B7
:1015A00050E040E030E020E0652F742F832F922F31
:1015B000DF91CF91FF90EF90DF90CF900895209131
:1015C0000B0530910C0540910D0550910E05C7019A
:1015D000B6010E94341E6B017C010E943C019B01FC
:1015E000AC01C701B6010E94BD1C2DE53DE645E1F9
:1015F00050E40E94E11E2EE137EA47E151E40E94E7
:10160000BD1CB62FA72FF82FE92FAD019F01C130C8
:10161000D10551F29E0141E050E02EC020910B0512
:1016200030910C0540910D0550910E05C701B60192
:101630000E94341E6B017C010E943C019B01AC01A5
:10164000C701B6010E94BD1C2EEC39E145E150E412
:101650000E94E11E28E03DE342E051E40E94BD1CEF
:10166000B62FA72FF82FE92FAD019F01209709F47E
:101670009BCF9E0150E040E06B2F7A2F8F2F9E2F43
:10168000DF91CF91FF90EF90DF90CF900C94C10944
:1016900026E636E642E451E4C701B6010E94BD1CCD
:1016A00020910B0530910C0540910D0550910E05D0
:1016B0000E94341E6B017C010E943C019B01AC0125
:1016C000C701B6010E94BD1C21EE3AE744E95FEB79
:1016D0000E94E11E2BE237E847ED51E490CF4F9294
:1016E0005F926F927F928F929F92AF92BF92CF92B2
:1016F000DF92EF92FF920F931F93CF936B017C01C8
:10170000742EAC019B010E94311F882399F084E95B
:1017100091E0CF911F910F91FF90EF90DF90CF90CC
:10172000BF90AF909F908F907F906F905F904F9001
:101730000C944B0A46015701E894B7F82FEF3FEF9E
:101740004FE75FE7C501B4010E94311F81110DC051
:101750002FEF3FEF4FE75FE7C501B4010E94571C31
:1017600018161CF488E991E0D4CF2FEF3FEF4FE734
:101770005FE4C701B6010E94DC1E18161CF48CE958
:1017800091E0C7CF2FEF3FEF4FE75FECC701B60106
:101790000E94571C87FDF3CF20E030E0A901C7016C
:1017A000B6010E94571C10E000E087FF0AC06DE2FE
:1017B0008DE494E00E940B038C01F7FAF094F7F8A3
:1017C000F094C0E060E070E080E09FE37C1641F0C0
:1017D00020E030E040E251E40E94341ECF5FF6CFBB
:1017E000A70196010E94C81D2B013C010E94AD1E5D
:1017F0004B015C014AE00E94580A7C01E00EF11E98
:10180000CC23C1F1C501B4010E945C1C9B01AC0159
:10181000C301B2010E94C71D4B015C016EE28DE461
:1018200094E00E940B03E80EF91EC15018F120E06D
:1018300030E040E251E4C501B4010E94BD1C2B011F
:101840003C010E94AD1E4B01B12CA12C4AE0C50108
:10185000B4010E94580AE80EF91EC501B4010E94A5
:101860005C1C9B01AC01C301B2010E94C71D4B016E
:101870005C01DBCFC701CF911F910F91FF90EF90DB
:10188000DF90CF90BF90AF909F908F907F906F90A0
:101890005F904F900895CF92DF92EF92FF92CF9397
:1018A000DF936C01990FEE08FF08F7FE1FC06DE291
:1018B0008DE494E00E940B03EC0166277727CB01AF
:1018C0006C197D098E099F094AE00E94580AC80FC9
:1018D000D91F81E991E00E944B0A8C0F9D1FDF9177
:1018E000CF91FF90EF90DF90CF9008954AE0C7012D
:1018F000B6010E94580AEC01ECCFEF92FF920F93D1
:101900001F93CF93DF937C018AE696E00E941B0829
:1019100080EA91E00E94AA0A80913C0390913D03E5
:101920000E944B0CF0923D03E0923C0380913C03FB
:1019300090913D03CAE0D0E0BE010E947F200DE6F9
:1019400011E020E042E0682F8AE696E00E949106CE
:101950008AE0E816F1040CF446C080913C039091B3
:101960003D03BE010E947F2070933D0360933C03C2
:1019700080EA91E00E94AA0A80913C0390913D0385
:101980000E944B0C80913C0390913D03BE010E944C
:101990007F2020E041E0682F8AE696E00E949106D1
:1019A00084E6E816F104FCF080913C0390913D033D
:1019B000BE010E947F2070933D0360933C0380EA48
:1019C00091E00E94AA0A80913C0390913D030E94FD
:1019D0004B0C60913C0370913D0320E040E08AE6AF
:1019E00096E00E949106DF91CF911F910F91FF9099
:1019F000EF900895809192038130B1F028F0823009
:101A000019F1833059F1089560E080E10E94CA0322
:101A100060E08FE00E94CA0361E089E00E943E041A
:101A200060E089E00C94CA0361E080E10E94CA038F
:101A300061E08FE00E94CA0361E089E00E943E04F9
:101A40008CED90E00C94F80360E08FE00E94CA03F4
:101A500061E089E00E943E0461E0E3CF60E080E164
:101A60000E94CA0361E08FE00E94CA0361E089E03E
:101A70000E943E0484EB90E0E5CF85ED8093BC00AE
:101A80008091D4039091D503A091D603B091D70350
:101A90000796A11DB11D23E0B695A795979587954B
:101AA0002A95D1F72091BC0024FD03C01092D203E7
:101AB00008954091D4035091D5036091D60370915D
:101AC000D703452B462B472B69F30097A105B1059A
:101AD00041F02AE22A95F1F700C00197A109B10966
:101AE000E1CF8091D3030C9458090C9435211F92B7
:101AF0000F920FB60F9211242F933F934F935F9342
:101B00006F937F938F939F93AF93BF93EF93FF93C5
:101B10008DE494E00E94E902FF91EF91BF91AF91B3
:101B20009F918F917F916F915F914F913F912F91F5
:101B30000F900FBE0F901F9018951F920F920FB627
:101B40000F9211242F938F939F93EF93FF93E09124
:101B50005D04F0915E048081E0916304F09164047F
:101B600082FD1BC09081809166048F5F8F732091EE
:101B70006704821741F0E0916604F0E0E35BFB4FFD
:101B8000958F80936604FF91EF919F918F912F9194
:101B90000F900FBE0F901F9018958081F4CF1F9269
:101BA0000F920FB60F9211242F933F938F939F9311
:101BB000AF93BF938091830390918403A091850399
:101BC000B09186033091820323E0230F2D3758F51F
:101BD0000196A11DB11D20938203809383039093EE
:101BE0008403A0938503B09386038091870390912B
:101BF0008803A0918903B0918A030196A11DB11DAC
:101C00008093870390938803A0938903B0938A03FA
:101C1000BF91AF919F918F913F912F910F900FBEE8
:101C20000F901F90189526E8230F0296A11DB11D55
:101C3000D2CF1F920F920FB60F9211242F933F9382
:101C40004F935F936F937F938F939F93AF93BF93C4
:101C5000EF93FF938091B900887F803609F44AC0E2
:101C6000F0F5883209F4A7C018F5803109F49BC05B
:101C7000B8F4882309F4F9C0883009F494C0FF91BE
:101C8000EF91BF91AF919F918F917F916F915F91F4
:101C90004F913F912F910F900FBE0F901F9018956D
:101CA000883109F488C0803251F78093D00314C082
:101CB000803409F49DC040F48033B9F38833F9F6D9
:101CC0008093D00385ECB0C0803509F485C0883599
:101CD00009F496C0883499F60E943D0DD0CF88391A
:101CE00009F48CC038F5883729F050F4883611F0A3
:101CF000803729F683E08093D2031092810357C086
:101D0000883809F47BC0803919F0803809F0B7CFE2
:101D100080918103803208F071C0E091810381E0FD
:101D20008E0F809381038091BB00F0E0EF59FC4F50
:101D300080833DC0803B39F0E0F4803A09F479C0FB
:101D4000883A09F09CCF84E08093D203109260031C
:101D500010925F03E0918D03F0918E0309958091BD
:101D60005F0381110FC081E080935F0310923F03F6
:101D700009C0803C09F4A6CF883C09F4A3CF883B76
:101D800009F07DCFE091600381E08E0F80936003C6
:101D9000F0E0E15CFC4F80818093BB009091600398
:101DA00080915F0329C08091CD038093BB0085ECB7
:101DB0008093BC0064CF9091CF038091CE0398179D
:101DC00058F5E091CF0381E08E0F8093CF03F0E0D0
:101DD000E455FC4F8081E9CFE091CF0381E08E0F85
:101DE0008093CF038091BB00F0E0E455FC4F8083EB
:101DF0009091CF038091CE039817C8F285E8D8CF91
:101E0000E091CF0381E08E0F8093CF038091BB00E0
:101E1000F0E0E455FC4F80838091D10381115CCFC9
:101E200081E08093CC0384EA8093BC001092D203BB
:101E300026CF85EC8093BC001092D2038091810361
:101E4000803230F4E0918103F0E0EF59FC4F1082D2
:101E50006091810370E0E0918B03F0918C0381E647
:101E600093E00995109281030ACF1092D00334CFEA
:101E70001F920F920FB60F9211242F933F934F93FF
:101E80005F936F937F938F939F93AF93BF93CF9302
:101E9000EF93FF93E0915D05F0915E05C081809125
:101EA0005F05C8238091600590916105019649F016
:101EB00080916005909161050196909361058093F2
:101EC000600580915B0581111DC0C1116EC08091BC
:101ED0006005909161058536910578F01092640552
:101EE00080916005909161059093670580936605E8
:101EF00081E08093650580935B05109261051092E7
:101F0000600553C080915B058130A9F4CC2309F4AE
:101F10004CC0E09165058E0F80936505809160054A
:101F200090916105F0E0EE0FFF1FE55AFA4F94879C
:101F3000838782E0E0CF80915B05823009F053C057
:101F4000C11122C0E091650581E0E03768F080931F
:101F5000640583E080935B05E0916205F091630581
:101F6000309759F20995C9CF8E0F809365058091FE
:101F7000600590916105F0E0EE0FFF1FE55AFA4F02
:101F80009487838781E0B7CF809160059091610548
:101F90008536910550F083E080935B05E091620502
:101FA000F0916305309709F00995809173068130AF
:101FB00041F480917206C1111DC061E081111DC004
:101FC0002D9AFF91EF91CF91BF91AF919F918F91FA
:101FD0007F916F915F914F913F912F910F900FBE25
:101FE0000F901F90189580915B058330F1F6C11119
:101FF000DCCF83CF882321F060E00E94CA03E1CFC9
:102000002D98DFCFABE5B5E011968C931197282F73
:1020100030E0F901E650FE4FE4911496EC931497EA
:10202000F901EA51FE4FE491F0E0EE0FFF1FE45298
:10203000FE4F2591349113963C932E93129760E0B6
:102040000C943E04DF92EF92FF920F931F93CF9375
:10205000DF93EDE4F4E01382128288EE93E0A0E0D7
:10206000B0E084839583A683B78321E131E0318397
:10207000208325EC30E03587248724EC30E0378757
:10208000268720EC30E0318B208B21EC30E0338B45
:10209000228B22EC30E0358B248B26EC30E0378B22
:1020A000268B118E128E138E148EEAEEF4E01382BC
:1020B000128284839583A683B78383E291E0918320
:1020C0008083E6EFF4E085E391E0918380831582DD
:1020D000148216828FEF878380878FEF9FEFDC015A
:1020E00085879687A787B08B818B928BA38BB48BC8
:1020F00080E090E0A0E8BFEB858B968BA78BB08F3C
:10210000818F928FA38FB48F84E1858F81E4868F36
:1021100080E492E4AFE0B0E081879287A387B48740
:10212000E5E1F5E016821782108611861286138685
:102130001486158616861786108A118A128A138AC3
:10214000148A158A8BE5E82E85E0F82EF0928C062D
:10215000E0928B0680E00E94021002E716E0F80190
:102160001082CAE6D6E08DE391E09983888398E0F7
:10217000D92EDB828BE08D839CE09E838F8384E06D
:102180008A838C8361E08BE00E943E0461E08CE0F6
:102190000E943E0461E08BE00E943E0461E08BE01F
:1021A0000E94CA0361E08CE00E94CA0389E691E0C4
:1021B00099838883CE010E941B08DB8247E061E09F
:1021C000CE010E94E107F0925E06E0925D0684E196
:1021D0000E940210F8011082DF91CF911F910F91A0
:1021E000FF90EF90DF900895CF93DF9300D000D061
:1021F0001F92CDB7DEB7789484B5826084BD84B574
:10220000816084BD85B5826085BD85B5816085BDF1
:1022100080916E00816080936E00109281008091A9
:102220008100826080938100809181008160809331
:102230008100809180008160809380008091B10056
:1022400084608093B1008091B00081608093B00081
:1022500080917A00846080937A0080917A00826015
:1022600080937A0080917A00816080937A008091D7
:102270007A00806880937A001092C100109257050E
:10228000109258051092590510925A051092170590
:10229000109218051092190510921A050E94C60492
:1022A0006B017C014B015C0128EB820E2BE0921E3E
:1022B000A11CB11C0E94C6046C157D058E059F05EE
:1022C00028F086169706A806B906A0F768EE73E010
:1022D00080E090E00E9494040E9483010E94C60462
:1022E00060931705709318058093190590931A054C
:1022F00080EB91E00E94AA0A0E94C6046B017C0157
:102300004B015C018AE0880E911CA11CB11C0E944B
:10231000C6046C157D058E059F0528F08616970668
:10232000A806B906A0F781E080932B050E94C60499
:1023300060931705709318058093190590931A05FB
:1023400081EC91E00E94AA0A0E94830188EC91E04E
:102350000E949C0A80918100887F82608093810026
:1023600087ED91E00E949C0A8AEE94E09093290404
:10237000809328041092D9031092D80310929003EE
:1023800010928F030E943A0985E992E090938E03A0
:1023900080938D0386E992E090938C0380938B0366
:1023A00088EE91E00E949C0A82E08093B0008093C6
:1023B000B10084E68093B3008093B4001092B20021
:1023C00080915B05833011F410925B0584E080936B
:1023D000700084EF91E00E949C0A1092FC0410921D
:1023E000FB041092FA041092F9041092F80483E0AE
:1023F0008093FD0484E18093FE0480E492E4AFE0E6
:10240000B0E08093FF0490930005A0930105B09382
:1024100002058AE097EAAFEEB4E480930B0590934F
:102420000C05A0930D05B0930E0580E590E0A0E0AB
:10243000B0E08093070590930805A0930905B09339
:102440000A0561E083E00E943E0460E08091FE04A2
:102450000E943E0460E08091FD040E94CA0388E46B
:1024600091E6A4E7B4E480930B0590930C05A09348
:102470000D05B0930E0510920705109208051092F5
:10248000090510920A0583E092E00E949C0A61E02F
:1024900089E00E943E0461E083E00E943E0461E026
:1024A00085E00E943E0461E086E00E943E0461E017
:1024B00082E00E943E0461E089E00E943E0461E007
:1024C0008DE00E943E0461E08FE00E943E0461E0E6
:1024D00080E10E943E0461E08EE00E943E0461E0E3
:1024E00085E10E943E048AE696E00E941B0860E0B7
:1024F00087E00E943E0460E08AE00E943E0460E0C3
:1025000088E00E943E0460E084E00E943E0487E18F
:1025100092E00E949C0A1AE0812E912C00ED202E60
:1025200007E0302ECC24CA94DC2C7601B3E1AB2E2C
:10253000B12C80915B05833009F0BFC1809191037C
:10254000811107C08EE192E00E949C0A81E0809395
:102550009103A6E6B5E0B093A003A0939F0320915A
:1025600065052093A10380916405882321F01092D2
:10257000640510926505809164058093A203109212
:102580009703109298031092990310929A0380E88F
:10259000809350068091680590916905865891094D
:1025A0008C35910588F4243071F580916A059091FD
:1025B0006B058197489740F480916C0590916D056B
:1025C0000897089708F457C08091A1038A3108F44E
:1025D00087C0E0919F03F091A003208131812A30D0
:1025E000310508F05CC010929B03C0929703D09213
:1025F0009803E0929903F0929A0381E08093500649
:1026000087E190E047C02434F9F680916A05909103
:102610006B05825491098F97B8F640E956E060E364
:1026200072E080E20E943102882371F2E0919F0300
:10263000F091A003EA57FF4F808191810897089796
:1026400018F68091510690915206A0915306B091D0
:1026500054068093970390939803A0939903B093A3
:102660009A0380E280939B0388E090E09093940328
:10267000809393030FC010929B03C0929703D09254
:102680009803E0929903F0929A0381E880935006B0
:1026900088E090E09093470680934606D5C022815B
:1026A0003381245231092A313105D0F443E050E01E
:1026B00060E0412C512C320190E04817590708F096
:1026C00058C024813581285031092830310540F423
:1026D0002681378122313105B0F120323105F0F108
:1026E00081E080934C04E9E7F3E0F0934A04E0933F
:1026F000490410924B040E94AB01813009F0BDC126
:10270000412C512C32011982E0915D06F0915E0658
:10271000928580914C04891708F043C00E94AB0158
:102720008D830E94AB01FD81F11130C0813009F031
:10273000A4C1440C551C661C771C689440F8898120
:102740008F5F8983E1CF2930310550F22131310586
:1027500038F6440C551C661C771C06C0440C551CEE
:10276000661C771C689440F86F5F4E5F5F4F34962D
:10277000A4CF60939B03409297035092980360927A
:10278000990370929A0387E190E070CF2D812130F8
:1027900009F073C1811171C1440C551C661C771C72
:1027A000CECFA9818A2F90E090934F0680934E065A
:1027B000409251065092520660925306709254060F
:1027C000842D8F7390E090934B0680934A0692017C
:1027D00046E0369527954A95E1F72F7133273093D8
:1027E000490620934806920122273071232B31F4A9
:1027F000805C9F4F90934B0680934A0680E853FC81
:1028000088E88093500681E190E09093470680939A
:102810004606838594858F3C994028F48091500624
:10282000816080935006E981E0939B034092970377
:10283000509298036092990370929A0381E190E01C
:1028400090939403809393036091970370919803FE
:102850008091990390919A034AE00E94580A81E975
:1028600091E00E944B0A8091970390919803A09168
:102870009903B0919A038434E1E99E07E9EFAE072A
:10288000E5E8BE0709F411C408F064C3811526E326
:10289000920727E8A20726E4B20709F41DC408F04E
:1028A0003BC38832944FA24DBE4009F424C48091AA
:1028B0005B05833011F410925B05809146048823F8
:1028C00009F4B5C780910201882309F432C481302C
:1028D00009F468C48091AA039091AB030196909388
:1028E000AB038093AA03883E934079F48091A903B7
:1028F0008F5F8093A9031092AB031092AA0380917B
:10290000A903853010F01092A9038091A9038111C9
:1029100056C48091AA039091AB030197C1F48AE653
:1029200096E00E941B080DE711E020E050E040E037
:102930006AEB72E08AE696E00E94CC050DE611E0B3
:1029400021E041E061E08AE696E00E9491068091F4
:10295000AA039091AB03843F914081F48EEB92E007
:102960000E94AA0A80910604909107040E944B0CD1
:1029700080910604909107040E947D0C80910001D3
:102980009091010101969093010180930001843C94
:10299000994009F018C610920101109200010E949E
:1029A0006F042B013C018091D2038111C4C481E0EA
:1029B0008093D2038093D1039FEF9093D003109222
:1029C000CF0398E19093CE038093CD038091CD0304
:1029D00080658093CD038091CC03813009F045C69A
:1029E0001092CC030E946F042B013C018091CD0317
:1029F0008093BB008091D4039091D503A091D6031E
:102A0000B091D703892B8A2B8B2BA1F00E946F04E6
:102A10000091D4031091D5032091D6033091D703B0
:102A200064197509860997090617170728073907D2
:102A300008F4A2C48091BC0083FDD8CF85EC8093BC
:102A4000BC000E946F042B013C018091D2038130B5
:102A500009F40DC68091CF03893108F02AC6809110
:102A6000CF03ACEAB3E0EAEDF3E090E0981709F4A5
:102A700088C42D9121939F5FF9CFE0915D06F0917D
:102A80005E068585968588974D9708F04CC08785AA
:102A900090890C970B9708F046C083E080934C0414
:102AA0008CEB91E090934A048093490410924B047C
:102AB0000E94AB018130B9F50E94AB01811133C096
:102AC000412C512C32011982E0915D06F0915E0695
:102AD000928580914C04891708F073C00E94AB0165
:102AE000182FF981F330D9F00E94AB018D83298131
:102AF000233029F40E94AB019D81981314C011303A
:102B000009F054C0AD81A1110EC0440C551C661CC7
:102B1000771C689440F8E981EF5FE983D5CF0E9484
:102B2000AB01181709F38091A1038C3309F0A7C0FA
:102B3000E0919F03F091A0038281938186589109CF
:102B40008D35910508F09BC084819581CE978C9737
:102B500008F095C04CE256E064EF71E08CE10E9411
:102B60003102882309F48BC0E0919F03F091A00308
:102B7000EA58FF4F808191810797089708F07FC03E
:102B80008091510690915206A0915306B09154063F
:102B90008093970390939803A0939903B0939A031B
:102BA0008CE180939B0386E090E060CD1111BBCF58
:102BB000BD81B13009F0B7CF440C551C661C771CA1
:102BC000AACF2981822F90E090934F0680934E06E2
:102BD00040925106509252066092530670925406EB
:102BE000242D30E0852D99819432B0F580E88093D2
:102BF000500630934B0620934A06852D90E0909323
:102C000049068093480660FE03C088E8809350061A
:102C1000A981A53128F080915006806180935006EB
:102C20008385948583379A4028F48091500681608B
:102C30008093500682E190E0909347068093460689
:102C4000E981E0939B03409297035092980360922E
:102C5000990370929A03F4CD90E89093500657FE32
:102C600003C098E89093500630934B0620934A0691
:102C70008F7790E09093490680934806D1CF40919A
:102C8000A103E0919F03F091A003828193814232DE
:102C900089F49C01285031092730310558F4DF01AF
:102CA000AE5BBF4F2D913C91285031092730310543
:102CB00008F458C08D5791098735910508F462C012
:102CC000E0919F03F091A003828193818354910945
:102CD0008F9780F48091A103843009F088C08481AB
:102CE00095818197489730F4868197810897089756
:102CF00008F4A9C0E0915D06F0915E0682858232FB
:102D000009F0B3C0E0919F03F091A0038281938109
:102D10000497059708F0A9C0848195810B970A97BD
:102D200008F0A3C04CE157E064E071E08FE00E943E
:102D30003102882309F499C080915106909152067E
:102D4000A0915306B09154068093970390939803F3
:102D5000A0939903B0939A038FE080939B0384E040
:102D600090E084CC10929B03C0929703D09298037A
:102D7000E0929903F0929A0381E08093500685E0F7
:102D800090E088CC443208F49BCF84819581CE9723
:102D90008C9708F095CF4AE256E06EE072E080E151
:102DA0000E943102882309F48BCFE0919F03F091B8
:102DB000A003EA5BFF4F808191810897079708F095
:102DC0007FCF8091510690915206A0915306B09109
:102DD00054068093970390939803A0939903B0931C
:102DE0009A0380E180939B0385E090E03FCC84349C
:102DF00008F480CF84819581825491098F9708F0DF
:102E000079CF40E956E060E372E080E20E9431024F
:102E1000882309F46FCF8091510690915206A091BA
:102E20005306B09154068093970390939803A09310
:102E30009903B0939A0380E280939B03B09294032A
:102E4000A09293030DC010929B03C0929703D0925F
:102E50009803E0929903F0929A0381E080935006E0
:102E6000B0924706A0924606EFCCE091A103ED8315
:102E7000E63008F41CCDE0919F03F091A003329658
:102E800025EC3DE94CE151E883E089831AE0848137
:102E9000958161917191189F3001199F700C1124D7
:102EA000DB0103E0AA0FBB1F0A95E1F700E06A16F9
:102EB0007B0678F0169FD001179FB00D112463E0B8
:102EC000880F991F6A95E1F702E0A817B90708F083
:102ED00001E063E971E080E091E00E947B1D9B01CD
:102EE000AC01202799819F5F9983AD81A913CFCF32
:102EF00020939703309398034093990350939A0338
:102F000080E280939B03109294031092930310929B
:102F100047061092460698CC843E2EE1920722E3A3
:102F2000A20725E5B20709F452C0803A9C41AB489C
:102F3000B94609F0BCCC1092A8031092A703909256
:102F4000A6038092A503E0EAFFE0F093A403E093D8
:102F5000A303ADCC8430FDEE9F07FDE7AF07FAEA8F
:102F6000BF0709F450C0B8F484329644A744BF495F
:102F700009F09DCC80914604882309F498CC809177
:102F800092038F5F80939203843008F469C081E0DC
:102F90008093920365C08430FCE89F07FDEDAF0786
:102FA000F1EEBF0709F4B6C084349640AD4FBB4E76
:102FB00009F07DCC1092A8031092A7039092A6036B
:102FC0008092A5033092A4032092A30370CC1092A8
:102FD000A8031092A7039092A6038092A50386E906
:102FE00090E09093A4038093A303809146048823E8
:102FF00009F45DCC60E082E00E94CA0361E08EE0EB
:103000000E94CA0354CC8091460491E089278093A2
:10301000460480914604882331F11092020161E058
:103020008DE00E94CA0361E082E00E94CA0361E071
:1030300085E10E94CA03A1E0A09392031092A80325
:103040001092A7039092A6038092A5033092A40346
:103050002092A3031092A9031092AB031092AA032B
:103060000E94FA0C24CCB1E0B093020160E082E04F
:103070000E94CA0360E085E10E94CA0360E089E023
:103080000E94CA0360E083E00E94CA0360E08DE012
:103090000E94CA0360E08EE00E94CA03109292036D
:1030A0008AE696E00E941B08DBCF1092A8031092DC
:1030B000A7039092A6038092A5033092A4032092C6
:1030C000A30380914604882309F4F1CB61E082E0F8
:1030D0000E94CA0360E093CF1092A8031092A70346
:1030E0009092A6038092A503E6E9F0E0F093A40392
:1030F000E093A3037ACF1092A8031092A7039092B3
:10310000A6038092A50384EF91E09093A40380939B
:10311000A303CDCB1092A8031092A7039092A6030D
:103120008092A503A8EBBBE0B093A403A093A303F4
:10313000BECB61E083E00E94CA038091A703909117
:10314000A80301969093A8038093A7032091A50359
:103150003091A6038091A7039091A80328173907FF
:1031600041F460E085E00E94CA0360E086E00E94CE
:10317000CA032091A3033091A4038091A7039091E7
:10318000A8032817390709F0A5CB61E085E00E9464
:10319000CA0361E086E00E94CA031092A80310925D
:1031A000A70398CB60E083E00E94CA0360E085E05B
:1031B0000E94CA0360E086E00E94CA038BCB809124
:1031C000A9038130A9F58091AA039091AB03892BC3
:1031D000C1F48AE696E00E941B080DE711E020E0AA
:1031E00050E040E066EC72E08AE696E00E94CC0592
:1031F0000DE611E021E041E062E08AE696E00E94FF
:1032000091068091AA039091AB03843F914009F00D
:10321000B5CB8AEC92E00E94AA0A809104049091B6
:1032200005040E944B0C8091040490910504A4CBEA
:103230008091A903823061F58091AA039091AB033C
:10324000892B79F48AE696E00E941B080DE711E0CD
:1032500020E050E040E06AEB72E08AE696E00E94EF
:10326000CC058091AA039091AB03843F914009F073
:1032700085CB82ED92E00E94AA0A8091020490918F
:1032800003040E944B0C809102049091030474CBC0
:103290008091A903833031F58091AA039091AB030B
:1032A000892B09F06BCB89ED92E00E94AA0A60910C
:1032B000FE037091FF03809100049091010442E0AD
:1032C0000E946F0B81E991E00E944B0A6091FE031E
:1032D0007091FF03809100049091010441E00E94ED
:1032E000F6094CCB8091A903843009F047CB80913B
:1032F000AA039091AB03892B09F040CB84EE92E0B6
:103300000E94AA0A6091FA037091FB038091FC036A
:103310009091FD0342E00E946F0B81E991E00E94D1
:103320004B0A6091FA037091FB038091FC0390912A
:10333000FD0340E0D4CF8091D4039091D503A091B8
:10334000D603B091D703892B8A2B8B2B09F42BCB77
:103350000E946F040091D4031091D5032091D603ED
:103360003091D7036419750986099709061717075D
:103370002807390708F017CB8091D3030E9458091A
:1033800080E01092D9038093D80301E214E088E032
:1033900094E09A8389838091280490912904DC0128
:1033A000ED91FC910084F185E02D0995892B09F4BC
:1033B0000AC18091280490912904DC01ED91FC91CF
:1033C0000284F385E02D0995E981FA818193FA83DE
:1033D000E9830E171F07F9F620910804263109F03A
:1033E000F2C080910904893109F0EDC0E9E0F4E010
:1033F00080E294E0319123278E179F07D9F78091BF
:1034000020042813E0C080910A0480932A0480914C
:103410000B0490E0982F882720910C04820F911DB7
:1034200090932C0480932B0480910D0490E0982FAE
:10343000882720910E04820F911D90932E04809373
:103440002D0460910F0470E0762F662780911004A0
:10345000680F711D072E000C880B990B0E945E1CD3
:1034600020E030E040E251E40E94341E69837A8318
:103470008B839C8360932F0470933004809331047A
:10348000909332046091110470E0762F662780914A
:103490001204680F711D645F7140072E000C880BC9
:1034A000990B0E945E1C20E030E040E251E40E9453
:1034B000341E2B013C01409233045092340460923C
:1034C0003504709236046091130470E0762F6627FD
:1034D00080911404680F711D709338046093370451
:1034E0004091150450E0542F442780911604480F52
:1034F000511D50933A04409339042091170430E051
:10350000322F222780911804280F311D30933C045C
:1035100020933B048091190490E0982F8827E09134
:103520001A048E0F911D90933E0480933D04809168
:103530001B0490E0982F8827E0911C048E0F911DAA
:103540009093400480933F0480911D0490E0982F55
:103550008827E0911E048E0F911D90934204809362
:10356000410480911F048093430470930704609387
:1035700006045093050440930404309303042093FD
:10358000020420E030E040E251E469817A818B81DD
:103590009C810E94BD1C6093FE037093FF03809387
:1035A00000049093010420E030E040E251E4C301C4
:1035B000B2010E94BD1C6093FA037093FB038093D9
:1035C000FC039093FD03809144049091450401967F
:1035D00090934504809344048133954708F427C1B0
:1035E000109245041092440482EF92E00E949C0ADB
:1035F00061E08091FD040E94CA030E94C60428EE87
:1036000033E040E050E00E948B1D2093030530938F
:10361000040540930505509306050E94C60428EE54
:1036200033E040E050E00E948B1D809103059091B3
:103630000405A0910505B09106054090070550903E
:1036400008056090090570900A05840D951DA61D5A
:10365000B71D281739074A075B0768F561E070E076
:1036600080E090E00E949404D8CF85EEE8C9809174
:10367000D4039091D503A091D603B091D703892BA1
:103680008A2B8B2B09F4E1C90E946F040091D403AB
:103690001091D5032091D6033091D7036419750991
:1036A00086099709061717072807390708F0CDC9B3
:1036B00063CE89E1D6C98091FE048E3008F08E5029
:1036C0008770806480937C0080917A00806480930E
:1036D0007A0080917A0086FDFCCF6091780070912D
:1036E000790090E080E00E945C1C20E030E040E83F
:1036F0005AE30E94BD1C20E030E040EA50E40E9402
:10370000BD1C2B013C0120E030E0A9010E94571CA8
:10371000882309F4A2C06091FF0470910005809194
:103720000105909102050E945C1C69837A838B835A
:103730009C83A301920160E070E080EA90E40E9423
:10374000341E20E030E040E85FE30E94C71D9B018B
:10375000AC0169817A818B819C810E94BD1C609340
:103760000F0570931005809311059093120560E08A
:103770008091FD040E94CA03C0920305D092040503
:10378000E0920505F09206058DEF92E00E94AA0AEC
:1037900090E080E00E94AC0A609303017093040102
:1037A000809305019093060142E00E946F0B87E031
:1037B00093E00E94AA0A81E090E00E94AC0A42E0F5
:1037C0000E946F0B8BE193E00E949C0A87E093E0DC
:1037D0000E94AA0A82E090E00E94AC0A42E00E94A5
:1037E0006F0B80E293E00E949C0A87E093E00E94C6
:1037F000AA0A83E090E00E94AC0A42E00E946F0BAC
:1038000087E293E00E949C0A20E030E44CE156E419
:1038100060910B0570910C0580910D0590910E053E
:103820000E94DC1E87FD1DC081E08093020161E0E3
:1038300070E080E090E00E94940480E090E0892BAA
:1038400011F40C9499120E94D502882311F40C945F
:1038500096120E9400000C94961260E070E0CB017A
:103860007ECF40900301509004016090050170905C
:10387000060120E030E0A901C301B2010E94DC1E74
:1038800087FDD5CF2FE832EC45EF5CE3C301B201F1
:103890000E94DC1E87FD08C081E0809302018EE259
:1038A00093E00E949C0AC3CF10920201C0CF0E94F5
:1038B000991C08F481E00895E89409C097FB3EF450
:1038C00090958095709561957F4F8F4F9F4F99236D
:1038D000A9F0F92F96E9BB279395F69587957795EB
:1038E0006795B795F111F8CFFAF4BB0F11F460FFAB
:1038F0001BC06F5F7F4F8F4F9F4F16C0882311F003
:1039000096E911C0772321F09EE8872F762F05C016
:10391000662371F096E8862F70E060E02AF09A95B1
:10392000660F771F881FDAF7880F9695879597F9A6
:103930000895990F0008550FAA0BE0E8FEEF161640
:103940001706E807F907C0F012161306E407F50793
:1039500098F0621B730B840B950B39F40A2661F007
:10396000232B242B252B21F408950A2609F4A140AA
:10397000A6958FEF811D811D08950E94D01C0C9487
:10398000411D0E94331D38F00E943A1D20F09523FE
:1039900011F00C942A1D0C94301D11240C94751DEB
:1039A0000E94521D70F3959FC1F3950F50E0551F73
:1039B000629FF001729FBB27F00DB11D639FAA2784
:1039C000F00DB11DAA1F649F6627B00DA11D661FD3
:1039D000829F2227B00DA11D621F739FB00DA11DF4
:1039E000621F839FA00D611D221F749F3327A00DAE
:1039F000611D231F849F600D211D822F762F6A2F4A
:103A000011249F5750409AF0F1F088234AF0EE0FAE
:103A1000FF1FBB1F661F771F881F91505040A9F7DB
:103A20009E3F510580F00C942A1D0C94751D5F3F3C
:103A3000E4F3983ED4F3869577956795B795F79517
:103A4000E7959F5FC1F7FE2B880F911D969587958F
:103A500097F9089597F99F6780E870E060E008950E
:103A60009FEF80EC089500240A9416161706180696
:103A70000906089500240A94121613061406050672
:103A80000895092E0394000C11F4882352F0BB0F03
:103A900040F4BF2B11F460FF04C06F5F7F4F8F4F66
:103AA0009F4F089557FD9058440F551F59F05F3FA1
:103AB00071F04795880F97FB991F61F09F3F79F050
:103AC00087950895121613061406551FF2CF4695D2
:103AD000F1DF08C0161617061806991FF1CF869554
:103AE0007105610508940895E894BB276627772738
:103AF000CB0197F90895DB018F939F930E94AD1D31
:103B0000BF91AF91A29F800D911DA39F900DB29F79
:103B1000900D11240895A1E21A2EAA1BBB1BFD01D2
:103B20000DC0AA1FBB1FEE1FFF1FA217B307E4079C
:103B3000F50720F0A21BB30BE40BF50B661F771FF4
:103B4000881F991F1A9469F76095709580959095D4
:103B50009B01AC01BD01CF0108950E94B81DA59F36
:103B6000900DB49F900DA49F800D911D1124089578
:103B7000A29FB001B39FC001A39F700D811D1124AE
:103B8000911DB29F700D811D1124911D08955058F3
:103B9000BB27AA270E94DF1D0C94411D0E94331DE4
:103BA00038F00E943A1D20F039F49F3F19F426F4B2
:103BB0000C94301D0EF4E095E7FB0C942A1DE92FC0
:103BC0000E94521D58F3BA176207730784079507BE
:103BD00020F079F4A6F50C94741D0EF4E0950B2EEC
:103BE000BA2FA02D0B01B90190010C01CA01A0014F
:103BF0001124FF27591B99F0593F50F4503E68F1AA
:103C00001A16F040A22F232F342F4427585FF3CFEA
:103C1000469537952795A795F0405395C9F77EF4BB
:103C20001F16BA0B620B730B840BBAF09150A1F004
:103C3000FF0FBB1F661F771F881FC2F70EC0BA0F8A
:103C4000621F731F841F48F4879577956795B79512
:103C5000F7959E3F08F0B0CF9395880F08F099270D
:103C6000EE0F9795879508950E94481E0C94411D6C
:103C70000E943A1D58F00E94331D40F029F45F3F26
:103C800029F00C942A1D51110C94751D0C94301DB3
:103C90000E94521D68F39923B1F3552391F3951BAC
:103CA000550BBB27AA2762177307840738F09F5F5D
:103CB0005F4F220F331F441FAA1FA9F335D00E2ECA
:103CC0003AF0E0E832D091505040E695001CCAF737
:103CD0002BD0FE2F29D0660F771F881FBB1F2617FA
:103CE00037074807AB07B0E809F0BB0B802DBF01D1
:103CF000FF2793585F4F3AF09E3F510578F00C94A0
:103D00002A1D0C94751D5F3FE4F3983ED4F386950D
:103D100077956795B795F7959F5FC9F7880F911DC0
:103D20009695879597F90895E1E0660F771F881FAC
:103D3000BB1F621773078407BA0720F0621B730B5F
:103D4000840BBA0BEE1F88F7E09508950E94AD1E14
:103D50006894B1110C94751D08950E945A1D88F045
:103D60009F5798F0B92F9927B751B0F0E1F0660F3F
:103D7000771F881F991F1AF0BA95C9F714C0B13080
:103D800091F00E94741DB1E008950C94741D672F8A
:103D9000782F8827B85F39F0B93FCCF386957795AF
:103DA0006795B395D9F73EF4909580957095619598
:103DB0007F4F8F4F9F4F08950E94991C08F48FEFFB
:103DC0000895FA01EE0FFF1F309621053105A1F18C
:103DD0006115710561F48038BFE39B0749F1689470
:103DE0009038810561F08038BFEF9B0741F099233F
:103DF0004AF5FF3FE1053105210519F1E8940894E2
:103E0000E795D901AA2329F4AB2FBE2FF85FD0F391
:103E100010C0FF5F70F4A695E0F7F73950F019F085
:103E2000FF3A38F49F779F930DD00F9007FC90587E
:103E3000089546F00C94301D60E070E080E89FE348
:103E400008954FE79F775F934F933F932F930E947F
:103E5000E11F2F913F914F915F910E94BD1C0C94E7
:103E60003E1F0E94991C880B990B089529F416F0A7
:103E70000C942A1D0C94741D0C94301D0E945A1D24
:103E8000A8F39638A0F707F80F92E8942BE33AEAE4
:103E900048EB5FE70E94D31C0F920F920F924DB731
:103EA0005EB70F920E942920E8E6F0E00E94701FA2
:103EB0004F915F91EF91FF91E595EE1FFF1F49F044
:103EC000FE57E0684427EE0F441FFA95E1F741954D
:103ED000550B0E94A31F0F9007FE0C94971F089587
:103EE000DF93CF931F930F93FF92EF92DF927B01AB
:103EF0008C01689406C0DA2EEF010E94D01CFE01EE
:103F0000E894A5912591359145915591A6F3EF013E
:103F10000E94DF1DFE019701A801DA9469F7DF9086
:103F2000EF90FF900F911F91CF91DF9108959B012A
:103F3000AC0160E070E080E89FE30C94341E0C94C8
:103F40002A1D0C945D200E945A1DD8F39923C9F3B1
:103F5000940F511DA3F39150504094F059F08823D1
:103F600032F0660F771F881F91505040C1F79E3F77
:103F700051052CF7880F911D9695879597F908950F
:103F80005F3FACF0983E9CF0BB2786957795679590
:103F9000B79508F4B1609395C1F7BB0F58F711F4CA
:103FA00060FFE8CF6F5F7F4F8F4F9F4FE3CF0C9441
:103FB000751D16F00C945D200C94301D68940C94C3
:103FC0002A1D0E945A1DA8F39923C1F3AEF3DF9373
:103FD000CF931F930F93FF92C92FDD2788232AF0D9
:103FE0002197660F771F881FDAF720E030E040E85E
:103FF0005FEB9FE3883920F0803E38F021968F7781
:104000000E94C81DE0E9F0E004C00E94C81DEDEB6D
:10401000F0E00E94701F8B01BE01EC01FB2E6F5778
:1040200071097595771F880B990B0E945E1C28E11A
:1040300032E741E35FE30E94D01CAF2D9801AE014F
:10404000FF900F911F91CF91DF910E94DF1D0C9483
:10405000411DFA01DC01AA0FBB1F9B01AC01BF5738
:1040600028F4222733274427507820C0B75190F4F2
:10407000AB2F0024469537952795011CA395D2F3C5
:10408000002071F0220F331F441FB395DAF30ED0D6
:104090000C94C71D61307105A0E88A07B94630F459
:1040A0009B01AC016627772788279078309621F00E
:1040B000208331834283538308959F3F31F0915091
:1040C00020F4879577956795B795880F911D9695FC
:1040D000879597F90895AA1BBB1B51E107C0AA1F3A
:1040E000BB1FA617B70710F0A61BB70B881F991F99
:1040F0005A95A9F780959095BC01CD01089597FB3D
:10410000072E16F4009407D077FD09D00E946B208B
:1041100007FC05D03EF4909581959F4F08957095CA
:1041200061957F4F0895EE0FFF1F0590F491E02DEC
:1041300009940F931F93CF93DF938230910510F46E
:1041400082E090E0E0919A06F0919B0630E020E05A
:10415000B0E0A0E0309799F42115310509F44AC088
:10416000281B390B24303105D8F58A819B816115D4
:10417000710589F1FB0193838283FE0111C04081A7
:1041800051810281138148175907E0F048175907F8
:1041900099F4109761F012960C93129713961C9352
:1041A0003296CF01DF91CF911F910F910895009327
:1041B0009A0610939B06F4CF2115310551F0421752
:1041C000530738F0A901DB019A01BD01DF01F801B5
:1041D000C1CFEF01F9CF90939B0680939A06CDCF84
:1041E000FE01E20FF31F819391932250310939832D
:1041F0002883D7CF2091980630919906232B41F43C
:104200002091090130910A01309399062093980674
:1042100020910701309108012115310541F42DB796
:104220003EB740910B0150910C01241B350BE091DE
:104230009806F0919906E217F307A0F42E1B3F0BA6
:104240002817390778F0AC014E5F5F4F2417350708
:1042500048F04E0F5F1F5093990640939806819344
:1042600091939FCFF0E0E0E09CCFCF93DF93009756
:10427000E9F0FC01329713821282A0919A06B09164
:104280009B06ED0130E020E01097A1F42081318100
:10429000820F931F209198063091990628173907AD
:1042A00009F061C0F0939906E0939806DF91CF91F1
:1042B0000895EA01CE17DF07E8F54A815B819E0188
:1042C00041155105B1F7E901FB83EA834991599101
:1042D000C40FD51FEC17FD0761F480819181029610
:1042E000840F951FE90199838883828193819B8341
:1042F0008A83F0E0E0E012968D919C9113970097ED
:10430000B9F52D913C911197CD010296820F931F23
:1043100020919806309199062817390739F6309779
:1043200051F510929B0610929A06B0939906A093AD
:104330009806BCCFD383C28340815181840F951FDF
:10434000C817D90761F44E5F5F4F88819981480F84
:10435000591F518340838A819B81938382832115D6
:10436000310509F0B0CFF0939B06E0939A069ECFFB
:10437000FD01DC01C0CF13821282D7CFF894FFCFAA
:10438000C309016F12833A00009C06800000000000
:10439000000B03680298025803C902A702BB02007F
:1043A000000000AD09A209BE0997029B098809799E
:1043B0000900000000F509750D000000000F07CE90
:1043C00006BE06BD069106500647061D06CC05B082
:1043D00006C905A306C5059702B505A5056A054DDD
:1043E000051C05D20400000000E1071B08BE06BD45
:1043F000069106500647061D06CC05B006C905A362
:10440000061F070E09EB08C80864084D053A087333
:10441000070D0A006E616E00696E66006F766600B9
:104420007365747365676D656E74496E743A2000C8
:10443000564D4450565F317C315F564D4450560ABC
:1044400000564D4450525F006D6F746F7220737050
:104450006565642E2E2E00616D3130303877207303
:10446000746172742E2E2E006972207374617274DE
:104470002E2E2E006D713133312073746172742EC3
:104480002E2E0070696E20636F6E666967207374EC
:104490006172742E2E2E00656E642E2E2E005468CE
:1044A000652066756E6374696F6E206465636F6402
:1044B000652826726573756C7473292920697320C9
:1044C0006465707265636174656420616E64206DFB
:1044D0006179206E6F7420776F726B206173206535
:1044E0007870656374656421204A757374207573F0
:1044F00065206465636F6465282920776974686F37
:104500007574206120706172616D657465722061DF
:104510006E6420497252656365697665722E6465C2
:10452000636F6465644952446174612E3C666965D9
:104530006C646E616D653E202E0050313000706DF0
:10454000312E303A200050323500706D322E353A1F
:104550002000706D31303A200068756D69646974AF
:10456000793A200074656D70657261747572653A90
:10457000200052656164696E672E2E2E004F332035
:1045800056616C75653A00436F6E63656E74726157
:1045900074696F6E204F33203A20002070706200E3
:1045A000206D672F6D33002075672F6D3300506CC1
:0C45B000617A6D61204F66662E2E2E0091
:107E0000112484B714BE81FFF0D085E080938100F7
:107E100082E08093C00088E18093C10086E0809377
:107E2000C20080E18093C4008EE0C9D0259A86E02C
:107E300020E33CEF91E0309385002093840096BBD3
:107E4000B09BFECF1D9AA8958150A9F7CC24DD24C4
:107E500088248394B5E0AB2EA1E19A2EF3E0BF2EE7
:107E6000A2D0813461F49FD0082FAFD0023811F036
:107E7000013811F484E001C083E08DD089C08234E0
:107E800011F484E103C0853419F485E0A6D080C0E4
:107E9000853579F488D0E82EFF2485D0082F10E0AE
:107EA000102F00270E291F29000F111F8ED06801E7
:107EB0006FC0863521F484E090D080E0DECF843638
:107EC00009F040C070D06FD0082F6DD080E0C81688
:107ED00080E7D80618F4F601B7BEE895C0E0D1E017
:107EE00062D089930C17E1F7F0E0CF16F0E7DF06D8
:107EF00018F0F601B7BEE89568D007B600FCFDCFD4
:107F0000A601A0E0B1E02C9130E011968C91119780
:107F100090E0982F8827822B932B1296FA010C0160
:107F200087BEE89511244E5F5F4FF1E0A038BF0790
:107F300051F7F601A7BEE89507B600FCFDCF97BE46
:107F4000E89526C08437B1F42ED02DD0F82E2BD052
:107F50003CD0F601EF2C8F010F5F1F4F84911BD097
:107F6000EA94F801C1F70894C11CD11CFA94CF0C13
:107F7000D11C0EC0853739F428D08EE10CD085E9AC
:107F80000AD08FE07ACF813511F488E018D01DD067
:107F900080E101D065CF982F8091C00085FFFCCF94
:107FA0009093C60008958091C00087FFFCCF809118
:107FB000C00084FD01C0A8958091C6000895E0E648
:107FC000F0E098E1908380830895EDDF803219F02E
:107FD00088E0F5DFFFCF84E1DECF1F93182FE3DFCA
:107FE0001150E9F7F2DF1F91089580E0E8DFEE27F6
:047FF000FF270994CA
:027FFE00040479
:0400000300007E007B
:00000001FF