:100000000C941B010C9443010C9443010C94430188
:100010000C9443010C9443010C9443010C94430150
:100020000C9468010C9443010C9443010C9443011B
:100030000C9443010C9443010C9443010C94430130
:100040000C94391B0C9443010C94891E0C94BB1E18
:100050000C9443010C9443010C9443010C94430110
:100060000C940D1A0C94430107634236B79BD8A732
:100070001A39685618AEBAAB558C1D3CB7CC5763CD
:10008000BD6DEDFD753EF6177231BF000000803F7B
:1000900008000000BE922449123EABAAAA2ABECD97
:1000A000CCCC4C3E00000080BEABAAAAAA3E000009
:1000B0000000BF000000803F000000000008417801
:1000C000D3BB4387D1133D190E3CC3BD4282AD2B38
:1000D0003E68EC8276BED98FE1A93E4C80EFFFBE30
:1000E00001C4FF7F3F00000000000086227E6D00FB
:1000F000000230066300044080523F065B4F666D8D
:100100007D277F6F0000004800535F777F393F797C
:10011000713D76061E693815373F7367316D783E3D
:100120002A1D766E5B39640F0008205F7C585E7B69
:10013000316F74040E753055545C7367506D781CC4
:100140002A1D766E47460670013F065B4F666D7D41
:10015000077F6F777C395E79710086227E6D0000A3
:100160000230066300044080523F065B4F666D7D9F
:10017000277F6F0000004800535F777F393F797118
:100180003D76061E693815373F7367316D783E2A14
:100190001D766E5B39640F0008205F7C585E7B31F2
:1001A0006F74040E753055545C7367506D781C2A5B
:1001B0001D766E47460670013F065B4F666D7D07F4
:1001C0007F6F777C395E79710000000900030200BF
:1001D000000405080000000000000000000000010D
:1001E00002040810204080010204081020010204CB
:1001F00008102040804004040404040404040202A3
:1002000002020202030303030303020203000000CD
:100210000023002600290000000000250028002BF4
:100220000000000000240027002A0000380A011204
:1002300061170D19EB1E11241FBECFEFD8E0DEBFF2
:10024000CDBF13E0A0E0B1E0EAE9FDE402C0059013
:100250000D92AC34B107D9F726E0ACE4B3E001C0AD
:100260001D92A33BB207E1F711E0CBE1D1E004C05E
:100270002197FE010E94A025C631D107C9F70E942F
:10028000191F0C94CB260C9400008091FC04882349
:1002900019F060E00C94001D2D98089582E0809381
:1002A000B0008093B10082E38093B3008093B400E8
:1002B0001092B2000895882349F08091FC048823AD
:1002C00019F061E00C94001D2D9A08950C944501DD
:1002D0001F920F920FB60F9211242F933F934F93BB
:1002E0005F936F937F938F939F93AF93BF93CF93BE
:1002F000EF93FF93E091EF03F091F003C0818091C1
:10030000F103C8238091F2039091F303019649F021
:100310008091F2039091F30301969093F3038093FD
:10032000F2038091ED0381111AC0C11171C0809157
:10033000F2039091F3038536910508F442C01092C0
:10034000F6038091F2039091F3039093F903809365
:10035000F80381E08093F7038093ED0332C080912E
:10036000ED038130B1F4CC2309F452C08091F20343
:100370009091F303E091F70321E02E0F2093F70310
:10038000F0E0EE0FFF1FE351FC4F9487838782E07C
:10039000E3CF8091ED03823009F054C0C11127C032
:1003A000E091F703E03790F081E08093F60383E07B
:1003B0008093ED03E091F403F091F503309709F099
:1003C00009951092F3031092F20322C08091F20378
:1003D0009091F30321E02E0F2093F703F0E0EE0F4E
:1003E000FF1FE351FC4F9487838781E0B5CF809155
:1003F000F2039091F3038536910550F083E08093EA
:10040000ED03E091F403F091F503309709F00995BD
:100410008091FD04813021F4C11180E00E945B01D4
:10042000FF91EF91CF91BF91AF919F918F917F916C
:100430006F915F914F913F912F910F900FBE0F9051
:100440001F9018958091ED03833011F7C111E0CF13
:10045000B8CF862FADEEB3E011966C931197262F8F
:1004600030E0F901E152FE4FE4911496EC931497B9
:10047000F901EA50FE4FE491F0E0EE0FFF1FE35F59
:10048000FD4F2591349113963C932E93129760E083
:100490000C94C41C2DEE33E0FC01308F278B60E000
:1004A0000E9429021092FC0408952DEE33E0FC0115
:1004B000308F278B0E9429021092FC0408958091AE
:1004C000ED03833011F41092ED030895CF93DF9381
:1004D000EC010E944E01CE010E945F0284E08093F5
:1004E0007000DF91CF9108958AE0849FF001859F8D
:1004F000F00D11249B0193E0220F331F9A95E1F731
:10050000E217F30778F0869F9001879F300D112442
:1005100083E0440F551F8A95E1F72417350720F033
:1005200081E0089580E0089582E008958F929F927F
:10053000AF92BF92CF92DF92EF92FF920F931F93F1
:10054000CF93DF93FB018684F5E0F81508F042C0F5
:10055000EB015C010C851D850E5F1F4F83E0982E1B
:1005600095ECC92E9DE9D92E9CE1E92E91E8F92E52
:10057000F801448155810E5F1F4F60817181C50173
:100580000E947402E82FA701960163E971E080E000
:1005900091E00E942C256B017C01CE26939489105A
:1005A000E7CFCC82DD82EE82FF8280E288871982EB
:1005B0001882F5011182108281E0DF91CF911F91A5
:1005C0000F91FF90EF90DF90CF90BF90AF909F90F2
:1005D0008F90089580E0F1CFFC01A789B08D1B9624
:1005E0008D919C918617970718F482858160828788
:1005F00008959C01FB01CB0163E470E00E943C255F
:100600002617370758F0CF0168E270E00E943C25BA
:100610006F5F7F4F81E06217730708F480E00895F1
:10062000BF92CF92DF92EF92FF920F931F93CF93DF
:10063000DF93DC015796ED91FC911091EC038285DC
:10064000B12C1817B0F5B12FB170BB2E0091E90392
:10065000011120C0812F90E0880F991FE80FF91F2A
:10066000C384D484CCEEDFEFBB2311F0C4E1D0E02F
:10067000E090E703F090E803CE0DDF1DBE01C60158
:100680000E94F902882301F181E090E09093EB034E
:100690008093EA030F5F0093E9038091EA0390914E
:1006A000EB030817190628F01092E9031F5F109357
:1006B000EC038B2DDF91CF911F910F91FF90EF9065
:1006C000DF90CF90BF900895CE0DDF1DBE01C60113
:1006D0000E94F902882319F082E090E0D7CFB70199
:1006E0006C0F7D1FC6010E94F902882319F083E078
:1006F00090E0CCCFBB24BA94DCCFFC019B012C5EF4
:100700003F4FC90163E470E00E943C25E617F707FC
:1007100058F0C90168E270E00E943C256F5F7F4F8E
:1007200081E06E177F0708F480E00895FC019B01CB
:1007300024513109C90163E470E00E943C25E617A9
:10074000F70758F0C90168E270E00E943C256F5F2E
:100750007F4F81E06E177F0708F480E008952F92A5
:100760003F924F925F926F927F928F929F92AF9241
:10077000BF92CF92DF92EF92FF920F931F93CF938E
:10078000DF93CDB7DEB728970FB6F894DEBF0FBE64
:10079000CDBF9A838983362E69012A2C842F90E05D
:1007A000880F991F0B96E981FA814789508D840F34
:1007B000951F98878F83812C912C54018394412C11
:1007C000512C32013320D9F1EF81F885C016D106C2
:1007D000E9F40280F381E02DFC83EB8321101DC03E
:1007E000B7018B819C810E949603882321F02220EF
:1007F00009F1689440F8880C991CAA1CBB1C3A9417
:100800008F819885049698878F83DCCF0190F08143
:10081000E02DFE83ED83222039F0440C551C661C2C
:10082000771CC016D106E1F2B6018D819E810E942F
:100830007D03DBCF482859286A287B28DCCFE98153
:10084000FA81438654866586768681E028960FB6BF
:10085000F894DEBF0FBECDBFDF91CF911F910F91F6
:10086000FF90EF90DF90CF90BF90AF909F908F90D0
:100870007F906F905F904F903F902F9008958F9250
:100880009F92AF92CF92DF92EF92FF920F931F93BE
:10089000CF93DF93DC015796ED91FC9122852232B4
:1008A00069F080E0DF91CF911F910F91FF90EF9061
:1008B000DF90CF90AF909F908F900895DB011C96B2
:1008C000ED91FC912281338124503109253031058D
:1008D00040F7248135812B5031092A30310508F742
:1008E0004B01EC01AA24A3948CE0C82E83E0D82EFF
:1008F0009CE1E92E97E0F92E10E000E024E031E0E1
:1009000043E06FE0CE010E94AF03882351F24B8594
:100910005C856D857E85F40144835583668377838A
:100920009FE0908724E030E031832083398328835F
:10093000B9CF8F929F92AF92CF92DF92EF92FF92B8
:100940000F931F93CF93DF93EC01FB0146856485E2
:100950007585DB0112962D913C91423269F4C901F3
:100960000897079748F4CB018E5B9F4FDC018D9170
:100970009C910897079790F02D573109273531053D
:10098000E8F080E0DF91CF911F910F91FF90EF9001
:10099000DF90CF90AF909F908F90089510868FEF4B
:1009A0009FEFDC0184839583A683B78381E08A87E8
:1009B00085E090E09983888381E0E4CF443208F3B6
:1009C000DB0114968D919C91CE978C97D0F64F01B8
:1009D000AA24A3948EE0C82E82E0D82E9AE2E92EB3
:1009E00096E0F92E10E000E02EE032E043E060E116
:1009F000CE010E94AF03882321F2D4011C96ED9111
:100A0000FC91EA5BFF4F208131812850310927306A
:100A1000310508F0B6CF4B855C856D857E85F40188
:100A2000448355836683778390E1908725E030E0A7
:100A30003183208339832883A5CF8F929F92AF92F1
:100A4000CF92DF92EF92FF920F931F93CF93DF939A
:100A5000EB012E852C3369F080E0DF91CF911F915F
:100A60000F91FF90EF90DF90CF90AF909F908F907D
:100A70000895EC85FD8522813381265831092D3575
:100A8000310550F7248135812E5331092C3231053F
:100A900018F74C01AA24A39486E2C82E82E0D82E2F
:100AA0009CE2E92E96E0F92E10E000E024EF31E020
:100AB00043E06CE1C4010E94AF03882369F2EC8536
:100AC000FD85EA58FF4F20813181275031092830B8
:100AD000310510F6F40143855485658576854C8390
:100AE0005D836E837F839CE1988726E030E03983C5
:100AF000288331832083B1CF8F929F92AF92CF9280
:100B0000DF92EF92FF920F931F93CF93DF93DC015D
:100B1000FB01C485D5858A819B81865891098C35D6
:100B2000910568F080E0DF91CF911F910F91FF90C8
:100B3000EF90DF90CF90AF909F908F900895868533
:100B40008430F9F48C819D818197489758F78E8184
:100B50009F810897089730F710864FEF5FEFBA0133
:100B600044835583668377831A968C911A978160A4
:100B70001A968C931A9788E090E08D939C9381E06D
:100B8000D2CF843479F68C819D81825491098F97DC
:100B900048F6EB014D01AA24A39480E3C82E82E01D
:100BA000D82E90E9E92E96E0F92E10E000E020E33F
:100BB00032E043E060E2CD010E94AF03882309F4F4
:100BC000B1CFEC85FD85EA57FF4F20813181285058
:100BD00031092830310508F0A5CFF401438554854B
:100BE000658576854C835D836E837F8390E29887ED
:100BF00028E030E0398328833183208394CFCF925B
:100C0000DF92EF92FF920F931F93CF93DF93EC014C
:100C100081E08093EC0389E793E09093E80380936D
:100C2000E7031092E903CE010E941003813051F0D6
:100C300080E0DF91CF911F910F91FF90EF90DF90B7
:100C4000CF900895C12CD12C760110E0EF89F88D5A
:100C500092858091EC038917E0F4CE010E94100385
:100C6000082FCE010E94100301110AC0813001F744
:100C7000CC0CDD1CEE1CFF1C6894C0F81F5FE6CF97
:100C80000130B1F68111D4CFCC0CDD1CEE1CFF1C61
:100C9000F5CF812F90E099878887CB86DC86ED861B
:100CA000FE868C2D8F7390E09D838C83960146E0A9
:100CB000369527954A95E1F72F7133273B832A8391
:100CC000960122273071232B21F4805C9F4F9D8356
:100CD0008C8380E8D3FC88E88A8781E190E099835F
:100CE00088836FEC79E0CE010E94EC0281E0A1CF15
:100CF000BF92CF92DF92EF92FF920F931F93CF9309
:100D0000DF93DC015796ED91FC9158972585368548
:100D1000285231092D31310558F080E0DF91CF9113
:100D20001F910F91FF90EF90DF90CF90BF900895AB
:100D3000278530892C5031092B30310570F7EC01B3
:100D400083E08093EC038CEB91E09093E803809335
:100D5000E7031092E903CD010E9410038130E9F608
:100D6000CE010E9410038111D8CFC12CD12C760165
:100D700010E0EF89F88D92858091EC03891770F56A
:100D8000CE010E941003B82E1330C1F0CE010E9494
:100D90001003082F133029F4CE010E94100308130A
:100DA000BCCFB1E0BB1210C00111B7CFCC0CDD1C21
:100DB000EE1CFF1C6894C0F81F5FDBCFCE010E94C1
:100DC0001003B81619F3A9CFB110A7CF013009F05D
:100DD000A4CFCC0CDD1CEE1CFF1CEECF812F90E0CD
:100DE00099878887CB86DC86ED86FE868D2D2C2D17
:100DF00030E01432E0F480E88A873D832C838D2D27
:100E000090E09B838A83E0FE02C088E88A871531E0
:100E100018F08A8580618A8763E77AE0CE010E94B4
:100E2000EC0282E190E09983888381E077CF90E8BB
:100E3000D7FC98E89A873D832C838F7790E09B833B
:100E40008A83EACF8F929F92AF92CF92DF92EF92F6
:100E5000FF920F931F93CF93DF93EC01FB01A485C7
:100E6000B58512968D919C911397835491098F9714
:100E700068F080E0DF91CF911F910F91FF90EF908C
:100E8000DF90CF90AF909F908F90089586858430AB
:100E9000E9F414968D919C9115978197489748F79E
:100EA00016968D919C910897089718F710868FEFEA
:100EB0009FEFDC0184839583A683B78381E08A87D3
:100EC00083E190E09983888381E0D4CF843488F2F1
:100ED00014968D919C91825491098F9750F64B01F5
:100EE000AA24A39480E3C82E82E0D82E90E9E92EAC
:100EF00096E0F92E10E000E020E332E043E060E20B
:100F0000CE010E94AF03882309F4B3CF4B855C85E3
:100F10006D857E85F401448355836683778390E2F3
:100F2000908723E130E03183208339832883A2CF67
:100F3000FF920F931F93CF93DF93EC01DB011E967B
:100F40002C911E972A3108F43FC01C96ED91FC911C
:100F50001D97808191810A97C8F418961C92189762
:100F60004FEF5FEFBA0114964D935D936D937C93B1
:100F7000179781E08A8787E190E09983888381E0F1
:100F8000DF91CF911F910F91FF90089582819381FE
:100F900084974A97C8F483E090E0F12C40E050E059
:100FA000BA0130E08217930728F5048115810850B3
:100FB00011090830110540F406811781023111052D
:100FC00028F00032110568F080E0DACF0930110511
:100FD000D8F301311105C0F7440F551F661F771F65
:100FE00005C0440F551F661F771F4160F39402969A
:100FF0003496D8CF1896FC92189714964D935D931B
:101000006D937C93179787E190E08D939C93B5CF78
:10101000FF920F931F93CF93DF932091ED03F12C59
:10102000233081F5EB018C018091E603811109C029
:101030006EE071E082E196E00E947B1F81E0809388
:10104000E60388EF93E09D878C878091F7038E8776
:101050008091F603882321F01092F6031092F70393
:101060008091F6038F871C821D821E821F8280E87A
:10107000F8018287BE01C8010E947C05882349F0DF
:10108000FF24F3948F2DDF91CF911F910F91FF904B
:101090000895BE01C8010E9498078111F1CFC801CF
:1010A0000E94FF05F82E882381F0F801808588874B
:1010B00083859485A585B6858C839D83AE83BF8308
:1010C00081E190E099838883DDCFC8010E94780692
:1010D000F82E882371F0F8018085888783859485B0
:1010E000A585B6858C839D83AE83BF8382E190E026
:1010F000E9CFBE01C8010E941D058111C1CFBE010B
:10110000C8010E9499048111BBCFBE01C8010E9491
:1011100022078111B5CFBE01C8010E943F04811191
:10112000AFCFBE01C8010E949602F82E8111A8CF50
:10113000C8010E945F02A6CF80910A0190910B0125
:10114000019690930B0180930A01843C994009F029
:1011500046C010920B0110920A0180E893E00E94B1
:10116000AA0E81113CC080E893E00E94890F909301
:10117000D3038093D20380E893E00E948D0F909375
:10118000D1038093D00380E893E00E94910F909365
:10119000CF038093CE0380E893E00E947D0F20E090
:1011A00030E040E251E40E9435236093CA0370931B
:1011B000CB038093CC039093CD0380E893E00E940F
:1011C000830F20E030E040E251E40E943523609339
:1011D000C6037093C7038093C8039093C90308950F
:1011E0008091DF03813099F028F08230D9F083308C
:1011F00001F1089560E080E10E94001D60E08FE051
:101200000E94001D70E060E089E00C943E1C61E0EB
:1012100080E10E94001D61E08FE00E94001D6CEDE6
:1012200070E0F2CF60E08FE00E94001D6FEF70E091
:10123000EBCF60E080E10E94001D61E08FE00E9442
:10124000001D64EB70E0E0CF80910C01882319F061
:101250008130C9F1089561E083E00E94001D809112
:10126000D8039091D90301969093D9038093D80322
:101270002091DA033091DB038091D8039091D90358
:101280002817390741F460E085E00E94001D60E006
:1012900086E00E94001D2091DC033091DD038091E7
:1012A000D8039091D90328173907C9F461E085E084
:1012B0000E94001D61E086E00E94001D1092D9038B
:1012C0001092D803089560E083E00E94001D60E062
:1012D00085E00E94001D60E086E00C94001D0895EA
:1012E000CF92DF92EF92FF928091D4039091D50339
:1012F00001969093D5038093D4038133954708F4E6
:1013000087C01092D5031092D4036AEA71E082E19B
:1013100096E00E947B1F8EEF94E00E94B81065EB70
:1013200071E082E196E00E94681F70E060E08EEF5D
:1013300094E00E945A11AB01BC0140930601509306
:101340000701609308017093090122E030E082E117
:1013500096E00E944F216FEB71E082E196E00E94DF
:10136000681F61E070E08EEF94E00E945A11AB01BB
:10137000BC0122E030E082E196E00E944F2163ED63
:1013800071E082E196E00E947B1F6FEB71E082E1E9
:1013900096E00E94681F62E070E08EEF94E00E9489
:1013A0005A11AB01BC0122E030E082E196E00E94DC
:1013B0004F2168ED71E082E196E00E947B1F6FEBA8
:1013C00071E082E196E00E94681F63E070E08EEFBA
:1013D00094E00E945A11AB01BC0122E030E082E1AE
:1013E00096E00E944F216FED71E082E196E00E944D
:1013F0007B1F8EEF94E00E94FB1120E030E44CE173
:1014000056E40E94302387FD08C081E080930C01E0
:10141000FF90EF90DF90CF900895C0900601D0909C
:101420000701E0900801F090090120E030E0A901F7
:10143000C701B6010E94302387FDEACF2FE832ECC6
:1014400045EF5CE3C701B6010E94302387FD0DC064
:1014500081E080930C0166EE71E082E196E0FF90FE
:10146000EF90DF90CF900C947B1F10920C01D0CFA7
:10147000CF92EF920F9388ED94E00E944A0210926F
:10148000E1031092FC04CC24C39487E0E82E01E031
:1014900024E04CE06BE08CEB93E00E94FC1364E1F1
:1014A0008CE593E00F91EF90CF900C945502CF9381
:1014B0006CE473E08CE593E00E940808882309F44B
:1014C00036C1409150035091510360915203709185
:1014D00053032AE030E082E196E00E945920809197
:1014E000500390915103A0915203B091530384345F
:1014F00021E9920729EFA20725E8B20709F4DEC027
:1015000080F5811526E3920727E8A20726E4B207B3
:1015100009F462C058F48832944FA24DBE4009F4D9
:10152000E8C08CE593E0CF910C945F02843E2EE1FD
:10153000920722E3A20725E5B20709F44DC0803ADD
:101540009C41AB48B94669F71092D9031092D80371
:101550008AE090E09093DB038093DA0380EA9FE0D7
:10156000D4C084302DEE92072DE7A2072AEAB207F5
:1015700009F450C0A8F484329644A744BF4989F6C0
:101580008091E003882369F28091DF038F5F80936D
:10159000DF03843008F46EC081E08093DF036AC00B
:1015A00084302CE892072DEDA20721EEB20709F452
:1015B000B1C084349640AD4FBB4E09F0B2CF10920B
:1015C000D9031092D8038AE090E09093DB038093D4
:1015D000DA0380ED97E099C01092D9031092D803F6
:1015E0008AE090E09093DB038093DA0386E990E051
:1015F0009093DD038093DC038091E003882309F45A
:1016000090CF60E082E00E94001D61E08EE00E94C9
:10161000001D87CF8091E003C1E08C278093E00319
:101620008091E003882349F110920C0161E08DE084
:101630000E94001D61E082E00E94001D61E085E1E2
:101640000E94001DC093DF031092D9031092D803AB
:101650008AE090E09093DB038093DA0380ED97E0DB
:101660009093DD038093DC031092DE031092D70386
:101670001092D6030E94F00854CFC0930C0160E092
:1016800082E00E94001D60E085E10E94001D60E094
:1016900089E00E94001D60E083E00E94001D60E080
:1016A0008DE00E94001D60E08EE00E94001D1092FF
:1016B000DF038CEB93E00E943312DCCF1092D9034E
:1016C0001092D8038AE090E09093DB038093DA03D2
:1016D00080ED97E09093DD038093DC038091E0033D
:1016E000882309F41ECF61E082E00E94001D60E0C3
:1016F0008DCF1092D9031092D8038AE090E0909396
:10170000DB038093DA0384EF91E09093DD03809311
:10171000DC0307CF1092D9031092D8038AE090E03F
:101720009093DB038093DA0388EB9BE0EECFCF91BD
:101730000895CF92DF92EF92FF920F931F9348EBA1
:101740005BE060E070E08DE195E00E94281740E0EA
:101750005BE460E070E08DE195E00E94111761E0CC
:101760008DE195E00E94E016882391F064EF71E02E
:1017700082E196E00E94681F4AE050E060E070E07D
:101780008DE195E00E94CB168DE195E00E94101747
:1017900041E060E08DE195E00E949D1761E08DE100
:1017A00095E00E94E016882351F065E072E082E146
:1017B00096E00E94681F8DE195E00E94101726E0D8
:1017C00040E05BE460E070E082E196E00E94311E60
:1017D0006CE072E082E196E00E947B1F80918100C4
:1017E000887F8260809381006BE172E082E196E005
:1017F0000E947B1F63E675E080E893E00E94A40EE0
:101800006CE272E082E196E00E947B1F8CE593E03F
:101810000E94660268E372E082E196E00E947B1F0C
:10182000D12CC12C10E4E12E12E4F12E0FE010E0D7
:1018300030E020E046E063E08EEF94E00E94C50FC8
:1018400048E451E664E774E48EEF94E00E94F511F9
:1018500040E050E0BA018EEF94E00E945F1067E430
:1018600072E082E196E00E947B1F61E089E00E94C5
:10187000C41C61E083E00E94C41C61E085E00E941A
:10188000C41C61E086E00E94C41C61E082E00E940A
:10189000C41C61E089E00E94C41C61E08DE00E94EC
:1018A000C41C61E08FE00E94C41C61E080E10E94E2
:1018B000C41C61E08EE00E94C41C61E085E10E94CE
:1018C000C41C8CEB93E00E94331260E087E00E941E
:1018D000C41C60E08AE00E94C41C60E088E00E94B2
:1018E000C41C60E084E00E94C41C6BE572E082E1ED
:1018F00096E01F910F91FF90EF90DF90CF900C94A6
:101900007B1F8F929F92AF92BF92EF92FF920F93A5
:101910001F93CF93DF934B015C01F42E8CEB93E08C
:101920000E943312C501B4010E944822EB01CB0191
:1019300064E670E00E945025E62E42E0BC018CEB8C
:1019400093E00E94AA142AE030E0CE01B9010E947F
:101950005025CB01B9010E94502509E411E021E096
:1019600041E0682F8CEB93E00E94981420E040E067
:101970006E2D8CEB93E00E94981420E043E061E030
:10198000F11005C009E411E020E043E065E08CEBD4
:1019900093E00E949814DF91CF911F910F91FF90D7
:1019A000EF90BF90AF909F908F900895EF92FF922D
:1019B0000F931F93CF93DF937C018CEB93E00E94F6
:1019C000331262E672E082E196E00E94681F609145
:1019D000C4037091C5034AE050E082E196E00E94A2
:1019E0002D20F092C503E092C4038091C40390912E
:1019F000C503CAE0D0E0BE010E94502509E411E011
:101A000020E042E0682F8CEB93E00E9498148AE07B
:101A1000E816F1040CF452C08091C4039091C50300
:101A2000BE010E9450257093C5036093C40362E613
:101A300072E082E196E00E94681F6091C403709199
:101A4000C5034AE050E082E196E00E942D2080919B
:101A5000C4039091C503BE010E94502520E041E0DF
:101A6000682F8CEB93E00E94981484E6E816F1044A
:101A70002CF18091C4039091C503BE010E945025B2
:101A80007093C5036093C40362E672E082E196E05E
:101A90000E94681F6091C4037091C5034AE050E042
:101AA00082E196E00E942D206091C4037091C503ED
:101AB00020E040E08CEB93E00E949814DF91CF91FE
:101AC0001F910F91FF90EF9008950F931F938091B6
:101AD000D6039091D70301969093D7038093D603B2
:101AE000883E934079F48091DE038F5F8093DE031C
:101AF0001092D7031092D6038091DE03853010F048
:101B00001092DE038091DE0381113EC08091D603E6
:101B10009091D7030197C1F48CEB93E00E943312AC
:101B20000AEE10E020E050E040E062E772E08CEB6B
:101B300093E00E941E1509E411E021E041E061E01C
:101B40008CEB93E00E9498148091D6039091D70378
:101B5000843F914009F0E1C066E772E082E196E0DF
:101B60000E94681F6091D2037091D3034AE050E055
:101B700082E196E00E942D208091D2039091D303C0
:101B80001F910F910C94D60C8091DE038130D9F512
:101B90008091D6039091D703892BC1F48CEB93E00D
:101BA0000E9433120AEE10E020E050E040E06EE7C1
:101BB00072E08CEB93E00E941E1509E411E021E035
:101BC00041E062E08CEB93E00E9498148091D60390
:101BD0009091D703843F914009F09FC062E872E082
:101BE00082E196E00E94681F6091D0037091D1035A
:101BF0004AE050E082E196E00E942D208091D003DF
:101C00009091D103BDCF8091DE03823091F5809118
:101C1000D6039091D703892B79F48CEB93E00E9443
:101C200033120AEE10E020E050E040E062E772E09C
:101C30008CEB93E00E941E158091D6039091D70300
:101C4000843F914009F069C06AE872E082E196E061
:101C50000E94681F6091CE037091CF034AE050E06C
:101C600082E196E00E942D208091CE039091CF03D7
:101C700087CF8091DE03833041F58091D603909128
:101C8000D703892B09F049C061E972E082E196E04F
:101C90000E94681F4091CA035091CB036091CC030E
:101CA0007091CD0322E030E082E196E00E94512164
:101CB0006091CA037091CB038091CC039091CD03C6
:101CC00041E01F910F910C94810C8091DE038430D0
:101CD00021F58091D6039091D703892BF1F46CE91B
:101CE00072E082E196E00E94681F4091C603509125
:101CF000C7036091C8037091C90322E030E082E11C
:101D000096E00E9451216091C6037091C7038091B3
:101D1000C8039091C90340E0D4CF1F910F9108955B
:101D20000E94570A8091E003882341F00E94240911
:101D30000E94650D0E949C080E94700961E070E09D
:101D400080E090E00C94B41BFC0171A360A3CB0174
:101D50000C947818EF92FF920F931F93CF93DF9319
:101D6000EC0149E150E068E270E088A199A10E948D
:101D70000A197E0189E1E80EF11C8E0188A199A162
:101D8000DC01ED91FC910084F185E02D0995892B12
:101D900009F4ADC088A199A1DC01ED91FC91028408
:101DA000F385E02D0995F80181938F01EE15FF056C
:101DB00029F78881863111F082E092C099819931AA
:101DC00009F097C0FE0131969E01285E3F4F919128
:101DD00089272E173F07D9F7988D98138CC08A81D1
:101DE0008AA38B8190E0982F88272C81820F911DE8
:101DF0009CA38BA38D8190E0982F88272E81820F42
:101E0000911D9EA38DA36F81862F90E0982F882728
:101E10006885680F792F711D072E000C880B990BB0
:101E20000E94802220E030E040E251E40E94D6216E
:101E30006FA378A789A79AA76985862F90E0982F26
:101E400088276A85680F792F711D645F7140072E9E
:101E5000000C880B990B0E94802220E030E040E2C9
:101E600051E40E94D6216BA77CA78DA79EA78B85E6
:101E700090E0982F88272C85820F911D98AB8FA713
:101E80008D8590E0982F88272E85820F911D9AAB23
:101E900089AB8F8590E0982F88272889820F911D24
:101EA0009CAB8BAB898990E0982F88272A89820F79
:101EB000911D9EAB8DAB8B8990E0982F88272C8944
:101EC000820F911D98AF8FAB8D8990E0982F882756
:101ED0002E89820F911D9AAF89AF8F898BAF80E0D9
:101EE000DF91CF911F910F91FF90EF90089581E0C6
:101EF000F7CF83E0F5CF84E0F3CFFC0167A170A5B5
:101F000081A592A50895FC0163A574A585A596A554
:101F10000895FC0187A590A90895FC0181A992A9C3
:101F20000895FC0183A994A9089508956FE170E0D4
:101F30000C942A1FFC018EEA92E091838083158223
:101F4000148216828FEF878380878FEF9FEFDC01EB
:101F500085879687A787B08B818B928BA38BB48B59
:101F600080E090E0A0E8BFEB858B968BA78BB08FCD
:101F7000818F928FA38FB48F84E1858F81E4868FC8
:101F800041875287638774870895CF92DF92EF92DB
:101F9000FF920F931F93CF93DF93EC01862F91E075
:101FA000C114D10409F490E09E83DD82CC823B838E
:101FB0002A838F834887E986FA860B871C8721301E
:101FC000310539F118F02230310581F44AE057EA41
:101FD0006FEE74E44D8B5E8B6F8B788F40E550E035
:101FE00060E070E0498B5A8B6B8B7C8B61E00E94C8
:101FF000C41C60E088850E94C41C60E08F81DF9172
:10200000CF911F910F91FF90EF90DF90CF900C94A4
:10201000001D40E050E06BE673E4DCCFCF93DF932C
:10202000EC0161E08F810E94001D0E94831B28EE5D
:1020300033E040E050E00E9464252D873E874F87C3
:10204000588BDF91CF910895CF92DF92EF92FF925C
:10205000CF93DF93EC010E94831B28EE33E040E036
:1020600050E00E946425CD84DE84EF84F88889895D
:102070009A89AB89BC898C0D9D1DAE1DBF1D61E089
:10208000281739074A075B0708F460E0862FDF91BD
:10209000CF91FF90EF90DF90CF900895CF93DF9393
:1020A000EC0160E08F810E94001D8FEF9FEFDC014B
:1020B0008D879E87AF87B88BDF91CF910895FC0104
:1020C000418B528B638B748B08958F929F92AF924A
:1020D000BF92CF92DF92EF92FF92CF93DF93EC010A
:1020E00088850E94201CBC0190E080E00E947E2236
:1020F00020E030E040E85AE30E94352320E030E061
:1021000040EA50E40E9435236B017C0120E030E07E
:10211000A9010E94D121882339F169857A858B85AF
:102120009C850E947E224B015C01A701960160E024
:1021300070E080EA90E40E94D62120E030E040E8A0
:102140005FE30E9464219B01AC01C501B4010E94C0
:102150003523DF91CF91FF90EF90DF90CF90BF902C
:10216000AF909F908F90089560E070E0CB01F1CF29
:10217000CF93DF93EC010E940E10CE010E94241039
:10218000811107C061E070E080E090E00E94B41B24
:10219000F4CFCE010E946510698F7A8F8B8F9C8F50
:1021A000CE01DF91CF910C944E10CF93DF93FC01C1
:1021B000D68DC58DDC3339F4C43101F560E070E0B3
:1021C00080E89FE316C06C2F0C2E000C770B880B59
:1021D000990B0E948022DC3478F025E531EC48E24E
:1021E0005CEB0E94352323E23AE443E95FE30E947B
:1021F0006521DF91CF910895D33390F06C2FCC0FF0
:10220000770B880B990B0E94802228E338EF42E479
:102210005CEB0E94352325EA3DEB49EA5FE3E7CF1B
:1022200020EB33E047E65CEB0E94352322E739EFF1
:1022300047EC5FE3DCCF0F931F93CB01BA0120176C
:10224000310751F00130110589F048F002301105D5
:10225000A1F00330110521F11F910F91089520E0A5
:1022600030E04AE754E40E94D621F6CF20E030E087
:102270004AE754E40E943523EFCF232B31F020E0CE
:1022800030E04AE754E40E94D62120E030E040E408
:1022900052E40E9435232BE430EB45EB51E4E3CFCD
:1022A0002130310591F320E030E04AE754E40E9408
:1022B0003523EBCFCF92DF92EF92FF920F931F93D4
:1022C000CF93DF93EC018B01C98CDA8CEB8CFC8C07
:1022D00020E030E0A901C701B6010E94D12187FDAD
:1022E00009C08A819B818130910561F138F00297A4
:1022F00009F457C060E070E0CB014AC02D893E89E7
:102300004F89588DC701B6010E94D6216B017C010F
:10231000CE010E94D5109B01AC01C701B6010E94FD
:1023200035232DE53DE645E150E40E94A2232EE150
:1023300037EA47E151E40E943523AB01BC0121E0BB
:1023400030E023C02D893E894F89588DC701B601E1
:102350000E94D6216B017C01CE010E94D5109B0109
:10236000AC01C701B6010E9435232EEC39E145E1ED
:1023700050E40E94A22328E03DE342E051E40E94A1
:102380003523AB01BC0130E020E0CE010E941B11DF
:10239000DF91CF911F910F91FF90EF90DF90CF9041
:1023A000089526E636E642E451E4C701B6010E94EC
:1023B00035232D893E894F89588D0E94D6216B0186
:1023C0007C01CE010E94D5109B01AC01C701B60172
:1023D0000E94352321EE3AE744E95FEB0E94A223F5
:1023E0002BE237E847ED51E4A6CFFC01458B568B35
:1023F000678B708F0895FC01658976898789908D38
:10240000089540E452E46FE070E08EEF94E00C94A5
:102410009A0F0F931F93CF93DF93EC01162F042F86
:10242000E881F981048CF58DE02D0995612F660F07
:102430006866E881F98100A0F1A1E02DCE0109953F
:10244000E881F98100A0F1A1E02D602FCE0109956E
:10245000E881F981068CF78DE02DCE01DF91CF91D7
:102460001F910F9109940F931F93CF93DF938C01CA
:10247000D0E0C0E0D80112968C9112978C171D06FF
:1024800061F05CF0ED91FC9104A0F5A1E02D40E03D
:102490006C2FC80109952196EDCFDF91CF911F9147
:1024A0000F9108950F931F93CF93DF93EC01062FA5
:1024B000483008F047E011E0140F183009F410E03C
:1024C000E881F981048CF58DE02DCE010995E88134
:1024D000F98100A0F1A1E02D68E4CE010995E88121
:1024E000F98100A0F1A1E02D80E1189FA001112445
:1024F0008B8160E0873009F468E0402B642BCE01CB
:102500000995E881F981068CF78DE02DCE01DF91E8
:10251000CF911F910F9109940F931F93CF938C012B
:10252000DC01ED91FC91048CF58DE02D0995D8012D
:10253000ED91FC9100A0F1A1E02D69E4C80109959D
:10254000D801ED91FC9106A0F7A1E02DC8010995F5
:10255000C82FD801ED91FC91068CF78DE02DC801B4
:10256000099560E070E0CB01C43470F0C83480F4A9
:10257000C45461E070E080E090E004C0660F771F13
:10258000881F991FCA95D2F7CF911F910F91089577
:10259000C03510F4C854EDCFC83510F4CC54E9CF91
:1025A000C03610F4C055E5CFC83610F4C455E1CF9D
:1025B000C03710F4C855DDCFC837D8F6CC55D9CFC1
:1025C00085E090E00C94ED1BCF93DF93EC0161E08C
:1025D0008D810E94001D61E08E810E94001DE881B6
:1025E000F981028CF38DE02DCE01099560E08D819B
:1025F0000E94001D60E08E810E94001DE881F9812B
:10260000028CF38DE02DCE01DF91CF910994CF9311
:10261000DF93EC0160E08E810E94001D60E08D81FF
:102620000E94001DE881F981028CF38DE02DCE011E
:10263000099561E08E810E94001D61E08D810E94FC
:10264000001DE881F981028CF38DE02DCE01DF9130
:10265000CF910994FF920F931F93CF93DF93EC01D7
:10266000F62E08E010E060E08E810E94001DE881F7
:10267000F981028CF38DE02DCE0109956F2D661F37
:102680006627661F8D810E94001DFF0C61E08E8110
:102690000E94001DE881F981028CF38DE02DCE01AE
:1026A000099501501109F9F6E881F981028CF38D41
:1026B000E02DCE010995E881F981028CF38DE02DA2
:1026C000CE01099560E08E810E94001D60E08D8141
:1026D0000E94C41CE881F981028CF38DE02DCE01AB
:1026E000099561E08E810E94001DE881F981028CCC
:1026F000F38DE02DCE0109958D810E942E1D811153
:1027000004C060E08D810E94001D61E08D81DF9139
:10271000CF911F910F91FF900C94C41CEF92FF92E8
:102720001F93CF93DF93EC0160E08E810E94001D28
:1027300060E08D810E94C41C61E08D810E94001DBB
:1027400088E0E82EF12C10E0110F61E08E810E94EC
:10275000001DE881F981028CF38DE02DCE010995F1
:102760008D810E942E1D892B09F0116060E08E8101
:102770000E94001DE881F981028CF38DE02DCE01CD
:10278000099581E0E81AF108F9F660E08E810E946F
:10279000001D60E08D810E94C41C61E08D810E945B
:1027A000001DE881F981028CF38DE02DCE010995A1
:1027B00061E08E810E94001DE881F981028CF38D19
:1027C000E02DCE0109958D810E942E1DF82E60E02E
:1027D0008E810E94001DF11004C060E08D810E9476
:1027E000001D61E08D810E94C41C812FDF91CF917B
:1027F0001F91FF90EF900895AF92CF92DF92EF92EA
:10280000FF920F931F93CF93DF93EC01102FFE2CB9
:10281000DC2CAE2CC02EE22E04E0262F0E947A166D
:1028200086EB92E099838883CE010E94331281E087
:10283000D81681F087E08B834F2D612FCE01DF9179
:10284000CF911F910F91FF90EF90DF90CF90AF90BD
:102850000C94521288E0EFCFDC01ED91FC9102A0C4
:10286000F3A1E02D611106C060E8483008F047E0B0
:10287000642B099468E8F9CF0F931F93CF93DF93EC
:10288000EC01E881F98102A0F3A1E02D60E4099553
:10289000E881F981048CF58DE02DCE010995E88160
:1028A000F98100A0F1A1E02D60ECCE01099510E0C6
:1028B00000E0E881F9818A8180171106A9F0A4F06F
:1028C00000A0F1A1E02D60E0CE0109958B81893057
:1028D00040F0E881F98100A0F1A1E02D60E0CE0197
:1028E00009950F5F1F4FE5CF068CF78DE02DCE01C8
:1028F000DF91CF911F910F9109940895362FDC013C
:10290000ED91FC910480F581E02D60E0211160E8FB
:10291000642B432F0994E42F440FFF0BE75CFE4F19
:102920004491DC01ED91FC910288F389E02D09943A
:102930000F931F93E62F642FEF70E00FF12FF11D1F
:102940004491DC01ED91FC910288F389E02D1F9107
:102950000F9109949F92AF92BF92CF92DF92EF9224
:10296000FF920F931F93CF93DF937C01C1E0C42E9E
:10297000D12C8AE0A82EB12CD70114964C914C177B
:10298000F0F096010C2E02C0359527950A94E2F7D7
:1029900021704C1BCB01B5010E945025962ED72FDC
:1029A000D701ED91FC910084F185E02D08EB11E059
:1029B000682FC7010995692D7D2FCF5FDDCFDF918E
:1029C000CF911F910F91FF90EF90DF90CF90BF902C
:1029D000AF909F900895242FDC01ED91FC91028827
:1029E000F389E02D40E00994CF92DF92EF92FF92BD
:1029F0000F931F93CF93DF937C016B01042F10E0A3
:102A0000D0E0C0E0C017D10781F0F601EC0FFD1F48
:102A10004491D701ED91FC910288F389E02D20E0EB
:102A20006C2FC70109952196EDCFDF91CF911F91B2
:102A30000F91FF90EF90DF90CF9008957F928F924B
:102A40009F92AF92BF92CF92DF92EF92FF920F933D
:102A50001F93CF93DF937C016A01722E8B01D0E02C
:102A6000C0E0A22EB12C88248394912CD701149617
:102A70008C9190E09C012A193B09C217D3070CF5F1
:102A8000F80141918F014423E1F08C1B9D0B0197CC
:102A9000940102C0220F331F8A95E2F7C9018C21ED
:102AA0009D2121E0892B09F420E06C2F670DD701CF
:102AB000ED91FC910688F789E02DC70109952196D3
:102AC000D5CFDF91CF911F910F91FF90EF90DF90C5
:102AD000CF90BF90AF909F908F907F900895FC0112
:102AE0008481089560E070E0CB01089508951F93FC
:102AF000CF93DF93EC01162FE881F981048CF58DDB
:102B0000E02D0995E881F98100A0F1A1E02D612F68
:102B1000CE010995E881F981068CF78DE02DCE0173
:102B2000DF91CF911F9109940F931F93CF93DF9360
:102B3000EC01162F042FE881F98102A0F3A1E02D0A
:102B400064E40995E881F981048CF58DE02DCE01CE
:102B50000995612F606CE881F98100A0F1A1E02D59
:102B6000CE010995E881F98100A0F1A1E02D602F47
:102B7000CE010995E881F981068CF78DE02DCE0113
:102B8000DF91CF911F910F910994CF93DF93EC01C7
:102B900060E08F810E94001DE881F981028CF38D35
:102BA000E02DCE01DF91CF910994CF93DF93EC011B
:102BB00061E08F810E94001DE881F981028CF38D14
:102BC000E02DCE01DF91CF910994FF920F931F93D7
:102BD000CF93DF93EC01F62E08E010E060E08E81E9
:102BE0000E94001DE881F981028CF38DE02DCE0159
:102BF00009956F2D61708D810E94001DE881F9811A
:102C0000028CF38DE02DCE010995F69461E08E8162
:102C10000E94001DE881F981028CF38DE02DCE0128
:102C2000099501501109D1F6E881F981028CF38DE3
:102C3000E02DCE01DF91CF911F910F91FF9009946C
:102C4000CF92DF92EF92FF921F93CF93DF93EC012D
:102C500060E08D810E94C41C61E08D810E94001D96
:102C600098E0C92ED12C10E0E12EF12CF594E794D8
:102C70001E2D60E08E810E94001DE881F981028C8A
:102C8000F38DE02DCE0109958D810E942E1D892B9B
:102C900009F0106861E08E810E94001DE881F981D1
:102CA000028CF38DE02DCE01099581E0C81AD10880
:102CB000D9F661E08D810E94C41C60E08D810E9484
:102CC000001D812FDF91CF911F91FF90EF90DF903A
:102CD000CF900895242FDC0112963C911297431750
:102CE00040F4ED91FC9104A0F5A1E02D462F622F58
:102CF00009940895EF920F93CF93DF93FC01862FF1
:102D0000C42FD22F22EE32E03183208398E09383C8
:102D100065834683D7830283E48261E00E94C41CFA
:102D200061E08C2F0E94C41C61E08D2F0E94C41CA6
:102D300061E08D2F0E94001D61E08C2FDF91CF910B
:102D40000F91EF900C94001D8F929F92AF92BF92C3
:102D5000CF92DF92EF92FF926A017B010E94831B68
:102D60004B015C01C80CD91CEA1CFB1C0E94831B94
:102D7000681579058A059B0528F0C616D706E8066A
:102D8000F906A0F7FF90EF90DF90CF90BF90AF9043
:102D90009F908F90089521E00C94A416FC01168258
:102DA000178210861186128613861486158616865B
:102DB0001786108A118A128A138A148A158A08952E
:102DC0000F931F93CF93DF93EC0161111DC00E94FD
:102DD000831B0A811B812C813D81DC01CB01801B7F
:102DE000910BA20BB30B84369105A105B10560F4DC
:102DF00044E650E060E070E0481B590B6A0B7B0B27
:102E000021E0CE010E94A4160E94831B6A837B836B
:102E10008C839D8381E0DF91CF911F910F91089565
:102E20000895CF92DF92EF92FF926A017B0168EEE4
:102E300073E080E090E00E94B41B26E0B701A60199
:102E400082E196E0FF90EF90DF90CF900C94311EDE
:102E5000FC01EE5BFF4F1082118212821382FC0193
:102E60001282138214821582411551056105710584
:102E700011F00C94CB1608951F93CF93DF93EC01C0
:102E8000162F61E00E94E0166AE073E082E196E0AE
:102E90000E94681F4AE050E0612F82E196E00E94A4
:102EA0004C2061E173E082E196E00E947B1F42E3E7
:102EB00050E060E070E0CE01DF91CF911F910C9463
:102EC000CB168DE195E00C94CE161F93CF93DF9334
:102ED000FC012689222369F1162FEC0182E196E09C
:102EE0000E94571D81110BC085E6DF91CF911F9184
:102EF000089521373105E9F026373105B1F382E134
:102F000096E00E94571D882379F382E196E00E94A3
:102F1000711D9C0133272836310559F054F72835A7
:102F2000310549F02336310551F7612FCE010E945A
:102F30003C1783E6DACF1E8AFCCF1F93CF93DF9333
:102F4000EC01142F662381F081E08E8B60E0CE01CE
:102F50000E946517833641F041E050E060E070E088
:102F6000CE010E94CB16F2CF1E8BDF91CF911F9125
:102F7000089590E080E008958091970590919805DC
:102F8000891B990B089590919805809197052FEFD3
:102F90003FEF981748F4E92FF0E0E756FA4F208109
:102FA00030E09F5F90939805C9010895E0919805DE
:102FB00080919705E81730F4F0E0E756FA4F8081EA
:102FC00090E008958FEF9FEF08950895CF93DF93DA
:102FD000EC01E0916F05F09170053097F1F0909160
:102FE0009805809197059817C0F090E0292F30E060
:102FF0002617370754F4DE01A20FB31F4C91275652
:103000003A4FD9014C939F5FF1CF1092980560938E
:103010009705CB01DF91CF910994DF91CF9108956E
:10302000E0917105F0917205309729F010927505C5
:103030001092740509940895CF93DF931F92CDB732
:10304000DEB76983209173052223F9F0209174057E
:10305000203258F021E030E0FC013383228390E0FD
:1030600080E00F90DF91CF91089580917505E82F52
:10307000F0E0EA58FA4F998190838F5F809375054D
:103080008093740581E090E0ECCF61E0CE01019681
:103090000E94CC19F7CFCF92DF92EF92FF920F935D
:1030A0001F93CF93DF937C01CB018A01209173059D
:1030B000222389F0EB016B01C40ED51ECC15DD0572
:1030C00069F06991D701ED91FC910190F081E02DBB
:1030D000C7010995F3CF642F0E94CC19C801DF9175
:1030E000CF911F910F91FF90EF90DF90CF900895B7
:1030F000109298051092970510927505109274051C
:103100000E941E1980E198E10E94F81986EE97E16D
:103110000C94F31981E080937305609396051092E7
:1031200075051092740508950F93062F21E04091C4
:10313000740566E775E0809196050E947C191092EF
:10314000750510927405109273050F9108954F92B2
:103150005F926F927F92AF92BF92CF92EF92FF9267
:103160000F931F93CF93DF935C01F62ED42F28018A
:103170003901EE2019F10E948A18CE2DC43008F0D2
:10318000C3E0C150B8F028E0C29FC0011124A301E0
:10319000920104C056954795379527958A95D2F7A1
:1031A000B901D501ED91FC910190F081E02DC501AF
:1031B0000995E7CF60E0C5010E9494184D2FD132E8
:1031C00008F040E22C2D69E975E08F2D0E943C1932
:1031D0001092980580939705DF91CF911F910F91E1
:1031E000FF90EF90CF90BF90AF907F906F905F90E7
:1031F0004F900895CF92EF920F931F93C22EE12C20
:1032000000E010E098010E94A7181F910F91EF9025
:10321000CF90089521E00C94FA18E3E6F5E01382CC
:10322000128288EE93E0A0E0B0E084839583A683C9
:10323000B7838CE193E09183808308951092080610
:1032400081E0809306061092050661E082E10E940B
:10325000001D61E083E10E94001DE9EBF0E0808148
:103260008E7F808380818D7F808388E48093B80007
:1032700085E48093BC0008954132E0F59091080602
:103280009111FCCF91E090930806209306062FEF52
:103290002093B905709300066093FF051092FE0518
:1032A000240F2093FD059093070690910706880F41
:1032B000892B80930706809105068130C9F410920E
:1032C0000506809107068093BB008091BC0083FDBA
:1032D000F8CF85EC8093BC00809108068130E1F343
:1032E0008091FE05841710F44091FE05842F089507
:1032F00085EEF0CF40E0FACF0F93413208F044C0A2
:10330000909108069111FCCF92E0909308060093EB
:1033100006069FEF9093B905709300066093FF0532
:103320001092FE054093FD05109207069091070646
:10333000880F892B8093070680910506813011F54F
:1033400010920506809107068093BB008091BC0017
:1033500083FDF8CF85EC8093BC00222321F080917F
:1033600008068230D1F38091B9058F3F79F08091C2
:10337000B905803269F08091B905803359F084E055
:103380000F91089585EEE7CF81E0FACF80E0F8CF86
:1033900082E0F6CF83E0F4CF2091DB05260F3327C0
:1033A000331F21323105ECF420910806FC0190E036
:1033B00080E0243069F082E00895A091DB0521913E
:1033C000AC0143525A4FA40FB52FB11D2C93019657
:1033D000861798F38091DB05680F6093DB0580E02A
:1033E000089581E008959093020680930106089560
:1033F0009093040680930306089585ED8093BC00A6
:103400008091BC0084FDFCCF10920806089585ECE5
:103410008093BC001092080608951F920F920FB679
:103420000F9211242F933F934F935F936F937F934A
:103430008F939F93AF93BF93EF93FF938091B900C6
:10344000887F803609F44CC008F03FC0883209F408
:10345000A8C018F5803109F49CC0B8F4882309F499
:1034600005C1883009F495C0FF91EF91BF91AF91EC
:103470009F918F917F916F915F914F913F912F918C
:103480000F900FBE0F901F901895883109F489C0D6
:10349000803251F78093B90515C0803409F4A6C075
:1034A00048F48033B9F38833F9F68093B9050E9464
:1034B000071ADACF803509F489C0883509F49EC02F
:1034C000883491F60E94FD19CFCF883909F494C051
:1034D00038F5883729F050F4883611F0803721F616
:1034E00083E0809308061092BA0557C0883809F423
:1034F00083C0803919F0803809F0B6CF8091BA05C1
:10350000803208F079C0E091BA0581E08E0F809397
:10351000BA058091BB00F0E0E554FA4F80833DC0CE
:10352000803B39F0E0F4803A09F485C0883A09F02C
:103530009BCF84E0809308061092DC051092DB0597
:10354000E0910306F091040609958091DB05811155
:103550000FC081E08093DB051092DD0509C0803C3F
:1035600009F482C0883C09F47FC0883B09F07CCF15
:10357000E091DC0581E08E0F8093DC05F0E0E35202
:10358000FA4F80818093BB009091DC058091DB0530
:1035900031C0809107068093BB0085EC8093BC000E
:1035A00063CF9091FE058091FD059817B8F5809145
:1035B000FF0590910006E091FE0521E02E0F20937B
:1035C000FE05E80FF92FF11D8081E5CF2091FF0561
:1035D00030910006E091FE0581E08E0F8093FE059C
:1035E0008091BB00E20FF32FF11D80839091FE05C7
:1035F0008091FD05981788F285E8D0CF2091FF05CE
:1036000030910006E091FE0581E08E0F8093FE056B
:103610008091BB00E20FF32FF11D8083809106069D
:10362000811150CF81E08093050684EA8093BC002D
:103630001092080619CF0E94071A8091BA058032AD
:1036400030F4E091BA05F0E0E554FA4F1082609151
:10365000BA0570E0E0910106F09102068BEB95E06F
:1036600009951092BA0500CF85ECE0CF1092B9050C
:1036700029CF1F920F920FB60F9211242F933F93D1
:103680008F939F93AF93BF9380910E0690910F06F7
:10369000A0911006B091110630910D0623E0230F82
:1036A0002D3768F126E8230F0296A11DB11D209346
:1036B0000D0680930E0690930F06A0931006B0930C
:1036C00011068091090690910A06A0910B06B0910F
:1036D0000C060196A11DB11D8093090690930A0660
:1036E000A0930B06B0930C06BF91AF919F918F9161
:1036F0003F912F910F900FBE0F901F90189501963C
:10370000A11DB11DD4CF2FB7F89460910E06709112
:103710000F0680911006909111062FBF08953FB7B4
:10372000F8948091090690910A06A0910B06B09139
:103730000C0626B5A89B05C02F3F19F00196A11DC8
:10374000B11D3FBFBA2FA92F982F8827BC01CD01EB
:10375000620F711D811D911D42E0660F771F881F4A
:10376000991F4A95D1F708958F929F92AF92BF9279
:10377000CF92DF92EF92FF926B017C010E948F1B30
:103780004B015C01C114D104E104F104E9F00E9491
:1037900063210E948F1B681979098A099B09683E79
:1037A00073408105910570F321E0C21AD108E10848
:1037B000F10888EE880E83E0981EA11CB11CC1148C
:1037C000D104E104F10429F7FF90EF90DF90CF904E
:1037D000BF90AF909F908F9008958230910538F000
:1037E000880F991F880F991F05970197F1F7089582
:1037F000789484B5836084BD85B5836085BDEEE62D
:10380000F0E0808181608083E1E8F0E082E0808305
:10381000808181608083E0E8F0E080818160808346
:10382000E1EBF0E0808184608083E0EBF0E0808178
:103830008160808387E880937A001092C1000895A8
:10384000883020F08D3008F48DE08E5020910D01ED
:1038500090E4299F900111248770822B80937C0033
:1038600080917A00806480937A0080917A0086FD4E
:10387000FCCF809178009091790008951F93CF93A9
:10388000DF93182FEB0161E00E94C41C209739F4EC
:1038900060E0812FDF91CF911F910C94001DCF3FED
:1038A000D10511F461E0F5CFE12FF0E0E853FE4FD0
:1038B000E491E43031F140F4E230B1F0E330E1F092
:1038C000C038D1057CF7E4CFE83029F1E93059F16F
:1038D000E530B1F780918000806280938000D093C2
:1038E0008B00C0938A0004C084B5806884BDC7BDC6
:1038F000DF91CF911F91089584B5806284BDC8BDCA
:10390000F7CF80918000806880938000D0938900F9
:10391000C0938800EDCF8091B00080688093B000A4
:10392000C093B300E5CF8091B00080628093B00077
:10393000C093B400DDCF843081F028F48230E9F008
:103940008330F9F00895883071F0893091F0853036
:10395000B9F4809180008F7D03C0809180008F77C3
:103960008093800008958091B0008F778093B0009D
:1039700008958091B0008F7DF9CF84B58F7784BD95
:10398000089584B58F7DFBCFCF93DF9390E0FC014A
:10399000E152FE4F24918A509E4FFC01849188236E
:1039A000C9F090E0880F991FFC01EF5DFD4FA591D4
:1039B000B491FC01E95EFD4FC591D49161110DC038
:1039C0009FB7F8948C91209582238C93888128232B
:1039D00028839FBFDF91CF910895623051F49FB744
:1039E000F8943C91822F809583238C93E8812E2B31
:1039F000EFCF8FB7F894EC912E2B2C938FBFEACF9B
:103A00001F93CF93DF93282F30E0F901E853FE4F47
:103A10008491F901E152FE4FD491F901EA50FE4F31
:103A2000C491CC23A9F0162F81110E949B1CEC2F6E
:103A3000F0E0EE0FFF1FE95EFD4FA591B4918FB747
:103A4000F894EC91111108C0D095DE23DC938FBF60
:103A5000DF91CF911F910895DE2BF8CFCF93DF93A5
:103A6000282F30E0F901E853FE4F8491F901E1522B
:103A7000FE4FD491F901EA50FE4FC491CC23A1F03E
:103A800081110E949B1CEC2FF0E0EE0FFF1FE35F03
:103A9000FD4FA591B491EC91ED2381E090E009F404
:103AA00080E0DF91CF91089580E090E0FACFFC01B3
:103AB000918D228D892F90E0805C9F4F821B910910
:103AC0008F7399270895FC01918D828D981731F09D
:103AD000828DE80FF11D858D90E008958FEF9FEFA7
:103AE0000895FC01918D828D981761F0A28DAE0F23
:103AF000BF2FB11D5D968C91928D9F5F9F73928FAA
:103B000090E008958FEF9FEF0895FC01538D448D51
:103B1000252F30E0842F90E0821B930B541710F078
:103B2000CF9608950197089581EE9EE1892B49F083
:103B300080E090E0892B29F00E94E11E81110C9415
:103B400000000895FC01A48DA80FB92FB11DA35A40
:103B5000BF4F2C91848D90E001968F739927848FAD
:103B6000A689B7892C93A089B1898C9183708064D0
:103B70008C93938D848D981306C00288F389E02D71
:103B800080818F7D80830895CF93DF93EC01888DB2
:103B90008823B9F0AA89BB89E889F9898C9185FDC8
:103BA00003C0808186FD0DC00FB607FCF7CF8C9156
:103BB00085FFF2CF808185FFEDCFCE010E94A21D4F
:103BC000E9CFDF91CF910895EF92FF920F931F936A
:103BD000CF93DF93EC0181E0888F9B8D8C8D9813C0
:103BE0001AC0E889F989808185FF15C09FB7F894CC
:103BF000EE89FF896083E889F98980818370806418
:103C000080839FBF81E090E0DF91CF911F910F9162
:103C1000FF90EF900895F62E0B8D10E00F5F1F4F71
:103C20000F731127E02E8C8D8E110CC00FB607FC80
:103C3000FACFE889F989808185FFF5CFCE010E940E
:103C4000A21DF1CFEB8DEC0FFD2FF11DE35AFF4FBD
:103C5000F0829FB7F8940B8FEA89FB89808180629C
:103C6000CFCFCF92DF92EF92FF921F93CF93DF934C
:103C7000EC016A017B01122FE889F98982E08083D7
:103C8000C11481EED806E104F104A1F060E079E00E
:103C90008DE390E0A70196010E946425215031092F
:103CA000410951095695479537952795211580E18A
:103CB000380798F0E889F989108260E874E88EE1A5
:103CC00090E0A70196010E94642521503109410925
:103CD00051095695479537952795EC85FD85308395
:103CE000EE85FF852083188EEC89FD891083EA8993
:103CF000FB89808188698083EA89FB8980818F7D47
:103D00008083DF91CF911F91FF90EF90DF90CF9054
:103D100008951F920F920FB60F9211242F938F9335
:103D20009F93EF93FF93E0912206F0912306808109
:103D3000E0912806F091290682FD1BC090818091B8
:103D40002B068F5F8F7320912C06821741F0E09134
:103D50002B06F0E0EE5EF94F958F80932B06FF91D6
:103D6000EF919F918F912F910F900FBE0F901F9009
:103D700018958081F4CF1F920F920FB60F921124E5
:103D80002F933F934F935F936F937F938F939F9363
:103D9000AF93BF93EF93FF9382E196E00E94A21D41
:103DA000FF91EF91BF91AF919F918F917F916F9113
:103DB0005F914F913F912F910F900FBE0F901F90E9
:103DC000189582E196E00E94571D21E0892B09F4A5
:103DD00020E0822F0895E2E1F6E01382128288EE5D
:103DE00093E0A0E0B0E084839583A683B7838EE25E
:103DF00093E09183808385EC90E09587848784ECC1
:103E000090E09787868780EC90E0918B808B81ECA7
:103E100090E0938B828B82EC90E0958B848B86EC88
:103E200090E0978B868B118E128E138E148E0895D0
:103E300008950E94F81B0E94181F0E94990BC4E964
:103E4000DDE10E94900E2097E1F30E94941DF9CFCE
:103E50000C9442260C94281FAF92BF92CF92DF920F
:103E6000EF92FF920F931F93CF93DF936C017B012F
:103E70008B01040F151FEB015E01AE18BF08C017C0
:103E8000D10759F06991D601ED91FC910190F08133
:103E9000E02DC6010995892B79F7C501DF91CF91F6
:103EA0001F910F91FF90EF90DF90CF90BF90AF9058
:103EB0000895FB0101900020E9F73197AF01461BFF
:103EC000570BDC01ED91FC910280F381E02D099408
:103ED0006115710511F00C94591F90E080E0089570
:103EE000DC01ED91FC910190F081E02D09946CE3EF
:103EF00073E00C94591F0F931F93CF93DF938C01A2
:103F0000D0E0C0E06115710519F00E94591FEC0165
:103F1000C8010E94771F8C0F9D1FDF91CF911F91C9
:103F20000F9108958F929F92AF92BF92EF92FF925E
:103F30000F931F93CF93DF93CDB7DEB7A1970FB643
:103F4000F894DEBF0FBECDBF7C01FA01CB0119A2F0
:103F5000223008F42AE08E010F5D1F4F822E912C33
:103F6000B12CA12CBF01A50194010E946425F90187
:103F7000CA016A300CF5605DD8016E938D01232B68
:103F8000242B252B79F790E080E0109721F0BD01DC
:103F9000C7010E94591FA1960FB6F894DEBF0FBE4D
:103FA000CDBFDF91CF911F910F91FF90EF90BF9008
:103FB000AF909F908F900895695CDECFCF92DF9293
:103FC000EF92FF920F931F93CF93DF93211531054B
:103FD00081F4DC01ED91FC910190F081E02D642FE2
:103FE000DF91CF911F910F91FF90EF90DF90CF90D5
:103FF00009942A30310501F52AE077FF1DC06A01D6
:104000007B01EC016DE20E94701F8C014427552753
:10401000BA014C195D096E097F092AE0CE010E94A0
:10402000921F800F911FDF91CF911F910F91FF90F1
:10403000EF90DF90CF900895DF91CF911F910F9176
:10404000FF90EF90DF90CF900C94921F9A01AB01FC
:10405000770F660B770B0C94DE1F0F931F93CF9394
:10406000DF93EC010E9426208C01CE010E94771F75
:10407000800F911FDF91CF911F910F91089521150E
:10408000310541F4DC01ED91FC910190F081E02DCE
:10409000642F09940C94921F9A01462F50E070E00F
:1040A00060E00C943F209A01AB0170E060E00C945A
:1040B0003F200F931F93CF93DF93EC010E943F208B
:1040C0008C01CE010E94771F800F911FDF91CF914D
:1040D0001F910F9108952F923F924F925F926F928E
:1040E0007F928F929F92AF92BF92CF92DF92EF9288
:1040F000FF921F93CF93DF93EC016A017B01722E35
:10410000AB019601CB01B6010E94F2236FE373E08D
:10411000811126C046015701E894B7F82FEF3FEF11
:104120004FE75FE7C501B4010E94F22381110CC083
:104130002FEF3FEF4FE75FE7C501B4010E94D121A8
:1041400063E473E0181664F02FEF3FEF4FE75FE48E
:10415000C701B6010E9430231816B4F467E473E077
:10416000CE01DF91CF911F91FF90EF90DF90CF9024
:10417000BF90AF909F908F907F906F905F904F9087
:104180003F902F900C94591F2FEF3FEF4FE75FECBC
:10419000C701B6010E94D12187FDE0CF20E030E0C9
:1041A000A901C701B6010E94D121312C212C87FF22
:1041B00009C06DE2CE010E94701F1C01F7FAF09455
:1041C000F7F8F09410E060E070E080E09FE3711693
:1041D00041F020E030E040E251E40E94D6211F5F30
:1041E000F6CFA70196010E9465212B013C010E9498
:1041F0004F224B015C012AE0BC01A401CE010E94C8
:10420000921F7C01E20CF31C1123B1F1C501B40132
:104210000E947E229B01AC01C301B2010E94642175
:104220004B015C016EE2CE010E94701FE80EF91E88
:10423000115010F120E030E040E251E4C501B4013A
:104240000E9435232B013C010E944F224B014AE082
:1042500050E0CE010E945320E80EF91EB40190E018
:1042600080E00E947E229B01AC01C301B2010E944A
:1042700064214B015C01DCCFC701DF91CF911F911D
:10428000FF90EF90DF90CF90BF90AF909F908F9076
:104290007F906F905F904F903F902F9008950C9477
:1042A0006B200F931F93CF93DF93EC010E946B2041
:1042B0008C01CE010E94771F800F911FDF91CF915B
:1042C0001F910F91089508955058BB27AA270E9467
:1042D0007C210C94F6220E94E82238F00E94EF2202
:1042E00020F039F49F3F19F426F40C94E5220EF4E3
:1042F000E095E7FB0C94DF22E92F0E94072358F397
:10430000BA17620773078407950720F079F4A6F5BA
:104310000C9429230EF4E0950B2EBA2FA02D0B013F
:10432000B90190010C01CA01A0011124FF27591BFA
:1043300099F0593F50F4503E68F11A16F040A22F00
:10434000232F342F4427585FF3CF46953795279571
:10435000A795F0405395C9F77EF41F16BA0B620B70
:10436000730B840BBAF09150A1F0FF0FBB1F661FB7
:10437000771F881FC2F70EC0BA0F621F731F841FFA
:1043800048F4879577956795B795F7959E3F08F020
:10439000B0CF9395880F08F09927EE0F97958795E2
:1043A00008950E94BB2208F481E008950E94EA214A
:1043B0000C94F6220E94EF2258F00E94E82240F06E
:1043C00029F45F3F29F00C94DF2251110C942A2329
:1043D0000C94E5220E94072368F39923B1F3552337
:1043E00091F3951B550BBB27AA2762177307840708
:1043F00038F09F5F5F4F220F331F441FAA1FA9F39E
:1044000035D00E2E3AF0E0E832D091505040E6958B
:10441000001CCAF72BD0FE2F29D0660F771F881FEC
:10442000BB1F261737074807AB07B0E809F0BB0BDF
:10443000802DBF01FF2793585F4F3AF09E3F5105F3
:1044400078F00C94DF220C942A235F3FE4F3983E2B
:10445000D4F3869577956795B795F7959F5FC9F7DC
:10446000880F911D9695879597F90895E1E0660F5D
:10447000771F881FBB1F621773078407BA0720F0D6
:10448000621B730B840BBA0BEE1F88F7E09508953F
:104490000E944F226894B1110C942A2308950E941F
:1044A0000F2388F09F5798F0B92F9927B751B0F094
:1044B000E1F0660F771F881F991F1AF0BA95C9F7A8
:1044C00014C0B13091F00E942923B1E008950C94FA
:1044D0002923672F782F8827B85F39F0B93FCCF3AD
:1044E000869577956795B395D9F73EF49095809525
:1044F000709561957F4F8F4F9F4F0895E89409C045
:1045000097FB3EF490958095709561957F4F8F4F06
:104510009F4F9923A9F0F92F96E9BB279395F6951C
:10452000879577956795B795F111F8CFFAF4BB0F9A
:1045300011F460FF1BC06F5F7F4F8F4F9F4F16C0FE
:10454000882311F096E911C0772321F09EE8872F88
:10455000762F05C0662371F096E8862F70E060E044
:104560002AF09A95660F771F881FDAF7880F9695BD
:10457000879597F90895990F0008550FAA0BE0E861
:10458000FEEF16161706E807F907C0F01216130615
:10459000E407F50798F0621B730B840B950B39F455
:1045A0000A2661F0232B242B252B21F408950A26BB
:1045B00009F4A140A6958FEF811D811D089597F9FB
:1045C0009F6780E870E060E008959FEF80EC0895B9
:1045D00000240A94161617061806090608950024E2
:1045E0000A9412161306140605060895092E03945C
:1045F000000C11F4882352F0BB0F40F4BF2B11F4D0
:1046000060FF04C06F5F7F4F8F4F9F4F089557FD2E
:104610009058440F551F59F05F3F71F04795880F30
:1046200097FB991F61F09F3F79F0879508951216C7
:1046300013061406551FF2CF4695F1DF08C0161673
:1046400017061806991FF1CF869571056105089424
:104650000895E894BB2766277727CB0197F908953B
:104660000E94BB2208F48FEF08950E9448230C9407
:10467000F6220E94E82238F00E94EF2220F09523D3
:1046800011F00C94DF220C94E52211240C942A23BF
:104690000E94072370F3959FC1F3950F50E0551FBB
:1046A000629FF001729FBB27F00DB11D639FAA2787
:1046B000F00DB11DAA1F649F6627B00DA11D661FD6
:1046C000829F2227B00DA11D621F739FB00DA11DF7
:1046D000621F839FA00D611D221F749F3327A00DB1
:1046E000611D231F849F600D211D822F762F6A2F4D
:1046F00011249F5750409AF0F1F088234AF0EE0FB2
:10470000FF1FBB1F661F771F881F91505040A9F7DE
:104710009E3F510580F00C94DF220C942A235F3FCA
:10472000E4F3983ED4F3869577956795B795F7951A
:10473000E7959F5FC1F7FE2B880F911D9695879592
:1047400097F90895FA01EE0FFF1F30962105310504
:10475000A1F16115710561F48038BFE39B0749F150
:1047600068949038810561F08038BFEF9B0741F075
:1047700099234AF5FF3FE1053105210519F1E89438
:104780000894E795D901AA2329F4AB2FBE2FF85F2F
:10479000D0F310C0FF5F70F4A695E0F7F73950F042
:1047A00019F0FF3A38F49F779F930DD00F9007FCD4
:1047B0009058089546F00C94E52260E070E080E89F
:1047C0009FE308954FE79F775F934F933F932F9316
:1047D0000E94A2242F913F914F915F910E94352317
:1047E0000C94FF230E94BB22880B990B089529F497
:1047F00016F00C94DF220C9429230C94E5220E94DD
:104800000F23A8F39638A0F707F80F92E8942BE34C
:104810003AEA48EB5FE70E944B230F920F920F9208
:104820004DB75EB70F920E94EA24E8E6F0E00E94DE
:1048300031244F915F91EF91FF91E595EE1FFF1F9E
:1048400049F0FE57E0684427EE0F441FFA95E1F760
:104850004195550B0E9464240F9007FE0C94582438
:104860000895DF93CF931F930F93FF92EF92DF9200
:104870007B018C01689406C0DA2EEF010E94482368
:10488000FE01E894A5912591359145915591A6F3A6
:10489000EF010E947C21FE019701A801DA9469F7DB
:1048A000DF90EF90FF900F911F91CF91DF910895CE
:1048B0009B01AC0160E070E080E89FE30C94D6219E
:1048C0000C94DF220C941E250E940F23D8F3992309
:1048D000C9F3940F511DA3F39150504094F059F037
:1048E000882332F0660F771F881F91505040C1F720
:1048F0009E3F51052CF7880F911D9695879597F946
:1049000008955F3FACF0983E9CF0BB278695779565
:104910006795B79508F4B1609395C1F7BB0F58F749
:1049200011F460FFE8CF6F5F7F4F8F4F9F4FE3CF52
:104930000C942A2316F00C941E250C94E5226894FE
:104940000C94DF220E940F23A8F39923C1F3AEF346
:10495000DF93CF931F930F93FF92C92FDD278823F7
:104960002AF02197660F771F881FDAF720E030E0E2
:1049700040E85FEB9FE3883920F0803E38F02196D5
:104980008F770E946521E0E9F0E004C00E94652174
:10499000EDEBF0E00E9431248B01BE01EC01FB2E17
:1049A0006F5771097595771F880B990B0E948022AC
:1049B00028E132E741E35FE30E944823AF2D9801ED
:1049C000AE01FF900F911F91CF91DF910E947C214A
:1049D0000C94F622FA01DC01AA0FBB1F9B01AC016B
:1049E000BF5728F4222733274427507820C0B751D7
:1049F00090F4AB2F0024469537952795011CA3957D
:104A0000D2F3002071F0220F331F441FB395DAF365
:104A10000ED00C94642161307105A0E88A07B94674
:104A200030F49B01AC016627772788279078309671
:104A300021F0208331834283538308959F3F31F0D7
:104A4000915020F4879577956795B795880F911DBC
:104A50009695879597F90895DB018F939F930E9410
:104A60009525BF91AF91A29F800D911DA39F900DA1
:104A7000B29F900D11240895AA1BBB1B51E107C0E2
:104A8000AA1FBB1FA617B70710F0A61BB70B881FDE
:104A9000991F5A95A9F780959095BC01CD0108956D
:104AA00097FB072E16F4009407D077FD09D00E94DB
:104AB0003C2507FC05D03EF4909581959F4F0895C5
:104AC000709561957F4F0895A1E21A2EAA1BBB1B1A
:104AD000FD010DC0AA1FBB1FEE1FFF1FA217B307CA
:104AE000E407F50720F0A21BB30BE40BF50B661FE0
:104AF000771F881F991F1A9469F7609570958095A4
:104B000090959B01AC01BD01CF010895A29FB0011A
:104B1000B39FC001A39F700D811D1124911DB29FF1
:104B2000700D811D1124911D08950E948625A59F59
:104B3000900DB49F900DA49F800D911D1124089598
:104B4000EE0FFF1F0590F491E02D09940F931F9332
:104B5000CF93DF938230910510F482E090E0E091F2
:104B6000B106F091B20630E020E0B0E0A0E030976E
:104B700099F42115310509F44AC0281B390B24305A
:104B80003105D8F58A819B816115710589F1FB0199
:104B900093838283FE0111C0408151810281138180
:104BA00048175907E0F04817590799F4109761F032
:104BB00012960C93129713961C933296CF01DF91A5
:104BC000CF911F910F9108950093B1061093B206F3
:104BD000F4CF2115310551F04217530738F0A901E0
:104BE000DB019A01BD01DF01F801C1CFEF01F9CF6F
:104BF0009093B2068093B106CDCFFE01E20FF31F72
:104C0000819391932250310939832883D7CF209102
:104C1000AF063091B006232B41F420910201309170
:104C200003013093B0062093AF062091000130912C
:104C300001012115310541F42DB73EB74091040122
:104C400050910501241B350BE091AF06F091B006A1
:104C5000E217F307A0F42E1B3F0B2817390778F053
:104C6000AC014E5F5F4F2417350748F04E0F5F1FB2
:104C70005093B0064093AF06819391939FCFF0E09D
:104C8000E0E09CCFCF93DF930097E9F0FC013297EF
:104C900013821282A091B106B091B206ED0130E00C
:104CA00020E01097A1F420813181820F931F209181
:104CB000AF063091B0062817390709F061C0F093AC
:104CC000B006E093AF06DF91CF910895EA01CE17C9
:104CD000DF07E8F54A815B819E0141155105B1F777
:104CE000E901FB83EA8349915991C40FD51FEC1761
:104CF000FD0761F4808191810296840F951FE9017F
:104D000099838883828193819B838A83F0E0E0E0AA
:104D100012968D919C9113970097B9F52D913C9126
:104D20001197CD010296820F931F2091AF0630910B
:104D3000B0062817390739F6309751F51092B206A8
:104D40001092B106B093B006A093AF06BCCFD38348
:104D5000C28340815181840F951FC817D90761F420
:104D60004E5F5F4F88819981480F591F518340835F
:104D70008A819B81938382832115310509F0B0CF0D
:104D8000F093B206E093B1069ECFFD01DC01C0CFE7
:0A4D900013821282D7CFF894FFCFF0
:104D9A000000B30680006F12833AC3090101546808
:104DAA00652066756E6374696F6E206465636F64EF
:104DBA00652826726573756C7473292920697320B6
:104DCA006465707265636174656420616E64206DE8
:104DDA006179206E6F7420776F726B206173206522
:104DEA007870656374656421204A757374207573DD
:104DFA0065206465636F6465282920776974686F24
:104E0A007574206120706172616D657465722061CC
:104E1A006E6420497252656365697665722E6465AF
:104E2A00636F6465644952446174612E3C666965C6
:104E3A006C646E616D653E202E0052656164696E18
:104E4A00672E2E2E004F332056616C75653A00434B
:104E5A006F6E63656E74726174696F6E204F332072
:104E6A003A20002070706200206D672F6D33002099
:104E7A0075672F6D3300506C617A6D61204F6666DD
:104E8A002E2E2E00564D4450565F317C315F564DC2
:104E9A004450560A00564D4450525F006D6F746F6D
:104EAA00722073706565642E2E2E00616D3130306C
:104EBA0038772073746172742E2E2E0069722073F3
:104ECA00746172742E2E2E006D7131333120737419
:104EDA006172742E2E2E0070696E20636F6E666981
:104EEA00672073746172742E2E2E00656E642E2EE6
:104EFA002E007365747365676D656E74496E743AD6
:104F0A00200050313000706D312E303A200050327E
:104F1A003500706D322E353A2000706D31303A20EE
:104F2A000068756D69646974793A200074656D70FA
:104F3A00657261747572653A200000000000950F71
:104F4A00960F00000000521233126A167D1498144C
:104F5A00AA14EB14F4141E157E146F158B148C12FC
:104F6A00E012E41207132A13771509128E130000B0
:104F7A0000002C143C146A167D149814AA14EB141D
:104F8A00F4141E157E146F158B1472157615C5153B
:104F9A00D515E515771594152016564D4450435FDF
:104FAA00005F564D44504300000000001C184B1887
:104FBA00B917E517BC17C317D61700000000E41D80
:104FCA002C1F851DC41D571D711D631D0D0A006E02
:0C4FDA00616E00696E66006F7666000074
:00000001FF
