:100000000C941B010C9443010C9443010C94430188
:100010000C9443010C9443010C9443010C94430150
:100020000C94AC030C9443010C9443010C944301D5
:100030000C9443010C9443010C9443010C94430130
:100040000C94B21B0C9443010C94021F0C94341FAB
:100050000C9443010C9443010C9443010C94430110
:100060000C94EB150C94430107634236B79BD8A759
:100070001A39685618AEBAAB558C1D3CB7CC5763CD
:10008000BD6DEDFD753EF6177231BF000000803F7B
:1000900008000000BE922449123EABAAAA2ABECD97
:1000A000CCCC4C3E00000080BEABAAAAAA3E000009
:1000B0000000BF000000803F000000000008417801
:1000C000D3BB4387D1133D190E3CC3BD4282AD2B38
:1000D0003E68EC8276BED98FE1A93E4C80EFFFBE30
:1000E00001C4FF7F3F00000000000086227E6D00FB
:1000F000000230066300044080523F065B4F666D8D
:100100007D277F6F0000004800535F777F393F797C
:10011000713D76061E693815373F7367316D783E3D
:100120002A1D766E5B39640F0008205F7C585E7B69
:10013000316F74040E753055545C7367506D781CC4
:100140002A1D766E47460670013F065B4F666D7D41
:10015000077F6F777C395E79710086227E6D0000A3
:100160000230066300044080523F065B4F666D7D9F
:10017000277F6F0000004800535F777F393F797118
:100180003D76061E693815373F7367316D783E2A14
:100190001D766E5B39640F0008205F7C585E7B31F2
:1001A0006F74040E753055545C7367506D781C2A5B
:1001B0001D766E47460670013F065B4F666D7D07F4
:1001C0007F6F777C395E79710000000900030200BF
:1001D000000405080000000000000000000000010D
:1001E00002040810204080010204081020010204CB
:1001F00008102040804004040404040404040202A3
:1002000002020202030303030303020203000000CD
:100210000023002600290000000000250028002BF4
:100220000000000000240027002A00008D06820B39
:10023000460EEB14641F11241FBECFEFD8E0DEBFC3
:10024000CDBF12E0A0E0B1E0ECE8FEE402C0059012
:100250000D92A63FB107D9F726E0A6EFB2E001C0A4
:100260001D92AD32B207E1F711E0CBE1D1E004C05D
:100270002197FE010E941926C631D107C9F70E94B5
:10028000921F0C9444270C94000082E08093B000ED
:100290008093B10084E68093B3008093B400109201
:1002A000B2000895982F80917704882379F0809187
:1002B0007604992329F061E0811105C02D9A0895F3
:1002C000882319F060E00C94791D2D980895AAE810
:1002D000B3E011966C93119770E0FB01E152FE4F71
:1002E000E4911496EC931497FB01EA50FE4FE491CD
:1002F000F0E0EE0FFF1FE35FFD4F859194911396A1
:100300009C938E93129708952AE833E0FC01378777
:10031000268760E00E946701E6E7F4E01082118220
:1003200008952AE833E0FC01378726870E94670199
:10033000E6E7F4E010821182089580918A03833009
:1003400011F410928A030895CF93DF93EC01F8948F
:100350000E94450184E080937000CE010E949D01BF
:10036000789460E080918B03DF91CF910C943D1DD8
:10037000609389035093850340938403109286030E
:1003800008958AE0849FF001859FF00D11249B0160
:1003900093E0220F331F9A95E1F7E217F30778F005
:1003A000869F9001879F300D112483E0440F551FD5
:1003B0008A95E1F72417350720F081E0089580E061
:1003C000089582E008958F929F92AF92BF92CF924C
:1003D000DF92EF92FF920F931F93CF93DF93FB0176
:1003E000C684D784F6E0CF16D10408F448C0EB01E8
:1003F0008C0132E0E32EF12C45EC842E4DE9942E55
:100400004CE1A42E41E8B42E2FEFE21AF20ACE14EA
:10041000DF04E1F0EC85FD85C701880F991FE80F27
:10042000F91F40815181349760817181C8010E9418
:10043000C101E82FA501940163E971E080E091E03A
:100440000E94A5254B015C018E26DECF8C829D8209
:10045000AE82BF8280E2888719821882F8011182F9
:10046000108281E0DF91CF911F910F91FF90EF906B
:10047000DF90CF90BF90AF909F908F90089580E0D5
:10048000F1CF9C01FB01CB0163E470E00E94B52534
:100490002617370758F0CF0168E270E00E94B525B3
:1004A0006F5F7F4F81E06217730708F480E0089563
:1004B000BF92CF92DF92EF92FF920F931F93CF9351
:1004C000DF93DC011E96ED91FC91109189038085EC
:1004D000B12C1817B0F5B12FB170BB2E0091860367
:1004E000011120C0812F90E0880F991FE80FF91F9C
:1004F000C184D284CCEEDFEFBB2311F0C4E1D0E0A5
:10050000E0908403F0908503CE0DDF1DBE01C6018F
:100510000E944102882301F181E090E090938803DA
:10052000809387030F5F00938603809187039091E8
:1005300088030817190628F0109286031F5F10938E
:1005400089038B2DDF91CF911F910F91FF90EF9039
:10055000DF90CF90BF900895CE0DDF1DBE01C60184
:100560000E944102882319F082E090E0D7CFB701C2
:100570006C0F7D1FC6010E944102882319F083E0A1
:1005800090E0CCCFBB24BA94DCCFFC019B012C5E65
:100590003F4FC90163E470E00E94B525E617F707F5
:1005A00058F0C90168E270E00E94B5256F5F7F4F87
:1005B00081E06E177F0708F480E00895FC019B013D
:1005C00024513109C90163E470E00E94B525E617A2
:1005D000F70758F0C90168E270E00E94B5256F5F27
:1005E0007F4F81E06E177F0708F480E008952F9217
:1005F0003F924F925F926F927F928F929F92AF92B3
:10060000BF92CF92DF92EF92FF920F931F93CF93FF
:10061000DF9300D000D01F92CDB7DEB79B838A83D3
:100620006983190138018701842F90E0880F991F91
:100630000996EA81FB8146855785840F951F9D8326
:100640008C83CC20A1F1912CC12CD12C7601F98185
:100650009F1609F479C0B101EC81FD8180819181FF
:100660000E94C502882309F457C0EC81FD81A28055
:10067000B380B301C5010E94DE02882369F0CC0C6F
:10068000DD1CEE1CFF1C6894C0F88C819D810496D3
:100690009D838C839394DBCFB801C5010E94DE0259
:1006A0008823D1F1CC0CDD1CEE1CFF1CEECF812C7D
:1006B000912C54018394C12CD12C760199819923DA
:1006C00009F442C0B101EC81FD81808191810E94D9
:1006D000C502882309F1EC81FD8142805380B3017A
:1006E000C2010E94DE02882389F0C828D928EA289E
:1006F000FB288C819D8104969D838C83880C991C9A
:10070000AA1CBB1C998191509983D8CFB801C20112
:100710000E94DE028111EDCF0F900F900F900F908D
:100720000F90DF91CF911F910F91FF90EF90DF908D
:10073000CF90BF90AF909F908F907F906F905F9081
:100740004F903F902F900895EA81FB81C286D38617
:10075000E486F58681E0E0CF1F920F920FB60F92EC
:1007600011242F933F934F935F936F937F938F93B6
:100770009F93AF93BF93EF93FF93E0918C03F0911E
:100780008D03908180918E03982320918F03309167
:1007900090032F3F320731F02F5F3F4F309390038C
:1007A00020938F0380918A03811132C0911116C06A
:1007B00020918F03309190032536310558F0109227
:1007C0009103309394032093930381E080939203E9
:1007D00080938A031092900310928F038091770484
:1007E000882329F081E0911180E00E945201FF915D
:1007F000EF91BF91AF919F918F917F916F915F9199
:100800004F913F912F910F900FBE0F901F90189511
:1008100080918A038130A1F4992301F320918F0301
:1008200030919003E09192038E0F80939203F0E059
:10083000EE0FFF1FE657FC4F3287218782E0C8CFBB
:1008400080918A03823041F591111AC0E0919203A0
:10085000E43628F081E08093910383E0B9CF2091C2
:100860008F033091900381E08E0F80939203F0E02C
:10087000EE0FFF1FE657FC4F3287218781E0A8CF9C
:1008800020918F03309190032536310508F4A6CFCF
:1008900083E080938A03A2CF80918A03833009F09A
:1008A0009DCF992309F496CF99CFFF920F931F9371
:1008B000CF93DF9320918A03F12C233091F5EB0144
:1008C0008C0180918303811109C06EE071E08CE896
:1008D00095E00E94F41F81E08093830383E993E015
:1008E0009D878C878091920390E09F878E8780916F
:1008F0009103882321F0109291031092920380912A
:100900009103888B1C821D821E821F8280E8F80161
:100910008187BE01C8010E94E60F882349F0FF24A9
:10092000F3948F2DDF91CF911F910F91FF90089538
:10093000BE01C8010E9401128111F1CFC8010E94BD
:100940006E10F82E882381F0F801808588878285D3
:100950009385A485B5858C839D83AE83BF838EE00C
:1009600090E099838883DDCFC8010E94E110F82EC2
:10097000882371F0F8018085888782859385A48516
:10098000B5858C839D83AE83BF838FE090E0E9CFF4
:10099000BE01C8010E942E0F8111C1CFBE01C80146
:1009A0000E94860F8111BBCFBE01C8010E94A20E1A
:1009B0008111B5CFBE01C8010E9487118111AFCF4F
:1009C000BE01C8010E944E0E8111A9CFBE01C8010F
:1009D0000E94E301F82E8111A2CFC8010E949D015F
:1009E000A0CF80910A0190910B01019690930B0189
:1009F00080930A01843C994009F046C010920B0193
:100A000010920A0182E293E00E94AC1281113CC074
:100A100082E293E00E948B1390937503809374039A
:100A200082E293E00E948F1390937303809372038A
:100A300082E293E00E94931390937103809370037A
:100A400082E293E00E947F1320E030E040E251E434
:100A50000E94AE2360936C0370936D0380936E03CA
:100A600090936F0382E293E00E94851320E030E0D0
:100A700040E251E40E94AE236093680370936903DF
:100A800080936A0390936B03089580918103813072
:100A900099F028F08230D9F0833001F1089560E0B8
:100AA00080E10E94791D60E08FE00E94791D70E076
:100AB00060E089E00C94B71C61E080E10E94791D40
:100AC00061E08FE00E94791D6CED70E0F2CF60E094
:100AD0008FE00E94791D6FEF70E0EBCF60E080E166
:100AE0000E94791D61E08FE00E94791D64EB70E047
:100AF000E0CF80910C01882319F08130C9F108956D
:100B000061E083E00E94791D80917A0390917B03DC
:100B1000019690937B0380937A0320917C0330911C
:100B20007D0380917A0390917B032817390741F464
:100B300060E085E00E94791D60E086E00E94791DFA
:100B400020917E0330917F0380917A0390917B0303
:100B500028173907C9F461E085E00E94791D61E03A
:100B600086E00E94791D10927B0310927A0308950B
:100B700060E083E00E94791D60E085E00E94791DBD
:100B800060E086E00C94791D0895CF92DF92EF9299
:100B9000FF9280917603909177030196909377036B
:100BA000809376038133954708F487C010927703CA
:100BB000109276036AEA71E08CE895E00E94F41FD7
:100BC0008EEB94E00E94FD0C65EB71E08CE895E003
:100BD0000E94E11F70E060E08EEB94E00E949F0DA8
:100BE000AB01BC01409306015093070160930801DB
:100BF0007093090122E030E08CE895E00E94C82162
:100C00006FEB71E08CE895E00E94E11F61E070E01D
:100C10008EEB94E00E949F0DAB01BC0122E030E01E
:100C20008CE895E00E94C82163ED71E08CE895E0C6
:100C30000E94F41F6FEB71E08CE895E00E94E11FC9
:100C400062E070E08EEB94E00E949F0DAB01BC016E
:100C500022E030E08CE895E00E94C82168ED71E068
:100C60008CE895E00E94F41F6FEB71E08CE895E052
:100C70000E94E11F63E070E08EEB94E00E949F0D04
:100C8000AB01BC0122E030E08CE895E00E94C82175
:100C90006FED71E08CE895E00E94F41F8EEB94E01C
:100CA0000E94400E20E030E44CE156E40E94A9236B
:100CB00087FD08C081E080930C01FF90EF90DF90EA
:100CC000CF900895C0900601D0900701E0900801F0
:100CD000F090090120E030E0A901C701B6010E94AF
:100CE000A92387FDEACF2FE832EC45EF5CE3C7018B
:100CF000B6010E94A92387FD0DC081E080930C01FD
:100D000066EE71E08CE895E0FF90EF90DF90CF9079
:100D10000C94F41F10920C01D0CFCF92EF920F934E
:100D20008BE594E00E948401E6E7F4E010821182F2
:100D3000CC24C39487E0E82E01E024E04CE06BE093
:100D40008EE593E00E940A1964E187E093E00F9139
:100D5000EF90CF900C949101CF9366EF72E087E013
:100D600093E00E945504882309F436C14091FA02A9
:100D70005091FB026091FC027091FD022AE030E08C
:100D80008CE895E00E94D2208091FA029091FB02BB
:100D9000A091FC02B091FD02843421E9920729EF71
:100DA000A20725E8B20709F4DEC080F5811526E325
:100DB000920727E8A20726E4B20709F462C058F4B4
:100DC0008832944FA24DBE4009F4E8C087E093E01A
:100DD000CF910C949D01843E2EE1920722E3A2075D
:100DE00025E5B20709F44DC0803A9C41AB48B946AD
:100DF00069F710927B0310927A038AE090E0909357
:100E00007D0380937C0380EA9FE0D4C084302DEE84
:100E100092072DE7A2072AEAB20709F450C0A8F406
:100E200084329644A744BF4989F68091820388237F
:100E300069F2809181038F5F80938103843008F48D
:100E40006EC081E0809381036AC084302CE89207F1
:100E50002DEDA20721EEB20709F4B1C0843496400B
:100E6000AD4FBB4E09F0B2CF10927B0310927A03C4
:100E70008AE090E090937D0380937C0380ED97E07F
:100E800099C010927B0310927A038AE090E09093CD
:100E90007D0380937C0386E990E090937F038093A9
:100EA0007E0380918203882309F490CF60E082E082
:100EB0000E94791D61E08EE00E94791D87CF8091AC
:100EC0008203C1E08C278093820380918203882370
:100ED00049F110920C0161E08DE00E94791D61E002
:100EE00082E00E94791D61E085E10E94791DC09336
:100EF000810310927B0310927A038AE090E0909332
:100F00007D0380937C0380ED97E090937F03809333
:100F10007E031092800310927903109278030E944E
:100F2000450554CFC0930C0160E082E00E94791D1A
:100F300060E085E10E94791D60E089E00E94791DF2
:100F400060E083E00E94791D60E08DE00E94791DE1
:100F500060E08EE00E94791D109281038EE593E09F
:100F60000E944117DCCF10927B0310927A038AE033
:100F700090E090937D0380937C0380ED97E09093C5
:100F80007F0380937E0380918203882309F41ECF20
:100F900061E082E00E94791D60E08DCF10927B03BA
:100FA00010927A038AE090E090937D0380937C0313
:100FB00084EF91E090937F0380937E0307CF10929C
:100FC0007B0310927A038AE090E090937D038093F4
:100FD0007C0388EB9BE0EECFCF910895CF92DF9218
:100FE000EF92FF920F931F9348EB5BE060E070E09D
:100FF00088E794E00E94490B40E05BE460E070E029
:1010000088E794E00E94320B61E088E794E00E9458
:10101000010B882391F064EF71E08CE895E00E9469
:10102000E11F4AE050E060E070E088E794E00E9451
:10103000EC0A88E794E00E94310B41E060E088E729
:1010400094E00E94BE0B61E088E794E00E94010BEF
:10105000882351F065E072E08CE895E00E94E11F82
:1010600088E794E00E94310B80918100887F826044
:101070008093810061E089E00E943D1D6DED74E088
:1010800082E293E00E94A61287E093E00E94A4010E
:10109000D12CC12C10E4E12E12E4F12E0FE010E06F
:1010A00030E020E046E063E08EEB94E00E940A0C22
:1010B00048E451E664E774E48EEB94E00E943A0E53
:1010C00040E050E0BA018EEB94E00E94A40C26E0D0
:1010D00040E05BE460E070E08CE895E00E94AA1ECE
:1010E00061E083E00E943D1D61E085E00E943D1DBE
:1010F00061E086E00E943D1D61E082E00E943D1DAE
:1011000061E089E00E943D1D61E08DE00E943D1D8F
:1011100061E08FE00E943D1D61E080E10E943D1D85
:1011200061E08EE00E943D1D61E085E10E943D1D71
:101130008EE593E01F910F91FF90EF90DF90CF909D
:101140000C9441178F929F92AF92BF92EF92FF92B1
:101150000F931F93CF93DF934B015C01F42E8EE529
:1011600093E00E944117C501B4010E94C122EB0126
:10117000CB0164E670E00E94C925E62E42E0BC0186
:101180008EE593E00E94B8192AE030E0CE01B90163
:101190000E94C925CB01B9010E94C92509E411E0CB
:1011A00021E041E0682F8EE593E00E94A61920E03F
:1011B00040E06E2D8EE593E00E94A61920E043E00A
:1011C00061E0F11005C009E411E020E043E065E0D2
:1011D0008EE593E00E94A619DF91CF911F910F91A8
:1011E000FF90EF90BF90AF909F908F900895EF92F7
:1011F000FF920F931F93CF93DF937C018EE593E0D3
:101200000E9441176CE072E08CE895E00E94E11FBB
:1012100060916603709167034AE050E08CE895E0C6
:101220000E94A620F0926703E09266038091660315
:1012300090916703CAE0D0E0BE010E94C92509E48D
:1012400011E020E042E0682F8EE593E00E94A619AD
:101250008AE0E816F1040CF452C080916603909184
:101260006703BE010E94C9257093670360936603FC
:101270006CE072E08CE895E00E94E11F60916603EB
:10128000709167034AE050E08CE895E00E94A62048
:101290008091660390916703BE010E94C92520E0FA
:1012A00041E0682F8EE593E00E94A61984E6E816D7
:1012B000F1042CF18091660390916703BE010E94B6
:1012C000C92570936703609366036CE072E08CE855
:1012D00095E00E94E11F60916603709167034AE008
:1012E00050E08CE895E00E94A62060916603709122
:1012F000670320E040E08EE593E00E94A619DF91AD
:10130000CF911F910F91FF90EF9008950F931F932E
:10131000809178039091790301969093790380935B
:101320007803883E934079F4809180038F5F8093A7
:1013300080031092790310927803809180038530A6
:1013400010F0109280038091800381113EC0809143
:101350007803909179030197C1F48EE593E00E94A0
:1013600041170AEE10E020E050E040E06CE172E04E
:101370008EE593E00E942C1A09E411E021E041E09F
:1013800061E08EE593E00E94A61980917803909128
:101390007903843F914009F0E1C060E272E08CE89B
:1013A00095E00E94E11F60917403709175034AE01B
:1013B00050E08CE895E00E94A62080917403909103
:1013C00075031F910F910C94F70880918003813071
:1013D000D9F58091780390917903892BC1F48EE53A
:1013E00093E00E9441170AEE10E020E050E040E058
:1013F00068E272E08EE593E00E942C1A09E411E0A5
:1014000021E041E062E08EE593E00E94A619809120
:10141000780390917903843F914009F09FC06CE27A
:1014200072E08CE895E00E94E11F60917203709178
:1014300073034AE050E08CE895E00E94A62080917A
:10144000720390917303BDCF80918003823091F538
:101450008091780390917903892B79F48EE593E05C
:101460000E9441170AEE10E020E050E040E06CE1FD
:1014700072E08EE593E00E942C1A8091780390919F
:101480007903843F914009F069C064E372E08CE81D
:1014900095E00E94E11F60917003709171034AE032
:1014A00050E08CE895E00E94A62080917003909116
:1014B000710387CF80918003833041F58091780359
:1014C00090917903892B09F049C06BE372E08CE8B5
:1014D00095E00E94E11F40916C0350916D03609173
:1014E0006E0370916F0322E030E08CE895E00E947B
:1014F000CA2160916C0370916D0380916E0390918D
:101500006F0341E01F910F910C94A208809180031A
:10151000843021F58091780390917903892BF1F43F
:1015200066E472E08CE895E00E94E11F4091680358
:101530005091690360916A0370916B0322E030E07F
:101540008CE895E00E94CA2160916803709169035C
:1015500080916A0390916B0340E0D4CF1F910F916B
:1015600008950E94AC0680918203882341F00E9476
:1015700079050E9486090E94F1040E94C50561E078
:1015800070E080E090E00C942D1C8F929F92AF92BF
:10159000BF92CF92DF92EF92FF926A017B010E948D
:1015A000FC1B4B015C01C80CD91CEA1CFB1C0E94F3
:1015B000FC1B681579058A059B0528F0C616D70619
:1015C000E806F906A0F7FF90EF90DF90CF90BF906C
:1015D000AF909F908F90089521E00C94C50AFC0174
:1015E0001682178210861186128613861486158637
:1015F00016861786108A118A128A138A148A158A07
:1016000008950F931F93CF93DF93EC0161111DC0D9
:101610000E94FC1B0A811B812C813D81DC01CB01D6
:10162000801B910BA20BB30B84369105A105B1056C
:1016300060F444E650E060E070E0481B590B6A0B30
:101640007B0B21E0CE010E94C50A0E94FC1B6A832D
:101650007B838C839D8381E0DF91CF911F910F91DC
:1016600008950895CF92DF92EF92FF926A017B0175
:1016700068EE73E080E090E00E942D1C26E0B70148
:10168000A6018CE895E0FF90EF90DF90CF900C944E
:10169000AA1EFC01EE5BFF4F1082118212821382A0
:1016A000FC011282138214821582411551056105D5
:1016B000710511F00C94EC0A08951F93CF93DF93FA
:1016C000EC01162F61E00E94010B64E572E08CE8EA
:1016D00095E00E94E11F4AE050E0612F8CE895E020
:1016E0000E94C5206BE572E08CE895E00E94F41F33
:1016F00042E350E060E070E0CE01DF91CF911F91B6
:101700000C94EC0A88E794E00C94EF0A1F93CF93B3
:10171000DF93FC012689222369F1162FEC018CE866
:1017200095E00E94D01D81110BC085E6DF91CF911D
:101730001F91089521373105E9F026373105B1F3BE
:101740008CE895E00E94D01D882379F38CE895E021
:101750000E94EA1D9C0133272836310559F054F7C1
:101760002835310549F02336310551F7612FCE0177
:101770000E945D0B83E6DACF1E8AFCCF1F93CF93C6
:10178000DF93EC01142F662381F081E08E8B60E003
:10179000CE010E94860B833641F041E050E060E0CC
:1017A00070E0CE010E94EC0AF2CF1E8BDF91CF9148
:1017B0001F91089508956FE170E00C94A31FFC0140
:1017C00086E692E0918380831582148216828FEFE1
:1017D000878380878FEF9FEFDC0185879687A787B8
:1017E000B08B818B928BA38BB48B80E090E0A0E8D0
:1017F000BFEB858B968BA78BB08F818F928FA38F3A
:10180000B48F84E1858F81E4868F41875287638717
:1018100074870895CF92DF92EF92FF920F931F93F8
:10182000CF93DF93EC01862F91E0C114D10409F42A
:1018300090E09E83DD82CC823B832A838F8348871E
:10184000E986FA860B871C872130310539F118F0BB
:101850002230310581F44AE057EA6FEE74E44D8B93
:101860005E8B6F8B788F40E550E060E070E0498BD5
:101870005A8B6B8B7C8B61E00E943D1D60E08885FC
:101880000E943D1D60E08F81DF91CF911F910F91EC
:10189000FF90EF90DF90CF900C94791D40E050E0E6
:1018A0006BE673E4DCCFCF93DF93EC0161E08F81D3
:1018B0000E94791D0E94FC1B28EE33E040E050E0BE
:1018C0000E94DD252D873E874F87588BDF91CF9172
:1018D0000895CF92DF92EF92FF92CF93DF93EC01C6
:1018E0000E94FC1B28EE33E040E050E00E94DD2522
:1018F000CD84DE84EF84F88889899A89AB89BC8994
:101900008C0D9D1DAE1DBF1D61E0281739074A07CC
:101910005B0708F460E0862FDF91CF91FF90EF9096
:10192000DF90CF900895CF93DF93EC0160E08F813B
:101930000E94791D8FEF9FEFDC018D879E87AF8717
:10194000B88BDF91CF910895FC01418B528B638B53
:10195000748B08958F929F92AF92BF92CF92DF9235
:10196000EF92FF92CF93DF93EC0188850E94991C40
:10197000BC0190E080E00E94F72220E030E040E8E7
:101980005AE30E94AE2320E030E040EA50E40E9497
:10199000AE236B017C0120E030E0A9010E944A22C5
:1019A000882339F169857A858B859C850E94F72289
:1019B0004B015C01A701960160E070E080EA90E4D1
:1019C0000E944F2220E030E040E85FE30E94DD21EA
:1019D0009B01AC01C501B4010E94AE23DF91CF9100
:1019E000FF90EF90DF90CF90BF90AF909F908F903F
:1019F000089560E070E0CB01F1CFCF93DF93EC016D
:101A00000E94530CCE010E94690C811107C061E055
:101A100070E080E090E00E942D1CF4CFCE010E9487
:101A2000AA0C698F7A8F8B8F9C8FCE01DF91CF911B
:101A30000C94930CCF93DF93FC01D68DC58DDC33D2
:101A400039F4C43101F560E070E080E89FE316C02E
:101A50006C2F0C2E000C770B880B990B0E94F9222F
:101A6000DC3478F025E531EC48E25CEB0E94AE23F3
:101A700023E23AE443E95FE30E94DE21DF91CF9164
:101A80000895D33390F06C2FCC0F770B880B990B04
:101A90000E94F92228E338EF42E45CEB0E94AE2377
:101AA00025EA3DEB49EA5FE3E7CF20EB33E047E689
:101AB0005CEB0E94AE2322E739EF47EC5FE3DCCF1B
:101AC0000F931F93CB01BA012017310751F001305A
:101AD000110589F048F002301105A1F0033011051D
:101AE00021F11F910F91089520E030E04AE754E47E
:101AF0000E944F22F6CF20E030E04AE754E40E94F3
:101B0000AE23EFCF232B31F020E030E04AE754E45E
:101B10000E944F2220E030E040E452E40E94AE23D5
:101B20002BE430EB45EB51E4E3CF2130310591F369
:101B300020E030E04AE754E40E94AE23EBCFCF929E
:101B4000DF92EF92FF920F931F93CF93DF93EC01FD
:101B50008B01C98CDA8CEB8CFC8C20E030E0A90185
:101B6000C701B6010E944A2287FD09C08A819B8174
:101B70008130910561F138F0029709F457C060E0B7
:101B800070E0CB014AC02D893E894F89588DC7012D
:101B9000B6010E944F226B017C01CE010E941A0DFA
:101BA0009B01AC01C701B6010E94AE232DE53DE6C5
:101BB00045E150E40E941B242EE137EA47E151E45D
:101BC0000E94AE23AB01BC0121E030E023C02D898F
:101BD0003E894F89588DC701B6010E944F226B0183
:101BE0007C01CE010E941A0D9B01AC01C701B60118
:101BF0000E94AE232EEC39E145E150E40E941B2403
:101C000028E03DE342E051E40E94AE23AB01BC0179
:101C100030E020E0CE010E94600DDF91CF911F9156
:101C20000F91FF90EF90DF90CF90089526E636E673
:101C300042E451E4C701B6010E94AE232D893E89DA
:101C40004F89588D0E944F226B017C01CE010E946A
:101C50001A0D9B01AC01C701B6010E94AE2321EE13
:101C60003AE744E95FEB0E941B242BE237E847ED9B
:101C700051E4A6CFFC01458B568B678B708F08957E
:101C8000FC01658976898789908D089540E452E446
:101C90006FE070E08EEB94E00C94DF0BAF92BF929C
:101CA000CF92EF92FF920F931F93CF93DF93DC01BC
:101CB0001E96ED91FC912085223259F080E0DF9153
:101CC000CF911F910F91FF90EF90CF90BF90AF9069
:101CD0000895EB015C01EC85FD8564E071E0828193
:101CE00093810E94C502882349F3EC85FD856CE051
:101CF00073E0848195810E94DE028823F9F2CC246E
:101D0000C3948CE0E82E83E0F82E0CE117E024E089
:101D100031E043E06FE0C5010E94F702882371F2D1
:101D2000F50142855385648575854C835D836E839B
:101D30007F839FE0988723E030E0398328833183D5
:101D40002083BDCFAF92BF92CF92EF92FF920F93BD
:101D50001F93CF93DF935C01EB018E859F85829764
:101D600069F5EC85FD856EE072E0828193810E94C9
:101D7000C502882319F18E859F8581509048880F70
:101D8000991F2C853D85820F931F6EE072E0FC0148
:101D9000808191810E94C502882381F018864FEFCF
:101DA0005FEFBA014C835D836E837F8391E0F50121
:101DB000918725E030E0318320830BC0EC85FD85E1
:101DC00060EE70E2828193810E94C50281110BC096
:101DD00080E0DF91CF911F910F91FF90EF90CF9016
:101DE000BF90AF9008958E859F85849788F3EC858A
:101DF000FD8560E770E1848195810E94DE02882381
:101E000039F3CC24C3948EE0E82E82E0F82E0AE267
:101E100016E02EE032E043E060E1C5010E94F702E7
:101E20008823B1F2EC85FD85EA5BFF4F6EE072E03E
:101E3000808191810E94C502882351F2F50142857B
:101E40005385648575854C835D836E837F8390E1C4
:101E5000988725E030E039832883ADCFAF92BF92D9
:101E6000CF92EF92FF920F931F93CF93DF93FB01DB
:101E7000268537852236310558F480E0DF91CF91F1
:101E80001F910F91FF90EF90CF90BF90AF9008956A
:101E9000EB015C010484F585E02D60E87DE0828142
:101EA00093810E94C502882341F3EC85FD8560EC97
:101EB00076E0848195810E94C5028823F1F2CC24CA
:101EC000C39480EBE82EFF24F39400E115E020EBAF
:101ED00031E043E06CE2C5010E94F702882369F219
:101EE00090E39887F50142855385648575854C8319
:101EF0005D836E837F8322E030E23B832A8328E088
:101F000030E03983288331832083B8CFAF92BF92EA
:101F1000CF92EF92FF920F931F93CF93DF93FB012A
:101F2000268537852C33310559F080E0DF91CF913C
:101F30001F910F91FF90EF90CF90BF90AF900895B9
:101F4000EB015C010484F585E02D60E073E28281A1
:101F500093810E94C502882341F3EC85FD8560E8EA
:101F600071E1848195810E94DE028823F1F2CC2404
:101F7000C39480E3E82E82E0F82E00E916E020E327
:101F800032E043E06CE1C5010E94F702882369F268
:101F9000EC85FD85EA58FF4F60E372E08081918116
:101FA0000E94C502882309F2F501428553856485A4
:101FB00075854C835D836E837F839CE1988726E0E3
:101FC00030E03983288331832083B0CFAF92BF9232
:101FD000CF92EF92FF920F931F93CF93DF935C0109
:101FE000EB01EC85FD8560E073E2828193810E94C4
:101FF000C50281110BC080E0DF91CF911F910F913D
:10200000FF90EF90CF90BF90AF9008958E859F8501
:10201000049729F5EC85FD8560EC78E08481958155
:102020000E94DE028823D9F0EC85FD8560E372E032
:10203000868197810E94C502882389F018864FEF18
:102040005FEFBA014C835D836E837F83F5019185D9
:102050009160918727E030E031832083CDCF8E855A
:102060009F858434910539F6EC85FD8560E871E142
:10207000848195810E94DE02882309F4BCCFCC24A0
:10208000C39480E3E82E82E0F82E00E916E020E316
:1020900032E043E060E2C5010E94F702882309F4C0
:1020A000AACFEC85FD85EA57FF4F60E372E080819F
:1020B00091810E94C502882309F49DCFF5014285D4
:1020C0005385648575854C835D836E837F8390E241
:1020D000988727E030E039832883BECFCF92DF9204
:1020E000EF92FF920F931F93CF93DF93EC0149E799
:1020F00053E061E00E94B801CE010E945802813095
:1021000051F080E0DF91CF911F910F91FF90EF9000
:10211000DF90CF900895C12CD12C760110E0EE8590
:10212000FF859085809189038917E0F4CE010E9494
:102130005802082FCE010E94580201110AC08130B6
:1021400001F7CC0CDD1CEE1CFF1C6894C0F81F5F6F
:10215000E6CF0130B1F68111D4CFCC0CDD1CEE1CE2
:10216000FF1CF5CF1887CA86DB86EC86FD868C2D92
:102170008F7390E09D838C83960146E0369527957A
:102180004A95E1F72F7133273B832A839601222753
:102190003071232B21F4805C9F4F9D838C8380E8DA
:1021A000D3FC88E8898781859285833E984018F41E
:1021B0008985816089878EE090E09983888381E0BA
:1021C000A1CFAF92BF92CF92DF92EF92FF920F9387
:1021D0001F93CF93DF93EC01EE85FF8568E67AE0ED
:1021E000838594850E94C50281110DC000E0802F77
:1021F000DF91CF911F910F91FF90EF90DF90CF90E3
:10220000BF90AF900895EE85FF8568E773E0858500
:1022100096850E94DE02082F882341F34CEB51E0A3
:1022200063E0CE010E94B801CE010E9458028130C5
:10223000E9F6CE010E945802182F8111D7CFC12C88
:10224000D12C7601EE85FF859085809189038917D1
:1022500070F5CE010E945802A82E1330C1F0CE01B5
:102260000E945802B82E133029F4CE010E94580261
:102270008B11BCCF21E0A21210C0B110B7CFCC0C93
:10228000DD1CEE1CFF1C6894C0F81F5FDBCFCE0185
:102290000E9458028A1519F3A9CFA110A7CF81E097
:1022A000B812A4CFCC0CDD1CEE1CFF1CEECF18879F
:1022B000CA86DB86EC86FD862C2D30E08D2D14320F
:1022C000C8F480E889873D832C838D2D90E09B8323
:1022D0008A83E0FE02C088E88987818592858A38F2
:1022E0009C4018F48985816089878FE090E099830C
:1022F00088837DCF90E9D7FC98E999873D832C832B
:102300008F7790E09B838A83FF82EE82E6CFAF9245
:10231000BF92CF92EF92FF920F931F93CF93DF93D1
:102320005C01EB01EC85FD8560E371E182819381C5
:102330000E94C50281110BC080E0DF91CF911F91F7
:102340000F91FF90EF90CF90BF90AF9008958E8542
:102350009F85049721F5EC85FD856AEC78E0848102
:1023600095810E94DE028823D1F0EC85FD8566E22E
:1023700072E0868197810E94C502882381F01886C9
:102380004FEF5FEFBA014C835D836E837F8391E0F3
:10239000F501918720E130E031832083CECF8E8517
:1023A0009F858434910540F2EC85FD8560E371E101
:1023B000848195810E94DE02882309F4BDCFCC245C
:1023C000C39486E2E82E82E0F82E02E716E026E2C9
:1023D00032E043E060E2C5010E94F702882309F47D
:1023E000ABCFF50142855385648575854C835D834C
:1023F0006E837F8390E2988720E130E039832883E1
:10240000CBCF4F925F926F927F928F929F92AF92BB
:10241000BF92CF92DF92EF92FF920F931F93CF93D1
:10242000DF93EB012E853F852A31310598F4512C3D
:10243000852DDF91CF911F910F91FF90EF90DF904D
:10244000CF90BF90AF909F908F907F906F905F9054
:102450004F900895EC85FD85208131812A3031052A
:1024600090F418864FEF5FEFBA014C835D836E8363
:102470007F8321E0FC01218722E130E0318320834A
:1024800055245394D5CF8C0160E679E08281938105
:102490000E94C502582E882351F234E0C32ED12C5D
:1024A00043E0E42EF12C412C812C912C54018E859B
:1024B0009F85E816F906E8F5EC85FD85EC0DFD1D18
:1024C00068E572E0808191810E94DE02882309F430
:1024D000AECF3701660C771CEC85FD85E60DF71D48
:1024E00060EB74E0808191810E94C502882371F0C5
:1024F000880C991CAA1CBB1C689480F84394F2E0D9
:10250000EF0EF11C84E0C80ED11CD1CF8C859D85C7
:10251000680E791E68E572E0F301808191810E9466
:10252000C502882309F483CF880C991CAA1CBB1C04
:10253000E5CF48868C829D82AE82BF8282E190E0A8
:1025400099838883F8019183808372CFFC0171A302
:1025500060A3CB010C945614EF92FF920F931F933C
:10256000CF93DF93EC0149E150E068E270E088A18D
:1025700099A10E94E8147E0189E1E80EF11C8E0108
:1025800088A199A1DC01ED91FC910084F185E02DF9
:102590000995892B09F4ADC088A199A1DC01ED91C1
:1025A000FC910284F385E02D0995F80181938F0158
:1025B000EE15FF0529F78881863111F082E092C07F
:1025C0009981993109F097C0FE0131969E01285EEC
:1025D0003F4F919189272E173F07D9F7988D981370
:1025E0008CC08A818AA38B8190E0982F88272C81C8
:1025F000820F911D9CA38BA38D8190E0982F88273B
:102600002E81820F911D9EA38DA36F81862F90E056
:10261000982F88276885680F792F711D072E000C69
:10262000880B990B0E94F92220E030E040E251E44F
:102630000E944F226FA378A789A79AA76985862F42
:1026400090E0982F88276A85680F792F711D645F45
:102650007140072E000C880B990B0E94F92220E094
:1026600030E040E251E40E944F226BA77CA78DA787
:102670009EA78B8590E0982F88272C85820F911D2F
:1026800098AB8FA78D8590E0982F88272E85820F95
:10269000911D9AAB89AB8F8590E0982F8827288968
:1026A000820F911D9CAB8BAB898990E0982F882776
:1026B0002A89820F911D9EAB8DAB8B8990E0982F5C
:1026C00088272C89820F911D98AF8FAB8D8990E060
:1026D000982F88272E89820F911D9AAF89AF8F89F5
:1026E0008BAF80E0DF91CF911F910F91FF90EF9022
:1026F000089581E0F7CF83E0F5CF84E0F3CFFC01CC
:1027000067A170A581A592A50895FC0163A574A594
:1027100085A596A50895FC0187A590A90895FC01BB
:1027200081A992A90895FC0183A994A9089590E034
:1027300080E008958091110590911205891B990BF5
:10274000089590911205809111052FEF3FEF981792
:1027500048F4E92FF0E0ED5EFA4F208130E09F5F12
:1027600090931205C9010895E09112058091110519
:10277000E81730F4F0E0ED5EFA4F808190E00895C4
:102780008FEF9FEF08950895CF93DF93EC01E091D1
:10279000E904F091EA043097F1F0909112058091EC
:1027A00011059817C0F090E0292F30E02617370761
:1027B00054F4DE01A20FB31F4C912D5E3A4FD901A4
:1027C0004C939F5FF1CF1092120560931105CB01DE
:1027D000DF91CF910994DF91CF910895E091EB04BF
:1027E000F091EC04309729F01092EF041092EE046F
:1027F00009940895CF93DF931F92CDB7DEB7698315
:102800002091ED042223F9F02091EE04203258F0BB
:1028100021E030E0FC013383228390E080E00F90E0
:10282000DF91CF9108958091EF04E82FF0E0E0511F
:10283000FB4F998190838F5F8093EF048093EE0428
:1028400081E090E0ECCF61E0CE0101960E94AA15F4
:10285000F7CFCF92DF92EF92FF920F931F93CF9318
:10286000DF937C01CB018A012091ED04222389F0C2
:10287000EB016B01C40ED51ECC15DD0569F0699125
:10288000D701ED91FC910190F081E02DC7010995F0
:10289000F3CF642F0E94AA15C801DF91CF911F9139
:1028A0000F91FF90EF90DF90CF9008951092120556
:1028B000109211051092EF041092EE040E94FC1485
:1028C0008EEE93E10E94D61584EC93E10C94D11521
:1028D00081E08093ED04609310051092EF04109254
:1028E000EE0408950F93062F21E04091EE0460EF6F
:1028F00074E0809110050E945A151092EF04109216
:10290000EE041092ED040F9108954F925F926F9232
:102910007F92AF92BF92CF92EF92FF920F931F934D
:10292000CF93DF935C01F62ED42F28013901EE20DE
:1029300019F10E946814CE2DC43008F0C3E0C150D4
:10294000B8F028E0C29FC0011124A301920104C085
:1029500056954795379527958A95D2F7B901D501B0
:10296000ED91FC910190F081E02DC5010995E7CF33
:1029700060E0C5010E9472144D2FD13208F040E290
:102980002C2D63E175E08F2D0E941A15109212050F
:1029900080931105DF91CF911F910F91FF90EF90E0
:1029A000CF90BF90AF907F906F905F904F900895C1
:1029B000CF92EF920F931F93C22EE12C00E010E014
:1029C00098010E9485141F910F91EF90CF90089568
:1029D00021E00C94D814EDEDF4E01382128288EE1D
:1029E00093E0A0E0B0E084839583A683B7838EE66E
:1029F00092E09183808308951092820581E0809314
:102A0000800510927F0561E082E10E94791D61E0FE
:102A100083E10E94791DE9EBF0E080818E7F808365
:102A200080818D7F808388E48093B80085E48093E3
:102A3000BC0008954132E0F5909182059111FCCFE0
:102A400091E090938205209380052FEF209333052A
:102A500070937A056093790510927805240F20937E
:102A600077059093810590918105880F892B80933C
:102A7000810580917F058130C9F410927F05809196
:102A800081058093BB008091BC0083FDF8CF85EC6D
:102A90008093BC00809182058130E1F380917805BC
:102AA000841710F440917805842F089585EEF0CFB7
:102AB00040E0FACF0F93413208F044C09091820574
:102AC0009111FCCF92E090938205009380059FEFD7
:102AD0009093330570937A05609379051092780589
:102AE000409377051092810590918105880F892B7D
:102AF0008093810580917F05813011F510927F05CB
:102B0000809181058093BB008091BC0083FDF8CF4C
:102B100085EC8093BC00222321F0809182058230D5
:102B2000D1F3809133058F3F79F080913305803266
:102B300069F080913305803359F084E00F91089556
:102B400085EEE7CF81E0FACF80E0F8CF82E0F6CFE4
:102B500083E0F4CF20915505260F3327331F213210
:102B60003105ECF420918205FC0190E080E02430F6
:102B700069F082E00895A09155052191AC01495A70
:102B80005A4FA40FB52FB11D2C930196861798F3B9
:102B900080915505680F6093550580E0089581E0A8
:102BA000089590937C0580937B05089590937E050E
:102BB00080937D05089585ED8093BC008091BC00D5
:102BC00084FDFCCF10928205089585EC8093BC00B3
:102BD0001092820508951F920F920FB60F92112442
:102BE0002F933F934F935F936F937F938F939F9315
:102BF000AF93BF93EF93FF938091B900887F8036A6
:102C000009F44CC008F03FC0883209F4A8C018F598
:102C1000803109F49CC0B8F4882309F405C18830D8
:102C200009F495C0FF91EF91BF91AF919F918F9162
:102C30007F916F915F914F913F912F910F900FBEB8
:102C40000F901F901895883109F489C0803251F790
:102C50008093330515C0803409F4A6C048F480334E
:102C6000B9F38833F9F6809333050E94E515DACF7E
:102C7000803509F489C0883509F49EC0883491F6FE
:102C80000E94DB15CFCF883909F494C038F5883716
:102C900029F050F4883611F0803721F683E08093D4
:102CA00082051092340557C0883809F483C08039F2
:102CB00019F0803809F0B6CF80913405803208F0E1
:102CC00079C0E091340581E08E0F809334058091C6
:102CD000BB00F0E0EB5CFA4F80833DC0803B39F0F5
:102CE000E0F4803A09F485C0883A09F09BCF84E08B
:102CF000809382051092560510925505E0917D054E
:102D0000F0917E0509958091550581110FC081E0F4
:102D1000809355051092570509C0803C09F482C084
:102D2000883C09F47FC0883B09F07CCFE0915605D0
:102D300081E08E0F80935605F0E0E95AFA4F8081CA
:102D40008093BB00909156058091550531C08091CC
:102D500081058093BB0085EC8093BC0063CF90918C
:102D60007805809177059817B8F58091790590914D
:102D70007A05E091780521E02E0F20937805E80F81
:102D8000F92FF11D8081E5CF2091790530917A05E9
:102D9000E091780581E08E0F809378058091BB00EB
:102DA000E20FF32FF11D80839091780580917705D4
:102DB000981788F285E8D0CF2091790530917A056F
:102DC000E091780581E08E0F809378058091BB00BB
:102DD000E20FF32FF11D808380918005811150CF88
:102DE00081E080937F0584EA8093BC001092820585
:102DF00019CF0E94E51580913405803230F4E091BE
:102E00003405F0E0EB5CFA4F10826091340570E01D
:102E1000E0917B05F0917C0585E395E009951092A2
:102E2000340500CF85ECE0CF1092330529CF0F9306
:102E30001F93CF93DF93EC01162F042FE881F981C4
:102E4000048CF58DE02D0995612F660F6866E88189
:102E5000F98100A0F1A1E02DCE010995E881F98169
:102E600000A0F1A1E02D602FCE010995E881F98144
:102E7000068CF78DE02DCE01DF91CF911F910F9140
:102E800009940F931F93CF93DF938C01D0E0C0E0A0
:102E9000D80112968C9112978C171D0661F05CF088
:102EA000ED91FC9104A0F5A1E02D40E06C2FC8014C
:102EB00009952196EDCFDF91CF911F910F91089544
:102EC0000F931F93CF93DF93EC01062F483008F048
:102ED00047E011E0140F183009F410E0E881F9819F
:102EE000048CF58DE02DCE010995E881F98100A0D3
:102EF000F1A1E02D68E4CE010995E881F98100A0F7
:102F0000F1A1E02D80E1189FA00111248B8160E0E8
:102F1000873009F468E0402B642BCE010995E881E5
:102F2000F981068CF78DE02DCE01DF91CF911F91B5
:102F30000F9109940F931F93CF938C01DC01ED91B6
:102F4000FC91048CF58DE02D0995D801ED91FC9153
:102F500000A0F1A1E02D69E4C8010995D801ED9127
:102F6000FC9106A0F7A1E02DC8010995C82FD80152
:102F7000ED91FC91068CF78DE02DC801099560E07C
:102F800070E0CB01C43470F0C83480F4C45461E004
:102F900070E080E090E004C0660F771F881F991FE3
:102FA000CA95D2F7CF911F910F910895C03510F4B3
:102FB000C854EDCFC83510F4CC54E9CFC03610F466
:102FC000C055E5CFC83610F4C455E1CFC03710F472
:102FD000C855DDCFC837D8F6CC55D9CF85E090E0BD
:102FE0000C94661CCF93DF93EC0161E08D810E940D
:102FF000791D61E08E810E94791DE881F981028C42
:10300000F38DE02DCE01099560E08D810E94791D40
:1030100060E08E810E94791DE881F981028CF38D38
:10302000E02DCE01DF91CF910994CF93DF93EC0196
:1030300060E08E810E94791D60E08D810E94791D83
:10304000E881F981028CF38DE02DCE01099561E0D4
:103050008E810E94791D61E08D810E94791DE88139
:10306000F981028CF38DE02DCE01DF91CF9109948F
:10307000FF920F931F93CF93DF93EC01F62E08E09E
:1030800010E060E08E810E94791DE881F981028C58
:10309000F38DE02DCE0109956F2D661F6627661F03
:1030A0008D810E94791DFF0C61E08E810E94791D47
:1030B000E881F981028CF38DE02DCE010995015054
:1030C0001109F9F6E881F981028CF38DE02DCE012A
:1030D0000995E881F981028CF38DE02DCE010995E7
:1030E00060E08E810E94791D60E08D810E943D1D0F
:1030F000E881F981028CF38DE02DCE01099561E024
:103100008E810E94791DE881F981028CF38DE02D7A
:10311000CE0109958D810E94A71D811104C060E038
:103120008D810E94791D61E08D81DF91CF911F918A
:103130000F91FF900C943D1DEF92FF921F93CF9340
:10314000DF93EC0160E08E810E94791D60E08D814B
:103150000E943D1D61E08D810E94791D88E0E82E6E
:10316000F12C10E0110F61E08E810E94791DE88141
:10317000F981028CF38DE02DCE0109958D810E949D
:10318000A71D892B09F0116060E08E810E94791DD6
:10319000E881F981028CF38DE02DCE01099581E063
:1031A000E81AF108F9F660E08E810E94791D60E06E
:1031B0008D810E943D1D61E08D810E94791DE88115
:1031C000F981028CF38DE02DCE01099561E08E81AD
:1031D0000E94791DE881F981028CF38DE02DCE01EA
:1031E00009958D810E94A71DF82E60E08E810E94B6
:1031F000791DF11004C060E08D810E94791D61E0AD
:103200008D810E943D1D812FDF91CF911F91FF90F5
:10321000EF900895AF92CF92DF92EF92FF920F93CB
:103220001F93CF93DF93EC01102FFE2CDC2CAE2CE0
:10323000C02EE22E04E0262F0E94881B80E892E038
:1032400099838883CE010E94411781E0D81681F0CE
:1032500087E08B834F2D612FCE01DF91CF911F919E
:103260000F91FF90EF90DF90CF90AF900C9460178C
:1032700088E0EFCFDC01ED91FC9102A0F3A1E02DFD
:10328000611106C060E8483008F047E0642B0994FB
:1032900068E8F9CF0F931F93CF93DF93EC01E88198
:1032A000F98102A0F3A1E02D60E40995E881F9819C
:1032B000048CF58DE02DCE010995E881F98100A0FF
:1032C000F1A1E02D60ECCE01099510E000E0E8816D
:1032D000F9818A8180171106A9F0A4F000A0F1A15C
:1032E000E02D60E0CE0109958B81893040F0E881C6
:1032F000F98100A0F1A1E02D60E0CE0109950F5FFA
:103300001F4FE5CF068CF78DE02DCE01DF91CF91D9
:103310001F910F9109940895362FDC01ED91FC91D6
:103320000480F581E02D60E0211160E8642B432FDB
:103330000994E42F440FFF0BE75CFE4F4491DC013E
:10334000ED91FC910288F389E02D09940F931F936E
:10335000E62F642FEF70E00FF12FF11D4491DC0197
:10336000ED91FC910288F389E02D1F910F91099452
:103370009F92AF92BF92CF92DF92EF92FF920F9304
:103380001F93CF93DF937C01C1E0C42ED12C8AE040
:10339000A82EB12CD70114964C914C17F0F0960141
:1033A0000C2E02C0359527950A94E2F721704C1B2C
:1033B000CB01B5010E94C925962ED72FD701ED91DB
:1033C000FC910084F185E02D08EB11E0682FC70126
:1033D0000995692D7D2FCF5FDDCFDF91CF911F91B3
:1033E0000F91FF90EF90DF90CF90BF90AF909F90A4
:1033F0000895242FDC01ED91FC910288F389E02DE2
:1034000040E00994CF92DF92EF92FF920F931F93C7
:10341000CF93DF937C016B01042F10E0D0E0C0E07C
:10342000C017D10781F0F601EC0FFD1F4491D701C1
:10343000ED91FC910288F389E02D20E06C2FC7010B
:1034400009952196EDCFDF91CF911F910F91FF90BC
:10345000EF90DF90CF9008957F928F929F92AF92DE
:10346000BF92CF92DF92EF92FF920F931F93CF9371
:10347000DF937C016A01722E8B01D0E0C0E0A22EA6
:10348000B12C88248394912CD70114968C9190E0D0
:103490009C012A193B09C217D3070CF5F801419189
:1034A0008F014423E1F08C1B9D0B0197940102C016
:1034B000220F331F8A95E2F7C9018C219D2121E05B
:1034C000892B09F420E06C2F670DD701ED91FC9159
:1034D0000688F789E02DC70109952196D5CFDF91A0
:1034E000CF911F910F91FF90EF90DF90CF90BF9001
:1034F000AF909F908F907F900895FC0184810895F4
:1035000060E070E0CB01089508951F93CF93DF939F
:10351000EC01162FE881F981048CF58DE02D0995D9
:10352000E881F98100A0F1A1E02D612FCE0109957C
:10353000E881F981068CF78DE02DCE01DF91CF91E6
:103540001F9109940F931F93CF93DF93EC01162FD4
:10355000042FE881F98102A0F3A1E02D64E409952C
:10356000E881F981048CF58DE02DCE010995612F5C
:10357000606CE881F98100A0F1A1E02DCE010995F0
:10358000E881F98100A0F1A1E02D602FCE0109951D
:10359000E881F981068CF78DE02DCE01DF91CF9186
:1035A0001F910F910994CF93DF93EC0160E08F811D
:1035B0000E94791DE881F981028CF38DE02DCE0106
:1035C000DF91CF910994CF93DF93EC0161E08F817C
:1035D0000E94791DE881F981028CF38DE02DCE01E6
:1035E000DF91CF910994FF920F931F93CF93DF93B5
:1035F000EC01F62E08E010E060E08E810E94791D5B
:10360000E881F981028CF38DE02DCE0109956F2DB3
:1036100061708D810E94791DE881F981028CF38DA2
:10362000E02DCE010995F69461E08E810E94791D0E
:10363000E881F981028CF38DE02DCE0109950150CE
:103640001109D1F6E881F981028CF38DE02DCE01CC
:10365000DF91CF911F910F91FF900994CF92DF924C
:10366000EF92FF921F93CF93DF93EC0160E08D8187
:103670000E943D1D61E08D810E94791D98E0C92E58
:10368000D12C10E0E12EF12CF594E7941E2D60E092
:103690008E810E94791DE881F981028CF38DE02DE5
:1036A000CE0109958D810E94A71D892B09F0106814
:1036B00061E08E810E94791DE881F981028CF38D91
:1036C000E02DCE01099581E0C81AD108D9F661E054
:1036D0008D810E943D1D60E08D810E94791D812FAA
:1036E000DF91CF911F91FF90EF90DF90CF900895E1
:1036F000242FDC0112963C911297431740F4ED9170
:10370000FC9104A0F5A1E02D462F622F09940895A5
:10371000EF920F93CF93DF93FC01862FC42FD22F0C
:103720002CEA32E03183208398E0938365834683DB
:10373000D7830283E48261E00E943D1D61E08C2F0B
:103740000E943D1D61E08D2F0E943D1D61E08D2F87
:103750000E94791D61E08C2FDF91CF910F91EF9046
:103760000C94791D1F920F920FB60F9211242F9374
:103770003F938F939F93AF93BF93809188059091D0
:103780008905A0918A05B0918B053091870523E0CA
:10379000230F2D3768F126E8230F0296A11DB11DD6
:1037A000209387058093880590938905A0938A05C7
:1037B000B0938B058091830590918405A091850538
:1037C000B09186050196A11DB11D8093830590934C
:1037D0008405A0938505B0938605BF91AF919F9115
:1037E0008F913F912F910F900FBE0F901F901895C2
:1037F0000196A11DB11DD4CF2FB7F8946091880513
:103800007091890580918A0590918B052FBF08954D
:103810003FB7F8948091830590918405A091850528
:10382000B091860526B5A89B05C02F3F19F00196DB
:10383000A11DB11D3FBFBA2FA92F982F8827BC010A
:10384000CD01620F711D811D911D42E0660F771F32
:10385000881F991F4A95D1F708958F929F92AF9232
:10386000BF92CF92DF92EF92FF926B017C010E9498
:10387000081C4B015C01C114D104E104F104E9F01E
:103880000E94DC210E94081C681979098A099B0999
:10389000683E73408105910570F321E0C21AD1089A
:1038A000E108F10888EE880E83E0981EA11CB11C87
:1038B000C114D104E104F10429F7FF90EF90DF90E7
:1038C000CF90BF90AF909F908F90089582309105D8
:1038D00038F0880F991F880F991F05970197F1F706
:1038E0000895789484B5836084BD85B5836085BD73
:1038F000EEE6F0E0808181608083E1E8F0E082E044
:103900008083808181608083E0E8F0E08081816055
:103910008083E1EBF0E0808184608083E0EBF0E085
:1039200080818160808387E880937A001092C10053
:103930000895883020F08D3008F48DE08E5020916D
:103940000D0190E4299F900111248770822B8093B0
:103950007C0080917A00806480937A0080917A0064
:1039600086FDFCCF809178009091790008951F9397
:10397000CF93DF93182FEB0161E00E943D1D20974C
:1039800039F460E0812FDF91CF911F910C94791D64
:10399000CF3FD10511F461E0F5CFE12FF0E0E8531E
:1039A000FE4FE491E43031F140F4E230B1F0E33025
:1039B000E1F0C038D1057CF7E4CFE83029F1E930F7
:1039C00059F1E530B1F780918000806280938000EA
:1039D000D0938B00C0938A0004C084B5806884BDF6
:1039E000C7BDDF91CF911F91089584B5806284BDDA
:1039F000C8BDF7CF80918000806880938000D0930D
:103A00008900C0938800EDCF8091B00080688093DA
:103A1000B000C093B300E5CF8091B0008062809386
:103A2000B000C093B400DDCF843081F028F4823040
:103A3000E9F08330F9F00895883071F0893091F021
:103A40008530B9F4809180008F7D03C08091800023
:103A50008F778093800008958091B0008F77809356
:103A6000B00008958091B0008F7DF9CF84B58F7735
:103A700084BD089584B58F7DFBCFCF93DF9390E015
:103A8000FC01E152FE4F24918A509E4FFC0184912B
:103A90008823C9F090E0880F991FFC01EF5DFD4F6E
:103AA000A591B491FC01E95EFD4FC591D4916111DE
:103AB0000DC09FB7F8948C91209582238C938881B8
:103AC000282328839FBFDF91CF910895623051F45E
:103AD0009FB7F8943C91822F809583238C93E88143
:103AE0002E2BEFCF8FB7F894EC912E2B2C938FBF0A
:103AF000EACF1F93CF93DF93282F30E0F901E853EB
:103B0000FE4F8491F901E152FE4FD491F901EA5040
:103B1000FE4FC491CC23A9F0162F81110E94141DD1
:103B2000EC2FF0E0EE0FFF1FE95EFD4FA591B49181
:103B30008FB7F894EC91111108C0D095DE23DC9377
:103B40008FBFDF91CF911F910895DE2BF8CFCF93D8
:103B5000DF93282F30E0F901E853FE4F8491F901FB
:103B6000E152FE4FD491F901EA50FE4FC491CC23AB
:103B7000A1F081110E94141DEC2FF0E0EE0FFF1F49
:103B8000E35FFD4FA591B491EC91ED2381E090E0CE
:103B900009F480E0DF91CF91089580E090E0FACFC2
:103BA000FC01918D228D892F90E0805C9F4F821BBC
:103BB00091098F7399270895FC01918D828D981733
:103BC00031F0828DE80FF11D858D90E008958FEF23
:103BD0009FEF0895FC01918D828D981761F0A28D61
:103BE000AE0FBF2FB11D5D968C91928D9F5F9F731D
:103BF000928F90E008958FEF9FEF0895FC01538D11
:103C0000448D252F30E0842F90E0821B930B5417B6
:103C100010F0CF960895019708958AE59FE1892BCA
:103C200049F080E090E0892B29F00E945A1F811111
:103C30000C9400000895FC01A48DA80FB92FB11DAC
:103C4000A35ABF4F2C91848D90E001968F739927D2
:103C5000848FA689B7892C93A089B1898C918370B0
:103C600080648C93938D848D981306C00288F389A9
:103C7000E02D80818F7D80830895CF93DF93EC01C9
:103C8000888D8823B9F0AA89BB89E889F9898C9144
:103C900085FD03C0808186FD0DC00FB607FCF7CF00
:103CA0008C9185FFF2CF808185FFEDCFCE010E9400
:103CB0001B1EE9CFDF91CF910895EF92FF920F93F2
:103CC0001F93CF93DF93EC0181E0888F9B8D8C8DC8
:103CD00098131AC0E889F989808185FF15C09FB7BC
:103CE000F894EE89FF896083E889F989808183707F
:103CF000806480839FBF81E090E0DF91CF911F912E
:103D00000F91FF90EF900895F62E0B8D10E00F5F4E
:103D10001F4F0F731127E02E8C8D8E110CC00FB624
:103D200007FCFACFE889F989808185FFF5CFCE01BC
:103D30000E941B1EF1CFEB8DEC0FFD2FF11DE35AFE
:103D4000FF4FF0829FB7F8940B8FEA89FB8980813F
:103D50008062CFCFCF92DF92EF92FF921F93CF93EB
:103D6000DF93EC016A017B01122FE889F98982E077
:103D70008083C11481EED806E104F104A1F060E073
:103D800079E08DE390E0A70196010E94DD252150A6
:103D900031094109510956954795379527952115C0
:103DA00080E1380798F0E889F989108260E874E8C2
:103DB0008EE190E0A70196010E94DD252150310996
:103DC000410951095695479537952795EC85FD850D
:103DD0003083EE85FF852083188EEC89FD89108362
:103DE000EA89FB89808188698083EA89FB898081EF
:103DF0008F7D8083DF91CF911F91FF90EF90DF90B7
:103E0000CF9008951F920F920FB60F9211242F9307
:103E10008F939F93EF93FF93E0919C05F0919D0505
:103E20008081E091A205F091A30582FD1BC09081E5
:103E30008091A5058F5F8F732091A605821741F0B1
:103E4000E091A505F0E0E457FA4F958F8093A50522
:103E5000FF91EF919F918F912F910F900FBE0F9037
:103E60001F9018958081F4CF1F920F920FB60F927A
:103E700011242F933F934F935F936F937F938F936F
:103E80009F93AF93BF93EF93FF938CE895E00E94CD
:103E90001B1EFF91EF91BF91AF919F918F917F91E9
:103EA0006F915F914F913F912F910F900FBE0F90A7
:103EB0001F9018958CE895E00E94D01D21E0892B79
:103EC00009F420E0822F0895ECE8F5E013821282D5
:103ED00088EE93E0A0E0B0E084839583A683B78367
:103EE00088ED92E09183808385EC90E095878487CC
:103EF00084EC90E09787868780EC90E0918B808BB4
:103F000081EC90E0938B828B82EC90E0958B848B9C
:103F100086EC90E0978B868B118E128E138E148E0A
:103F2000089508950E94711C0E94911F0E94EE073F
:103F3000CDE0DEE10E94B10A2097E1F30E940D1E60
:103F4000F9CF0C94BB260C94A11FAF92BF92CF92D5
:103F5000DF92EF92FF920F931F93CF93DF936C0149
:103F60007B018B01040F151FEB015E01AE18BF082A
:103F7000C017D10759F06991D601ED91FC910190DC
:103F8000F081E02DC6010995892B79F7C501DF91F4
:103F9000CF911F910F91FF90EF90DF90CF90BF9046
:103FA000AF900895FB0101900020E9F73197AF0130
:103FB000461B570BDC01ED91FC910280F381E02D53
:103FC00009946115710511F00C94D21F90E080E006
:103FD0000895DC01ED91FC910190F081E02D0994B0
:103FE00066EE72E00C94D21F0F931F93CF93DF9372
:103FF0008C01D0E0C0E06115710519F00E94D21F5C
:10400000EC01C8010E94F01F8C0F9D1FDF91CF9122
:104010001F910F9108958F929F92AF92BF92EF924E
:10402000FF920F931F93CF93DF93CDB7DEB7A19786
:104030000FB6F894DEBF0FBECDBF7C01FA01CB01F5
:1040400019A2223008F42AE08E010F5D1F4F822E44
:10405000912CB12CA12CBF01A50194010E94DD255A
:10406000F901CA016A300CF5605DD8016E938D01CB
:10407000232B242B252B79F790E080E0109721F05B
:10408000BD01C7010E94D21FA1960FB6F894DEBFF2
:104090000FBECDBFDF91CF911F910F91FF90EF9099
:1040A000BF90AF909F908F900895695CDECFCF92C4
:1040B000DF92EF92FF920F931F93CF93DF9321151F
:1040C000310581F4DC01ED91FC910190F081E02D4E
:1040D000642FDF91CF911F910F91FF90EF90DF90B0
:1040E000CF9009942A30310501F52AE077FF1DC0F1
:1040F0006A017B01EC016DE20E94E91F8C014427FB
:104100005527BA014C195D096E097F092AE0CE01D5
:104110000E940B20800F911FDF91CF911F910F9173
:10412000FF90EF90DF90CF900895DF91CF911F9196
:104130000F91FF90EF90DF90CF900C940B209A019D
:10414000AB01770F660B770B0C9457200F931F93DF
:10415000CF93DF93EC010E949F208C01CE010E943F
:10416000F01F800F911FDF91CF911F910F91089544
:104170002115310541F4DC01ED91FC910190F081B4
:10418000E02D642F09940C940B209A01462F50E0E7
:1041900070E060E00C94B8209A01AB0170E060E040
:1041A0000C94B8200F931F93CF93DF93EC010E94E0
:1041B000B8208C01CE010E94F01F800F911FDF916B
:1041C000CF911F910F9108952F923F924F925F923E
:1041D0006F927F928F929F92AF92BF92CF92DF9217
:1041E000EF92FF921F93CF93DF93EC016A017B0163
:1041F000722EAB019601CB01B6010E946B2469EED1
:1042000072E0811126C046015701E894B7F82FEFFC
:104210003FEF4FE75FE7C501B4010E946B248111B6
:104220000CC02FEF3FEF4FE75FE7C501B4010E94DD
:104230004A226DEE72E0181664F02FEF3FEF4FE761
:104240005FE4C701B6010E94A9231816B4F461EF18
:1042500072E0CE01DF91CF911F91FF90EF90DF9040
:10426000CF90BF90AF909F908F907F906F905F9016
:104270004F903F902F900C94D21F2FEF3FEF4FE7BE
:104280005FECC701B6010E944A2287FDE0CF20E023
:1042900030E0A901C701B6010E944A22312C212C2D
:1042A00087FF09C06DE2CE010E94E91F1C01F7FAE9
:1042B000F094F7F8F09410E060E070E080E09FE3A5
:1042C000711641F020E030E040E251E40E944F22BC
:1042D0001F5FF6CFA70196010E94DE212B013C0152
:1042E0000E94C8224B015C012AE0BC01A401CE015E
:1042F0000E940B207C01E20CF31C1123B1F1C501DB
:10430000B4010E94F7229B01AC01C301B2010E94DB
:10431000DD214B015C016EE2CE010E94E91FE80E37
:10432000F91E115010F120E030E040E251E4C501E7
:10433000B4010E94AE232B013C010E94C8224B0114
:104340004AE050E0CE010E94CC20E80EF91EB401F4
:1043500090E080E00E94F7229B01AC01C301B20112
:104360000E94DD214B015C01DCCFC701DF91CF91C1
:104370001F91FF90EF90DF90CF90BF90AF909F90F4
:104380008F907F906F905F904F903F902F90089507
:104390000C94E4200F931F93CF93DF93EC010E94C2
:1043A000E4208C01CE010E94F01F800F911FDF914D
:1043B000CF911F910F91089508955058BB27AA27B8
:1043C0000E94F5210C946F230E94612338F00E9413
:1043D000682320F039F49F3F19F426F40C945E23EF
:1043E0000EF4E095E7FB0C945823E92F0E948023FC
:1043F00058F3BA17620773078407950720F079F41A
:10440000A6F50C94A2230EF4E0950B2EBA2FA02D46
:104410000B01B90190010C01CA01A0011124FF2771
:10442000591B99F0593F50F4503E68F11A16F0406C
:10443000A22F232F342F4427585FF3CF469537956B
:104440002795A795F0405395C9F77EF41F16BA0B30
:10445000620B730B840BBAF09150A1F0FF0FBB1FDE
:10446000661F771F881FC2F70EC0BA0F621F731F27
:10447000841F48F4879577956795B795F7959E3F84
:1044800008F0B0CF9395880F08F09927EE0F979515
:10449000879508950E94342308F481E008950E94CE
:1044A00063220C946F230E94682358F00E946123BA
:1044B00040F029F45F3F29F00C94582351110C94DB
:1044C000A3230C945E230E94802368F39923B1F305
:1044D000552391F3951B550BBB27AA27621773072A
:1044E000840738F09F5F5F4F220F331F441FAA1FBE
:1044F000A9F335D00E2E3AF0E0E832D0915050407A
:10450000E695001CCAF72BD0FE2F29D0660F771F27
:10451000881FBB1F261737074807AB07B0E809F00D
:10452000BB0B802DBF01FF2793585F4F3AF09E3F92
:10453000510578F00C9458230C94A3235F3FE4F3C7
:10454000983ED4F3869577956795B795F7959F5FD5
:10455000C9F7880F911D9695879597F90895E1E021
:10456000660F771F881FBB1F621773078407BA0780
:1045700020F0621B730B840BBA0BEE1F88F7E095DB
:1045800008950E94C8226894B1110C94A323089541
:104590000E94882388F09F5798F0B92F9927B75128
:1045A000B0F0E1F0660F771F881F991F1AF0BA95D7
:1045B000C9F714C0B13091F00E94A223B1E0089570
:1045C0000C94A223672F782F8827B85F39F0B93F62
:1045D000CCF3869577956795B395D9F73EF490958A
:1045E0008095709561957F4F8F4F9F4F0895E89408
:1045F00009C097FB3EF490958095709561957F4F2B
:104600008F4F9F4F9923A9F0F92F96E9BB279395D8
:10461000F695879577956795B795F111F8CFFAF4E8
:10462000BB0F11F460FF1BC06F5F7F4F8F4F9F4F19
:1046300016C0882311F096E911C0772321F09EE877
:10464000872F762F05C0662371F096E8862F70E0DD
:1046500060E02AF09A95660F771F881FDAF7880FB7
:104660009695879597F90895990F0008550FAA0B0D
:10467000E0E8FEEF16161706E807F907C0F0121675
:104680001306E407F50798F0621B730B840B950B78
:1046900039F40A2661F0232B242B252B21F40895CD
:1046A0000A2609F4A140A6958FEF811D811D08956A
:1046B00097F99F6780E870E060E008959FEF80ECD5
:1046C000089500240A941616170618060906089578
:1046D00000240A9412161306140605060895092EDE
:1046E0000394000C11F4882352F0BB0F40F4BF2B4D
:1046F00011F460FF04C06F5F7F4F8F4F9F4F08958D
:1047000057FD9058440F551F59F05F3F71F0479582
:10471000880F97FB991F61F09F3F79F08795089567
:10472000121613061406551FF2CF4695F1DF08C086
:10473000161617061806991FF1CF869571056105A3
:1047400008940895E894BB2766277727CB0197F94B
:1047500008950E94342308F48FEF08950E94C12326
:104760000C946F230E94612338F00E94682320F08C
:10477000952311F00C9458230C945E2311240C946F
:10478000A3230E94802370F3959FC1F3950F50E0FF
:10479000551F629FF001729FBB27F00DB11D639FF3
:1047A000AA27F00DB11DAA1F649F6627B00DA11D99
:1047B000661F829F2227B00DA11D621F739FB00D3F
:1047C000A11D621F839FA00D611D221F749F3327AF
:1047D000A00D611D231F849F600D211D822F762F48
:1047E0006A2F11249F5750409AF0F1F088234AF025
:1047F000EE0FFF1FBB1F661F771F881F9150504091
:10480000A9F79E3F510580F00C9458230C94A323E4
:104810005F3FE4F3983ED4F3869577956795B79517
:10482000F795E7959F5FC1F7FE2B880F911D969531
:10483000879597F90895FA01EE0FFF1F309621052D
:104840003105A1F16115710561F48038BFE39B0763
:1048500049F168949038810561F08038BFEF9B077B
:1048600041F099234AF5FF3FE1053105210519F192
:10487000E8940894E795D901AA2329F4AB2FBE2F19
:10488000F85FD0F310C0FF5F70F4A695E0F7F7393A
:1048900050F019F0FF3A38F49F779F930DD00F90A6
:1048A00007FC9058089546F00C945E2360E070E099
:1048B00080E89FE308954FE79F775F934F933F937F
:1048C0002F930E941B252F913F914F915F910E9442
:1048D000AE230C9478240E943423880B990B0895FE
:1048E00029F416F00C9458230C94A2230C945E2304
:1048F0000E948823A8F39638A0F707F80F92E8944F
:104900002BE33AEA48EB5FE70E94C4230F920F9231
:104910000F924DB75EB70F920E946325E8E6F0E074
:104920000E94AA244F915F91EF91FF91E595EE1FB0
:10493000FF1F49F0FE57E0684427EE0F441FFA9529
:10494000E1F74195550B0E94DD240F9007FE0C9472
:10495000D1240895DF93CF931F930F93FF92EF928B
:10496000DF927B018C01689406C0DA2EEF010E9471
:10497000C123FE01E894A59125913591459155916A
:10498000A6F3EF010E94F521FE019701A801DA9438
:1049900069F7DF90EF90FF900F911F91CF91DF911A
:1049A00008959B01AC0160E070E080E89FE30C9407
:1049B0004F220C9458230C9497250E948823D8F3F7
:1049C0009923C9F3940F511DA3F39150504094F0D3
:1049D00059F0882332F0660F771F881F915050409E
:1049E000C1F79E3F51052CF7880F911D969587952D
:1049F00097F908955F3FACF0983E9CF0BB278695F1
:104A000077956795B79508F4B1609395C1F7BB0F9B
:104A100058F711F460FFE8CF6F5F7F4F8F4F9F4FC4
:104A2000E3CF0C94A32316F00C9497250C945E23EB
:104A300068940C9458230E948823A8F39923C1F307
:104A4000AEF3DF93CF931F930F93FF92C92FDD2710
:104A500088232AF02197660F771F881FDAF720E056
:104A600030E040E85FEB9FE3883920F0803E38F08B
:104A700021968F770E94DE21E0E9F0E004C00E94D9
:104A8000DE21EDEBF0E00E94AA248B01BE01EC01D7
:104A9000FB2E6F5771097595771F880B990B0E9434
:104AA000F92228E132E741E35FE30E94C123AF2D01
:104AB0009801AE01FF900F911F91CF91DF910E945D
:104AC000F5210C946F23FA01DC01AA0FBB1F9B0197
:104AD000AC01BF5728F4222733274427507820C041
:104AE000B75190F4AB2F0024469537952795011CBC
:104AF000A395D2F3002071F0220F331F441FB3950A
:104B0000DAF30ED00C94DD2161307105A0E88A073C
:104B1000B94630F49B01AC01662777278827907847
:104B2000309621F0208331834283538308959F3F41
:104B300031F0915020F4879577956795B795880F58
:104B4000911D9695879597F90895DB018F939F9313
:104B50000E940E26BF91AF91A29F800D911DA39F31
:104B6000900DB29F900D11240895AA1BBB1B51E11B
:104B700007C0AA1FBB1FA617B70710F0A61BB70BCD
:104B8000881F991F5A95A9F780959095BC01CD0172
:104B9000089597FB072E16F4009407D077FD09D0EF
:104BA0000E94B52507FC05D03EF4909581959F4F56
:104BB0000895709561957F4F0895A1E21A2EAA1B62
:104BC000BB1BFD010DC0AA1FBB1FEE1FFF1FA217BD
:104BD000B307E407F50720F0A21BB30BE40BF50BBA
:104BE000661F771F881F991F1A9469F76095709543
:104BF000809590959B01AC01BD01CF010895A29FC6
:104C0000B001B39FC001A39F700D811D1124911DA0
:104C1000B29F700D811D1124911D08950E94FF25E2
:104C2000A59F900DB49F900DA49F800D911D112400
:104C30000895EE0FFF1F0590F491E02D09940F9356
:104C40001F93CF93DF938230910510F482E090E0C0
:104C5000E0912B06F0912C0630E020E0B0E0A0E0DF
:104C6000309799F42115310509F44AC0281B390BF6
:104C700024303105D8F58A819B816115710589F150
:104C8000FB0193838283FE0111C040815181028127
:104C9000138148175907E0F04817590799F41097FE
:104CA00061F012960C93129713961C933296CF01D3
:104CB000DF91CF911F910F91089500932B061093D0
:104CC0002C06F4CF2115310551F04217530738F067
:104CD000A901DB019A01BD01DF01F801C1CFEF019C
:104CE000F9CF90932C0680932B06CDCFFE01E20FD7
:104CF000F31F819391932250310939832883D7CFB1
:104D00002091290630912A06232B41F4209102019B
:104D10003091030130932A06209329062091000147
:104D2000309101012115310541F42DB73EB7409175
:104D3000040150910501241B350BE0912906F091E7
:104D40002A06E217F307A0F42E1B3F0B281739079A
:104D500078F0AC014E5F5F4F2417350748F04E0FD7
:104D60005F1F50932A0640932906819391939FCF0A
:104D7000F0E0E0E09CCFCF93DF930097E9F0FC01F7
:104D8000329713821282A0912B06B0912C06ED016E
:104D900030E020E01097A1F420813181820F931F31
:104DA0002091290630912A062817390709F061C099
:104DB000F0932A06E0932906DF91CF910895EA0146
:104DC000CE17DF07E8F54A815B819E014115510549
:104DD000B1F7E901FB83EA8349915991C40FD51FCB
:104DE000EC17FD0761F4808191810296840F951F75
:104DF000E90199838883828193819B838A83F0E090
:104E0000E0E012968D919C9113970097B9F52D9142
:104E10003C911197CD010296820F931F2091290694
:104E200030912A062817390739F6309751F5109234
:104E30002C0610922B06B0932A06A0932906BCCF0D
:104E4000D383C28340815181840F951FC817D9072E
:104E500061F44E5F5F4F88819981480F591F5183DC
:104E600040838A819B81938382832115310509F0D8
:104E7000B0CFF0932C06E0932B069ECFFD01DC0112
:0C4E8000C0CF13821282D7CFF894FFCF6E
:104E8C0000002D0680006F12833AC309010154689B
:104E9C00652066756E6374696F6E206465636F64FC
:104EAC00652826726573756C7473292920697320C3
:104EBC006465707265636174656420616E64206DF5
:104ECC006179206E6F7420776F726B20617320652F
:104EDC007870656374656421204A757374207573EA
:104EEC0065206465636F6465282920776974686F31
:104EFC007574206120706172616D657465722061DA
:104F0C006E6420497252656365697665722E6465BC
:104F1C00636F6465644952446174612E3C666965D3
:104F2C006C646E616D653E202E0052656164696E25
:104F3C00672E2E2E004F332056616C75653A004358
:104F4C006F6E63656E74726174696F6E204F33207F
:104F5C003A20002070706200206D672F6D330020A6
:104F6C0075672F6D3300506C617A6D61204F6666EA
:104F7C002E2E2E00564D4450565F317C315F564DCF
:104F8C004450560A00564D4450525F00736574737A
:104F9C0065676D656E74496E743A2000503130004F
:104FAC00706D312E303A200050323500706D322E3B
:104FBC00353A2000706D31303A200068756D6964A7
:104FCC006974793A200074656D70657261747572DC
:104FDC00653A2000564D4450435F005F564D445097
:104FEC00430000000000DA0BDB0B00000000FA139A
:104FFC0029149713C3139A13A113B41300000000C0
:10500C0060174117781B8B19A619B819F919021AD0
:10501C002C1A8C197D1A99199A17EE17F217151864
:10502C003818851A17179C18000000003A194A19ED
:10503C00781B8B19A619B819F919021A2C1A8C1984
:10504C007D1A9919801A841AD31AE31AF31A851A3D
:10505C00A21A2E1B000000005D1EA51FFE1D3D1E8A
:10506C00D01DEA1DDC1D0D0A006E616E00696E66B6
:06507C00006F76660000E3
:00000001FF
