:100000000C9412010C943A010C943A010C943A01AC
:100010000C943A010C943A010C943A010C943A0174
:100020000C94840F0C943A010C943A010C943A010C
:100030000C943A010C943A010C943A010C943A0154
:100040000C941B0E0C943A010C94E90D0C94C30D06
:100050000C943A010C943A010C943A010C943A0134
:100060000C94650E0C943A0107634236B79BD8A7EF
:100070001A39685618AEBAAB558C1D3CB7CC5763CD
:10008000BD6DEDFD753EF6177231BF000000803F7B
:1000900008000000BE922449123EABAAAA2ABECD97
:1000A000CCCC4C3E00000080BEABAAAAAA3E000009
:1000B0000000BF000000803F000000000008417801
:1000C000D3BB4387D1133D190E3CC3BD4282AD2B38
:1000D0003E68EC8276BED98FE1A93E4C80EFFFBE30
:1000E00001C4FF7F3F00000000000086227E6D00FB
:1000F000000230066300044080523F065B4F666D8D
:100100007D277F6F0000004800535F777F393F797C
:10011000713D76061E693815373F7367316D783E3D
:100120002A1D766E5B39640F0008205F7C585E7B69
:10013000316F74040E753055545C7367506D781CC4
:100140002A1D766E47460670013F065B4F666D7D41
:10015000077F6F777C395E797100000000240027EB
:10016000002A0000000000250028002B003F065B4D
:100170004F666D7D077F6F777C395E7971008622CF
:100180007E6D00000230066300044080523F065B33
:100190004F666D7D277F6F0000004800535F777FBB
:1001A000393F79713D76061E693815373F736731DF
:1001B0006D783E2A1D766E5B39640F0008205F7CE7
:1001C000585E7B316F74040E753055545C73675004
:1001D0006D781C2A1D766E474606700100000000EF
:1001E0002300260029000404040404040404020279
:1001F00002020202030303030303010204081020A6
:1002000040800102040810200102040810200000B0
:1002100000080002010000030407000000000000C5
:100220000000541011241FBECFEFD8E0DEBFCDBFB9
:1002300026E0ACE3B3E001C01D92A137B207E1F7BD
:1002400013E0A0E0B1E0E2EFF3E402C005900D920C
:10025000AC33B107D9F711E0C2E1D1E004C0219776
:10026000FE010E94CC20C131D107C9F70E9428119C
:100270000C94F7210C940000CF93DF93D0911505D7
:10028000C0911405DC3339F4C43101F560E070E04D
:1002900080E89FE316C06C2F0C2E000C770B880BA8
:1002A000990B0E94971CDC3478F025E531EC48E28C
:1002B0005CEB0E94F61C23E23AE443E95FE30E9410
:1002C000011EDF91CF910895D33390F06C2FCC0FA6
:1002D000770B880B990B0E94971C28E338EF42E4B8
:1002E0005CEB0E94F61C25EA3DEB49EA5FE3E7CFB1
:1002F00020EB33E047E65CEB0E94F61C22E739EF87
:1003000047EC5FE3DCCFEEE4F4E0A089B18982E062
:100310008C93A485B5851C92A685B78583E38C93C1
:10032000108EA489B58986E08C93A289B3898C91BB
:1003300080618C93A289B3898C9188608C93A28907
:10034000B3898C9180688C930288F389E02D808139
:100350008F7D808308950F931F93CF93DF93E09158
:100360003B06F0913C0640914D04808510E0481713
:1003700008F064C0142F117000914C0401114FC09B
:10038000842F90E0880F991FE80FF91F0184F285F0
:10039000E02D2CEE3FEF112311F024E130E0C0916D
:1003A0004A04D0914B042C0F3D1FC90163E470E057
:1003B0000E94A420E617F70760F0C90168E270E028
:1003C0000E94A4206F5F7F4F81E090E06E177F074F
:1003D00010F52C0F3D1FC90163E470E00E94A420BA
:1003E000E617F70750F0C90168E270E00E94A42008
:1003F0006F5F7F4F6E177F0760F42C0F3D1FC901A1
:1004000063E470E00E94A420E617F707E8F41FEF0A
:1004100015C082E090E090934904809348040F5FF8
:1004200000934C04809148049091490408171906E0
:1004300028F010924C044F5F40934D04812FDF91C0
:10044000CF911F910F910895C90168E270E00E9459
:10045000A4206F5F7F4F6E177F07C8F283E090E0A4
:10046000DACFAF92BF92CF92DF92EF92FF920F93CB
:100470001F93CF93DF936C017B018B01040F151F3A
:10048000EB015E01AE18BF08C017D10759F06991A2
:10049000D601ED91FC910190F081E02DC601099506
:1004A000892B79F7C501DF91CF911F910F91FF90B3
:1004B000EF90DF90CF90BF90AF900895089508958A
:1004C0000895FC01538D448D252F30E0842F90E05A
:1004D000821B930B541710F0CF960895019708953F
:1004E000FC01918D828D981761F0A28DAE0FBF2F08
:1004F000B11D5D968C91928D9F5F9F73928F90E05E
:1005000008958FEF9FEF0895FC01918D828D9817CC
:1005100031F0828DE80FF11D858D90E008958FEF09
:100520009FEF0895FC01918D228D892F90E0805CD2
:100530009F4F821B91098F73992708958EE494E051
:100540000E94920221E0892B09F420E0822F089575
:1005500080E090E0892B29F00E949E0281110C948A
:1005600000000895FC01A48DA80FB92FB11DA35A56
:10057000BF4F2C91848D90E001968F739927848FC3
:10058000A689B7892C93A089B1898C9183708064E6
:100590008C93938D848D981306C00288F389E02D87
:1005A00080818F7D80830895EF92FF920F931F9338
:1005B000CF93DF93EC0181E0888F9B8D8C8D981316
:1005C0001AC0E889F989808185FF15C09FB7F89422
:1005D000EE89FF896083E889F9898081837080646E
:1005E00080839FBF81E090E0DF91CF911F910F91B9
:1005F000FF90EF900895F62E0B8D10E00F5F1F4FC8
:100600000F731127E02E8C8D8E110CC00FB607FCD6
:10061000FACFE889F989808185FFF5CFCE010E9464
:10062000B202F1CFEB8DEC0FFD2FF11DE35AFF4F1E
:10063000F0829FB7F8940B8FEA89FB8980818062F2
:10064000CFCFCF93DF93EC01888D8823B9F0AA89AF
:10065000BB89E889F9898C9185FD03C0808186FD7D
:100660000DC00FB607FCF7CF8C9185FFF2CF8081CC
:1006700085FFEDCFCE010E94B202E9CFDF91CF918D
:100680000895833081F028F4813099F08230A9F008
:1006900008958730A9F08830C9F08430B1F4809192
:1006A00080008F7D03C0809180008F7780938000D1
:1006B000089584B58F7784BD089584B58F7DFBCF71
:1006C0008091B0008F778093B00008958091B00042
:1006D0008F7DF9CFCF93DF93282F30E0F901E25FD0
:1006E000FD4F8491F901E650FE4FD491F901EA5192
:1006F000FE4FC491CC23A1F081110E944103EC2F45
:10070000F0E0EE0FFF1FE452FE4FA591B491EC9183
:10071000ED2381E090E009F480E0DF91CF9108952E
:1007200080E090E0FACF1F93CF93DF93282F30E043
:10073000F901E25FFD4F8491F901E650FE4FD4913B
:10074000F901EA51FE4FC491CC23A9F0162F811173
:100750000E944103EC2FF0E0EE0FFF1FED59FE4F1A
:10076000A591B4918FB7F894EC91111108C0D09570
:10077000DE23DC938FBFDF91CF911F910895DE2B95
:10078000F8CFE7E1F2E0E491E33039F160F4E130F1
:10079000D1F0E230E9F060E0803891050CF061E0E2
:1007A00089E00C949303E73011F1E83041F1E43033
:1007B00091F72091800020622093800090938B001D
:1007C00080938A00089594B5906894BD87BD08957C
:1007D00094B5906294BD88BD0895209180002068F2
:1007E00020938000909389008093880008959091D1
:1007F000B00090689093B0008093B30008959091FA
:10080000B00090629093B0008093B4000895CF93AD
:10081000DF9390E0FC01E650FE4F24918A519E4FF9
:10082000FC0184918823D1F090E0880F991FFC018E
:10083000E75AFE4FA591B491FC01ED59FE4FC591C9
:10084000D49161110EC09FB7F8948C91E22FE0957E
:100850008E238C932881E223E8839FBFDF91CF9181
:1008600008958FB7F894EC91E22BEC938FBFF6CFFD
:100870003FB7F8948091870390918803A0918903F2
:10088000B0918A0326B5A89B05C02F3F19F00196A9
:10089000A11DB11D3FBFBA2FA92F982F8827BC01DA
:1008A000CD01620F711D811D911D43E0660F771F01
:1008B000881F991F4A95D1F708958F929F92AF9202
:1008C000BF92CF92DF92EF92FF924B015C010E94A8
:1008D00038046B017C010E9438046C197D098E0973
:1008E0009F09683E734081059105A8F321E0821AB3
:1008F0009108A108B10888EEC80E83E0D81EE11C5B
:10090000F11C81149104A104B10429F7FF90EF9028
:10091000DF90CF90BF90AF909F908F9008952FB7AA
:10092000F894609183037091840380918503909182
:1009300086032FBF0895CF92DF92EF92FF921F930D
:10094000CF93DF93EC0160E08D810E94070461E0AA
:100950008D810E94930398E0C92ED12C10E0E12EE6
:10096000F12CF594E7941E2D60E08E810E94930394
:10097000E881F981028CF38DE02DCE0109958D81FE
:100980000E946A03892B09F0106861E08E810E9441
:100990009303E881F981028CF38DE02DCE01099556
:1009A00081E0C81AD108D9F661E08D810E94070460
:1009B00060E08D810E949303812FDF91CF911F9181
:1009C000FF90EF90DF90CF9008950F931F93CF93F8
:1009D000DF93EC01162F042FE881F98102A0F3A127
:1009E000E02D64E40995E881F981048CF58DE02D12
:1009F000CE010995612F606CE881F98100A0F1A119
:100A0000E02DCE010995E881F98100A0F1A1E02D4A
:100A1000602FCE010995E881F981068CF78DE02DD4
:100A2000CE01DF91CF911F910F9109941F93CF9326
:100A3000DF93EC01162FE881F981048CF58DE02D10
:100A40000995E881F98100A0F1A1E02D612FCE0187
:100A50000995E881F981068CF78DE02DCE01DF91B3
:100A6000CF911F910994FF920F931F93CF93DF9320
:100A7000EC01F62E08E010E060E08E810E94930306
:100A8000E881F981028CF38DE02DCE0109956F2D5F
:100A900061708D810E949303E881F981028CF38D4E
:100AA000E02DCE010995F69461E08E810E949303BA
:100AB000E881F981028CF38DE02DCE01099501507A
:100AC0001109D1F6E881F981028CF38DE02DCE0178
:100AD000DF91CF911F910F91FF900994CF93DF93F6
:100AE000EC0161E08F810E949303E881F981028C1F
:100AF000F38DE02DCE01DF91CF910994CF93DF9359
:100B0000EC0160E08F810E949303E881F981028CFF
:100B1000F38DE02DCE01DF91CF91099460E070E07C
:100B2000CB010895FC01848108957F928F929F925A
:100B3000AF92BF92CF92DF92EF92FF920F931F93EB
:100B4000CF93DF937C016A01722E8B01D0E0C0E06D
:100B5000A22EB12C88248394912CD70114968C91C9
:100B600090E09C012A193B09C217D3070CF5F80144
:100B700041918F014423E1F08C1B9D0B019794015F
:100B800002C0220F331F8A95E2F7C9018C219D21F3
:100B900021E0892B09F420E06C2F670DD701ED913E
:100BA000FC910688F789E02DC70109952196D5CFDC
:100BB000DF91CF911F910F91FF90EF90DF90CF9039
:100BC000BF90AF909F908F907F900895CF92DF92CB
:100BD000EF92FF920F931F93CF93DF937C016B01F2
:100BE000042F10E0D0E0C0E0C017D10781F0F6017B
:100BF000EC0FFD1F4491D701ED91FC910288F38920
:100C0000E02D20E06C2FC70109952196EDCFDF91F3
:100C1000CF911F910F91FF90EF90DF90CF900895AB
:100C2000242FDC01ED91FC910288F389E02D40E056
:100C300009949F92AF92BF92CF92DF92EF92FF9270
:100C40000F931F93CF93DF937C01C1E0C42ED12C6F
:100C50008AE0A82EB12CD70114964C914C17F0F0D5
:100C600096010C2E02C0359527950A94E2F7217063
:100C70004C1BCB01B5010E94B820962ED72FD7016F
:100C8000ED91FC910084F185E02D09E411E0682FDD
:100C9000C7010995692D7D2FCF5FDDCFDF91CF9102
:100CA0001F910F91FF90EF90DF90CF90BF90AF908A
:100CB0009F9008950F931F93E62F642FEF70E00F1E
:100CC000F12FF11D4491DC01ED91FC910288F38933
:100CD000E02D1F910F910994E42F440FFF0BE65371
:100CE000FF4F4491DC01ED91FC910288F389E02DE6
:100CF0000994362FDC01ED91FC910480F581E02D03
:100D000060E0211160E8642B432F09940895242F9B
:100D1000DC0112963C911297431740F4ED91FC913F
:100D200004A0F5A1E02D462F622F099408950F939A
:100D30001F93CF93DF93EC01E881F98102A0F3A127
:100D4000E02D60E40995E881F981048CF58DE02DB2
:100D5000CE010995E881F98100A0F1A1E02D60ECB8
:100D6000CE01099510E000E0E881F9818A818017C1
:100D70001106A9F0A4F000A0F1A1E02D60E0CE01E1
:100D800009958B81893040F0E881F98100A0F1A1BB
:100D9000E02D60E0CE0109950F5F1F4FE5CF068C77
:100DA000F78DE02DCE01DF91CF911F910F91099426
:100DB000DC01ED91FC9102A0F3A1E02D611106C0D0
:100DC00060E8483008F047E0642B099468E8F9CF00
:100DD0000F931F93CF938C01DC01ED91FC91048C58
:100DE000F58DE02D0995D801ED91FC9100A0F1A1C0
:100DF000E02D69E4C8010995D801ED91FC9106A0A8
:100E0000F7A1E02DC8010995C82FD801ED91FC91FB
:100E1000068CF78DE02DC801099560E070E0CB01EC
:100E2000C43470F0C83480F4C45461E070E080E0F1
:100E300090E004C0660F771F881F991FCA95D2F7EC
:100E4000CF911F910F910895C03510F4C854EDCF84
:100E5000C83510F4CC54E9CFC03610F4C055E5CFF6
:100E6000C83610F4C455E1CFC03710F4C855DDCFF3
:100E7000C837D8F6CC55D9CFEF92FF921F93CF93B6
:100E8000DF93EC0160E08E810E94930360E08D812E
:100E90000E94070461E08D810E94930388E0E82EA0
:100EA000F12C10E0110F61E08E810E949303E88124
:100EB000F981028CF38DE02DCE0109958D810E9480
:100EC0006A03892B09F0116060E08E810E94930310
:100ED000E881F981028CF38DE02DCE01099581E046
:100EE000E81AF108F9F660E08E810E94930360E051
:100EF0008D810E94070461E08D810E949303E88147
:100F0000F981028CF38DE02DCE01099561E08E818F
:100F10000E949303E881F981028CF38DE02DCE01CC
:100F200009958D810E946A03F82E60E08E810E94EF
:100F30009303F11004C060E08D810E94930361E08F
:100F40008D810E940704812FDF91CF911F91FF9027
:100F5000EF9008950F931F93CF93DF93EC01062F2B
:100F6000483008F047E011E0140F183009F410E0A1
:100F7000E881F981048CF58DE02DCE010995E88199
:100F8000F98100A0F1A1E02D68E4CE010995E88186
:100F9000F98100A0F1A1E02D80E1189FA0011124AA
:100FA0008B8160E0873009F468E0402B642BCE0130
:100FB0000995E881F981068CF78DE02DCE01DF914E
:100FC000CF911F910F9109940F931F93CF93DF93AC
:100FD0008C01D0E0C0E0D80112968C9112978C174A
:100FE0001D0661F05CF0ED91FC9104A0F5A1E02DEF
:100FF00040E06C2FC80109952196EDCFDF91CF918C
:101000001F910F9108950F931F93CF93DF93EC01DE
:10101000162F042FE881F981048CF58DE02D0995B8
:10102000612F660F6866E881F98100A0F1A1E02DCB
:10103000CE010995E881F98100A0F1A1E02D602F92
:10104000CE010995E881F981068CF78DE02DCE015E
:10105000DF91CF911F910F910994FF920F931F93EE
:10106000CF93DF93EC01F62E08E010E060E08E8174
:101070000E949303E881F981028CF38DE02DCE016B
:1010800009956F2D661F6627661F8D810E94930349
:10109000FF0C61E08E810E949303E881F981028C4C
:1010A000F38DE02DCE01099501501109F9F6E88183
:1010B000F981028CF38DE02DCE010995E881F9814B
:1010C000028CF38DE02DCE01099560E08E810E94A7
:1010D000930360E08D810E940704E881F981028C0E
:1010E000F38DE02DCE01099561E08E810E9493037E
:1010F000E881F981028CF38DE02DCE0109958D8177
:101100000E946A03811104C060E08D810E949303F4
:1011100061E08D81DF91CF911F910F91FF900C9431
:101120000704CF93DF93EC0160E08E810E9493036C
:1011300060E08D810E949303E881F981028CF38D38
:10114000E02DCE01099561E08E810E94930361E05C
:101150008D810E949303E881F981028CF38DE02D4B
:10116000CE01DF91CF910994CF93DF93EC0161E041
:101170008D810E94930361E08E810E949303E88138
:10118000F981028CF38DE02DCE01099560E08D810F
:101190000E94930360E08E810E949303E881F981AD
:1011A000028CF38DE02DCE01DF91CF91099486E082
:1011B00090E00197F1F7089520915F03260F332700
:1011C000331F21323105ECF42091D303FC0190E070
:1011D00080E0243069F082E00895A0915F032191BE
:1011E000AC01415C5C4FA40FB52FB11D2C9301964F
:1011F000861798F380915F03680F60935F0380E028
:10120000089581E008951092D30381E08093D20382
:101210001092CD0361E082E10E94930361E083E1DB
:101220000E949303E9EBF0E080818E7F80838081D0
:101230008D7F808380E28093B80085E48093BC003A
:101240000895CF93DF9391E090933E038823B9F004
:10125000C091B800D091BA008091BC008A7B809385
:10126000BC0060E082E10E94930360E083E10E94A1
:1012700093030E940309D093BA00C093B800DF9192
:10128000CF910895E091DA038091D903E81730F403
:10129000F0E0E552FC4F808190E008958FEF9FEFE2
:1012A00008959091DA038091D9032FEF3FEF9817BB
:1012B00048F4E92FF0E0E552FC4F208130E09F5FD9
:1012C0009093DA03C90108958091D9039091DA03CC
:1012D000891B990B0895CF93DF93CB01EA01642F0B
:1012E0000E94DC08CE01DF91CF910895CF93DF9368
:1012F0001F92CDB7DEB7698361E0CE0101960E94EF
:10130000DC0881E090E00F90DF91CF91089590E0AC
:1013100080E0089522303105A1F02330310521F11C
:101320002130310539F020E030E04AE754E40E94F2
:101330006D1E089520E030E04AE754E40E94F61C58
:101340000895452B31F020E030E04AE754E40E9454
:101350006D1E20E030E040E452E40E94F61C2BE4D5
:1013600030EB45EB51E4E3CF4130510591F320E000
:1013700030E04AE754E40E94F61CEBCF08958F92C8
:101380009F92AF92BF92EF92FF920F931F93CF93D2
:10139000DF934B015C01F42E88E496E00E94E407A1
:1013A000C501B4010E94DF1EEB01CB0164E670E0D1
:1013B0000E94B820E62E42E0BC0188E496E00E943C
:1013C00019062AE030E0CE01B9010E94B820CB0115
:1013D000B9010E94B8200DE611E021E041E0682F3C
:1013E00088E496E00E945A0620E040E06E2D88E4F2
:1013F00096E00E945A0620E043E061E0F11005C04B
:101400000DE611E020E043E065E088E496E00E940C
:101410005A06DF91CF911F910F91FF90EF90BF90EF
:10142000AF909F908F900895FC0101900020E9F704
:101430003197AF01481B590BBC018EE494E00C942A
:1014400031028F929F92AF92BF920F931F93CF93CF
:10145000DF93CDB7DEB7A1970FB6F894DEBF0FBE0E
:10146000CDBF19A2423008F44AE08E010F5D1F4F34
:10147000842E912CB12CA12CA50194010E94C41D95
:10148000E62FB901CA01EA30F4F4E05DD801EE9329
:101490008D01232B242B252B79F790E080E01097EA
:1014A00019F0CD010E94140AA1960FB6F894DEBF80
:1014B0000FBECDBFDF91CF911F910F91BF90AF9025
:1014C0009F908F900895E95CE1CFCF93DF930E94C6
:1014D000140AEC0181E991E00E94140A8C0F9D1F0F
:1014E000DF91CF9108950C94140ACF92DF92EF927E
:1014F000FF92CF93DF93EC01C0901005D0901105BF
:10150000E0901205F090130520E030E0A901C7013A
:10151000B6010E94901C87FD0CC08091F904909147
:10152000FA048130910509F442C090F0029709F461
:1015300078C050E040E030E020E0652F742F832F2A
:10154000922FDF91CF91FF90EF90DF90CF90089591
:1015500020910C0530910D0540910E0550910F051D
:10156000C701B6010E946D1E6B017C010E943C0107
:101570009B01AC01C701B6010E94F61C2DE53DE6BA
:1015800045E150E40E941A1F2EE137EA47E151E499
:101590000E94F61CB62FA72FF82FE92FAD019F014F
:1015A000C130D10551F29E0141E050E02EC02091A2
:1015B0000C0530910D0540910E0550910F05C701A6
:1015C000B6010E946D1E6B017C010E943C019B01D3
:1015D000AC01C701B6010E94F61C2EEC39E145E1D1
:1015E00050E40E941A1F28E03DE342E051E40E94CB
:1015F000F61CB62FA72FF82FE92FAD019F012097DA
:1016000009F49BCF9E0150E040E06B2F7A2F8F2F83
:101610009E2FDF91CF91FF90EF90DF90CF900C94B1
:101620008A0926E636E642E451E4C701B6010E9483
:10163000F61C20910C0530910D0540910E0550913E
:101640000F050E946D1E6B017C010E943C019B01F5
:10165000AC01C701B6010E94F61C21EE3AE744E94D
:101660005FEB0E941A1F2BE237E847ED51E490CF61
:101670004F925F926F927F928F929F92AF92BF92A2
:10168000CF92DF92EF92FF920F931F93CF936B0154
:101690007C01742EAC019B010E946A1F882399F083
:1016A00084E991E0CF911F910F91FF90EF90DF902F
:1016B000CF90BF90AF909F908F907F906F905F90F2
:1016C0004F900C94140A46015701E894B7F82FEF95
:1016D0003FEF4FE75FE7C501B4010E946A1F811128
:1016E0000DC02FEF3FEF4FE75FE7C501B4010E9448
:1016F000901C18161CF488E991E0D4CF2FEF3FEF2F
:101700004FE75FE4C701B6010E94151F18161CF4CD
:101710008CE991E0C7CF2FEF3FEF4FE75FECC701B8
:10172000B6010E94901C87FDF3CF20E030E0A901B4
:10173000C701B6010E94901C10E000E087FF0AC0BC
:101740006DE28EE494E00E94D4028C01F7FAF094EA
:10175000F7F8F094C0E060E070E080E09FE37C1672
:1017600041F020E030E040E251E40E946D1ECF5F86
:10177000F6CFA70196010E94011E2B013C010E9499
:10178000E61E4B015C014AE00E94210A7C01E00E4A
:10179000F11ECC23C1F1C501B4010E94951C9B012F
:1017A000AC01C301B2010E94001E4B015C016EE25C
:1017B0008EE494E00E94D402E80EF91EC15018F1A4
:1017C00020E030E040E251E4C501B4010E94F61C83
:1017D0002B013C010E94E61E4B01B12CA12C4AE0DA
:1017E000C501B4010E94210AE80EF91EC501B40129
:1017F0000E94951C9B01AC01C301B2010E94001E16
:101800004B015C01DBCFC701CF911F910F91FF907E
:10181000EF90DF90CF90BF90AF909F908F907F9090
:101820006F905F904F9008957F928F929F92AF92AA
:10183000BF92CF92DF92EF92FF920F931F93CF93BD
:10184000DF93782EEA01E0913B06F0913C063F964B
:101850008B010C5E1F4F43E4C42ED12CC801B6018E
:101860000E94A4205B0158E2E52EF12CC801B701CB
:101870000E94A4208B010F5F1F4F6497CE01B60119
:101880000E94A4204B01CE01B7010E94A420EB01CD
:10189000219624513109C901B6010E94A4206B018F
:1018A000C901B7010E94A4206F5F7F4F20E030E0A4
:1018B000A901A0E0808191818A159B0570F108172C
:1018C000190758F1828193818815990518F1C81775
:1018D000D90728F1220F331F441F551F216034966A
:1018E000AF5F7A12E7CF20933706309338064093E4
:1018F000390650933A0681E0DF91CF911F910F9105
:10190000FF90EF90DF90CF90BF90AF909F908F901F
:101910007F9008958C159D0510F480E0EDCF681739
:101920007907D8F3220F331F441F551FD8CFCF920A
:10193000DF92EF92FF92CF93DF936C01990FEE0845
:10194000FF08F7FE1FC06DE28EE494E00E94D4020F
:10195000EC0166277727CB016C197D098E099F0959
:101960004AE00E94210AC80FD91F81E991E00E9434
:10197000140A8C0F9D1FDF91CF91FF90EF90DF90A5
:10198000CF9008954AE0C701B6010E94210AEC01F8
:10199000ECCFEF92FF920F931F93CF93DF937C01D5
:1019A00088E496E00E94E40780EA91E00E94730ACE
:1019B00080913C0390913D030E94970CF0923D036F
:1019C000E0923C0380913C0390913D03CAE0D0E05B
:1019D000BE010E94B8200DE611E020E042E0682F31
:1019E00088E496E00E945A068AE0E816F1040CF4B6
:1019F00046C080913C0390913D03BE010E94B820F7
:101A000070933D0360933C0380EA91E00E94730A67
:101A100080913C0390913D030E94970C80913C0380
:101A200090913D03BE010E94B82020E041E0682F64
:101A300088E496E00E945A0684E6E816F104FCF079
:101A400080913C0390913D03BE010E94B8207093A9
:101A50003D0360933C0380EA91E00E94730A809109
:101A60003C0390913D030E94970C60913C03709160
:101A70003D0320E040E088E496E00E945A06DF91B2
:101A8000CF911F910F91FF90EF9008958091920355
:101A90008130B1F028F0823019F1833059F1089586
:101AA00060E080E10E94930360E08FE00E94930376
:101AB00061E089E00E94070460E089E00C949303F0
:101AC00061E080E10E94930361E08FE00E94930354
:101AD00061E089E00E9407048CED90E00C94C10362
:101AE00060E08FE00E94930361E089E00E940704B8
:101AF00061E0E3CF60E080E10E94930361E08FE06A
:101B00000E94930361E089E00E94070484EB90E067
:101B1000E5CF85ED8093BC008091D5039091D603ED
:101B2000A091D703B091D8030796A11DB11D23E062
:101B3000B695A795979587952A95D1F72091BC00E2
:101B400024FD03C01092D30308954091D503509112
:101B5000D6036091D7037091D803452B462B472BB2
:101B600069F30097A105B10541F025E12A95F1F748
:101B700000000197A109B109E1CF8091D4030C9431
:101B800021090C946E211F920F920FB60F9211240F
:101B90002F933F934F935F936F937F938F939F9375
:101BA000AF93BF93EF93FF938EE494E00E94B20251
:101BB000FF91EF91BF91AF919F918F917F916F9125
:101BC0005F914F913F912F910F900FBE0F901F90FB
:101BD00018951F920F920FB60F9211242F938F9387
:101BE0009F93EF93FF93E0915E04F0915F048081F7
:101BF000E0916404F091650482FD1BC090818091A6
:101C000067048F5F8F7320916804821741F0E09121
:101C10006704F0E0E25BFB4F958F80936704FF91D0
:101C2000EF919F918F912F910F900FBE0F901F906A
:101C300018958081F4CF1F920F920FB60F92112446
:101C40002F933F938F939F93AF93BF938091830381
:101C500090918403A0918503B09186033091820313
:101C600026E0230F2D3758F50296A11DB11D2093B4
:101C700082038093830390938403A0938503B0939E
:101C800086038091870390918803A0918903B09186
:101C90008A030196A11DB11D809387039093880349
:101CA000A0938903B0938A03BF91AF919F918F91C5
:101CB0003F912F910F900FBE0F901F90189529E81C
:101CC000230F0396A11DB11DD2CF1F920F920FB605
:101CD0000F9211242F933F934F935F936F937F93B2
:101CE0008F939F93AF93BF93EF93FF938091B9002E
:101CF000887F803609F44AC0F0F5883209F4A7C01D
:101D000018F5803109F49BC0B8F4882309F4F9C0B0
:101D1000883009F494C0FF91EF91BF91AF919F91EA
:101D20008F917F916F915F914F913F912F910F9084
:101D30000FBE0F901F901895883109F488C080322B
:101D400051F78093D10314C0803409F49DC040F44E
:101D50008033B9F38833F9F68093D10385ECB0C0B2
:101D6000803509F485C0883509F496C0883499F621
:101D70000E94890DD0CF883909F48CC038F5883796
:101D800029F050F4883611F0803729F683E08093EB
:101D9000D3031092810357C0883809F47BC080397F
:101DA00019F0803809F0B7CF80918103803208F0B4
:101DB00071C0E091810381E08E0F80938103809157
:101DC000BB00F0E0EF59FC4F80833DC0803B39F011
:101DD000E0F4803A09F479C0883A09F09CCF84E0B5
:101DE0008093D3031092600310925F03E0918D0300
:101DF000F0918E03099580915F0381110FC081E0FE
:101E000080935F0310923F0309C0803C09F4A6CF82
:101E1000883C09F4A3CF883B09F07DCFE0916003B3
:101E200081E08E0F80936003F0E0E15CFC4F8081E5
:101E30008093BB009091600380915F0329C08091E3
:101E4000CE038093BB0085EC8093BC0064CF90915F
:101E5000D0038091CF03981758F5E091D00381E02B
:101E60008E0F8093D003F0E0E355FC4F8081E9CFE3
:101E7000E091D00381E08E0F8093D0038091BB006E
:101E8000F0E0E355FC4F80839091D0038091CF0325
:101E90009817C8F285E8D8CFE091D00381E08E0F83
:101EA0008093D0038091BB00F0E0E355FC4F80832A
:101EB0008091D20381115CCF81E08093CD0384EACD
:101EC0008093BC001092D30326CF85EC8093BC0096
:101ED0001092D30380918103803230F4E09181032A
:101EE000F0E0EF59FC4F10826091810370E0E091C7
:101EF0008B03F0918C0381E693E0099510928103A6
:101F00000ACF1092D10334CF1F920F920FB60F92C7
:101F100011242F933F934F935F936F937F938F93EE
:101F20009F93AF93BF93EF93FF93E0915E05F09182
:101F30005F05908180916005982320916105309123
:101F400062052F3F320731F02F5F3F4F309362051C
:101F50002093610580915C05811135C0911116C0F7
:101F600020916105309162052536310558F01092B7
:101F70006305309366052093650581E080936405D1
:101F800080935C0510926205109261058091510664
:101F9000882341F080915006911161C061E0811168
:101FA00061C02D9AFF91EF91BF91AF919F918F9159
:101FB0007F916F915F914F913F912F910F900FBE45
:101FC0000F901F90189580915C058130A1F49923A2
:101FD000E9F2E09164058E0F80936405F0E0EE0F66
:101FE000FF1FE45AFA4F2091610530916205328754
:101FF000218782E0C5CF80915C05823039F591114F
:1020000019C0E091640581E0E43620F08093630517
:1020100083E0B6CF8E0F80936405F0E0EE0FFF1FD4
:10202000E45AFA4F20916105309162053287218789
:1020300081E0A6CF209161053091620525363105FA
:1020400008F4A4CF83E080935C05A0CF80915C0569
:10205000833009F09BCF992309F494CF97CF88233D
:1020600021F060E00E9493039DCF2D989BCFACE5BB
:10207000B5E011968C93119790E0FC01E650FE4F6D
:10208000E4911496EC931497FC01EA51FE4FE4910D
:10209000F0E0EE0FFF1FE452FE4F859194911396EE
:1020A0009C938E9312970895DF92EF92FF920F9375
:1020B0001F93CF93DF93EEE4F4E01382128288EE55
:1020C00093E0A0E0B0E084839583A683B78321E109
:1020D00031E03183208325EC30E03587248724EC00
:1020E00030E03787268720EC30E0318B208B21ECE5
:1020F00030E0338B228B22EC30E0358B248B26ECC6
:1021000030E0378B268B118E128E138E148EEBEEF1
:10211000F4E01382128284839583A683B78383E2DB
:1021200091E091838083E7EFF4E085E391E0918390
:1021300080831582148216828FEF878380878FEFCA
:102140009FEFDC0185879687A787B08B818B928B69
:10215000A38BB48B80E090E0A0E8BFEB858B968BDF
:10216000A78BB08F818F928FA38FB48F84E1858FDF
:1021700081E4868F80E492E4AFE0B0E081879287CB
:10218000A387B487E6E1F5E01682178210861186F0
:10219000128613861486158616861786108A118A6B
:1021A000128A138A148A158A8CE5E82E85E0F82EA7
:1021B000F0926106E092600680E00E94371000E530
:1021C00016E0F80110821182C8E4D6E08DE391E0B8
:1021D0009983888398E0D92EDB828BE08D839CE005
:1021E0009E838F8384E08A838C8361E08BE00E94EE
:1021F000070461E08CE00E94070461E08BE00E942C
:10220000070461E08BE00E94930361E08CE00E9490
:10221000930389E691E099838883CE010E94E407C5
:10222000DB8247E061E0CE010E94AA07F0923C0603
:10223000E0923B0684E10E943710F801108211827F
:10224000DF91CF911F910F91FF90EF90DF90089554
:10225000789484B5826084BD84B5816084BD85B581
:10226000826085BD85B5816085BD80916E0081608D
:1022700080936E0010928100809181008260809333
:102280008100809181008160809381008091800035
:102290008160809380008091B10084608093B10060
:1022A0008091B00081608093B00080917A0084605A
:1022B00080937A0080917A00826080937A00809186
:1022C0007A008E7F80937A0080917A008068809374
:1022D0007A001092C1001092580510925905109280
:1022E0005A0510925B05109218051092190510926C
:1022F0001A0510921B050E948F046B017C014B0193
:102300005C0128EB820E2BE0921EA11CB11C0E94E6
:102310008F046C157D058E059F0528F0861697069F
:10232000A806B906A0F768EE73E080E090E00E948E
:102330005D040E9483010E948F04609318057093CE
:10234000190580931A0590931B0580EB91E00E947C
:10235000730A0E948F046B017C014B015C018AE0CF
:10236000880E911CA11CB11C0E948F046C157D0568
:102370008E059F0528F086169706A806B906A0F7D1
:1023800081E080932C050E948F0460931805709360
:10239000190580931A0590931B0581EC91E00E942A
:1023A000730A0E94830188EC91E00E94650A809183
:1023B0008100887F82608093810087ED91E00E9498
:1023C000650A8BEE94E090932A048093290410927E
:1023D000DA031092D9031092900310928F030E9497
:1023E00003098EE592E090938E0380938D038FE531
:1023F00092E090938C0380938B0388EE91E00E948F
:10240000650AF89482E08093B0008093B10082E383
:102410008093B3008093B4001092B20084E0809364
:10242000700080915C05833011F410925C05789403
:1024300060E080915D050E94070484EF91E00E94B6
:10244000650A1092FD041092FC041092FB04109295
:10245000FA041092F90483E08093FE0484E18093EF
:10246000FF0480E492E4AFE0B0E080930005909335
:102470000105A0930205B09303058AE097EAAFEE49
:10248000B4E480930C0590930D05A0930E05B093D2
:102490000F0580E590E0A0E0B0E080930805909300
:1024A0000905A0930A05B0930B0561E083E00E9443
:1024B000070460E08091FF040E94070460E08091BF
:1024C000FE040E94930388E491E6A4E7B4E48093B9
:1024D0000C0590930D05A0930E05B0930F05109277
:1024E00008051092090510920A0510920B0583E069
:1024F00092E00E94650A61E089E00E94070461E0C1
:1025000083E00E94070461E085E00E94070461E027
:1025100086E00E94070461E082E00E94070461E017
:1025200089E00E94070461E08DE00E94070461E0F9
:102530008FE00E94070461E080E10E94070461E0EF
:102540008EE00E94070461E085E10E94070488E4B0
:1025500096E00E94E40760E087E00E94070460E0E4
:102560008AE00E94070460E088E00E94070460E0BF
:1025700084E00E94070487E192E00E94650ABAE0C5
:102580006B2E712C88248A94982C540180915C05C0
:10259000833009F0B3C180919103811107C08EE1AE
:1025A00092E00E94650A81E080939103A5E6B5E080
:1025B000B093A003A0939F038091640590E0909353
:1025C000A2038093A10320916305222321F010929E
:1025D000630510926405209163052093A303109274
:1025E0009703109298031092990310929A0320E88F
:1025F00020933606209167053091680526583109E9
:102600002C35310508F062C08430910521F58091A8
:10261000690590916A058197489708F057C08091A5
:102620006B0590916C050897089708F04FC01092C1
:102630009B038092970390929803A0929903B09283
:102640009A0381E88093360687E090E090932E0607
:1026500080932D061AC184349105C1F580916905D6
:1026600090916A05825491098F9780F520E332E0BA
:1026700040E956E060E372E080E20E94140C882397
:1026800029F1E0919F03F091A003EA57FF4F808169
:10269000918108970897D0F4809137069091380679
:1026A000A0913906B0913A068093970390939803CE
:1026B000A0939903B0939A0380E280939B0387E0F1
:1026C00090E09093940380939303C0CF4091A10333
:1026D0005091A2034A31510508F453C0E0919F0381
:1026E000F091A003808191810A9780F410929B035E
:1026F0008092970390929803A0929903B0929A03C4
:1027000081E08093360682E190E0A0CF82819381C0
:1027100084974A97B0F523E030E060E0C12CD12CDB
:102720007601848195810897089758F5868197816D
:1027300082319105E0F0809720F5CC0CDD1CEE1C79
:10274000FF1C6894C0F86F5F2E5F3F4F34962417CC
:10275000350738F360939B03C0929703D092980398
:10276000E0929903F0929A0382E190E0AACF893037
:10277000910538F0419728F4CC0CDD1CEE1CFF1CB1
:10278000E2CF81E080934D0489E793E090934B047E
:1027900080934A0410924C040E94AB01813009F0EE
:1027A0008DC1C12CD12C7601C0E0E0913B06F091A7
:1027B0003C06908580914D048917E0F40E94AB019E
:1027C000D82F0E94AB01D1110BC0813009F076C126
:1027D000CC0CDD1CEE1CFF1C6894C0F8CF5FE5CF6D
:1027E000D13009F06BC1811169C1CC0CDD1CEE1C2C
:1027F000FF1CF4CFC0933506C0923706D09238063E
:10280000E0923906F0923A068C2D8F7390E0909307
:10281000320680933106960146E0369527954A9513
:10282000E1F72F7133273093300620932F0696015E
:1028300022273071232B31F4805C9F4F9093320616
:102840008093310680E8D3FC88E880933606818542
:102850009285833E984028F480913606816080936B
:1028600036068EE090E090932E0680932D06C0935E
:102870009B03C0929703D0929803E0929903F09241
:102880009A039093940380939303609197037091BC
:1028900098038091990390919A034AE00E94210A3B
:1028A00081E991E00E94140A809197039091980326
:1028B000A0919903B0919A03843421E9920729EFFA
:1028C000A20725E8B20709F439C408F08AC38115C4
:1028D00026E3920727E8A20726E4B20709F447C4D3
:1028E00008F065C38832944FA24DBE4009F44EC42F
:1028F00080915C05833011F410925C05809147044F
:10290000882309F4CDC780910201882309F458C4B3
:10291000813009F48EC48091AB039091AC03019691
:102920009093AC038093AB03883E934079F48091FD
:10293000AA038F5F8093AA031092AC031092AB039B
:102940008091AA03853010F01092AA038091AA0307
:1029500081117CC48091AB039091AC030197C1F4C9
:1029600088E496E00E94E4070DE711E020E050E0E3
:1029700040E06AEB72E088E496E00E9495050DE67F
:1029800011E021E041E061E088E496E00E945A060F
:102990008091AB039091AC03843F914081F48EEB26
:1029A00092E00E94730A80910704909108040E94AB
:1029B000970C80910704909108040E94C90C8091A3
:1029C0000001909101010196909301018093000113
:1029D000843C994009F034C6109201011092000124
:1029E0000E9438046B017C018091D3038111EAC4F9
:1029F00081E08093D3038093D2039FEF9093D10320
:102A00001092D00398E19093CF038093CE038091EE
:102A1000CE0380658093CE038091CD03813009F091
:102A200061C61092CD030E9438046B017C01809135
:102A3000CE038093BB008091D5039091D603A091E3
:102A4000D703B091D803892B8A2B8B2BA1F00E943E
:102A500038040091D5031091D6032091D70330910B
:102A6000D8036C197D098E099F09061717072807D7
:102A7000390708F4C8C48091BC0083FDD8CF85EC29
:102A80008093BC000E9438046B017C018091D303C9
:102A9000813009F429C68091D003893108F046C6F7
:102AA0008091D003ADEAB3E0EBEDF3E090E098174E
:102AB00009F4AEC42D9121939F5FF9CFE0913B06BD
:102AC000F0913C068385948588974D9708F046C021
:102AD000858596850C970B9708F040C083E080931E
:102AE0004D048CEB91E090934B0480934A04109238
:102AF0004C040E94AB01813089F50E94AB01C82FC4
:102B000081112CC0C12CD12C7601E0913B06F091B3
:102B10003C06908580914D04891708F069C00E9499
:102B2000AB01182FC330B1F00E94AB01D82FC330D6
:102B300021F40E94AB01D81311C0113009F04EC02E
:102B4000D1110CC0CC0CDD1CEE1CFF1C6894C0F82D
:102B5000CF5FDBCF0E94AB01181731F38091A10347
:102B60009091A2038236910508F487C0E0919F03FB
:102B7000F091A00382819381C397859708F07DC06F
:102B8000848195814A97439708F077C020EB31E024
:102B900040E155E060EB71E08CE20E94140C882368
:102BA00009F46BC080E380939B038091370690917A
:102BB0003806A0913906B0913A0680939703909316
:102BC0009803A0939903B0939A0382E090E29093C4
:102BD00096038093950388E090E073CD1111BECFEA
:102BE000D13009F0BBCFCC0CDD1CEE1CFF1CB0CFEC
:102BF000C0933506C0923706D0923806E092390667
:102C0000F0923A062C2D30E08D2DC432F8F480E895
:102C10008093360630933206209331068D2D90E056
:102C20009093300680932F06E0FE03C088E88093DF
:102C30003606818592858A389C4028F48091360634
:102C40008160809336068FE090E00DCE90E99093FE
:102C50003606D7FE03C098E99093360630933206C5
:102C6000209331068F7790E09093300680932F0663
:102C7000F0923406E0923306DCCF8091A10390916C
:102C8000A203CC97E9F5E0919F03F091A003828124
:102C90009381865891098C35910590F584819581B1
:102CA000825491098F9760F520E332E040E956E0C5
:102CB00060E372E08CE10E94140C882309F1E0913A
:102CC0009F03F091A003EA58FF4F808191810897FC
:102CD0000897B0F48091370690913806A091390694
:102CE000B0913A068093970390939803A093990329
:102CF000B0939A038CE180939B0386E090E0E1CC53
:102D00004091A1035091A203E0919F03F091A00391
:102D1000828193814232510501F59C01285031098D
:102D200027303105D0F4DF01AE5BBF4F2D913C91D0
:102D3000285031092730310580F410929B0380928E
:102D4000970390929803A0929903B0929A0381E01E
:102D50008093360685E090E079CC8D5791098735D0
:102D60009105A0F54432510588F184819581CE9773
:102D70008C9760F52EE032E04AE256E06EE072E0B9
:102D800080E10E94140C882309F1E0919F03F091E7
:102D9000A003EA5BFF4F8081918108970797B0F409
:102DA0008091370690913806A0913906B0913A0685
:102DB0008093970390939803A0939903B0939A03F9
:102DC00080E180939B0385E090E07BCCE0919F03C2
:102DD000F091A00382819381815491098F9708F02B
:102DE00055C08091A1039091A20384309105E1F434
:102DF000848195818197489708F048C086819781A2
:102E00000897089708F042C010929B03809297039E
:102E100090929803A0929903B0929A0381E08093D4
:102E2000360680E190E012CC8434910578F18481FB
:102E30009581815491098E9748F526E232E042E768
:102E400056E066E272E080E20E94140C8823F1F002
:102E50008091370690913806A0913906B0913A06D4
:102E60008093970390939803A0939903B0939A0348
:102E700080E280939B03A0E1B0E0B0939403A09321
:102E80009303B0932E06A0932D06FFCCE0913B0652
:102E9000F0913C068085823279F5E0919F03F091B4
:102EA000A003828193810497059730F584819581F1
:102EB0000B970A9708F52CE033E04CE157E064E00B
:102EC00071E08FE00E94140C8823B1F080913706E6
:102ED00090913806A0913906B0913A0680939703F5
:102EE00090939803A0939903B0939A038FE08093F3
:102EF0009B0383E090E0E5CB0091A1031091A20336
:102F00000630110508F4F4CCE0919F03F091A00382
:102F1000329625EC3DE94CE151E8C3E0D0E08AE08F
:102F2000F82E8481958161917191F89E6001F99EDE
:102F3000D00C1124DB01AA0FBB1FAA0FBB1FAA0FC5
:102F4000BB1FE12CCA16DB0688F0F69ED001F79E67
:102F5000B00D112463E0880F991F6A95E1F7EE2404
:102F6000E394A817B90710F482E0E82E63E971E052
:102F700080E091E00E94B41D9B01AC012E252196BA
:102F8000C017D10771F620939703309398034093AD
:102F9000990350939A0380E280939B0310929403C9
:102FA0001092930310922E0610922D066ECC843E42
:102FB0002EE1920722E3A20725E5B20709F450C0EB
:102FC000803A9C41AB48B94609F092CC1092A903D3
:102FD0001092A8037092A7036092A603A0EABFE034
:102FE0003AC084302DEE92072DE7A2072AEAB207F5
:102FF00009F452C0B8F484329644A744BF4909F09A
:1030000077CC80914704882309F472CC8091920395
:103010008F5F80939203843008F46CC081E08093CA
:10302000920368C084302CE892072DEDA20721EEB0
:10303000B20709F4BAC084349640AD4FBB4E09F0D4
:1030400057CC1092A9031092A8037092A703609224
:10305000A603A0EDB7E0B093A503A093A40348CCCA
:103060001092A9031092A8037092A7036092A6037E
:1030700086E990E09093A5038093A4038091470490
:10308000882309F435CC60E082E00E94930361E07C
:103090008EE00E9493032CCC80914704C1E08C27E2
:1030A0008093470480914704882339F110920201EC
:1030B00061E08DE00E94930361E082E00E9493034F
:1030C00061E085E10E949303C09392031092A903EB
:1030D0001092A8037092A7036092A603A0EDB7E038
:1030E000B093A503A093A4031092AA031092AC037B
:1030F0001092AB030E94460DFBCBC093020160E02F
:1031000082E00E94930360E085E10E94930360E007
:1031100089E00E94930360E083E00E94930360E0F3
:103120008DE00E94930360E08EE00E949303109272
:10313000920388E496E00E94E407DCCF1092A90392
:103140001092A8037092A7036092A60380ED97E007
:103150009093A5038093A40380914704882309F4E6
:10316000C7CB61E082E00E94930360E091CF1092B0
:10317000A9031092A8037092A7036092A603A6E980
:10318000B0E0B093A503A093A40378CF1092A90355
:103190001092A8037092A7036092A60384EF91E0B7
:1031A0009093A5038093A403A3CB1092A90310923C
:1031B000A8037092A7036092A60388EB9BE0F0CF70
:1031C00061E083E00E9493038091A8039091A9039A
:1031D00001969093A9038093A8032091A6033091B0
:1031E000A7038091A8039091A9032817390741F4F8
:1031F00060E085E00E94930360E086E00E94930314
:103200002091A4033091A5038091A8039091A90374
:103210002817390709F07FCB61E085E00E9493030E
:1032200061E086E00E9493031092A9031092A80324
:1032300072CB60E083E00E94930360E085E00E942F
:10324000930360E086E00E94930365CB8091AA031C
:103250008130A9F58091AB039091AC03892BC1F427
:1032600088E496E00E94E4070DE711E020E050E0DA
:1032700040E066EC72E088E496E00E9495050DE679
:1032800011E021E041E062E088E496E00E945A0605
:103290008091AB039091AC03843F914009F08FCBB8
:1032A0008AEC92E00E94730A8091050490910604D2
:1032B0000E94970C80910504909106047ECB80912A
:1032C000AA03823061F58091AB039091AC03892B06
:1032D00079F488E496E00E94E4070DE711E020E02D
:1032E00050E040E06AEB72E088E496E00E949505C9
:1032F0008091AB039091AC03843F914009F05FCB88
:1033000082ED92E00E94730A80910304909104047C
:103310000E94970C80910304909104044ECB8091FD
:10332000AA03833031F58091AB039091AC03892BD4
:1033300009F045CB89ED92E00E94730A6091FF038A
:1033400070910004809101049091020442E00E9477
:10335000380B81E991E00E94140A6091FF0370919B
:103360000004809101049091020441E00E94BF0991
:1033700026CB8091AA03843009F021CB8091AB0346
:103380009091AC03892B09F01ACB84EE92E00E9455
:10339000730A6091FB037091FC038091FD0390918F
:1033A000FE0342E00E94380B81E991E00E94140A7A
:1033B0006091FB037091FC038091FD039091FE03EB
:1033C00040E0D4CF8091D5039091D603A091D7034C
:1033D000B091D803892B8A2B8B2B09F405CB0E9443
:1033E00038040091D5031091D6032091D703309172
:1033F000D8036C197D098E099F090617170728073E
:10340000390708F0F1CA8091D4030E94210980E0B5
:103410001092DA038093D90302E214E0C9E0D4E009
:103420008091290490912A04DC01ED91FC910084A3
:10343000F185E02D0995892B09F402C180912904B9
:1034400090912A04DC01ED91FC910284F385E02D3A
:10345000099589930C171D0719F720910904263146
:1034600009F0EEC080910A04893109F0E9C0EAE070
:10347000F4E081E294E0319123278E179F07D9F77A
:10348000809121042813DCC080910B0480932B04CD
:1034900080910C0490E0982F882720910D04820FD2
:1034A000911D90932D0480932C0480910E0490E044
:1034B000982F882720910F04820F911D90932F043D
:1034C00080932E046091100470E0762F662780911F
:1034D0001104680F711D072E000C880B990B0E94B8
:1034E000971C20E030E040E251E40E946D1E1B0179
:1034F0002C012092300430923104409232045092D8
:1035000033046091120470E0762F662780911304D3
:10351000680F711D645F7140072E000C880B990BBA
:103520000E94971C20E030E040E251E40E946D1EB2
:103530006B017C01C0923404D0923504E0923604D1
:10354000F09237046091140470E0762F6627809122
:103550001504680F711D709339046093380440910D
:10356000160450E0542F442780911704480F511D32
:1035700050933B0440933A042091180430E0322FDA
:10358000222780911904280F311D30933D04209388
:103590003C0480911A0490E0982F8827E0911B0446
:1035A0008E0F911D90933F0480933E0480911C04E4
:1035B00090E0982F8827E0911D048E0F911D909325
:1035C00041048093400480911E0490E0982F882746
:1035D000E0911F048E0F911D909343048093420449
:1035E000809120048093440470930804609307043E
:1035F000509306044093050430930404209303047D
:1036000020E030E040E251E4C201B1010E94F61C2A
:103610006093FF037093000480930104909302046D
:1036200020E030E040E251E4C701B6010E94F61C00
:103630006093FB037093FC038093FD039093FE0360
:10364000809145049091460401969093460480939E
:1036500045048133954708F423C110924604109223
:10366000450482EF92E00E94650A61E08091FE04C9
:103670000E9493030E948F0428EE33E040E050E064
:103680000E94C41D20930405309305054093060550
:10369000509307050E948F0428EE33E040E050E08D
:1036A0000E94C41D8091040590910505A091060516
:1036B000B0910705C0900805D0900905E0900A0573
:1036C000F0900B058C0D9D1DAE1DBF1D28173907F1
:1036D0004A075B0768F561E070E080E090E00E94D7
:1036E0005D04D8CF85EECCC98091D5039091D603E7
:1036F000A091D703B091D803892B8A2B8B2B09F487
:10370000C5C90E9438040091D5031091D6032091B9
:10371000D7033091D8036C197D098E099F090617CC
:1037200017072807390708F0B1C96DCE89E1BAC972
:103730008091FF048E3008F08E50877080648093F3
:103740007C0080917A00806480937A0080917A0076
:1037500086FDFCCF609178007091790090E080E068
:103760000E94951C20E030E040E85AE30E94F61CDD
:1037700020E030E040EA50E40E94F61C6B017C013E
:1037800020E030E0A9010E94901C882309F49EC02B
:1037900060910005709101058091020590910305EB
:1037A0000E94951C1B012C01A701960160E070E0AE
:1037B00080EA90E40E946D1E20E030E040E85FE384
:1037C0000E94001E9B01AC01C201B1010E94F61CC7
:1037D0006093100570931105809312059093130563
:1037E00060E08091FE040E94930380920405909211
:1037F0000505A0920605B09207058DEF92E00E94A4
:10380000730A90E080E00E94750A60930301709350
:103810000401809305019093060142E00E94380B59
:1038200087E093E00E94730A81E090E00E94750AAD
:1038300042E00E94380B8BE193E00E94650A87E02A
:1038400093E00E94730A82E090E00E94750A42E0D1
:103850000E94380B80E293E00E94650A87E093E0C3
:103860000E94730A83E090E00E94750A42E00E9481
:10387000380B87E293E00E94650A20E030E44CE1D7
:1038800056E460910C0570910D0580910E059091A4
:103890000F050E94151F87FD1DC081E08093020166
:1038A00061E070E080E090E00E945D0480E090E0E4
:1038B000892B11F40C94C6120E949E02882311F4E5
:1038C0000C94C6120E9400000C94C61260E070E0D6
:1038D000CB017ECFC0900301D0900401E0900501A0
:1038E000F090060120E030E0A901C701B6010E9476
:1038F000151F87FDD5CF2FE832EC45EF5CE3C701FC
:10390000B6010E94151F87FD08C081E08093020167
:103910008EE293E00E94650AC3CF10920201C0CFED
:103920000E94D21C08F481E00895E89409C097FB36
:103930003EF490958095709561957F4F8F4F9F4F86
:103940009923A9F0F92F96E9BB279395F6958795CA
:1039500077956795B795F111F8CFFAF4BB0F11F48D
:1039600060FF1BC06F5F7F4F8F4F9F4F16C0882334
:1039700011F096E911C0772321F09EE8872F762F6A
:1039800005C0662371F096E8862F70E060E02AF0AB
:103990009A95660F771F881FDAF7880F9695879597
:1039A00097F90895990F0008550FAA0BE0E8FEEF6C
:1039B00016161706E807F907C0F012161306E407F3
:1039C000F50798F0621B730B840B950B39F40A26EC
:1039D00061F0232B242B252B21F408950A2609F4CA
:1039E000A140A6958FEF811D811D08950E94091D9C
:1039F0000C947A1D0E946C1D38F00E94731D20F0FB
:103A0000952311F00C94631D0C94691D11240C94E2
:103A1000AE1D0E948B1D70F3959FC1F3950F50E072
:103A2000551F629FF001729FBB27F00DB11D639F70
:103A3000AA27F00DB11DAA1F649F6627B00DA11D16
:103A4000661F829F2227B00DA11D621F739FB00DBC
:103A5000A11D621F839FA00D611D221F749F33272C
:103A6000A00D611D231F849F600D211D822F762FC5
:103A70006A2F11249F5750409AF0F1F088234AF0A2
:103A8000EE0FFF1FBB1F661F771F881F915050400E
:103A9000A9F79E3F510580F00C94631D0C94AE1D58
:103AA0005F3FE4F3983ED4F3869577956795B79595
:103AB000F795E7959F5FC1F7FE2B880F911D9695AF
:103AC000879597F9089597F99F6780E870E060E01F
:103AD00008959FEF80EC089500240A9416161706A7
:103AE00018060906089500240A94121613061406EF
:103AF00005060895092E0394000C11F4882352F052
:103B0000BB0F40F4BF2B11F460FF04C06F5F7F4F09
:103B10008F4F9F4F089557FD9058440F551F59F0F0
:103B20005F3F71F04795880F97FB991F61F09F3FAA
:103B300079F087950895121613061406551FF2CFD3
:103B40004695F1DF08C0161617061806991FF1CF23
:103B500086957105610508940895E894BB2766274A
:103B60007727CB0197F90895DB018F939F930E94EC
:103B7000E61DBF91AF91A29F800D911DA39F900D57
:103B8000B29F900D11240895A1E21A2EAA1BBB1B0F
:103B9000FD010DC0AA1FBB1FEE1FFF1FA217B30719
:103BA000E407F50720F0A21BB30BE40BF50B661F2F
:103BB000771F881F991F1A9469F7609570958095F3
:103BC00090959B01AC01BD01CF0108950E94F11DAC
:103BD000A59F900DB49F900DA49F800D911D112461
:103BE0000895A29FB001B39FC001A39F700D811DD6
:103BF0001124911DB29F700D811D1124911D0895F6
:103C00005058BB27AA270E94181E0C947A1D0E94A8
:103C10006C1D38F00E94731D20F039F49F3F19F499
:103C200026F40C94691D0EF4E095E7FB0C94631DDB
:103C3000E92F0E948B1D58F3BA1762077307840798
:103C4000950720F079F4A6F50C94AD1D0EF4E095DF
:103C50000B2EBA2FA02D0B01B90190010C01CA0146
:103C6000A0011124FF27591B99F0593F50F4503EF1
:103C700068F11A16F040A22F232F342F4427585FE3
:103C8000F3CF469537952795A795F0405395C9F7FB
:103C90007EF41F16BA0B620B730B840BBAF09150B3
:103CA000A1F0FF0FBB1F661F771F881FC2F70EC052
:103CB000BA0F621F731F841F48F487957795679525
:103CC000B795F7959E3F08F0B0CF9395880F08F011
:103CD0009927EE0F9795879508950E94811E0C9461
:103CE0007A1D0E94731D58F00E946C1D40F029F44B
:103CF0005F3F29F00C94631D51110C94AE1D0C9480
:103D0000691D0E948B1D68F39923B1F3552391F32C
:103D1000951B550BBB27AA2762177307840738F03A
:103D20009F5F5F4F220F331F441FAA1FA9F335D097
:103D30000E2E3AF0E0E832D091505040E695001C4B
:103D4000CAF72BD0FE2F29D0660F771F881FBB1F05
:103D5000261737074807AB07B0E809F0BB0B802DE3
:103D6000BF01FF2793585F4F3AF09E3F510578F00F
:103D70000C94631D0C94AE1D5F3FE4F3983ED4F3A6
:103D8000869577956795B795F7959F5FC9F7880FE3
:103D9000911D9695879597F90895E1E0660F771F35
:103DA000881FBB1F621773078407BA0720F0621BC6
:103DB000730B840BBA0BEE1F88F7E09508950E94F1
:103DC000E61E6894B1110C94AE1D08950E94931DD7
:103DD00088F09F5798F0B92F9927B751B0F0E1F0CC
:103DE000660F771F881F991F1AF0BA95C9F714C07C
:103DF000B13091F00E94AD1DB1E008950C94AD1D5D
:103E0000672F782F8827B85F39F0B93FCCF38695B4
:103E100077956795B395D9F73EF490958095709511
:103E200061957F4F8F4F9F4F08950E94D21C08F4D9
:103E30008FEF0895FA01EE0FFF1F3096210531052F
:103E4000A1F16115710561F48038BFE39B0749F169
:103E500068949038810561F08038BFEF9B0741F08E
:103E600099234AF5FF3FE1053105210519F1E89451
:103E70000894E795D901AA2329F4AB2FBE2FF85F48
:103E8000D0F310C0FF5F70F4A695E0F7F73950F05B
:103E900019F0FF3A38F49F779F930DD00F9007FCED
:103EA0009058089546F00C94691D60E070E080E839
:103EB0009FE308954FE79F775F934F933F932F932F
:103EC0000E941A202F913F914F915F910E94F61C02
:103ED0000C94771F0E94D21C880B990B089529F42B
:103EE00016F00C94631D0C94AD1D0C94691D0E947A
:103EF000931DA8F39638A0F707F80F92E8942BE3E8
:103F00003AEA48EB5FE70E940C1D0F920F920F9266
:103F10004DB75EB70F920E946220E8E6F0E00E9483
:103F2000A91F4F915F91EF91FF91E595EE1FFF1F44
:103F300049F0FE57E0684427EE0F441FFA95E1F779
:103F40004195550B0E94DC1F0F9007FE0C94D01F6B
:103F50000895DF93CF931F930F93FF92EF92DF9219
:103F60007B018C01689406C0DA2EEF010E94091DC6
:103F7000FE01E894A5912591359145915591A6F3BF
:103F8000EF010E94181EFE019701A801DA9469F75B
:103F9000DF90EF90FF900F911F91CF91DF910895E7
:103FA0009B01AC0160E070E080E89FE30C946D1E23
:103FB0000C94631D0C9496200E94931DD8F39923B2
:103FC000C9F3940F511DA3F39150504094F059F050
:103FD000882332F0660F771F881F91505040C1F739
:103FE0009E3F51052CF7880F911D9695879597F95F
:103FF00008955F3FACF0983E9CF0BB27869577957F
:104000006795B79508F4B1609395C1F7BB0F58F762
:1040100011F460FFE8CF6F5F7F4F8F4F9F4FE3CF6B
:104020000C94AE1D16F00C9496200C94691D6894A7
:104030000C94631D0E94931DA8F39923C1F3AEF362
:10404000DF93CF931F930F93FF92C92FDD27882310
:104050002AF02197660F771F881FDAF720E030E0FB
:1040600040E85FEB9FE3883920F0803E38F02196EE
:104070008F770E94011EE0E9F0E004C00E94011E5B
:10408000EDEBF0E00E94A91F8B01BE01EC01FB2EBD
:104090006F5771097595771F880B990B0E94971CB4
:1040A00028E132E741E35FE30E94091DAF2D98014B
:1040B000AE01FF900F911F91CF91DF910E94181ECA
:1040C0000C947A1DFA01DC01AA0FBB1F9B01AC0105
:1040D000BF5728F4222733274427507820C0B751F0
:1040E00090F4AB2F0024469537952795011CA39596
:1040F000D2F3002071F0220F331F441FB395DAF37F
:104100000ED00C94001E61307105A0E88A07B946F4
:1041100030F49B01AC01662777278827907830968A
:1041200021F0208331834283538308959F3F31F0F0
:10413000915020F4879577956795B795880F911DD5
:104140009695879597F90895AA1BBB1B51E107C067
:10415000AA1FBB1FA617B70710F0A61BB70B881F17
:10416000991F5A95A9F780959095BC01CD010895A6
:1041700097FB072E16F4009407D077FD09D00E9414
:10418000A42007FC05D03EF4909581959F4F08959B
:10419000709561957F4F0895EE0FFF1F0590F49184
:1041A000E02D09940F931F93CF93DF9382309105F5
:1041B00010F482E090E0E0916F06F091700630E03C
:1041C00020E0B0E0A0E0309799F42115310509F422
:1041D0004AC0281B390B24303105D8F58A819B81D0
:1041E0006115710589F1FB0193838283FE0111C082
:1041F000408151810281138148175907E0F0481727
:10420000590799F4109761F012960C931297139630
:104210001C933296CF01DF91CF911F910F9108959A
:1042200000936F0610937006F4CF2115310551F0FD
:104230004217530738F0A901DB019A01BD01DF01E4
:10424000F801C1CFEF01F9CF9093700680936F060C
:10425000CDCFFE01E20FF31F8193919322503109DC
:1042600039832883D7CF20916D0630916E06232B9A
:1042700041F42091090130910A0130936E06209398
:104280006D0620910701309108012115310541F497
:104290002DB73EB740910B0150910C01241B350BFB
:1042A000E0916D06F0916E06E217F307A0F42E1B65
:1042B0003F0B2817390778F0AC014E5F5F4F24178A
:1042C000350748F04E0F5F1F50936E0640936D0602
:1042D000819391939FCFF0E0E0E09CCFCF93DF9369
:1042E0000097E9F0FC01329713821282A0916F06C9
:1042F000B0917006ED0130E020E01097A1F420812C
:104300003181820F931F20916D0630916E06281720
:10431000390709F061C0F0936E06E0936D06DF91F6
:10432000CF910895EA01CE17DF07E8F54A815B8156
:104330009E0141155105B1F7E901FB83EA834991DB
:104340005991C40FD51FEC17FD0761F4808191814D
:104350000296840F951FE901998388838281938156
:104360009B838A83F0E0E0E012968D919C911397F5
:104370000097B9F52D913C911197CD010296820FCE
:10438000931F20916D0630916E062817390739F674
:10439000309751F51092700610926F06B0936E062A
:1043A000A0936D06BCCFD383C28340815181840F1B
:1043B000951FC817D90761F44E5F5F4F88819981B7
:1043C000480F591F518340838A819B819383828345
:1043D0002115310509F0B0CFF0937006E0936F0618
:1043E0009ECFFD01DC01C0CF13821282D7CFF8949B
:0243F000FFCFFD
:1043F200C309016F12833A000071068000000000B9
:1044020000D402310261022103920270028402008E
:1044120000000076096B09870960026409510942AC
:104422000900000000BE09C10D00000000D8069777
:1044320006870686065A0619061006E605950579C8
:104442000692056C068E0560027E056E0533051622
:1044520005E5049B0400000000AA07E4078706861E
:10446200065A0619061006E6059505790692056CA8
:1044720006E806D708B40891082D08160503083C7B
:10448200070D0A006E616E00696E66006F76660047
:104492007365747365676D656E74496E743A200056
:1044A200564D4450565F317C315F564D4450560A4A
:1044B20000564D4450525F006D6F746F72207370DE
:1044C2006565642E2E2E00616D3130303877207391
:1044D200746172742E2E2E0069722073746172746C
:1044E2002E2E2E006D713133312073746172742E51
:1044F2002E2E0070696E20636F6E6669672073747A
:104502006172742E2E2E00656E642E2E2E0054685B
:10451200652066756E6374696F6E206465636F648F
:10452200652826726573756C747329292069732056
:104532006465707265636174656420616E64206D88
:104542006179206E6F7420776F726B2061732065C2
:104552007870656374656421204A7573742075737D
:1045620065206465636F6465282920776974686FC4
:104572007574206120706172616D6574657220616D
:104582006E6420497252656365697665722E646550
:10459200636F6465644952446174612E3C66696567
:1045A2006C646E616D653E202E0050313000706D7E
:1045B200312E303A200050323500706D322E353AAD
:1045C2002000706D31303A200068756D696469743D
:1045D200793A200074656D70657261747572653A1E
:1045E200200052656164696E672E2E2E004F3320C3
:1045F20056616C75653A00436F6E63656E747261E5
:1046020074696F6E204F33203A2000207070620070
:10461200206D672F6D33002075672F6D3300506C4E
:0C462200617A6D61204F66662E2E2E001E
:107800000C94343C0C94513C0C94513C0C94513CE1
:107810000C94513C0C94513C0C94513C0C94513CB4
:107820000C94513C0C94513C0C94513C0C94513CA4
:107830000C94513C0C94513C0C94513C0C94513C94
:107840000C94513C0C94513C0C94513C0C94513C84
:107850000C94513C0C94513C0C94513C0C94513C74
:107860000C94513C0C94513C11241FBECFEFD8E036
:10787000DEBFCDBF11E0A0E0B1E0EAE8FFE702C063
:1078800005900D92A230B107D9F712E0A2E0B1E065
:1078900001C01D92AD30B107E1F70E942D3D0C945F
:1078A000C33F0C94003C982F95959595959595958B
:1078B000905D8F708A307CF0282F295A8091C0000B
:1078C00085FFFCCF9093C6008091C00085FFFCCF60
:1078D0002093C6000895282F205DF0CF982F809127
:1078E000C00085FFFCCF9093C6000895EF92FF92F1
:1078F0000F931F93EE24FF2487018091C00087FD22
:1079000017C00894E11CF11C011D111D81E2E8164D
:1079100081EAF80687E0080780E0180770F3E09135
:107920000401F091050109958091C00087FFE9CF1E
:107930008091C6001F910F91FF90EF9008950E94D3
:10794000763C982F8091C00085FFFCCF9093C600B5
:1079500091362CF490330CF09053892F089597555D
:10796000892F08951F930E949F3C182F0E949F3CCF
:107970001295107F810F1F9108951F93182F882350
:1079800021F00E94763C1150E1F71F9108951F935A
:10799000182F0E94763C803249F0809103018F5F5E
:1079A000809303018530C1F01F9108958091C0003C
:1079B00085FFFCCF84E18093C6008091C00085FFE5
:1079C000FCCF1093C6008091C00085FFFCCF80E102
:1079D0008093C6001F910895E0910401F091050184
:1079E00009951F9108950E94763C803241F0809164
:1079F00003018F5F80930301853081F008958091AA
:107A0000C00085FFFCCF84E18093C6008091C00058
:107A100085FFFCCF80E18093C6000895E0910401CA
:107A2000F09105010995089548EC50E08823A1F0F4
:107A30002D9A28EE33E0FA013197F1F721503040CA
:107A4000D1F72D9828EE33E0FA013197F1F7215064
:107A50003040D1F7815061F708953F924F925F9285
:107A60006F927F928F929F92AF92BF92CF92DF924E
:107A7000EF92FF920F931F93CF93DF93000082E06A
:107A80008093C00080E18093C4001092C50088E11B
:107A90008093C10086E08093C2005098589A259A3E
:107AA00081E00E94143D24E1F22E9EE1E92E85E959
:107AB000D82E0FE0C02E10E1B12EAA24A394B1E479
:107AC0009B2EA6E58A2EF2E57F2EE0E26E2E79E46B
:107AD000572E63E5462E50E5352E0E94763C8033C6
:107AE000B1F18133B9F1803409F46FC0813409F404
:107AF00076C0823409F485C0853409F488C08035A5
:107B000031F1823521F1813511F1853509F485C0D6
:107B1000863509F48DC0843609F496C0843709F49B
:107B200003C1853709F472C1863709F466C08091B4
:107B300003018F5F80930301853079F6E0910401A2
:107B4000F091050109950E94763C803351F60E9420
:107B5000F33CC3CF0E94763C803249F78091C0004D
:107B600085FFFCCFF092C6008091C00085FFFCCF5E
:107B70009092C6008091C00085FFFCCF8092C60025
:107B80008091C00085FFFCCF7092C6008091C0003C
:107B900085FFFCCF6092C6008091C00085FFFCCFBE
:107BA0005092C6008091C00085FFFCCF4092C60075
:107BB0008091C00085FFFCCF3092C6008091C0004C
:107BC00085FFFCCFB092C60088CF0E94763C8638F5
:107BD00008F4BDCF0E94763C0E94F33C7ECF0E9409
:107BE000763C803809F49CC0813809F40BC1823896
:107BF00009F430C1883909F48FC080E00E94C73C85
:107C00006CCF84E10E94BD3C0E94F33C66CF85E0CE
:107C10000E94BD3C0E94F33C60CF0E94763C809362
:107C200006010E94763C809307010E94F33C55CFE9
:107C30000E94763C803309F411C183E00E94BD3C70
:107C400080E00E94C73C49CF0E94763C80930902A5
:107C50000E94763C8093080280910C028E7F809374
:107C60000C020E94763C853409F409C18091080217
:107C700090910902892B89F000E010E00E94763C87
:107C8000F801E85FFE4F80830F5F1F4F809108026D
:107C9000909109020817190788F30E94763C8032F8
:107CA00009F045CF80910C0280FFF5C0609106017C
:107CB00070910701660F771F7093070160930601AB
:107CC000A0910802B09109021097C9F0E8E0F1E034
:107CD0009B01AD014E0F5F1FF999FECF32BD21BD53
:107CE000819180BDFA9AF99A2F5F3F4FE417F5070B
:107CF00099F76A0F7B1F70930701609306018091CB
:107D0000C00085FFFCCFF092C6008091C00085FFC7
:107D1000FCCFB092C600E1CE83E00E94C73CDDCE2E
:107D200082E00E94C73CD9CE0E94763C8093090233
:107D30000E94763C80930802809106019091070191
:107D4000880F991F90930701809306010E94763C4B
:107D5000853409F49AC080910C028E7F80930C02C6
:107D60000E94763C803209F0B8CE8091C00085FF39
:107D7000FCCFF092C600A0910802B09109021097C2
:107D8000C1F180910C02082F0170182F1695117007
:107D9000E0910601F0910701AF014F5F5F4FBA011B
:107DA00020E030E00023B1F4112339F49491809164
:107DB000C00085FFFCCF9093C6002F5F3F4FCB01E3
:107DC0000196FA012A173B0780F4BC014F5F5F4F11
:107DD000002351F3F999FECFF2BDE1BDF89A90B5B9
:107DE0008091C00085FFFCCFE6CF709307016093C0
:107DF00006018091C00085FDE5CE8091C00085FF21
:107E0000F8CFE0CE81E00E94C73C67CE0E94763C6E
:107E1000803209F08CCE8091C00085FFFCCFF092BB
:107E2000C6008091C00085FFFCCFE092C600809123
:107E3000C00085FFFCCFD092C6008091C00085FFB6
:107E4000FCCFC092C6008091C00085FFFCCFB092ED
:107E5000C60043CE80E10E94C73C3FCE0E94763CE4
:107E60000E94763C182F0E94763C112309F483C0AF
:107E7000113009F484C08FE00E94C73C2ECE80915F
:107E80000C02816080930C02F1CE80910C02816023
:107E900080930C0265CF809107018823880F880B9F
:107EA0008A2180930B028091060190910701880F2F
:107EB000991F90930701809306018091080280FF2B
:107EC00009C08091080290910902019690930902DD
:107ED00080930802F894F999FECF1127E0910601EA
:107EE000F0910701C8E0D1E0809108029091090269
:107EF000103091F40091570001700130D9F303E084
:107F000000935700E8950091570001700130D9F3B4
:107F100001E100935700E8950990199000915700EE
:107F200001700130D9F301E000935700E8951395F3
:107F3000103498F011270091570001700130D9F3E7
:107F400005E000935700E89500915700017001305B
:107F5000D9F301E100935700E8953296029709F0B2
:107F6000C7CF103011F00296E5CF11248091C000E8
:107F700085FFC5CEC8CE8EE10E94C73CAECD85E957
:0A7F80000E94C73CAACDF894FFCF81
:027F8A00800075
:040000030000780081
:00000001FF