:100000000C9447010C946F010C946F010C946F01D8
:100010000C946F010C946F010C946F010C946F01A0
:100020000C94CF100C946F010C946F010C946F0121
:100030000C946F010C946F010C946F010C946F0180
:100040000C94590F0C946F010C94270F0C94010F12
:100050000C946F010C946F010C946F010C946F0160
:100060000C94A30F0C946F010C946F010C946F010E
:100070000C946F010C946F010C946F010C946F0140
:100080000C946F010C946F010C946F010C946F0130
:100090000C946F010C946F010C946F010C946F0120
:1000A0000C946F010C946F010C946F010C946F0110
:1000B0000C946F0107634236B79BD8A71A3968566C
:1000C00018AEBAAB558C1D3CB7CC5763BD6DEDFD7A
:1000D000753EF6177231BF000000803F0800000037
:1000E000BE922449123EABAAAA2ABECDCCCC4C3E2D
:1000F00000000080BEABAAAAAA3E00000000BF001C
:100100000000803F0000000000084178D3BB438717
:10011000D1133D190E3CC3BD4282AD2B3E68EC822B
:1001200076BED98FE1A93E4C80EFFFBE01C4FF7FB0
:100130003F00000000000086227E6D0000023006B5
:100140006300044080523F065B4F666D7D277F6FE2
:100150000000004800535F777F393F79713D760694
:100160001E693815373F7367316D783E2A1D766EEC
:100170005B39640F0008205F7C585E7B316F74042C
:100180000E753055545C7367506D781C2A1D766E61
:1001900047460670013F065B4F666D7D077F6F77B0
:1001A0007C395E797100000000240027002A002DB0
:1001B0000000000000250028002B002E003F065BF9
:1001C0004F666D7D077F6F777C395E79710086227F
:1001D0007E6D00000230066300044080523F065BE3
:1001E0004F666D7D277F6F0000004800535F777F6B
:1001F000393F79713D76061E693815373F7367318F
:100200006D783E2A1D766E5B39640F0008205F7C96
:10021000585E7B316F74040E753055545C736750B3
:100220006D781C2A1D766E4746067001000000009E
:100230002300260029002C00040404040404040400
:100240000202020202020303030303030202030584
:100250000505050102040810204080010204081071
:1002600020010204081020408040010204080A0D09
:100270000E09000302000004050800000000000051
:1002800000000000000000000000A011531D112418
:100290001FBECFEFD8E0DEBFCDBF25E0A4E2B3E0C4
:1002A00001C01D92A83FB207E1F713E0A0E0B1E062
:1002B000ECEBF5E402C005900D92A432B107D9F73A
:1002C00011E0C6E4D1E004C02197FE010E94A621FE
:1002D000C534D107C9F70E94AA120C94D1220C94FC
:1002E0000000880F8093BA0008959B01AC0160E084
:1002F00072E18AE790E00E949E1E20513109410977
:10030000510956954795379527952093B80008953C
:10031000882321F085EC8093BC00089585E8FBCF0D
:1003200085ED8093BC008091BC0084FDFCCF1092D1
:100330007003089585EC8093BC00109270030895BB
:10034000CF93DF93D091E204C091E104DC3339F420
:10035000C43101F560E070E080E89FE316C06C2FC7
:100360000C2E000C770B880B990B0E94711DDC344E
:1003700078F025E531EC48E25CEB0E94D01D23E2E9
:100380003AE443E95FE30E94DB1EDF91CF910895D9
:10039000D33390F06C2FCC0F770B880B990B0E9406
:1003A000711D28E338EF42E45CEB0E94D01D25EA82
:1003B0003DEB49EA5FE3E7CF20EB33E047E65CEB58
:1003C0000E94D01D22E739EF47EC5FE3DCCF0F93AB
:1003D0001F93CF93DF93E091C205F091C305409145
:1003E000F203808510E0481708F064C0142F1170E4
:1003F0000091F10301114FC0842F90E0880F991FE5
:10040000E80FF91F0184F285E02D2CEE3FEF112358
:1004100011F024E130E0C091EF03D091F0032C0FF4
:100420003D1FC90163E470E00E947E21E617F707D3
:1004300060F0C90168E270E00E947E216F5F7F4F2B
:1004400081E090E06E177F0710F52C0F3D1FC9016A
:1004500063E470E00E947E21E617F70750F0C901BF
:1004600068E270E00E947E216F5F7F4F6E177F070A
:1004700060F42C0F3D1FC90163E470E00E947E21EF
:10048000E617F707E8F41FEF15C082E090E09093BD
:10049000EE038093ED030F5F0093F1038091ED0372
:1004A0009091EE030817190628F01092F1034F5FA0
:1004B0004093F203812FDF91CF911F910F91089507
:1004C000C90168E270E00E947E216F5F7F4F6E1766
:1004D0007F07C8F283E090E0DACF0000000085E0FB
:1004E00090E00197F1F70895AF92BF92CF92DF921B
:1004F000EF92FF920F931F93CF93DF936C017B01D9
:100500008B01040F151FEB015E01AE18BF08C01769
:10051000D10759F06991D601ED91FC910190F081DC
:10052000E02DC6010995892B79F7C501DF91CF919F
:100530001F910F91FF90EF90DF90CF90BF90AF9001
:100540000895FC01538D448D252F30E0842F90E0D9
:10055000821B930B541710F0CF96089501970895BE
:10056000FC01918D828D981761F0A28DAE0FBF2F87
:10057000B11D5D968C91928D9F5F9F73928F90E0DD
:1005800008958FEF9FEF0895FC01918D828D98174C
:1005900031F0828DE80FF11D858D90E008958FEF89
:1005A0009FEF0895FC01918D228D892F90E0805C52
:1005B0009F4F821B91098F739927089583EF93E0D2
:1005C0000E94D20221E0892B09F420E0822F0895B5
:1005D000FC01A48DA80FB92FB11DA35ABF4F2C91B8
:1005E000848D90E001968F739927848FA689B789AF
:1005F0002C93A089B1898C91837080648C93938DA6
:10060000848D981306C00288F389E02D80818F7D48
:1006100080830895EF92FF920F931F93CF93DF9300
:10062000EC0181E0888F9B8D8C8D98131AC0E8892E
:10063000F989808185FF15C09FB7F894EE89FF89FD
:100640006083E889F98980818370806480839FBF9B
:1006500081E090E0DF91CF911F910F91FF90EF909B
:100660000895F62E0B8D10E00F5F1F4F0F731127AB
:10067000E02E8C8D8E110CC00FB607FCFACFE889E6
:10068000F989808185FFF5CFCE010E94E802F1CF84
:10069000EB8DEC0FFD2FF11DE35AFF4FF0829FB75A
:1006A000F8940B8FEA89FB8980818062CFCFCF934A
:1006B000DF93EC01888D8823B9F0AA89BB89E8898A
:1006C000F9898C9185FD03C0808186FD0DC00FB630
:1006D00007FCF7CF8C9185FFF2CF808185FFEDCFAE
:1006E000CE010E94E802E9CFDF91CF91089580E02A
:1006F00090E0892B29F00E94DE0281110E94000007
:1007000080E090E0892B49F080E090E0892B29F08F
:100710000E94000081110C940000089582508D30D9
:1007200008F03EC0E82FF0E0E856FC4F0C94A621FC
:10073000CD03D103A503AB03D003D003AF03B503AF
:10074000B903BF03D003C303C903809180008F772F
:10075000809380000895809180008F7DF9CF8091F3
:10076000B0008F778093B00008958091B0008F7DA6
:10077000F9CF809190008F778093900008958091B9
:1007800090008F7DF9CF8091A0008F778093A0009B
:1007900008958091A0008F7DF9CF84B58F7784BDB7
:1007A000089584B58F7DFBCFCF93DF93282F30E062
:1007B000F901E259FD4F8491F901ED5AFD4FD491B1
:1007C000F901E85CFD4FC491CC23A1F081110E9496
:1007D0008E03EC2FF0E0EE0FFF1FE45DFD4FA591BF
:1007E000B491EC91ED2381E090E009F480E0DF9199
:1007F000CF91089580E090E0FACF1F93CF93DF93DD
:10080000282F30E0F901E259FD4F8491F901ED5AAA
:10081000FD4FD491F901E85CFD4FC491CC23A9F0C0
:10082000162F81110E948E03EC2FF0E0EE0FFF1FB8
:10083000EF54FE4FA591B4918FB7F894EC9111113C
:1008400008C0D095DE23DC938FBFDF91CF911F913D
:100850000895DE2BF8CF1092700381E0809372032D
:100860001092710361E082E10E94FD0361E083E187
:100870000E94FD03E9EBF0E080818E7F8083808120
:100880008D7F808380E28093B80085E48093BC00F4
:100890000895ECEBF0E080818A7B808360E082E168
:1008A0000E94FD0360E083E10C94FD03E7E7F2E0C2
:1008B000E491E250ED3008F06FC0F0E0EE59FB4FEC
:1008C0000C94A6216F04740479048304CC04CC0432
:1008D0008D0495049D04A704CC04B204C10494B50E
:1008E000906894BD87BD089594B5906294BD88BD0D
:1008F00008952091800020682093800090938900C3
:1009000080938800089520918000206220938000C9
:1009100090938B0080938A0008959091B000906826
:100920009093B0008093B30008959091B0009062CE
:100930009093B0008093B4000895209190002068B7
:1009400020939000909399008093980008955A9A6C
:100950002091900020622093900090939B008093C0
:100960009A0008952091A00020682093A000209173
:10097000A0002F7B2093A0009093A9008093A80053
:1009800008955A9A2091A00020622093A00090938D
:10099000AB008093AA00089560E0803891050CF0C8
:1009A00061E089E00C94FD03CF93DF9390E0FC01BC
:1009B000ED5AFD4F2491885C9D4FFC018491882362
:1009C000D1F090E0880F991FFC01EB55FE4FA591E7
:1009D000B491FC01EF54FE4FC591D49161110EC04A
:1009E0009FB7F8948C91E22FE0958E238C93288109
:1009F000E223E8839FBFDF91CF9108958FB7F894EA
:100A0000EC91E22BEC938FBFF6CF3FB7F894809137
:100A1000790390917A03A0917B03B0917C0326B572
:100A2000A89B05C02F3F19F00196A11DB11D3FBF26
:100A3000BA2FA92F982F8827BC01CD01620F711DF5
:100A4000811D911D43E0660F771F881F991F4A95EE
:100A5000D1F70895CF92DF92EF92FF920E940505A1
:100A60006B017C010E9405056C197D098E099F09A7
:100A7000683E734081059105A8F3FF90EF90DF90E9
:100A8000CF900895CF92DF92EF92FF921F93CF9372
:100A9000DF93EC0160E08D810E94D40461E08D81E0
:100AA0000E94FD0398E0C92ED12C10E0E12EF12C1C
:100AB000F594E7941E2D60E08E810E94FD03E8818D
:100AC000F981028CF38DE02DCE0109958D810E9474
:100AD000D403892B09F0106861E08E810E94FD0328
:100AE000E881F981028CF38DE02DCE01099581E03A
:100AF000C81AD108D9F661E08D810E94D40460E063
:100B00008D810E94FD03812FDF91CF911F91FF9076
:100B1000EF90DF90CF9008950F931F93CF93DF93C3
:100B2000EC01162F042FE881F98102A0F3A1E02D3A
:100B300064E40995E881F981048CF58DE02DCE01FE
:100B40000995612F606CE881F98100A0F1A1E02D89
:100B5000CE010995E881F98100A0F1A1E02D602F77
:100B6000CE010995E881F981068CF78DE02DCE0143
:100B7000DF91CF911F910F9109941F93CF93DF9332
:100B8000EC01162FE881F981048CF58DE02D099593
:100B9000E881F98100A0F1A1E02D612FCE01099536
:100BA000E881F981068CF78DE02DCE01DF91CF91A0
:100BB0001F910994FF920F931F93CF93DF93EC0142
:100BC000F62E08E010E060E08E810E94FD03E881CF
:100BD000F981028CF38DE02DCE0109956F2D6170A6
:100BE0008D810E94FD03E881F981028CF38DE02D57
:100BF000CE010995F69461E08E810E94FD03E881A3
:100C0000F981028CF38DE02DCE0109950150110977
:100C1000D1F6E881F981028CF38DE02DCE01DF91D0
:100C2000CF911F910F91FF900994CF93DF93EC0127
:100C300061E08F810E94FD03E881F981028CF38DD0
:100C4000E02DCE01DF91CF910994CF93DF93EC019A
:100C500060E08F810E94FD03E881F981028CF38DB1
:100C6000E02DCE01DF91CF910994089560E070E00E
:100C7000CB010895FC01848108957F928F929F9209
:100C8000AF92BF92CF92DF92EF92FF920F931F939A
:100C9000CF93DF937C016A01722E8B01D0E0C0E01C
:100CA000A22EB12C88248394912CD70114968C9178
:100CB00090E09C012A193B09C217D3070CF5F801F3
:100CC00041918F014423E1F08C1B9D0B019794010E
:100CD00002C0220F331F8A95E2F7C9018C219D21A2
:100CE00021E0892B09F420E06C2F670DD701ED91ED
:100CF000FC910688F789E02DC70109952196D5CF8B
:100D0000DF91CF911F910F91FF90EF90DF90CF90E7
:100D1000BF90AF909F908F907F900895CF92DF9279
:100D2000EF92FF920F931F93CF93DF937C016B01A0
:100D3000042F10E0D0E0C0E0C017D10781F0F60129
:100D4000EC0FFD1F4491D701ED91FC910288F389CE
:100D5000E02D20E06C2FC70109952196EDCFDF91A2
:100D6000CF911F910F91FF90EF90DF90CF9008955A
:100D7000242FDC01ED91FC910288F389E02D40E005
:100D800009949F92AF92BF92CF92DF92EF92FF921F
:100D90000F931F93CF93DF937C01C1E0C42ED12C1E
:100DA0008AE0A82EB12CD70114964C914C17F0F084
:100DB00096010C2E02C0359527950A94E2F7217012
:100DC0004C1BCB01B5010E949221962ED72FD70143
:100DD000ED91FC910084F185E02D05E911E0682F8B
:100DE000C7010995692D7D2FCF5FDDCFDF91CF91B1
:100DF0001F910F91FF90EF90DF90CF90BF90AF9039
:100E00009F9008950F931F93E62F642FEF70E00FCC
:100E1000F12FF11D4491DC01ED91FC910288F389E1
:100E2000E02D1F910F910994E42F440FFF0BEA5E10
:100E3000FE4F4491DC01ED91FC910288F389E02D95
:100E40000994362FDC01ED91FC910480F581E02DB1
:100E500060E0211160E8642B432F09940895242F4A
:100E6000DC0112963C911297431740F4ED91FC91EE
:100E700004A0F5A1E02D462F622F099408950F9349
:100E80001F93CF93DF93EC01E881F98102A0F3A1D6
:100E9000E02D60E40995E881F981048CF58DE02D61
:100EA000CE010995E881F98100A0F1A1E02D60EC67
:100EB000CE01099510E000E0E881F9818A81801770
:100EC0001106A9F0A4F000A0F1A1E02D60E0CE0190
:100ED00009958B81893040F0E881F98100A0F1A16A
:100EE000E02D60E0CE0109950F5F1F4FE5CF068C26
:100EF000F78DE02DCE01DF91CF911F910F910994D5
:100F0000DC01ED91FC9102A0F3A1E02D611106C07E
:100F100060E8483008F047E0642B099468E8F9CFAE
:100F20000F931F93CF938C01DC01ED91FC91048C06
:100F3000F58DE02D0995D801ED91FC9100A0F1A16E
:100F4000E02D69E4C8010995D801ED91FC9106A056
:100F5000F7A1E02DC8010995C82FD801ED91FC91AA
:100F6000068CF78DE02DC801099560E070E0CB019B
:100F7000C43470F0C83480F4C45461E070E080E0A0
:100F800090E004C0660F771F881F991FCA95D2F79B
:100F9000CF911F910F910895C03510F4C854EDCF33
:100FA000C83510F4CC54E9CFC03610F4C055E5CFA5
:100FB000C83610F4C455E1CFC03710F4C855DDCFA2
:100FC000C837D8F6CC55D9CFEF92FF921F93CF9365
:100FD000DF93EC0160E08E810E94FD0360E08D8173
:100FE0000E94D40461E08D810E94FD0388E0E82E18
:100FF000F12C10E0110F61E08E810E94FD03E88169
:10100000F981028CF38DE02DCE0109958D810E942E
:10101000D403892B09F0116060E08E810E94FD03EA
:10102000E881F981028CF38DE02DCE01099581E0F4
:10103000E81AF108F9F660E08E810E94FD0360E095
:101040008D810E94D40461E08D810E94FD03E881BE
:10105000F981028CF38DE02DCE01099561E08E813E
:101060000E94FD03E881F981028CF38DE02DCE0111
:1010700009958D810E94D403F82E60E08E810E9434
:10108000FD03F11004C060E08D810E94FD0361E06A
:101090008D810E94D404812FDF91CF911F91FF9009
:1010A000EF9008950F931F93CF93DF93EC01062FDA
:1010B000483008F047E011E0140F183009F410E050
:1010C000E881F981048CF58DE02DCE010995E88148
:1010D000F98100A0F1A1E02D68E4CE010995E88135
:1010E000F98100A0F1A1E02D80E1189FA001112459
:1010F0008B8160E0873009F468E0402B642BCE01DF
:101100000995E881F981068CF78DE02DCE01DF91FC
:10111000CF911F910F9109940F931F93CF93DF935A
:101120008C01D0E0C0E0D80112968C9112978C17F8
:101130001D0661F05CF0ED91FC9104A0F5A1E02D9D
:1011400040E06C2FC80109952196EDCFDF91CF913A
:101150001F910F9108950F931F93CF93DF93EC018D
:10116000162F042FE881F981048CF58DE02D099567
:10117000612F660F6866E881F98100A0F1A1E02D7A
:10118000CE010995E881F98100A0F1A1E02D602F41
:10119000CE010995E881F981068CF78DE02DCE010D
:1011A000DF91CF911F910F910994FF920F931F939D
:1011B000CF93DF93EC01F62E08E010E060E08E8123
:1011C0000E94FD03E881F981028CF38DE02DCE01B0
:1011D00009956F2D661F6627661F8D810E94FD038E
:1011E000FF0C61E08E810E94FD03E881F981028C91
:1011F000F38DE02DCE01099501501109F9F6E88132
:10120000F981028CF38DE02DCE010995E881F981F9
:10121000028CF38DE02DCE01099560E08E810E9455
:10122000FD0360E08D810E94D404E881F981028C85
:10123000F38DE02DCE01099561E08E810E94FD03C2
:10124000E881F981028CF38DE02DCE0109958D8125
:101250000E94D403811104C060E08D810E94FD03CF
:1012600061E08D81DF91CF911F910F91FF900C94E0
:10127000D404CF93DF93EC0160E08E810E94FD03E4
:1012800060E08D810E94FD03E881F981028CF38D7D
:10129000E02DCE01099561E08E810E94FD0361E0A1
:1012A0008D810E94FD03E881F981028CF38DE02D90
:1012B000CE01DF91CF910994CF93DF93EC0161E0F0
:1012C0008D810E94FD0361E08E810E94FD03E88113
:1012D000F981028CF38DE02DCE01099560E08D81BE
:1012E0000E94FD0360E08E810E94FD03E881F98188
:1012F000028CF38DE02DCE01DF91CF9109940C94F7
:101300006D0220914C03260F3327331F2132310504
:10131000ECF420917003FC0190E080E0243069F04F
:1013200082E00895A0914C032191AC01445D5C4F93
:10133000A40FB52FB11D2C930196861798F38091B9
:101340004C03680F60934C0380E0089581E008959A
:101350000F93413208F044C0909170039111FCCF7B
:1013600092E090937003009372039FEF90936F034A
:101370007093740360937303109276034093750324
:101380001092770390917703880F892B80937703CE
:1013900080917103813011F5109271038091770370
:1013A0008093BB008091BC0083FDF8CF85EC8093D7
:1013B000BC00222321F0809170038230D1F3809110
:1013C0006F038F3F79F080916F03803269F08091D5
:1013D0006F03803359F084E00F91089585EEE7CFD5
:1013E00081E0FACF80E0F8CF82E0F6CF83E0F4CF5F
:1013F0004132E0F5909170039111FCCF91E0909310
:101400007003209372032FEF20936F037093740384
:101410006093730310927603240F209375039093C7
:10142000770390917703880F892B809377038091BE
:1014300071038130C9F41092710380917703809316
:10144000BB008091BC0083FDF8CF85EC8093BC008D
:10145000809170038130E1F380917603841710F45A
:1014600040917603842F089585EEF0CF40E0FACFC7
:10147000E091AC04F091AD04309729F01092A904EA
:101480001092AA0409940895DC018091AE04909111
:10149000AF04892B19F19091A4048091A5049817A9
:1014A000E8F090E0292F30E0261737076CF4FD01B3
:1014B000E20FF31F4081E091A204F091A304E20F38
:1014C000F31F40839F5FEECF1092A4046093A504A6
:1014D000E091AE04F091AF04CB0109940895DC01D2
:1014E0005096EC91509751968C915197E81748F48B
:1014F0001E968D919C91E80FF92FF11D808190E04F
:1015000008958FEF9FEF0895FC01908981892FEF57
:101510003FEF981740F4A685B785A90FB11D2C9110
:1015200030E09F5F908BC9010895FC01818990890B
:10153000891B990B0895CF92DF92EF92FF920F9340
:101540001F93CF93DF938C01CB017A01D80157967B
:101550002C915797222389F0EB016B01C40ED51E05
:10156000CC15DD0579F06991D801ED91FC910190E0
:10157000F081E02DC8010995F3CF9896ED91FC918B
:10158000642F0995C701DF91CF911F910F91FF90B3
:10159000EF90DF90CF900895CF93DF931F92CDB758
:1015A000DEB7FC01698387898823F9F02689848561
:1015B00095852817190654F081E090E09383828383
:1015C00090E080E00F90DF91CF9108958981A58907
:1015D00023893489A20FB32FB11D8C9385898F5F26
:1015E000858B868B81E090E0EDCF00A4F1A5E02D06
:1015F00061E0CE0101960995F5CF90E080E0089575
:1016000022303105A1F02330310521F1213031059F
:1016100039F020E030E04AE754E40E94471F089583
:1016200020E030E04AE754E40E94D01D0895452BA5
:1016300031F020E030E04AE754E40E94471F20E008
:1016400030E040E452E40E94D01D2BE430EB45EB47
:1016500051E4E3CF4130510591F320E030E04AE717
:1016600054E40E94D01DEBCF08958F929F92AF92C9
:10167000BF92EF92FF920F931F93CF93DF934B0193
:101680005C01F42E8FEC95E00E948C08C501B4013A
:101690000E94B91FEB01CB0164E670E00E94922129
:1016A000E62E42E0BC018FEC95E00E94C1062AE0E4
:1016B00030E0CE01B9010E949221CB01B9010E9414
:1016C00092210DEB11E021E041E0682F8FEC95E0D5
:1016D0000E94020720E040E06E2D8FEC95E00E9412
:1016E000020720E043E061E0F11005C00DEB11E0DE
:1016F00020E043E065E08FEC95E00E940207DF9177
:10170000CF911F910F91FF90EF90BF90AF909F905E
:101710008F9008957F928F929F92AF92BF92CF92B7
:10172000DF92EF92FF920F931F93CF93DF93782E68
:10173000EA01E091C205F091C3053F968B010C5E72
:101740001F4F43E4C42ED12CC801B6010E947E2154
:101750005B0158E2E52EF12CC801B7010E947E2101
:101760008B010F5F1F4F6497CE01B6010E947E214F
:101770004B01CE01B7010E947E21EB01219624513D
:101780003109C901B6010E947E216B01C901B7016F
:101790000E947E216F5F7F4F20E030E0A901A0E032
:1017A000808191818A159B0570F10817190758F1FE
:1017B000828193818815990518F1C817D90728F1F6
:1017C000220F331F441F551F21603496AF5F7A12DA
:1017D000E7CF2093BE053093BF054093C0055093DB
:1017E000C10581E0DF91CF911F910F91FF90EF90A4
:1017F000DF90CF90BF90AF909F908F907F90089593
:101800008C159D0510F480E0EDCF68177907D8F3AB
:10181000220F331F441F551FD8CF80917F03813083
:10182000B1F028F0823019F1833059F1089560E069
:1018300080E10E94FD0360E08FE00E94FD0361E013
:1018400089E00E94D40460E089E00C94FD0361E02B
:1018500080E10E94FD0361E08FE00E94FD0361E0F2
:1018600089E00E94D4048CED90E00C94560460E072
:101870008FE00E94FD0361E089E00E94D40461E0F2
:10188000E3CF60E080E10E94FD0361E08FE00E9411
:10189000FD0361E089E00E94D40484EB90E0E5CF91
:1018A000FC0101900020E9F73197AF01481B590B6B
:1018B000BC0183EF93E00C9474028F929F92AF92DD
:1018C000BF920F931F93CF93DF93CDB7DEB7A1974E
:1018D0000FB6F894DEBF0FBECDBF19A2423008F498
:1018E0004AE08E010F5D1F4F842E912CB12CA12C4C
:1018F000A50194010E949E1EE62FB901CA01EA309B
:10190000F4F4E05DD801EE938D01232B242B252BDD
:1019100079F790E080E0109719F0CD010E94500C0B
:10192000A1960FB6F894DEBF0FBECDBFDF91CF9169
:101930001F910F91BF90AF909F908F900895E95C99
:10194000E1CFCF93DF930E94500CEC0181E991E04D
:101950000E94500C8C0F9D1FDF91CF9108950C9425
:10196000500C4F925F926F927F928F929F92AF92A4
:10197000BF92CF92DF92EF92FF920F931F93CF937C
:101980006B017C01742EAC019B010E9444208823D2
:1019900099F084E991E0CF911F910F91FF90EF9022
:1019A000DF90CF90BF90AF909F908F907F906F907F
:1019B0005F904F900C94500C46015701E894B7F893
:1019C0002FEF3FEF4FE75FE7C501B4010E944420CE
:1019D00081110DC02FEF3FEF4FE75FE7C501B40165
:1019E0000E946A1D18161CF488E991E0D4CF2FEFED
:1019F0003FEF4FE75FE4C701B6010E94EF1F1816E3
:101A00001CF48CE991E0C7CF2FEF3FEF4FE75FEC7D
:101A1000C701B6010E946A1D87FDF3CF20E030E0C8
:101A2000A901C701B6010E946A1D10E000E087FF0E
:101A30000AC06DE283EF93E00E940A038C01F7FA7B
:101A4000F094F7F8F094C0E060E070E080E09FE38D
:101A50007C1641F020E030E040E251E40E94471F54
:101A6000CF5FF6CFA70196010E94DB1E2B013C0140
:101A70000E94C01F4B015C014AE00E945D0C7C018A
:101A8000E00EF11ECC23C1F1C501B4010E946F1D0F
:101A90009B01AC01C301B2010E94DA1E4B015C0143
:101AA0006EE283EF93E00E940A03E80EF91EC15034
:101AB00018F120E030E040E251E4C501B4010E9499
:101AC000D01D2B013C010E94C01F4B01B12CA12C49
:101AD0004AE0C501B4010E945D0CE80EF91EC50183
:101AE000B4010E946F1D9B01AC01C301B2010E94B1
:101AF000DA1E4B015C01DBCFC701CF911F910F9123
:101B0000FF90EF90DF90CF90BF90AF909F908F901D
:101B10007F906F905F904F900895CF92DF92EF92F9
:101B2000FF92CF93DF936C01990FEE08FF08F7FE49
:101B30001FC06DE283EF93E00E940A03EC01662769
:101B40007727CB016C197D098E099F094AE00E9415
:101B50005D0CC80FD91F81E991E00E94500C8C0FD9
:101B60009D1FDF91CF91FF90EF90DF90CF90089570
:101B70004AE0C701B6010E945D0CEC01ECCFEF9288
:101B8000FF920F931F93CF93DF937C018FEC95E02F
:101B90000E948C0880EA91E00E94AF0C80912A0399
:101BA00090912B030E948D0DF0922B03E0922A035B
:101BB00080912A0390912B03CAE0D0E0BE010E94DD
:101BC00092210DEB11E020E042E0682F8FEC95E0D0
:101BD0000E9402078AE0E816F1040CF446C08091E6
:101BE0002A0390912B03BE010E94922170932B0334
:101BF00060932A0380EA91E00E94AF0C80912A034F
:101C000090912B030E948D0D80912A0390912B03BC
:101C1000BE010E94922120E041E0682F8FEC95E008
:101C20000E94020784E6E816F104FCF080912A0382
:101C300090912B03BE010E94922170932B0360931D
:101C40002A0380EA91E00E94AF0C80912A039091D0
:101C50002B030E948D0D60912A0370912B0320E0CD
:101C600040E08FEC95E00E940207DF91CF911F9139
:101C70000F91FF90EF900895CF92DF92EF92FF9235
:101C8000CF93DF93EC01C090DD04D090DE04E090B0
:101C9000DF04F090E00420E030E0A901C701B601C4
:101CA0000E946A1D87FD0CC08091C6049091C704F4
:101CB0008130910509F442C090F0029709F478C090
:101CC00050E040E030E020E0652F742F832F922F0A
:101CD000DF91CF91FF90EF90DF90CF90089520910A
:101CE000D9043091DA044091DB045091DC04C7013F
:101CF000B6010E94471F6B017C010E94A0019B015D
:101D0000AC01C701B6010E94D01D2DE53DE645E1BD
:101D100050E40E94F41F2EE137EA47E151E40E94AB
:101D2000D01DB62FA72FF82FE92FAD019F01C1308D
:101D3000D10551F29E0141E050E02EC02091D9041E
:101D40003091DA044091DB045091DC04C701B60104
:101D50000E94471F6B017C010E94A0019B01AC0106
:101D6000C701B6010E94D01D2EEC39E145E150E4D7
:101D70000E94F41F28E03DE342E051E40E94D01DA0
:101D8000B62FA72FF82FE92FAD019F01209709F457
:101D90009BCF9E0150E040E06B2F7A2F8F2F9E2F1C
:101DA000DF91CF91FF90EF90DF90CF900C94000BDC
:101DB00026E636E642E451E4C701B6010E94D01D92
:101DC0002091D9043091DA044091DB045091DC0475
:101DD0000E94471F6B017C010E94A0019B01AC0186
:101DE000C701B6010E94D01D21EE3AE744E95FEB3E
:101DF0000E94F41F2BE237E847ED51E490CF0C949A
:101E000048221F920F920FB60F9211242F933F93E7
:101E10004F935F936F937F938F939F93AF93BF93F2
:101E2000EF93FF9383EF93E00E94E802FF91EF911D
:101E3000BF91AF919F918F917F916F915F914F91E2
:101E40003F912F910F900FBE0F901F9018951F92EA
:101E50000F920FB60F9211242F938F939F93EF93AE
:101E6000FF93E0910304F09104048081E091090460
:101E7000F0910A0482FD1BC0908180910C048F5F59
:101E80008F7320910D04821741F0E0910C04F0E073
:101E9000ED50FC4F958F80930C04FF91EF919F9133
:101EA0008F912F910F900FBE0F901F9018958081EA
:101EB000F4CF1F920F920FB60F9211242F933F93DE
:101EC0008F939F93AF93BF938091E6039091E70325
:101ED000A091E803B091E9033091780326E0230F45
:101EE0002D3768F129E8230F0396A11DB11D20931A
:101EF00078038093E6039093E703A093E803B093FD
:101F0000E9038091790390917A03A0917B03B091CA
:101F10007C030196A11DB11D8093790390937A03F0
:101F2000A0937B03B0937C03BF91AF919F918F915E
:101F30003F912F910F900FBE0F901F901895029612
:101F4000A11DB11DD4CF1F920F920FB60F92112475
:101F50002F933F934F935F936F937F938F939F93B1
:101F6000AF93BF93EF93FF938091B900887F803642
:101F700009F44CC008F03FC0883209F4A8C018F535
:101F8000803109F49CC0B8F4882309F405C1883075
:101F900009F495C0FF91EF91BF91AF919F918F91FF
:101FA0007F916F915F914F913F912F910F900FBE55
:101FB0000F901F901895883109F489C0803251F72D
:101FC00080936F0315C0803409F4A6C048F48033B1
:101FD000B9F38833F9F680936F030E949A01DACF40
:101FE000803509F489C0883509F49EC0883491F69B
:101FF0000E949001CFCF883909F494C038F5883712
:1020000029F050F4883611F0803721F683E0809370
:10201000700310926E0357C0883809F483C080396A
:1020200019F0803809F0B6CF80916E03803208F045
:1020300079C0E0916E0381E08E0F80936E038091F2
:10204000BB00F0E0E25BFC4F80833DC0803B39F099
:10205000E0F4803A09F485C0883A09F09BCF84E027
:102060008093700310924D0310924C03E091920400
:10207000F0919304099580914C0381110FC081E088
:1020800080934C0310922C0309C0803C09F482C059
:10209000883C09F47FC0883B09F07CCFE0914D0378
:1020A00081E08E0F80934D03F0E0E45DFC4F808172
:1020B0008093BB0090914D0380914C0331C080917F
:1020C00077038093BB0085EC8093BC0063CF909135
:1020D0007603809175039817B8F5809173039091FA
:1020E0007403E091760321E02E0F20937603E80F2E
:1020F000F92FF11D8081E5CF209173033091740396
:10210000E091760381E08E0F809376038091BB008F
:10211000E20FF32FF11D8083909176038091750378
:10212000981788F285E8D0CF20917303309174031B
:10213000E091760381E08E0F809376038091BB005F
:10214000E20FF32FF11D808380917203811150CF34
:1021500081E08093710384EA8093BC001092700345
:1021600019CF0E949A0180916E03803230F4E09181
:102170006E03F0E0E25BFC4F108260916E0370E052
:10218000E0919004F09191048EE493E0099510920F
:102190006E0300CF85ECE0CF10926F0329CF1F9222
:1021A0000F920FB60F9211242F933F934F935F938B
:1021B0006F937F938F939F93AF93BF93EF93FF930F
:1021C000E091E504F091E60490818091E704982382
:1021D0002091E8043091E9042F3F320731F02F5F5E
:1021E0003F4F3093E9042093E8048091E304811188
:1021F00035C0911116C02091E8043091E9042536CC
:10220000310558F01092EA043093ED042093EC0469
:1022100081E08093EB048093E3041092E904109230
:10222000E8048091D805882341F08091D705911169
:1022300062C061E0811162C02D9AFF91EF91BF9160
:10224000AF919F918F917F916F915F914F913F914E
:102250002F910F900FBE0F901F9018958091E3045F
:102260008130A1F49923E9F22091E8043091E90446
:10227000E091EB048E0F8093EB04F0E0EE0FFF1F74
:10228000ED51FB4F3287218782E0C5CF8091E30477
:10229000823041F591111AC0E091EB04E43628F048
:1022A00081E08093EA0483E0B6CF2091E804309186
:1022B000E90481E08E0F8093EB04F0E0EE0FFF1F46
:1022C000ED51FB4F3287218781E0A5CF2091E804B3
:1022D0003091E9042536310508F4A3CF83E08093DB
:1022E000E3049FCF8091E304833009F09ACF9923D0
:1022F00009F493CF96CF882321F060E00E94FD037C
:102300009CCF2D989ACFA3EEB4E011968C931197A1
:1023100090E0FC01ED5AFD4FE4911496EC93149774
:10232000FC01E85CFD4FE491F0E0EE0FFF1FE45D7F
:10233000FD4F8591949113969C938E9312970895D7
:10234000DF92EF92FF920F931F93CF93DF93E3EF10
:10235000F3E01382128288EE93E0A0E0B0E0848381
:102360009583A683B78321E131E03183208325EC77
:1023700030E03587248724EC30E03787268720EC4F
:1023800030E0318B208B21EC30E0338B228B22EC40
:1023900030E0358B248B26EC30E0378B268B118E8A
:1023A000128E138E148EC4E9D4E01B821A828C83A1
:1023B0009D83AE83BF8383E291E09983888380E22B
:1023C00090E09D878C870E94AC219F878E87188A1A
:1023D000198A1A8A80E290E00E94AC219C8B8B8B38
:1023E0001D8A1E8A1F8A8BE294E09D8F8C8F89E460
:1023F00094E09F8F8E8F81E791E099A388A385E772
:1024000091E09BA38AA388EF99E09DA38CA388EA1F
:1024100099E09FA38EA381E899E099A788A788E80F
:1024200091E09BA78AA780E991E09DA78CA78AE904
:1024300091E09FA78EA784E49AE090939104809303
:10244000900488E39AE09093930480939204E4ECE0
:10245000F4E085E391E091838083158214821682F3
:102460008FEF878380878FEF9FEFDC0185879687CB
:10247000A787B08B818B928BA38BB48B80E090E08D
:10248000A0E8BFEB858B968BA78BB08F818F928F47
:10249000A38FB48F84E1858F81E4868F80E492E4FA
:1024A000AFE0B0E081879287A387B48783EEE82E00
:1024B00084E0F82EF092E805E092E70580E00E94C3
:1024C000831107ED15E0F80110821182CFECD5E001
:1024D0008DE391E09983888398E0D92EDB828BE0AD
:1024E0008D839CE09E838F8384E08A838C8361E06C
:1024F0008BE00E94D40461E08CE00E94D40461E08F
:102500008BE00E94D40461E08BE00E94FD0361E057
:102510008CE00E94FD0389E691E099838883CE01D7
:102520000E948C08DB8247E061E0CE010E945208E5
:10253000F092C305E092C20584E10E948311F80184
:1025400010821182DF91CF911F910F91FF90EF9038
:10255000DF900895789484B5836084BD85B58360E9
:1025600085BD80916E00816080936E00C2E0C09353
:102570008100809181008160809381008091800042
:102580008160809380008091B10084608093B1006D
:102590008091B00081608093B00080919100836051
:1025A0008093910080919000816080939000809151
:1025B000A10083608093A1008091A000816080933E
:1025C000A00086E880937A001092C100E091030495
:1025D000F0910404C083E091FF03F09100041082A5
:1025E000E0910104F091020483E3808310920B04D4
:1025F000E0910704F091080486E08083E0910504EF
:10260000F0910604808188698083E0910504F0914F
:10261000060480818F7D808380EB91E00E94A10C75
:1026200080918100887F8260809381008FEB91E0B0
:102630000E94A10C84E994E09093CB038093CA0399
:102640001092A4041092A5041092A9041092AA0456
:10265000E091B004F091B104099580ED91E00E9401
:10266000A10CF894C093B000C093B10082E38093B2
:10267000B3008093B4001092B20084E080937000A5
:102680008091E304833011F41092E304789460E0C5
:102690008091E4040E94D4048CED91E00E94A10C8E
:1026A0001092CA041092C9041092C8041092C70470
:1026B0001092C60483E08093CB0489E18093CC041C
:1026C00080E492E4AFE0B0E08093CD049093CE0438
:1026D000A093CF04B093D0048AE097EAAFEEB4E4BD
:1026E0008093D9049093DA04A093DB04B093DC04C4
:1026F00080E590E0A0E0B0E08093D5049093D6040C
:10270000A093D704B093D80461E083E00E94D4047E
:1027100060E08091CC040E94D40460E08091CB04FE
:102720000E94FD0388E491E6A4E7B4E48093D90411
:102730009093DA04A093DB04B093DC041092D504E8
:102740001092D6041092D7041092D8048BEE91E028
:102750000E94A10C61E089E00E94D40461E083E062
:102760000E94D40461E085E00E94D40461E086E028
:102770000E94D40461E08AE10E94D40461E089E00F
:102780000E94D40461E08DE00E94D40461E08FE0F7
:102790000E94D40461E080E10E94D40461E08EE0F4
:1027A0000E94D40461E085E10E94D4048FEC95E09E
:1027B0000E948C0860E087E00E94D40460E08AE018
:1027C0000E94D40460E088E00E94D40460E084E0C9
:1027D0000E94D4048FEF91E00E94A10CB4E16B2E13
:1027E000712C88248A94982C54018091E3048330BE
:1027F00009F0EDC180917D03811107C086E092E070
:102800000E94A10C81E080937D038CEE94E0909374
:102810008F0380938E038091EB0490E0909391035B
:10282000809390032091EA04222321F01092EA047D
:102830001092EB042091EA042093920310928603F5
:1028400010928703109288031092890320E8209346
:10285000BD052091EE043091EF04265831092C3546
:10286000310508F062C08430910521F58091F004B3
:102870009091F1048197489708F057C08091F20435
:102880009091F3040897089708F04FC010928A03BC
:102890008092860390928703A0928803B092890366
:1028A00081E88093BD0587E090E09093B505809323
:1028B000B4051AC184349105C1F58091F00490915A
:1028C000F104825491098F9780F520E332E040E9CA
:1028D00056E060E372E080E20E948A0B882329F1CF
:1028E000E0918E03F0918F03EA57FF4F8081918131
:1028F00008970897D0F48091BE059091BF05A091EC
:10290000C005B091C1058093860390938703A0937F
:102910008803B093890380E280938A0387E090E084
:102920009093830380938203C0CF40919003509192
:1029300091034A31510508F453C0E0918E03F091A0
:102940008F03808191810A9780F410928A0380928C
:10295000860390928703A0928803B092890381E056
:102960008093BD0582E190E0A0CF8281938184971E
:102970004A97B0F523E030E060E0C12CD12C76011D
:10298000848195810897089758F5868197818231CF
:102990009105E0F0809720F5CC0CDD1CEE1CFF1CAF
:1029A0006894C0F86F5F2E5F3F4F34962417350749
:1029B00038F360938A03C0928603D0928703E09233
:1029C0008803F092890382E190E0AACF89309105D3
:1029D00038F0419728F4CC0CDD1CEE1CFF1CE2CF34
:1029E00081E08093F203A9E7B3E0B093F003A093F2
:1029F000EF031092F1030E94E701813009F0E2C277
:102A0000C12CD12C7601C0E0E091C205F091C30544
:102A100090858091F2038917E0F40E94E701D82F96
:102A20000E94E701D1110BC0813009F0CBC2CC0C60
:102A3000DD1CEE1CFF1C6894C0F8CF5FE5CFD130E1
:102A400009F0C0C28111BEC2CC0CDD1CEE1CFF1C03
:102A5000F4CFC093BC05C092BE05D092BF05E092F2
:102A6000C005F092C1058C2D8F7390E09093B9054D
:102A70008093B805960146E0369527954A95E1F78B
:102A80002F7133273093B7052093B605960122277F
:102A90003071232B31F4805C9F4F9093B905809364
:102AA000B80580E8D3FC88E88093BD0581859285D0
:102AB000833E984028F48091BD0581608093BD05D8
:102AC0008EE090E09093B5058093B405C0938A039F
:102AD000C0928603D0928703E0928803F092890324
:102AE00090938303809382036091860370918703A0
:102AF00080918803909189034AE00E945D0C81E9EE
:102B000091E00E94500C8091860390918703A091E0
:102B10008803B09189038F32904DAF45B04A69F573
:102B20008091EC03882309F48EC5809180039091F5
:102B3000810301969093810380938003883B9B409F
:102B400009F0B0C410929803109297037092960304
:102B5000609295038CE291E09093940380939303A9
:102B60008091EC03882309F46EC560E08AE10E943D
:102B7000FD0361E08EE00E94FD0380918603909149
:102B80008703A0918803B09189038F3420EB9207CB
:102B90002FE5A20720EAB20709F46AC508F0CFC4FE
:102BA0008F3A20E592072FE5A20720EAB20709F441
:102BB00031C508F083C48F3C9043AF45B04A09F457
:102BC00046C58091E304833011F41092E3048091B0
:102BD000EC03882309F433C780910201882309F4A8
:102BE0006CC5813009F4A2C580919A0390919B0332
:102BF000019690939B0380939A03803D974079F4CC
:102C0000809199038F5F8093990310929B03109298
:102C10009A0380919903853010F010929903809166
:102C20009903811190C580919A0390919B0301971C
:102C3000C1F48FEC95E00E948C080DEC11E020E0CF
:102C400050E040E062EA72E08FEC95E00E943D06C1
:102C50000DEB11E021E041E061E08FEC95E00E9496
:102C6000020780919A0390919B03883E934081F4E0
:102C700086EA92E00E94AF0C8091A8039091A9038C
:102C80000E948D0D8091A8039091A9030E94BF0D11
:102C90008091000190910101019690930101809330
:102CA00000018838934109F02CC110920101109263
:102CB0000001C091CA03D091CB034C855D85493199
:102CC000510514F049E150E06E857F85ECA1FDA12E
:102CD00021E088E20995188A898B03EC13E0CAEA9F
:102CE000D3E08091CA039091CB03DC01ED91FC917C
:102CF0000084F185E02D0995892B09F402C18091AA
:102D0000CA039091CB03DC01ED91FC910284F38521
:102D1000E02D099589930C171D0719F72091AA0337
:102D2000263109F0EEC08091AB03893109F0E9C08A
:102D3000EBEAF3E082EC93E0319123278E179F07B3
:102D4000D9F78091C2032813DCC08091AC03809333
:102D5000CC038091AD0390E0982F88272091AE039B
:102D6000820F911D9093CE038093CD038091AF038A
:102D700090E0982F88272091B003820F911D9093A7
:102D8000D0038093CF036091B10370E0762F662764
:102D90008091B203680F711D072E000C880B990BF0
:102DA0000E94711D20E030E040E251E40E94471F84
:102DB0001B012C012092D1033092D2034092D30305
:102DC0005092D4036091B30370E0762F6627809110
:102DD000B403680F711D645F7140072E000C880BEF
:102DE000990B0E94711D20E030E040E251E40E9406
:102DF000471F6B017C01C092D503D092D603E092AD
:102E0000D703F092D8036091B50370E0762F662760
:102E10008091B603680F711D7093DA036093D90334
:102E20004091B70350E0542F44278091B803480FD6
:102E3000511D5093DC034093DB032091B90330E034
:102E4000322F22278091BA03280F311D3093DE03E1
:102E50002093DD038091BB0390E0982F8827E091B9
:102E6000BC038E0F911D9093E0038093DF0380914C
:102E7000BD0390E0982F8827E091BE038E0F911D2F
:102E80009093E2038093E1038091BF0390E0982F39
:102E90008827E091C0038E0F911D9093E4038093E7
:102EA000E3038091C1038093E5037093A9036093CA
:102EB000A8035093A7034093A6033093A503209340
:102EC000A40320E030E040E251E4C201B1010E94DD
:102ED000D01D6093A0037093A1038093A2039093ED
:102EE000A30320E030E040E251E4C701B6010E94B4
:102EF000D01D60939C0370939D0380939E039093D9
:102F00009F038091EA039091EB0301969093EB036A
:102F10008093EA0381369A4E08F491C51092EB0330
:102F20001092EA038AED92E00E94A10C61E0809188
:102F3000CB040E94FD032FB7F8946091E6037091D3
:102F4000E7038091E8039091E9032FBF28EE33E077
:102F500040E050E00E949E1E2093D1043093D204A2
:102F60004093D3045093D4042FB7F8946091E603B0
:102F70007091E7038091E8039091E9032FBF28EE59
:102F800033E040E050E00E949E1E8091D104909179
:102F9000D204A091D304B091D404C090D504D090B1
:102FA000D604E090D704F090D8048C0D9D1DAE1D82
:102FB000BF1D281739074A075B0708F080C40E9425
:102FC0002A05D2CFE091C205F091C305838594858F
:102FD00088974D9708F046C0858596850C970B9786
:102FE00008F040C083E08093F2038CEB91E0909373
:102FF000F0038093EF031092F1030E94E701813008
:1030000089F50E94E701C82F81112CC0C12CD12C59
:103010007601E091C205F091C30590858091F2039D
:10302000891708F069C00E94E701182FC330B1F07A
:103030000E94E701D82FC33021F40E94E701D81382
:1030400011C0113009F04EC0D1110CC0CC0CDD1CE8
:10305000EE1CFF1C6894C0F8CF5FDBCF0E94E70135
:10306000181731F380919003909191038236910566
:1030700008F487C0E0918E03F0918F0382819381E1
:10308000C397859708F07DC0848195814A974397BF
:1030900008F077C020EB31E040E155E060EB71E0F3
:1030A0008CE20E948A0B882309F46BC080E3809332
:1030B0008A038091BE059091BF05A091C005B09193
:1030C000C1058093860390938703A0938803B093F0
:1030D000890382E090E2909385038093840388E0E3
:1030E00090E01ECC1111BECFD13009F0BBCFCC0C7B
:1030F000DD1CEE1CFF1CB0CFC093BC05C092BE050A
:10310000D092BF05E092C005F092C1052C2D30E0B1
:103110008D2DC432F8F480E88093BD053093B90555
:103120002093B8058D2D90E09093B7058093B60558
:10313000E0FE03C088E88093BD05818592858A38CA
:103140009C4028F48091BD0581608093BD058FE08F
:1031500090E0B8CC90E99093BD05D7FE03C098E904
:103160009093BD053093B9052093B8058F7790E013
:103170009093B7058093B605F092BB05E092BA052F
:10318000DCCF8091900390919103CC97E9F5E09189
:103190008E03F0918F0382819381865891098C353B
:1031A000910590F584819581825491098F9760F5FE
:1031B00020E332E040E956E060E372E08CE10E94F7
:1031C0008A0B882309F1E0918E03F0918F03EA586E
:1031D000FF4F8081918108970897B0F48091BE05D8
:1031E0009091BF05A091C005B091C1058093860361
:1031F00090938703A0938803B09389038CE1809315
:103200008A0386E090E08CCB40919003509191032B
:10321000E0918E03F0918F038281938142325105B8
:1032200001F59C012850310927303105D0F4DF0128
:10323000AE5BBF4F2D913C912850310927303105AD
:1032400080F410928A038092860390928703A09262
:103250008803B092890381E08093BD0585E090E00A
:1032600024CB8D57910987359105A0F5443251053E
:1032700088F184819581CE978C9760F52EE032E0BD
:103280004AE256E06EE072E080E10E948A0B8823F9
:1032900009F1E0918E03F0918F03EA5BFF4F80818B
:1032A000918108970797B0F48091BE059091BF0572
:1032B000A091C005B091C1058093860390938703C8
:1032C000A0938803B093890380E180938A0385E00B
:1032D00090E026CBE0918E03F0918F038281938161
:1032E000815491098F9708F04CC080919003909180
:1032F000910384309105D9F4848195818197489711
:1033000008F03FC08681978108970897D0F5109202
:103310008A038092860390928703A0928803B092DA
:10332000890381E08093BD0580E190E0BECA8434CA
:10333000910538F184819581815491098E9708F522
:1033400026E232E042E756E066E272E080E20E9466
:103350008A0B8823B1F08091BE059091BF05A091A2
:10336000C005B091C1058093860390938703A09315
:103370008803B093890380E280938A0380E190E020
:10338000CFCAE091C205F091C3058085823279F5FC
:10339000E0918E03F0918F038281938104970597CA
:1033A00030F5848195810B970A9708F52CE033E07E
:1033B0004CE157E064E071E08FE00E948A0B8823C3
:1033C000B1F08091BE059091BF05A091C005B0916C
:1033D000C1058093860390938703A0938803B093DD
:1033E00089038FE080938A0383E090E099CA00917B
:1033F0009003109191030630110508F4E2CBE0919F
:103400008E03F0918F033296C3E0D0E025EC3DE9C6
:103410004CE151E88AE0F82E8481958161917191A7
:10342000F89E6001F99ED00C1124DB01AA0FBB1F8E
:10343000AA0FBB1FAA0FBB1FE12CCA16DB0688F020
:10344000F69ED001F79EB00D112463E0880F991FFE
:103450006A95E1F7EE24E394A817B90710F482E027
:10346000E82E63E971E080E091E00E948E1E9B01EE
:10347000AC012E2521960C171D0771F620938603AB
:1034800030938703409388035093890380E28093AD
:103490008A0310928303109282031092B505109252
:1034A000B40522CB8091800390918103892B09F48C
:1034B000CAC010928103109280035FCB873728E83F
:1034C00092072FE5A20720EAB20709F4E0C08F3582
:1034D000904AAF45B04A09F074CB8091EC03C1E04B
:1034E0008C278093EC038091EC03882309F471C04E
:1034F0001092020161E08DE00E94FD0361E08AE12B
:103500000E94FD0361E085E10E94FD03C0937F03FB
:10351000109298031092970370929603609295030D
:10352000A0EABFE0B0939403A09393031092990391
:1035300010929B0310929A030E940D0C42CB87338A
:1035400028EC92072FE5A20720EAB20709F4AAC0E7
:1035500010F58F33904CAF45B04A09F032CB109242
:1035600098031092970370929603609295038CE2F1
:1035700091E090939403809393038091EC038823CC
:1035800009F41FCB60E08AE10E94FD0361E08EE058
:103590000E94FD0316CB8F3220ED92072FE5A20784
:1035A00020EAB20709F44FC08F30904FAF45B04AC0
:1035B00009F007CB1092980310929703709296032C
:1035C0006092950380EA9FE0909394038093930325
:1035D000F8CAC093020160E08AE10E94FD0360E046
:1035E00085E10E94FD0360E089E00E94FD0360E048
:1035F00083E00E94FD0360E08DE00E94FD0360E037
:103600008EE00E94FD0310927F038FEC95E00E94F4
:103610008C0892CF109298031092970370929603A1
:103620006092950380EA9FE09093940380939303C4
:103630008091EC03882309F4C4CA61E08AE10E9406
:10364000FD0360E0A4CF81E080937E03BACA80913D
:10365000EC03882309F4B5CA80917F038F5F8093C0
:103660007F03843008F468CF81E080937F0364CFC8
:1036700010929803109297037092960360929503AC
:10368000A8EEB3E0B0939403A09393039ACA109268
:103690009803109297037092960360929503A0E7A7
:1036A000B7E1F0CF109298031092970370929603AF
:1036B0006092950380E49FE187CF61E083E00E9400
:1036C000FD0380919703909198030196909398033E
:1036D00080939703209195033091960380919703EF
:1036E000909198032817390741F460E085E00E9423
:1036F000FD0360E086E00E94FD032091930330917A
:10370000940380919703909198032817390709F043
:103710006BCA61E085E00E94FD0361E086E00E94E3
:10372000FD0310929803109297035ECA60E083E055
:103730000E94FD0360E085E00E94FD0360E086E0FA
:103740000E94FD0351CA809199038130A9F58091AF
:103750009A0390919B03892BC1F48FEC95E00E9412
:103760008C080DEC11E020E050E040E06EEA72E0E1
:103770008FEC95E00E943D060DEB11E021E041E069
:1037800062E08FEC95E00E94020780919A0390918D
:103790009B03883E934009F07BCA82EB92E00E9433
:1037A000AF0C8091A6039091A7030E948D0D80918C
:1037B000A6039091A7036ACA80919903823061F5AC
:1037C00080919A0390919B03892B79F48FEC95E07B
:1037D0000E948C080DEC11E020E050E040E062EA2D
:1037E00072E08FEC95E00E943D0680919A039091E3
:1037F0009B03883E934009F04BCA8AEB92E00E94FB
:10380000AF0C8091A4039091A5030E948D0D80912F
:10381000A4039091A5033ACA80919903833031F5AE
:1038200080919A0390919B03892B09F031CA81EC16
:1038300092E00E94AF0C6091A0037091A10380916F
:10384000A2039091A30342E00E94B10C81E991E0B0
:103850000E94500C6091A0037091A1038091A2037B
:103860009091A30341E00E94350B12CA8091990305
:10387000843009F00DCA80919A0390919B03892BA3
:1038800009F006CA8CEC92E00E94AF0C60919C0398
:1038900070919D0380919E0390919F0342E00E944E
:1038A000B10C81E991E00E94500C60919C037091F1
:1038B0009D0380919E0390919F0340E0D4CF80911F
:1038C000CC04883048F092EF980F9B3008F4BDC0CC
:1038D000893108F4BCC083518770806480937C0078
:1038E00080917A00806480937A0080917A0086FDCE
:1038F000FCCF609178007091790090E080E00E94A8
:103900006F1D20E030E040E85AE30E94D01D20E027
:1039100030E040EA50E40E94D01D6B017C0120E0C1
:1039200030E0A9010E946A1D882309F492C06091C9
:10393000CD047091CE048091CF049091D0040E9468
:103940006F1D1B012C01A701960160E070E080EA69
:1039500090E40E94471F20E030E040E85FE30E94CF
:10396000DA1E9B01AC01C201B1010E94D01D60931F
:10397000DD047093DE048093DF049093E00460E044
:103980008091CB040E94FD038092D1049092D204D6
:10399000A092D304B092D40485EE92E00E94AF0CC2
:1039A00090E080E00E943C0E60930301709304015C
:1039B000809305019093060142E00E94B10C8FEEC6
:1039C00092E00E94AF0C81E090E00E943C0E42E049
:1039D0000E94B10C83E093E00E94A10C8FEE92E074
:1039E0000E94AF0C82E090E00E943C0E42E00E94F8
:1039F000B10C88E093E00E94A10C8FEE92E00E944F
:103A0000AF0C83E090E00E943C0E42E00E94B10CBB
:103A10008FE093E00E94A10C20E030E44CE156E4FA
:103A20006091D9047091DA048091DB049091DC04F8
:103A30000E94EF1F87FD11C081E0809302010E9468
:103A40002A050E9477030C94F513892F45CF8FEF39
:103A500043CF60E070E0CB018ACFC0900301D090EB
:103A60000401E0900501F090060120E030E0A9019A
:103A7000C701B6010E94EF1F87FDE1CF2FE832ECAE
:103A800045EF5CE3C701B6010E94EF1F87FD08C048
:103A900081E08093020186E193E00E94A10CCFCFE8
:103AA00010920201CCCF83E291E090939504809331
:103AB00094048091A2049091A304009711F00E94B5
:103AC00048228091A7049091A804009711F00C94CB
:103AD000482208950E94AC1D08F481E00895E894FE
:103AE00009C097FB3EF490958095709561957F4F46
:103AF0008F4F9F4F9923A9F0F92F96E9BB279395F4
:103B0000F695879577956795B795F111F8CFFAF403
:103B1000BB0F11F460FF1BC06F5F7F4F8F4F9F4F34
:103B200016C0882311F096E911C0772321F09EE892
:103B3000872F762F05C0662371F096E8862F70E0F8
:103B400060E02AF09A95660F771F881FDAF7880FD2
:103B50009695879597F90895990F0008550FAA0B28
:103B6000E0E8FEEF16161706E807F907C0F0121690
:103B70001306E407F50798F0621B730B840B950B93
:103B800039F40A2661F0232B242B252B21F40895E8
:103B90000A2609F4A140A6958FEF811D811D089585
:103BA0000E94E31D0C94541E0E94461E38F00E9491
:103BB0004D1E20F0952311F00C943D1E0C94431ED5
:103BC00011240C94881E0E94651E70F3959FC1F30A
:103BD000950F50E0551F629FF001729FBB27F00DBB
:103BE000B11D639FAA27F00DB11DAA1F649F662710
:103BF000B00DA11D661F829F2227B00DA11D621F5F
:103C0000739FB00DA11D621F839FA00D611D221F18
:103C1000749F3327A00D611D231F849F600D211DFC
:103C2000822F762F6A2F11249F5750409AF0F1F07F
:103C300088234AF0EE0FFF1FBB1F661F771F881FE8
:103C400091505040A9F79E3F510580F00C943D1EC5
:103C50000C94881E5F3FE4F3983ED4F386957795E5
:103C60006795B795F795E7959F5FC1F7FE2B880F8E
:103C7000911D9695879597F9089597F99F6780E824
:103C800070E060E008959FEF80EC089500240A94AE
:103C90001616170618060906089500240A94121627
:103CA0001306140605060895092E0394000C11F45A
:103CB000882352F0BB0F40F4BF2B11F460FF04C007
:103CC0006F5F7F4F8F4F9F4F089557FD9058440F60
:103CD000551F59F05F3F71F04795880F97FB991F6B
:103CE00061F09F3F79F08795089512161306140628
:103CF000551FF2CF4695F1DF08C0161617061806B5
:103D0000991FF1CF86957105610508940895E8948F
:103D1000BB2766277727CB0197F90895DB018F939F
:103D20009F930E94C01EBF91AF91A29F800D911DD5
:103D3000A39F900DB29F900D11240895A1E21A2E19
:103D4000AA1BBB1BFD010DC0AA1FBB1FEE1FFF1F3F
:103D5000A217B307E407F50720F0A21BB30BE40B8F
:103D6000F50B661F771F881F991F1A9469F76095D6
:103D70007095809590959B01AC01BD01CF01089590
:103D80000E94CB1EA59F900DB49F900DA49F800D07
:103D9000911D11240895A29FB001B39FC001A39F5C
:103DA000700D811D1124911DB29F700D811D112474
:103DB000911D08955058BB27AA270E94F21E0C940B
:103DC000541E0E94461E38F00E944D1E20F039F409
:103DD0009F3F19F426F40C94431E0EF4E095E7FB84
:103DE0000C943D1EE92F0E94651E58F3BA17620716
:103DF00073078407950720F079F4A6F50C94871EC5
:103E00000EF4E0950B2EBA2FA02D0B01B9019001F5
:103E10000C01CA01A0011124FF27591B99F0593F39
:103E200050F4503E68F11A16F040A22F232F342F81
:103E30004427585FF3CF469537952795A795F040CF
:103E40005395C9F77EF41F16BA0B620B730B840BE4
:103E5000BAF09150A1F0FF0FBB1F661F771F881F9C
:103E6000C2F70EC0BA0F621F731F841F48F48795F4
:103E700077956795B795F7959E3F08F0B0CF9395E6
:103E8000880F08F09927EE0F9795879508950E945F
:103E90005B1F0C94541E0E944D1E58F00E94461E3B
:103EA00040F029F45F3F29F00C943D1E51110C9411
:103EB000881E0C94431E0E94651E68F39923B1F37B
:103EC000552391F3951B550BBB27AA276217730740
:103ED000840738F09F5F5F4F220F331F441FAA1FD4
:103EE000A9F335D00E2E3AF0E0E832D09150504090
:103EF000E695001CCAF72BD0FE2F29D0660F771F3E
:103F0000881FBB1F261737074807AB07B0E809F023
:103F1000BB0B802DBF01FF2793585F4F3AF09E3FA8
:103F2000510578F00C943D1E0C94881E5F3FE4F31D
:103F3000983ED4F3869577956795B795F7959F5FEB
:103F4000C9F7880F911D9695879597F90895E1E037
:103F5000660F771F881FBB1F621773078407BA0796
:103F600020F0621B730B840BBA0BEE1F88F7E095F1
:103F700008950E94C01F6894B1110C94881E089582
:103F80000E946D1E88F09F5798F0B92F9927B7515E
:103F9000B0F0E1F0660F771F881F991F1AF0BA95ED
:103FA000C9F714C0B13091F00E94871EB1E00895A6
:103FB0000C94871E672F782F8827B85F39F0B93F98
:103FC000CCF3869577956795B395D9F73EF49095A0
:103FD0008095709561957F4F8F4F9F4F08950E94F8
:103FE000AC1D08F48FEF0895FA01EE0FFF1F309615
:103FF00021053105A1F16115710561F48038BFE338
:104000009B0749F168949038810561F08038BFEFD3
:104010009B0741F099234AF5FF3FE1053105210552
:1040200019F1E8940894E795D901AA2329F4AB2F54
:10403000BE2FF85FD0F310C0FF5F70F4A695E0F7D5
:10404000F73950F019F0FF3A38F49F779F930DD06D
:104050000F9007FC9058089546F00C94431E60E0C2
:1040600070E080E89FE308954FE79F775F934F9359
:104070003F932F930E94F4202F913F914F915F9196
:104080000E94D01D0C9451200E94AC1D880B990BEE
:10409000089529F416F00C943D1E0C94871E0C9480
:1040A000431E0E946D1EA8F39638A0F707F80F92E2
:1040B000E8942BE33AEA48EB5FE70E94E61D0F9293
:1040C0000F920F924DB75EB70F920E943C21E4EB26
:1040D000F0E00E9483204F915F91EF91FF91E59571
:1040E000EE1FFF1F49F0FE57E0684427EE0F441F04
:1040F000FA95E1F74195550B0E94B6200F9007FE07
:104100000C94AA200895DF93CF931F930F93FF92EF
:10411000EF92DF927B018C01689406C0DA2EEF01EA
:104120000E94E31DFE01E894A591259135914591EA
:104130005591A6F3EF010E94F21EFE019701A8011E
:10414000DA9469F7DF90EF90FF900F911F91CF9174
:10415000DF9108959B01AC0160E070E080E89FE38F
:104160000C94471F0C943D1E0C9470210E946D1EF0
:10417000D8F39923C9F3940F511DA3F391505040E4
:1041800094F059F0882332F0660F771F881F915002
:104190005040C1F79E3F51052CF7880F911D969511
:1041A000879597F908955F3FACF0983E9CF0BB2748
:1041B000869577956795B79508F4B1609395C1F7A3
:1041C000BB0F58F711F460FFE8CF6F5F7F4F8F4F41
:1041D0009F4FE3CF0C94881E16F00C9470210C9422
:1041E000431E68940C943D1E0E946D1EA8F39923F3
:1041F000C1F3AEF3DF93CF931F930F93FF92C92FB9
:10420000DD2788232AF02197660F771F881FDAF7AA
:1042100020E030E040E85FEB9FE3883920F0803E0B
:1042200038F021968F770E94DB1EECEDF0E004C0A1
:104230000E94DB1EE9E0F1E00E9483208B01BE01B9
:10424000EC01FB2E6F5771097595771F880B990B41
:104250000E94711D28E132E741E35FE30E94E31D04
:10426000AF2D9801AE01FF900F911F91CF91DF917B
:104270000E94F21E0C94541EFA01DC01AA0FBB1F0F
:104280009B01AC01BF5728F42227332744275078DD
:1042900020C0B75190F4AB2F002446953795279551
:1042A000011CA395D2F3002071F0220F331F441F8D
:1042B000B395DAF30ED00C94DA1E61307105A0E8E4
:1042C0008A07B94630F49B01AC0166277727882717
:1042D0009078309621F02083318342835383089570
:1042E0009F3F31F0915020F4879577956795B7956A
:1042F000880F911D9695879597F90895AA1BBB1B6A
:1043000051E107C0AA1FBB1FA617B70710F0A61BD5
:10431000B70B881F991F5A95A9F780959095BC01F6
:10432000CD01089597FB072E16F4009407D077FD72
:1043300009D00E947E2107FC05D03EF4909581951E
:104340009F4F0895709561957F4F0895EE0FFF1F61
:104350000590F491E02D09940F931F93CF93DF9371
:104360008230910510F482E090E0E091F605F09142
:10437000F70530E020E0B0E0A0E0309799F4211597
:10438000310509F44AC0281B390B24303105D8F512
:104390008A819B816115710589F1FB019383828379
:1043A000FE0111C0408151810281138148175907D4
:1043B000E0F04817590799F4109761F012960C93A2
:1043C000129713961C933296CF01DF91CF911F91D4
:1043D0000F9108950093F6051093F705F4CF21157A
:1043E000310551F04217530738F0A901DB019A015A
:1043F000BD01DF01F801C1CFEF01F9CF9093F705BF
:104400008093F605CDCFFE01E20FF31F81939193C8
:104410002250310939832883D7CF2091F405309178
:10442000F505232B41F42091090130910A013093C5
:10443000F5052093F405209107013091080121151D
:10444000310541F42DB73EB740910B0150910C015D
:10445000241B350BE091F405F091F505E217F30705
:10446000A0F42E1B3F0B2817390778F0AC014E5FE4
:104470005F4F2417350748F04E0F5F1F5093F50527
:104480004093F405819391939FCFF0E0E0E09CCFBF
:10449000CF93DF930097E9F0FC01329713821282E9
:1044A000A091F605B091F705ED0130E020E01097FE
:1044B000A1F420813181820F931F2091F405309166
:1044C000F5052817390709F061C0F093F505E09369
:1044D000F405DF91CF910895EA01CE17DF07E8F5E3
:1044E0004A815B819E0141155105B1F7E901FB83CA
:1044F000EA8349915991C40FD51FEC17FD0761F468
:10450000808191810296840F951FE90199838883A8
:10451000828193819B838A83F0E0E0E012968D9103
:104520009C9113970097B9F52D913C911197CD016E
:104530000296820F931F2091F4053091F5052817FC
:10454000390739F6309751F51092F7051092F605B4
:10455000B093F505A093F405BCCFD383C28340810B
:104560005181840F951FC817D90761F44E5F5F4FC3
:1045700088819981480F591F518340838A819B818B
:10458000938382832115310509F0B0CFF093F705AD
:10459000E093F6059ECFFD01DC01C0CF13821282AD
:1045A000D7CF11E0C6E4D1E004C0FE010E94A621ED
:0C45B0002196C734D107C9F7F894FFCF5B
:1045BC00C309016F12833A0000F805800000000067
:1045CC00000A037402A1025703D202B002C4020013
:1045DC00000000CC0A9B0AFD0A3506950A840A6F76
:1045EC000A00000000340BFF0E0000000080073FA3
:1045FC00072F072E070207C106B8068E063D0621B7
:10460C00073A0614073606350625061506DA05BDE3
:10461C00058C0542050000000052088C082F072E5F
:10462C00070207C106B8068E063D0621073A061496
:10463C000790077F095C093909D508BD05AB08E46B
:10464C00070D0A006E616E00696E66006F7666007B
:10465C007365747365676D656E74496E743A20008A
:10466C006D6F746F722073706565642E2E2E0061F1
:10467C006D31303038772073746172742E2E2E00A9
:10468C0069722073746172742E2E2E006D71313329
:10469C00312073746172742E2E2E0070696E20633B
:1046AC006F6E6669672073746172742E2E2E0065AE
:1046BC006E642E2E2E005468652066756E637469C8
:1046CC006F6E206465636F64652826726573756C04
:1046DC007473292920697320646570726563617431
:1046EC00656420616E64206D6179206E6F74207733
:1046FC006F726B20617320657870656374656421DB
:10470C00204A75737420757365206465636F6465E6
:10471C00282920776974686F757420612070617224
:10472C00616D6574657220616E64204972526563B7
:10473C0065697665722E6465636F6465644952447D
:10474C006174612E3C6669656C646E616D653E20BA
:10475C002E0050313000706D312E303A2000503226
:10476C003500706D322E353A2000706D31303A20A4
:10477C000068756D69646974793A200074656D70B0
:10478C00657261747572653A200052656164696E78
:10479C00672E2E2E004F332056616C75653A004300
:1047AC006F6E63656E74726174696F6E204F332027
:1047BC003A20002070706200206D672F6D3300204E
:1047CC0075672F6D3300506C617A6D61204F666692
:0447DC002E2E2E004F
:00000001FF
