:100000000C94DB000C9403010C9403010C94030189
:100010000C9403010C9403010C9403010C94030150
:100020000C946C030C9403010C9403010C940301D5
:100030000C9403010C9403010C9403010C94030130
:100040000C9450190C9403010C94821C0C94B41C55
:100050000C9403010C9403010C9403010C94030110
:100060000C9489130C9403010086227E6D0000021B
:1000700030066300044080523F065B4F666D7D276B
:100080007F6F0000004800535F777F393F79713DF3
:1000900076061E693815373F7367316D783E2A1D25
:1000A000766E5B39640F0008205F7C585E7B316F91
:1000B00074040E753055545C7367506D781C2A1D9E
:1000C000766E47460670013F065B4F666D7D077F83
:1000D0006F777C395E79710086227E6D0000023078
:1000E000066300044080523F065B4F666D7D277FAC
:1000F0006F0000004800535F777F393F79713D768C
:10010000061E693815373F7367316D783E2A1D76B4
:100110006E5B39640F0008205F7C585E7B316F7422
:10012000040E753055545C7367506D781C2A1D762B
:100130006E47460670013F065B4F666D7D077F6F19
:10014000777C395E79710000000900030200000429
:10015000050800000000000000000000000102048B
:100160000810204080010204081020010204081039
:100170002040804004040404040404040202020237
:10018000020203030303030302020300000000232F
:10019000002600290000000000250028002B000098
:1001A000000000240027002A0000B105B60A930BC6
:1001B0008912E41CF50911241FBECFEFD8E0DEBF81
:1001C000CDBF13E0A0E0B1E0E4E9F6E402C00590A1
:1001D0000D92A632B107D9F726E0A6E2B3E001C03E
:1001E0001D92AA37B207E1F710E0CAEDD0E004C0D3
:1001F0002197FE010E941222C53DD107C9F70E9436
:10020000121D0C943D230C94000082E08093B000FA
:100210008093B10084E68093B3008093B400109281
:10022000B2000895982F8091C404882379F08091BA
:10023000C304992329F061E0811105C02D9A089526
:10024000882319F060E00C94F91A2D980895A7ED11
:10025000B3E011966C93119770E0FB01E35AFE4FE7
:10026000E4911496EC931497FB01EC58FE4FE49143
:10027000F0E0EE0FFF1FE557FE4F85919491139626
:100280009C938E931297089527ED33E0FC013787F6
:10029000268760E00E942701E3ECF4E010821182DF
:1002A000089527ED33E0FC01378726870E94270158
:1002B000E3ECF4E01082118208958091D70383303B
:1002C00011F41092D7030895CF93DF93EC01F894C3
:1002D0000E94050184E080937000CE010E945D01C0
:1002E000789460E08091D803DF91CF910C94BD1A8F
:1002F0006093D6035093D2034093D1031092D3035B
:1003000008958AE0849FF001859FF00D11249B01E0
:1003100093E0220F331F9A95E1F7E217F30778F085
:10032000869F9001879F300D112483E0440F551F55
:100330008A95E1F72417350720F081E0089580E0E1
:10034000089582E008958F929F92AF92BF92CF92CC
:10035000DF92EF92FF920F931F93CF93DF93FB01F6
:10036000C684D784F6E0CF16D10408F448C0EB0168
:100370008C0132E0E32EF12C45EC842E4DE9942ED5
:100380004CE1A42E41E8B42E2FEFE21AF20ACE146B
:10039000DF04E1F0EC85FD85C701880F991FE80FA8
:1003A000F91F40815181349760817181C8010E9499
:1003B0008101E82FA501940163E971E080E091E0FB
:1003C0000E949E214B015C018E26DECF8C829D8295
:1003D000AE82BF8280E2888719821882F80111827A
:1003E000108281E0DF91CF911F910F91FF90EF90EC
:1003F000DF90CF90BF90AF909F908F90089580E056
:10040000F1CF9C01FB01CB0163E470E00E94AE21BF
:100410002617370758F0CF0168E270E00E94AE213E
:100420006F5F7F4F81E06217730708F480E00895E3
:10043000BF92CF92DF92EF92FF920F931F93CF93D1
:10044000DF93DC011E96ED91FC911091D60380851F
:10045000B12C1817B0F5B12FB170BB2E0091D3039A
:10046000011120C0812F90E0880F991FE80FF91F1C
:10047000C184D284CCEEDFEFBB2311F0C4E1D0E025
:10048000E090D103F090D203CE0DDF1DBE01C60176
:100490000E940102882301F181E090E09093D5034E
:1004A0008093D4030F5F0093D3038091D403909182
:1004B000D5030817190628F01092D3031F5F109375
:1004C000D6038B2DDF91CF911F910F91FF90EF906D
:1004D000DF90CF90BF900895CE0DDF1DBE01C60105
:1004E0000E940102882319F082E090E0D7CFB70183
:1004F0006C0F7D1FC6010E940102882319F083E062
:1005000090E0CCCFBB24BA94DCCFFC019B012C5EE5
:100510003F4FC90163E470E00E94AE21E617F70780
:1005200058F0C90168E270E00E94AE216F5F7F4F12
:1005300081E06E177F0708F480E00895FC019B01BD
:1005400024513109C90163E470E00E94AE21E6172D
:10055000F70758F0C90168E270E00E94AE216F5FB2
:100560007F4F81E06E177F0708F480E008952F9297
:100570003F924F925F926F927F928F929F92AF9233
:10058000BF92CF92DF92EF92FF920F931F93CF9380
:10059000DF9300D000D01F92CDB7DEB79B838A8354
:1005A0006983190138018701842F90E0880F991F12
:1005B0000996EA81FB8146855785840F951F9D83A7
:1005C0008C83CC20A1F1912CC12CD12C7601F98106
:1005D0009F1609F479C0B101EC81FD818081918180
:1005E0000E948502882309F457C0EC81FD81A28016
:1005F000B380B301C5010E949E02882369F0CC0C30
:10060000DD1CEE1CFF1C6894C0F88C819D81049653
:100610009D838C839394DBCFB801C5010E949E0219
:100620008823D1F1CC0CDD1CEE1CFF1CEECF812CFD
:10063000912C54018394C12CD12C7601998199235A
:1006400009F442C0B101EC81FD81808191810E9459
:100650008502882309F1EC81FD8142805380B3013A
:10066000C2010E949E02882389F0C828D928EA285E
:10067000FB288C819D8104969D838C83880C991C1A
:10068000AA1CBB1C998191509983D8CFB801C20193
:100690000E949E028111EDCF0F900F900F900F904E
:1006A0000F90DF91CF911F910F91FF90EF90DF900E
:1006B000CF90BF90AF909F908F907F906F905F9002
:1006C0004F903F902F900895EA81FB81C286D38698
:1006D000E486F58681E0E0CF1F920F920FB60F926D
:1006E00011242F933F934F935F936F937F938F9337
:1006F0009F93AF93BF93EF93FF93E091D903F09152
:10070000DA0390818091DB0398232091DC03309100
:10071000DD032F3F320731F02F5F3F4F3093DD0372
:100720002093DC038091D703811132C0911116C050
:100730002091DC033091DD032536310558F010920D
:10074000DE033093E1032093E00381E08093DF0335
:100750008093D7031092DD031092DC038091C404D0
:10076000882329F081E0911180E00E941201FF911D
:10077000EF91BF91AF919F918F917F916F915F9119
:100780004F913F912F910F900FBE0F901F90189592
:100790008091D7038130A1F4992301F32091DC03E8
:1007A0003091DD03E091DF038E0F8093DF03F0E0F3
:1007B000EE0FFF1FE952FC4F3287218782E0C8CF3E
:1007C0008091D703823041F591111AC0E091DF0387
:1007D000E43628F081E08093DE0383E0B9CF2091F6
:1007E000DC033091DD0381E08E0F8093DF03F0E0C6
:1007F000EE0FFF1FE952FC4F3287218781E0A8CF1F
:100800002091DC033091DD032536310508F4A6CFB5
:1008100083E08093D703A2CF8091D703833009F080
:100820009DCF992309F496CF99CFFF920F931F93F1
:10083000CF93DF932091D703F12C233091F5EB0177
:100840008C018091D003811109C069E071E089EDCC
:1008500095E00E94741D81E08093D00380EE93E0C8
:100860009D878C878091DF0390E09F878E878091A2
:10087000DE03882321F01092DE031092DF038091C3
:10088000DE03888B1C821D821E821F8280E8F80195
:100890008187BE01C8010E94330D882349F0FF24DF
:1008A000F3948F2DDF91CF911F910F91FF900895B9
:1008B000BE01C8010E944E0F8111F1CFC8010E94F4
:1008C000BB0DF82E882381F0F8018085888782850A
:1008D0009385A485B5858C839D83AE83BF838EE08D
:1008E00090E099838883DDCFC8010E942E0EF82EF8
:1008F000882371F0F8018085888782859385A48597
:10090000B5858C839D83AE83BF838FE090E0E9CF74
:10091000BE01C8010E947B0C8111C1CFBE01C8017C
:100920000E94D30C8111BBCFBE01C8010E94EF0B06
:100930008111B5CFBE01C8010E94D40E8111AFCF85
:10094000BE01C8010E949B0B8111A9CFBE01C80145
:100950000E94A301F82E8111A2CFC8010E945D015F
:10096000A0CF809106019091070101969093070115
:1009700080930601843C994009F05DC01092070104
:100980001092060181E793E00E944210811153C04A
:1009900065EA71E089ED95E00E94741D81E793E0BE
:1009A0000E941511863009F456C008F045C088230E
:1009B00009F44EC067EC71E0853009F444C081E76A
:1009C00093E00E9424119093C4038093C30381E7B2
:1009D00093E00E9428119093C2038093C10381E7A2
:1009E00093E00E942C119093C0038093BF0381E792
:1009F00093E00E94181120E030E040E251E40E94B0
:100A00002C216093BB037093BC038093BD03909330
:100A1000BE0381E793E00E941E1120E030E040E237
:100A200051E40E942C216093B7037093B803809324
:100A3000B9039093BA0308958C3081F06EE072E0B0
:100A40008D3009F0BCCF89ED95E00E94741DB7CFC1
:100A500061EC71E0F8CF6DED71E0F5CF64EF71E01E
:100A6000F2CF8091CE03813099F028F08230D9F016
:100A7000833001F1089560E080E10E94F91A60E09E
:100A80008FE00E94F91A70E060E089E00C94371A58
:100A900061E080E10E94F91A61E08FE00E94F91A9A
:100AA0006CED70E0F2CF60E08FE00E94F91A6FEF1A
:100AB00070E0EBCF60E080E10E94F91A61E08FE026
:100AC0000E94F91A64EB70E0E0CF8091080188235E
:100AD00019F08130C9F1089561E083E00E94F91AAC
:100AE0008091C7039091C80301969093C8038093A7
:100AF000C7032091C9033091CA038091C703909125
:100B0000C8032817390741F460E085E00E94F91A0C
:100B100060E086E00E94F91A2091CB033091CC036B
:100B20008091C7039091C80328173907C9F461E081
:100B300085E00E94F91A61E086E00E94F91A10929D
:100B4000C8031092C703089560E083E00E94F91A79
:100B500060E085E00E94F91A60E086E00C94F91AE2
:100B60000895CF92EF920F9388EA94E00E94440197
:100B7000E3ECF4E010821182CC24C39487E0E82EE9
:100B800001E024E04CE06BE08DEA93E00E94A816BF
:100B900064E186E593E00E94510140E157E260E0A4
:100BA00070E086E293E00F91EF90CF900C94130BDE
:100BB000CF9365E473E086E593E00E9415048823F3
:100BC00009F436C14091490350914A0360914B03A7
:100BD00070914C032AE030E089ED95E00E94521EAE
:100BE0008091490390914A03A0914B03B0914C032B
:100BF000843421E9920729EFA20725E8B20709F416
:100C0000DEC080F5811526E3920727E8A20726E4D7
:100C1000B20709F462C058F48832944FA24DBE4026
:100C200009F4E8C086E593E0CF910C945D01843E21
:100C30002EE1920722E3A20725E5B20709F44DC091
:100C4000803A9C41AB48B94669F71092C8031092AC
:100C5000C7038AE090E09093CA038093C90380EAB7
:100C60009FE0D4C084302DEE92072DE7A2072AEA38
:100C7000B20709F450C0A8F484329644A744BF498F
:100C800089F68091CF03882369F28091CE038F5F2C
:100C90008093CE03843008F46EC081E08093CE034D
:100CA0006AC084302CE892072DEDA20721EEB2072E
:100CB00009F4B1C084349640AD4FBB4E09F0B2CFB9
:100CC0001092C8031092C7038AE090E09093CA0381
:100CD0008093C90380ED97E099C01092C8031092E9
:100CE000C7038AE090E09093CA038093C90386E922
:100CF00090E09093CC038093CB038091CF03882323
:100D000009F490CF60E082E00E94F91A61E08EE081
:100D10000E94F91A87CF8091CF03C1E08C2780937E
:100D2000CF038091CF03882349F11092080161E03D
:100D30008DE00E94F91A61E082E00E94F91A61E0F8
:100D400085E10E94F91AC093CE031092C803109255
:100D5000C7038AE090E09093CA038093C90380EDB3
:100D600097E09093CC038093CB031092CD03109225
:100D7000C6031092C5030E94310554CFC0930801E9
:100D800060E082E00E94F91A60E085E10E94F91AB1
:100D900060E089E00E94F91A60E083E00E94F91A9D
:100DA00060E08DE00E94F91A60E08EE00E94F91A7E
:100DB0001092CE038DEA93E00E94DF14DCCF1092F4
:100DC000C8031092C7038AE090E09093CA0380930F
:100DD000C90380ED97E09093CC038093CB0380917F
:100DE000CF03882309F41ECF61E082E00E94F91A44
:100DF00060E08DCF1092C8031092C7038AE090E0A4
:100E00009093CA038093C90384EF91E09093CC033D
:100E10008093CB0307CF1092C8031092C7038AE0D8
:100E200090E09093CA038093C90388EB9BE0EECFD8
:100E3000CF910895CF92DF92EF92FF920F931F937D
:100E400048EB5BE060E070E085EC94E00E947D0A96
:100E500040E05BE460E070E085EC94E00E94660AAC
:100E600061E085EC94E00E94350A882391F064E209
:100E700072E089ED95E00E94611D4AE050E060E07B
:100E800070E085EC94E00E94200A85EC94E00E94DA
:100E9000650A41E060E085EC94E00E94F20A61E0BE
:100EA00085EC94E00E94350A882351F065E372E0F6
:100EB00089ED95E00E94611D85EC94E00E94650A31
:100EC00080918100887F82608093810061E089E069
:100ED0000E94BD1A6AE275E081E793E00E94F30F79
:100EE00081E793E00E943D1086E593E00E94640153
:100EF000D12CC12C10E1E12E17E2F12E00E010E020
:100F000030E020E046E063E086E293E00E943E0BA2
:100F100040E050E86BEB75E486E293E00E948D0BB5
:100F20004CE350E060E070E086E293E00E94870BC3
:100F300026E040E05BE460E070E089ED95E00E942F
:100F40002A1C61E083E00E94BD1A61E085E00E94F6
:100F5000BD1A61E086E00E94BD1A61E082E00E9455
:100F6000BD1A61E089E00E94BD1A61E08DE00E9437
:100F7000BD1A61E08FE00E94BD1A61E080E10E942D
:100F8000BD1A61E08EE00E94BD1A61E085E10E9419
:100F9000BD1A8DEA93E01F910F91FF90EF90DF90C3
:100FA000CF900C94DF148F929F92AF92BF92EF92EA
:100FB000FF920F931F93CF93DF934B015C01F42EAD
:100FC0008DEA93E00E94DF14C501B4010E943F2026
:100FD000EB01CB0164E670E00E94C221E62E42E004
:100FE000BC018DEA93E00E9456172AE030E0CE0162
:100FF000B9010E94C221CB01B9010E94C22107ECB4
:1010000010E021E041E0682F8DEA93E00E94441750
:1010100020E040E06E2D8DEA93E00E94441720E02E
:1010200043E061E0F11005C007EC10E020E043E090
:1010300065E08DEA93E00E944417DF91CF911F9104
:101040000F91FF90EF90BF90AF909F908F90089579
:10105000EF92FF920F931F93CF93DF937C018DEA62
:1010600093E00E94DF146CE372E089ED95E00E944A
:10107000611D6091B5037091B6034AE050E089EDBF
:1010800095E00E94261EF092B603E092B50380918F
:10109000B5039091B60364E670E00E94C22107ECAC
:1010A00010E020E042E0682F8DEA93E00E944417B0
:1010B0008AE0E816F1040CF454C08091B5039091D5
:1010C000B603CAE0D0E0BE010E94C2217093B6030D
:1010D0006093B5036CE372E089ED95E00E94611DB9
:1010E0006091B5037091B6034AE050E089ED95E058
:1010F0000E94261E8091B5039091B603BE010E9406
:10110000C22120E041E0682F8DEA93E00E9444175D
:1011100084E6E816F1042CF18091B5039091B603B2
:10112000BE010E94C2217093B6036093B5036CE3C5
:1011300072E089ED95E00E94611D6091B5037091A8
:10114000B6034AE050E089ED95E00E94261E6091CA
:10115000B5037091B60320E040E08DEA93E00E9471
:101160004417DF91CF911F910F91FF90EF90089559
:101170000F931F938091C5039091C603019690939E
:10118000C6038093C503883E934079F48091CD03D4
:101190008F5F8093CD031092C6031092C503809198
:1011A000CD03853010F01092CD038091CD038111D5
:1011B0003EC08091C5039091C6030197C1F48DEAAA
:1011C00093E00E94DF1408E610E020E050E040E0E9
:1011D0006CE472E08DEA93E00E94CA1707EC10E01D
:1011E00021E041E061E08DEA93E00E9444178091A4
:1011F000C5039091C603843F914009F0E1C060E5CA
:1012000072E089ED95E00E94611D6091C3037091C9
:10121000C4034AE050E089ED95E00E94261E8091CB
:10122000C3039091C4031F910F910C9428088091DF
:10123000CD038130D9F58091C5039091C603892BE8
:10124000C1F48DEA93E00E94DF1408E610E020E08C
:1012500050E040E068E572E08DEA93E00E94CA1732
:1012600007EC10E021E041E062E08DEA93E00E94AB
:1012700044178091C5039091C603843F914009F0C3
:101280009FC06CE572E089ED95E00E94611D609160
:10129000C1037091C2034AE050E089ED95E00E94DD
:1012A000261E8091C1039091C203BDCF8091CD03D2
:1012B000823091F58091C5039091C603892B79F412
:1012C0008DEA93E00E94DF1408E610E020E050E091
:1012D00040E06CE472E08DEA93E00E94CA178091CE
:1012E000C5039091C603843F914009F069C064E64C
:1012F00072E089ED95E00E94611D6091BF037091DD
:10130000C0034AE050E089ED95E00E94261E8091DE
:10131000BF039091C00387CF8091CD03833041F507
:101320008091C5039091C603892B09F049C06BE6F3
:1013300072E089ED95E00E94611D4091BB035091E0
:10134000BC036091BD037091BE0322E030E089EDE3
:1013500095E00E94481F6091BB037091BC0380918F
:10136000BD039091BE0341E01F910F910C94D307F0
:101370008091CD03843021F58091C5039091C603FF
:10138000892BF1F466E772E089ED95E00E94611D1A
:101390004091B7035091B8036091B9037091BA03BB
:1013A00022E030E089ED95E00E94481F6091B7038C
:1013B0007091B8038091B9039091BA0340E0D4CF03
:1013C0001F910F9108950E94D8058091CF03882323
:1013D00031F00E9465050E94B8080E94B10461E0E6
:1013E00070E080E090E00C94CB1986E293E00C94DE
:1013F0000E0B8F929F92AF92BF92CF92DF92EF929D
:10140000FF926A017B010E949A194B015C01C80C92
:10141000D91CEA1CFB1C0E949A19681579058A05DB
:101420009B0528F0C616D706E806F906A0F7FF9038
:10143000EF90DF90CF90BF90AF909F908F900895E6
:1014400021E00C94F909FC0116821782108611869E
:10145000128613861486158616861786108A118AB8
:10146000128A138A148A158A08950F931F93CF93B3
:10147000DF93EC0161111DC00E949A190A811B8142
:101480002C813D81DC01CB01801B910BA20BB30BA6
:1014900084369105A105B10560F444E650E060E0B2
:1014A00070E0481B590B6A0B7B0B21E0CE010E94B8
:1014B000F9090E949A196A837B838C839D8381E05A
:1014C000DF91CF911F910F9108950895CF92DF92F0
:1014D000EF92FF926A017B0168EE73E080E090E09A
:1014E0000E94CB1926E0B701A60189ED95E0FF9097
:1014F000EF90DF90CF900C942A1CFC01EE5BFF4F25
:101500001082118212821382FC01128213821482D1
:101510001582411551056105710511F00C94200AE1
:1015200008951F93CF93DF93EC01162F61E00E9483
:10153000350A64E872E089ED95E00E94611D4AE099
:1015400050E0612F89ED95E00E94451E6BE872E046
:1015500089ED95E00E94741D42E350E060E070E088
:10156000CE01DF91CF911F910C94200A85EC94E07D
:101570000C94230A1F93CF93DF93FC012689222327
:1015800069F1162FEC0189ED95E00E94501B811145
:101590000BC085E6DF91CF911F910895213731056A
:1015A000E9F026373105B1F389ED95E00E94501B33
:1015B000882379F389ED95E00E946A1B9C0133270B
:1015C0002836310559F054F72835310549F02336CE
:1015D000310551F7612FCE010E94910A83E6DACFDF
:1015E0001E8AFCCF1F93CF93DF93EC01142F662349
:1015F00081F081E08E8B60E0CE010E94BA0A8336D2
:1016000041F041E050E060E070E0CE010E94200A2D
:10161000F2CF1E8BDF91CF911F91089508956FE156
:1016200070E00C94231DFC0186E992E09183808395
:101630001582148216828FEF878380878FEF9FEF4A
:10164000DC0185879687A787B08B818B928BA38BD4
:10165000B48B80E090E0A0E8BFEB858B968BA78BE6
:10166000B08F818F928FA38FB48F84E1858F81E4B7
:10167000868F41875287638774870895CF92DF9260
:10168000EF92FF920F931F93CF93DF93EC01862F7E
:1016900091E0C114D10409F490E09E83DD82CC82F4
:1016A0003B832A838F834887E986FA860B871C87CA
:1016B0002130310539F118F02230310581F44AE04A
:1016C00057EA6FEE74E44D8B5E8B6F8B788F40E53D
:1016D00050E060E070E0498B5A8B6B8B7C8B61E053
:1016E0000E94BD1A60E088850E94BD1A60E08F816B
:1016F000DF91CF911F910F91FF90EF90DF90CF90EE
:101700000C94F91A40E050E06BE673E4DCCFFC0186
:10171000418B528B638B748B0895FC01458B568BE8
:10172000678B708F089540E452E46FE070E08BE0C7
:1017300095E00C94130BAF92BF92CF92EF92FF9271
:101740000F931F93CF93DF93DC011E96ED91FC91D5
:101750002085223259F080E0DF91CF911F910F91C7
:10176000FF90EF90CF90BF90AF900895EB015C0198
:10177000EC85FD8564E071E0828193810E948502A1
:10178000882349F3EC85FD856CE073E084819581C5
:101790000E949E028823F9F2CC24C3948CE0E82EA8
:1017A00083E0F82E0CE117E024E031E043E06FE045
:1017B000C5010E94B702882371F2F5014285538565
:1017C000648575854C835D836E837F839FE09887F6
:1017D00023E030E03983288331832083BDCFAF926B
:1017E000BF92CF92EF92FF920F931F93CF93DF930D
:1017F0005C01EB018E859F85829769F5EC85FD85FF
:101800006EE072E0828193810E948502882319F143
:101810008E859F8581509048880F991F2C853D8526
:10182000820F931F6EE072E0FC01808191810E9423
:101830008502882381F018864FEF5FEFBA014C8351
:101840005D836E837F8391E0F501918725E030E031
:10185000318320830BC0EC85FD8560EE70E28281D0
:1018600093810E94850281110BC080E0DF91CF91AE
:101870001F910F91FF90EF90CF90BF90AF90089580
:101880008E859F85849788F3EC85FD8560E770E100
:10189000848195810E949E02882339F3CC24C394CD
:1018A0008EE0E82E82E0F82E0AE216E02EE032E02A
:1018B00043E060E1C5010E94B7028823B1F2EC85E4
:1018C000FD85EA5BFF4F6EE072E0808191810E94AE
:1018D0008502882351F2F50142855385648575851B
:1018E0004C835D836E837F8390E1988725E030E0B1
:1018F00039832883ADCFAF92BF92CF92EF92FF9200
:101900000F931F93CF93DF93FB01268537852236F4
:10191000310558F480E0DF91CF911F910F91FF9036
:10192000EF90CF90BF90AF900895EB015C010484DD
:10193000F585E02D60E87DE0828193810E9485023B
:10194000882341F3EC85FD8560EC76E08481958108
:101950000E9485028823F1F2CC24C39480EBE82E08
:10196000FF24F39400E115E020EB31E043E06CE26A
:10197000C5010E94B702882369F290E39887F501B8
:1019800042855385648575854C835D836E837F8333
:1019900022E030E23B832A8328E030E03983288349
:1019A00031832083B8CFAF92BF92CF92EF92FF9254
:1019B0000F931F93CF93DF93FB01268537852C333D
:1019C000310559F080E0DF91CF911F910F91FF9089
:1019D000EF90CF90BF90AF900895EB015C0104842D
:1019E000F585E02D60E073E2828193810E9485029B
:1019F000882341F3EC85FD8560E871E18481958160
:101A00000E949E028823F1F2CC24C39480E3E82E46
:101A100082E0F82E00E916E020E332E043E06CE1DA
:101A2000C5010E94B702882369F2EC85FD85EA585A
:101A3000FF4F60E372E0808191810E9485028823DC
:101A400009F2F50142855385648575854C835D8374
:101A50006E837F839CE1988726E030E0398328837A
:101A600031832083B0CFAF92BF92CF92EF92FF929B
:101A70000F931F93CF93DF935C01EB01EC85FD8502
:101A800060E073E2828193810E94850281110BC024
:101A900080E0DF91CF911F910F91FF90EF90CF9059
:101AA000BF90AF9008958E859F85049729F5EC85AA
:101AB000FD8560EC78E0848195810E949E028823F8
:101AC000D9F0EC85FD8560E372E0868197810E9404
:101AD0008502882389F018864FEF5FEFBA014C83A7
:101AE0005D836E837F83F50191859160918727E007
:101AF00030E031832083CDCF8E859F85843491055E
:101B000039F6EC85FD8560E871E1848195810E945C
:101B10009E02882309F4BCCFCC24C39480E3E82E32
:101B200082E0F82E00E916E020E332E043E060E2D4
:101B3000C5010E94B702882309F4AACFEC85FD8570
:101B4000EA57FF4F60E372E0808191810E94850235
:101B5000882309F49DCFF5014285538564857585F9
:101B60004C835D836E837F8390E2988727E030E02B
:101B700039832883BECFCF92DF92EF92FF920F93EB
:101B80001F93CF93DF93EC0149E753E061E00E949C
:101B90007801CE010E941802813051F080E0DF917F
:101BA000CF911F910F91FF90EF90DF90CF9008950C
:101BB000C12CD12C760110E0EE85FF8590858091B7
:101BC000D6038917E0F4CE010E941802082FCE0137
:101BD0000E94180201110AC0813001F7CC0CDD1CF3
:101BE000EE1CFF1C6894C0F81F5FE6CF0130B1F611
:101BF0008111D4CFCC0CDD1CEE1CFF1CF5CF188757
:101C0000CA86DB86EC86FD868C2D8F7390E09D83E3
:101C10008C83960146E0369527954A95E1F72F711A
:101C200033273B832A83960122273071232B21F40B
:101C3000805C9F4F9D838C8380E8D3FC88E88987F4
:101C400081859285833E984018F4898581608987D3
:101C50008EE090E09983888381E0A1CFAF92BF921C
:101C6000CF92DF92EF92FF920F931F93CF93DF9368
:101C7000EC01EE85FF8568E67AE0838594850E9415
:101C8000850281110DC000E0802FDF91CF911F915F
:101C90000F91FF90EF90DF90CF90BF90AF9008959D
:101CA000EE85FF8568E773E0858596850E949E0234
:101CB000082F882341F34CEB51E063E0CE010E94F2
:101CC0007801CE010E9418028130E9F6CE010E940F
:101CD0001802182F8111D7CFC12CD12C7601EE8597
:101CE000FF8590858091D603891770F5CE010E94FB
:101CF0001802A82E1330C1F0CE010E941802B82E8F
:101D0000133029F4CE010E9418028B11BCCF21E0C0
:101D1000A21210C0B110B7CFCC0CDD1CEE1CFF1C02
:101D20006894C0F81F5FDBCFCE010E9418028A15AD
:101D300019F3A9CFA110A7CF81E0B812A4CFCC0C82
:101D4000DD1CEE1CFF1CEECF1887CA86DB86EC86F6
:101D5000FD862C2D30E08D2D1432C8F480E8898763
:101D60003D832C838D2D90E09B838A83E0FE02C00F
:101D700088E88987818592858A389C4018F489850E
:101D8000816089878FE090E0998388837DCF90E997
:101D9000D7FC98E999873D832C838F7790E09B83CC
:101DA0008A83FF82EE82E6CFAF92BF92CF92EF920C
:101DB000FF920F931F93CF93DF935C01EB01EC85B0
:101DC000FD8560E371E1828193810E94850281112A
:101DD0000BC080E0DF91CF911F910F91FF90EF90AA
:101DE000CF90BF90AF9008958E859F85049721F581
:101DF000EC85FD856AEC78E0848195810E949E02E5
:101E00008823D1F0EC85FD8566E272E086819781BA
:101E10000E948502882381F018864FEF5FEFBA0198
:101E20004C835D836E837F8391E0F501918720E190
:101E300030E031832083CECF8E859F858434910519
:101E400040F2EC85FD8560E371E1848195810E941B
:101E50009E02882309F4BDCFCC24C39486E2E82EE9
:101E600082E0F82E02E716E026E232E043E060E28C
:101E7000C5010E94B702882309F4ABCFF501428562
:101E80005385648575854C835D836E837F8390E283
:101E9000988720E130E039832883CBCF4F925F923F
:101EA0006F927F928F929F92AF92BF92CF92DF926A
:101EB000EF92FF920F931F93CF93DF93EB012E8549
:101EC0003F852A31310598F4512C852DDF91CF9132
:101ED0001F910F91FF90EF90DF90CF90BF90AF9048
:101EE0009F908F907F906F905F904F900895EC85BA
:101EF000FD85208131812A30310590F418864FEF1D
:101F00005FEFBA014C835D836E837F8321E0FC0128
:101F1000218722E130E03183208355245394D5CFAB
:101F20008C0160E679E0828193810E948502582EBF
:101F3000882351F234E0C32ED12C43E0E42EF12C5F
:101F4000412C812C912C54018E859F85E816F90631
:101F5000E8F5EC85FD85EC0DFD1D68E572E08081FE
:101F600091810E949E02882309F4AECF3701660C4E
:101F7000771CEC85FD85E60DF71D60EB74E0808134
:101F800091810E948502882371F0880C991CAA1CFB
:101F9000BB1C689480F84394F2E0EF0EF11C84E0DF
:101FA000C80ED11CD1CF8C859D85680E791E68E541
:101FB00072E0F301808191810E948502882309F4F7
:101FC00083CF880C991CAA1CBB1CE5CF48868C8249
:101FD0009D82AE82BF8282E190E099838883F8017E
:101FE0009183808372CFFC0171A360A3CB010C9419
:101FF000EF110F931F93CF93DF9300D000D000D049
:102000001F92CDB7DEB78C011D821E821F8286E132
:10201000898387E08A836B835C834D8381E16827B2
:10202000562745275E8145274F8368E270E0D80137
:1020300090968D919C910E940B12F80180A191A124
:10204000DC01ED91FC910280F381E02D47E050E04E
:10205000BE016F5F7F4F0995F80180A191A10E9499
:10206000861280E027960FB6F894DEBF0FBECDBF74
:10207000DF91CF911F910F91089550E040E06CE007
:102080000C94F90FEF92FF920F931F93CF93DF936E
:10209000EC0149E150E068E270E088A199A10E945A
:1020A00083127E0189E1E80EF11C8E0188A199A1BD
:1020B000DC01ED91FC910084F185E02D0995892BDF
:1020C00009F4ADC088A199A1DC01ED91FC910284D5
:1020D000F385E02D0995F80181938F01EE15FF0539
:1020E00029F78881863111F082E092C09981993177
:1020F00009F097C0FE0131969E01285E3F4F9191F5
:1021000089272E173F07D9F7988D98138CC08A819D
:102110008AA38B8190E0982F88272C81820F911DB4
:102120009CA38BA38D8190E0982F88272E81820F0E
:10213000911D9EA38DA36F81862F90E0982F8827F5
:102140006885680F792F711D072E000C880B990B7D
:102150000E94772020E030E040E251E40E94CD1F51
:102160006FA378A789A79AA76985862F90E0982FF3
:1021700088276A85680F792F711D645F7140072E6B
:10218000000C880B990B0E94772020E030E040E2A1
:1021900051E40E94CD1F6BA77CA78DA79EA78B85BE
:1021A00090E0982F88272C85820F911D98AB8FA7E0
:1021B0008D8590E0982F88272E85820F911D9AABF0
:1021C00089AB8F8590E0982F88272889820F911DF1
:1021D0009CAB8BAB898990E0982F88272A89820F46
:1021E000911D9EAB8DAB8B8990E0982F88272C8911
:1021F000820F911D98AF8FAB8D8990E0982F882723
:102200002E89820F911D9AAF89AF8F898BAF80E0A5
:10221000DF91CF911F910F91FF90EF90089581E092
:10222000F7CF83E0F5CF84E0F3CFFC0182A10895DE
:10223000FC0167A170A581A592A50895FC0163A585
:1022400074A585A596A50895FC0187A590A9089574
:10225000FC0181A992A90895FC0183A994A908957C
:1022600090E080E0089580915E0590915F05891B64
:10227000990B089590915F0580915E052FEF3FEFD8
:10228000981748F4E92FF0E0E05AFA4F208130E047
:102290009F5F90935F05C9010895E0915F0580916C
:1022A0005E05E81730F4F0E0E05AFA4F808190E0E4
:1022B00008958FEF9FEF08950895CF93DF93EC017A
:1022C000E0913605F09137053097F1F090915F0578
:1022D00080915E059817C0F090E0292F30E0261716
:1022E000370754F4DE01A20FB31F4C91205A3A4F26
:1022F000D9014C939F5FF1CF10925F0560935E050B
:10230000CB01DF91CF910994DF91CF910895E091B6
:102310003805F0913905309729F010923C0510925C
:102320003B0509940895CF93DF931F92CDB7DEB795
:10233000698320913A052223F9F020913B05203250
:1023400058F021E030E0FC013383228390E080E00C
:102350000F90DF91CF91089580913C05E82FF0E038
:10236000E35CFA4F998190838F5F80933C05809363
:102370003B0581E090E0ECCF61E0CE0101960E9448
:102380004813F7CFCF92DF92EF92FF920F931F93F4
:10239000CF93DF937C01CB018A0120913A05222360
:1023A00089F0EB016B01C40ED51ECC15DD0569F07B
:1023B0006991D701ED91FC910190F081E02DC70169
:1023C0000995F3CF642F0E944813C801DF91CF9184
:1023D0001F910F91FF90EF90DF90CF900895109292
:1023E0005F0510925E0510923C0510923B050E941D
:1023F0009A1287E891E10E9474138DE591E10C94A3
:102400006F1381E080933A0560935D0510923C055F
:1024100010923B0508950C9401120F93062F21E0B2
:1024200040913B056DE375E080915D050E94F812D7
:1024300010923C0510923B0510923A050F910895B9
:102440004F925F926F927F92AF92BF92CF92EF9234
:10245000FF920F931F93CF93DF935C01F62ED42F3F
:1024600028013901EE2019F10E940112CE2DC4304D
:1024700008F0C3E0C150B8F028E0C29FC0011124A9
:10248000A301920104C056954795379527958A95E3
:10249000D2F7B901D501ED91FC910190F081E02DC9
:1024A000C5010995E7CF60E0C5010E940D124D2FCF
:1024B000D13208F040E22C2D60E675E08F2D0E94AD
:1024C000B81210925F0580935E05DF91CF911F9146
:1024D0000F91FF90EF90CF90BF90AF907F906F9053
:1024E0005F904F900895CF92EF920F931F93C22E5B
:1024F000E12C00E010E098010E9420121F910F9142
:10250000EF90CF90089521E00C94731261E00C9449
:102510000D12EAE2F5E01382128288EE93E0A0E069
:10252000B0E084839583A683B7838EE992E091839C
:10253000808308951092CF0581E08093CD0510929D
:10254000CC0561E082E10E94F91A61E083E10E941A
:10255000F91AE9EBF0E080818E7F808380818D7FA6
:10256000808388E48093B80085E48093BC0008955C
:102570004132E0F59091CF059111FCCF91E090931D
:10258000CF052093CD052FEF209380057093C705CD
:102590006093C6051092C505240F2093C40590933F
:1025A000CE059091CE05880F892B8093CE05809122
:1025B000CC058130C9F41092CC058091CE05809372
:1025C000BB008091BC0083FDF8CF85EC8093BC00FC
:1025D0008091CF058130E1F38091C505841710F417
:1025E0004091C505842F089585EEF0CF40E0FACFE5
:1025F0000F93413208F044C09091CF059111FCCF68
:1026000092E09093CF050093CD059FEF90938005C6
:102610007093C7056093C6051092C5054093C40525
:102620001092CE059091CE05880F892B8093CE0510
:102630008091CC05813011F51092CC058091CE05AA
:102640008093BB008091BC0083FDF8CF85EC809324
:10265000BC00222321F08091CF058230D1F38091FC
:1026600080058F3F79F080918005803269F08091FC
:102670008005803359F084E00F91089585EEE7CF0F
:1026800081E0FACF80E0F8CF82E0F6CF83E0F4CFAC
:102690002091A205260F3327331F21323105ECF498
:1026A0002091CF05FC0190E080E0243069F082E0C9
:1026B0000895A091A2052191AC014C555A4FA40F49
:1026C000B52FB11D2C930196861798F38091A20522
:1026D000680F6093A20580E0089581E008959093CB
:1026E000C9058093C80508959093CB058093CA05CA
:1026F000089585ED8093BC008091BC0084FDFCCFE3
:102700001092CF05089585EC8093BC001092CF0500
:1027100008951F920F920FB60F9211242F933F939B
:102720004F935F936F937F938F939F93AF93BF93D9
:10273000EF93FF938091B900887F803609F44CC0F5
:1027400008F03FC0883209F4A8C018F5803109F4B8
:102750009CC0B8F4882309F405C1883009F495C0F9
:10276000FF91EF91BF91AF919F918F917F916F9169
:102770005F914F913F912F910F900FBE0F901F903F
:102780001895883109F489C0803251F7809380050B
:1027900015C0803409F4A6C048F48033B9F38833F7
:1027A000F9F6809380050E948313DACF803509F40F
:1027B00089C0883509F49EC0883491F60E94791347
:1027C000CFCF883909F494C038F5883729F050F410
:1027D000883611F0803721F683E08093CF05109280
:1027E000810557C0883809F483C0803919F08038D2
:1027F00009F0B6CF80918105803208F079C0E09170
:10280000810581E08E0F809381058091BB00F0E00F
:10281000EE57FA4F80833DC0803B39F0E0F4803AB8
:1028200009F485C0883A09F09BCF84E08093CF05F6
:102830001092A3051092A205E091CA05F091CB0574
:1028400009958091A20581110FC081E08093A205B6
:102850001092A40509C0803C09F482C0883C09F4A8
:102860007FC0883B09F07CCFE091A30581E08E0F0B
:102870008093A305F0E0EC55FA4F80818093BB0074
:102880009091A3058091A20531C08091CE058093DF
:10289000BB0085EC8093BC0063CF9091C50580910F
:1028A000C4059817B8F58091C6059091C705E091C9
:1028B000C50521E02E0F2093C505E80FF92FF11D66
:1028C0008081E5CF2091C6053091C705E091C5050F
:1028D00081E08E0F8093C5058091BB00E20FF32F3E
:1028E000F11D80839091C5058091C405981788F2E9
:1028F00085E8D0CF2091C6053091C705E091C50588
:1029000081E08E0F8093C5058091BB00E20FF32F0D
:10291000F11D80838091CD05811150CF81E080939E
:10292000CC0584EA8093BC001092CF0519CF0E9499
:10293000831380918105803230F4E0918105F0E0CD
:10294000EE57FA4F10826091810570E0E091C80562
:10295000F091C90582E895E009951092810500CFB4
:1029600085ECE0CF1092800529CF0F931F93CF9372
:10297000DF93EC01162F042FE881F981048CF58D8B
:10298000E02D0995612F660F6866E881F98100A046
:10299000F1A1E02DCE010995E881F98100A0F1A116
:1029A000E02D602FCE010995E881F981068CF78D25
:1029B000E02DCE01DF91CF911F910F9109940F93DC
:1029C0001F93CF93DF938C01D0E0C0E0D801129623
:1029D0008C9112978C171D0661F05CF0ED91FC91C3
:1029E00004A0F5A1E02D40E06C2FC80109952196C7
:1029F000EDCFDF91CF911F910F9108950F931F930A
:102A0000CF93DF93EC01062F483008F047E011E048
:102A1000140F183009F410E0E881F981048CF58D69
:102A2000E02DCE010995E881F98100A0F1A1E02D0A
:102A300068E4CE010995E881F98100A0F1A1E02DBB
:102A400080E1189FA00111248B8160E0873009F498
:102A500068E0402B642BCE010995E881F981068C52
:102A6000F78DE02DCE01DF91CF911F910F91099449
:102A70000F931F93CF938C01DC01ED91FC91048C9B
:102A8000F58DE02D0995D801ED91FC9100A0F1A103
:102A9000E02D69E4C8010995D801ED91FC9106A0EB
:102AA000F7A1E02DC8010995C82FD801ED91FC913F
:102AB000068CF78DE02DC801099560E070E0CB0130
:102AC000C43470F0C83480F4C45461E070E080E035
:102AD00090E004C0660F771F881F991FCA95D2F730
:102AE000CF911F910F910895C03510F4C854EDCFC8
:102AF000C83510F4CC54E9CFC03610F4C055E5CF3A
:102B0000C83610F4C455E1CFC03710F4C855DDCF36
:102B1000C837D8F6CC55D9CF85E090E00C94041A8C
:102B2000CF93DF93EC0161E08D810E94F91A61E09F
:102B30008E810E94F91AE881F981028CF38DE02DD3
:102B4000CE01099560E08D810E94F91A60E08E81C6
:102B50000E94F91AE881F981028CF38DE02DCE01F3
:102B6000DF91CF910994CF93DF93EC0160E08E81E8
:102B70000E94F91A60E08D810E94F91AE881F981BA
:102B8000028CF38DE02DCE01099561E08E810E94CB
:102B9000F91A61E08D810E94F91AE881F981028CAD
:102BA000F38DE02DCE01DF91CF910994FF920F9329
:102BB0001F93CF93DF93EC01F62E08E010E060E066
:102BC0008E810E94F91AE881F981028CF38DE02D43
:102BD000CE0109956F2D661F6627661F8D810E94A5
:102BE000F91AFF0C61E08E810E94F91AE881F981DF
:102BF000028CF38DE02DCE01099501501109F9F6F3
:102C0000E881F981028CF38DE02DCE010995E881F0
:102C1000F981028CF38DE02DCE01099560E08E8163
:102C20000E94F91A60E08D810E94BD1AE881F98145
:102C3000028CF38DE02DCE01099561E08E810E941A
:102C4000F91AE881F981028CF38DE02DCE01099506
:102C50008D810E94271B811104C060E08D810E943C
:102C6000F91A61E08D81DF91CF911F910F91FF9053
:102C70000C94BD1AEF92FF921F93CF93DF93EC0158
:102C800060E08E810E94F91A60E08D810E94BD1A79
:102C900061E08D810E94F91A88E0E82EF12C10E0A5
:102CA000110F61E08E810E94F91AE881F981028C8E
:102CB000F38DE02DCE0109958D810E94271B892B74
:102CC00009F0116060E08E810E94F91AE881F981B3
:102CD000028CF38DE02DCE01099581E0E81AF10810
:102CE000F9F660E08E810E94F91A60E08D810E9401
:102CF000BD1A61E08D810E94F91AE881F981028C88
:102D0000F38DE02DCE01099561E08E810E94F91AC4
:102D1000E881F981028CF38DE02DCE0109958D813A
:102D20000E94271BF82E60E08E810E94F91AF11094
:102D300004C060E08D810E94F91A61E08D810E94DB
:102D4000BD1A812FDF91CF911F91FF90EF900895D1
:102D5000AF92CF92DF92EF92FF920F931F93CF9398
:102D6000DF93EC01102FFE2CDC2CAE2CC02EE22EBB
:102D700004E0262F0E94261980EB92E09983888335
:102D8000CE010E94DF1481E0D81681F087E08B83AA
:102D90004F2D612FCE01DF91CF911F910F91FF90A9
:102DA000EF90DF90CF90AF900C94FE1488E0EFCFBF
:102DB000DC01ED91FC9102A0F3A1E02D611106C0B0
:102DC00060E8483008F047E0642B099468E8F9CFE0
:102DD0000F931F93CF93DF93EC01E881F98102A059
:102DE000F3A1E02D60E40995E881F981048CF58D6B
:102DF000E02DCE010995E881F98100A0F1A1E02D37
:102E000060ECCE01099510E000E0E881F9818A814B
:102E100080171106A9F0A4F000A0F1A1E02D60E058
:102E2000CE0109958B81893040F0E881F98100A0BD
:102E3000F1A1E02D60E0CE0109950F5F1F4FE5CFB6
:102E4000068CF78DE02DCE01DF91CF911F910F9170
:102E500009940895362FDC01ED91FC910480F581F1
:102E6000E02D60E0211160E8642B432F0994E42FEA
:102E7000440FFF0BE954FF4F4491DC01ED91FC91AD
:102E80000288F389E02D09940F931F93E62F642F96
:102E9000EF70E00FF12FF11D4491DC01ED91FC91F9
:102EA0000288F389E02D1F910F9109949F92AF92B0
:102EB000BF92CF92DF92EF92FF920F931F93CF9327
:102EC000DF937C01C1E0C42ED12C8AE0A82EB12C66
:102ED000D70114964C914C17F0F096010C2E02C0BD
:102EE000359527950A94E2F721704C1BCB01B5016B
:102EF0000E94C221962ED72FD701ED91FC9100841C
:102F0000F185E02D06E311E0682FC7010995692DD1
:102F10007D2FCF5FDDCFDF91CF911F910F91FF907C
:102F2000EF90DF90CF90BF90AF909F900895242FA7
:102F3000DC01ED91FC910288F389E02D40E00994D9
:102F4000CF92DF92EF92FF920F931F93CF93DF9375
:102F50007C016B01042F10E0D0E0C0E0C017D10766
:102F600081F0F601EC0FFD1F4491D701ED91FC912A
:102F70000288F389E02D20E06C2FC7010995219686
:102F8000EDCFDF91CF911F910F91FF90EF90DF90E8
:102F9000CF9008957F928F929F92AF92BF92CF92DF
:102FA000DF92EF92FF920F931F93CF93DF937C01F9
:102FB0006A01722E8B01D0E0C0E0A22EB12C8824D1
:102FC0008394912CD70114968C9190E09C012A193E
:102FD0003B09C217D3070CF5F80141918F01442337
:102FE000E1F08C1B9D0B0197940102C0220F331F4F
:102FF0008A95E2F7C9018C219D2121E0892B09F4F2
:1030000020E06C2F670DD701ED91FC910688F789C0
:10301000E02DC70109952196D5CFDF91CF911F9162
:103020000F91FF90EF90DF90CF90BF90AF909F9067
:103030008F907F900895FC018481089560E070E096
:10304000CB01089508951F93CF93DF93EC01162FC2
:10305000E881F981048CF58DE02D0995E881F981ED
:1030600000A0F1A1E02D612FCE010995E881F98141
:10307000068CF78DE02DCE01DF91CF911F91099441
:103080000F931F93CF93DF93EC01162F042FE8814A
:10309000F98102A0F3A1E02D64E40995E881F981AA
:1030A000048CF58DE02DCE010995612F606CE881CF
:1030B000F98100A0F1A1E02DCE010995E881F98107
:1030C00000A0F1A1E02D602FCE010995E881F981E2
:1030D000068CF78DE02DCE01DF91CF911F910F91DE
:1030E0000994CF93DF93EC0160E08F810E94F91A7D
:1030F000E881F981028CF38DE02DCE01DF91CF9133
:103100000994CF93DF93EC0161E08F810E94F91A5B
:10311000E881F981028CF38DE02DCE01DF91CF9112
:103120000994FF920F931F93CF93DF93EC01F62E38
:1031300008E010E060E08E810E94F91AE881F981D0
:10314000028CF38DE02DCE0109956F2D61708D817C
:103150000E94F91AE881F981028CF38DE02DCE01ED
:103160000995F69461E08E810E94F91AE881F9814F
:10317000028CF38DE02DCE01099501501109D1F695
:10318000E881F981028CF38DE02DCE01DF91CF91A2
:103190001F910F91FF900994CF92DF92EF92FF92CF
:1031A0001F93CF93DF93EC0160E08D810E94BD1AE5
:1031B00061E08D810E94F91A98E0C92ED12C10E0AF
:1031C000E12EF12CF594E7941E2D60E08E810E9493
:1031D000F91AE881F981028CF38DE02DCE01099571
:1031E0008D810E94271B892B09F0106861E08E8178
:1031F0000E94F91AE881F981028CF38DE02DCE014D
:10320000099581E0C81AD108D9F661E08D810E9444
:10321000BD1A60E08D810E94F91A812FDF91CF9154
:103220001F91FF90EF90DF90CF900895242FDC0145
:1032300012963C911297431740F4ED91FC9104A033
:10324000F5A1E02D462F622F09940895EF920F9378
:10325000CF93DF93FC01862FC42FD22F2CED32E0C9
:103260003183208398E0938365834683D7830283E9
:10327000E48261E00E94BD1A61E08C2F0E94BD1AB9
:1032800061E08D2F0E94BD1A61E08D2F0E94F91A16
:1032900061E08C2FDF91CF910F91EF900C94F91A90
:1032A0001F920F920FB60F9211242F933F938F937B
:1032B0009F93AF93BF938091D5059091D605A09130
:1032C000D705B091D8053091D40523E0230F2D37D1
:1032D00068F126E8230F0296A11DB11D2093D405A5
:1032E0008093D5059093D605A093D705B093D805C4
:1032F0008091D0059091D105A091D205B091D305D0
:103300000196A11DB11D8093D0059093D105A09386
:10331000D205B093D305BF91AF919F918F913F910B
:103320002F910F900FBE0F901F9018950196A11D21
:10333000B11DD4CF2FB7F8946091D5057091D60503
:103340008091D7059091D8052FBF08953FB7F89485
:103350008091D0059091D105A091D205B091D3056F
:1033600026B5A89B05C02F3F19F00196A11DB11DE0
:103370003FBFBA2FA92F982F8827BC01CD01620F1C
:10338000711D811D911D42E0660F771F881F991FD7
:103390004A95D1F708958F929F92AF92BF92CF92A4
:1033A000DF92EF92FF926B017C010E94A6194B0104
:1033B0005C01C114D104E104F104E9F00E945A1F38
:1033C0000E94A619681979098A099B09683E734009
:1033D0008105910570F321E0C21AD108E108F108D6
:1033E00088EE880E83E0981EA11CB11CC114D10484
:1033F000E104F10429F7FF90EF90DF90CF90BF90A8
:10340000AF909F908F9008958230910538F0880F8B
:10341000991F880F991F05970197F1F708957894E0
:1034200084B5836084BD85B5836085BDEEE6F0E03C
:10343000808181608083E1E8F0E082E080838081A8
:1034400081608083E0E8F0E0808181608083E1EB4F
:10345000F0E0808184608083E0EBF0E08081816037
:10346000808387E880937A001092C10008951F93AB
:10347000CF93DF93182FEB0161E00E94BD1A2097D4
:1034800039F460E0812FDF91CF911F910C94F91AEC
:10349000CF3FD10511F461E0F5CFE12FF0E0EA5B19
:1034A000FE4FE491E43031F140F4E230B1F0E3302A
:1034B000E1F0C038D1057CF7E4CFE83029F1E930FC
:1034C00059F1E530B1F780918000806280938000EF
:1034D000D0938B00C0938A0004C084B5806884BDFB
:1034E000C7BDDF91CF911F91089584B5806284BDDF
:1034F000C8BDF7CF80918000806880938000D09312
:103500008900C0938800EDCF8091B00080688093DF
:10351000B000C093B300E5CF8091B000806280938B
:10352000B000C093B400DDCF843081F028F4823045
:10353000E9F08330F9F00895883071F0893091F026
:103540008530B9F4809180008F7D03C08091800028
:103550008F778093800008958091B0008F7780935B
:10356000B00008958091B0008F7DF9CF84B58F773A
:1035700084BD089584B58F7DFBCFCF93DF9390E01A
:10358000FC01E35AFE4F24918C589E4FFC0184911C
:103590008823C9F090E0880F991FFC01E156FE4F87
:1035A000A591B491FC01EB56FE4FC591D4916111E8
:1035B0000DC09FB7F8948C91209582238C938881BD
:1035C000282328839FBFDF91CF910895623051F463
:1035D0009FB7F8943C91822F809583238C93E88148
:1035E0002E2BEFCF8FB7F894EC912E2B2C938FBF0F
:1035F000EACF1F93CF93DF93282F30E0F901EA5BE6
:10360000FE4F8491F901E35AFE4FD491F901EC5831
:10361000FE4FC491CC23A9F0162F81110E94941A59
:10362000EC2FF0E0EE0FFF1FEB56FE4FA591B4918B
:103630008FB7F894EC91111108C0D095DE23DC937C
:103640008FBFDF91CF911F910895DE2BF8CFCF93DD
:10365000DF93282F30E0F901EA5BFE4F8491F901F6
:10366000E35AFE4FD491F901EC58FE4FC491CC239C
:10367000A1F081110E94941AEC2FF0E0EE0FFF1FD1
:10368000E557FE4FA591B491EC91ED2381E090E0D8
:1036900009F480E0DF91CF91089580E090E0FACFC7
:1036A000FC01918D228D892F90E0805C9F4F821BC1
:1036B00091098F7399270895FC01918D828D981738
:1036C00031F0828DE80FF11D858D90E008958FEF28
:1036D0009FEF0895FC01918D828D981761F0A28D66
:1036E000AE0FBF2FB11D5D968C91928D9F5F9F7322
:1036F000928F90E008958FEF9FEF0895FC01538D16
:10370000448D252F30E0842F90E0821B930B5417BB
:1037100010F0CF960895019708958AED9CE1892BCA
:1037200049F080E090E0892B29F00E94DA1C811199
:103730000C9400000895FC01A48DA80FB92FB11DB1
:10374000A35ABF4F2C91848D90E001968F739927D7
:10375000848FA689B7892C93A089B1898C918370B5
:1037600080648C93938D848D981306C00288F389AE
:10377000E02D80818F7D80830895CF93DF93EC01CE
:10378000888D8823B9F0AA89BB89E889F9898C9149
:1037900085FD03C0808186FD0DC00FB607FCF7CF05
:1037A0008C9185FFF2CF808185FFEDCFCE010E9405
:1037B0009B1BE9CFDF91CF910895EF92FF920F937A
:1037C0001F93CF93DF93EC0181E0888F9B8D8C8DCD
:1037D00098131AC0E889F989808185FF15C09FB7C1
:1037E000F894EE89FF896083E889F9898081837084
:1037F000806480839FBF81E090E0DF91CF911F9133
:103800000F91FF90EF900895F62E0B8D10E00F5F53
:103810001F4F0F731127E02E8C8D8E110CC00FB629
:1038200007FCFACFE889F989808185FFF5CFCE01C1
:103830000E949B1BF1CFEB8DEC0FFD2FF11DE35A86
:10384000FF4FF0829FB7F8940B8FEA89FB89808144
:103850008062CFCFCF92DF92EF92FF921F93CF93F0
:10386000DF93EC016A017B01122FE889F98982E07C
:103870008083C11481EED806E104F104A1F060E078
:1038800079E08DE390E0A70196010E94D6212150B6
:1038900031094109510956954795379527952115C5
:1038A00080E1380798F0E889F989108260E874E8C7
:1038B0008EE190E0A70196010E94D62121503109A6
:1038C000410951095695479537952795EC85FD8512
:1038D0003083EE85FF852083188EEC89FD89108367
:1038E000EA89FB89808188698083EA89FB898081F4
:1038F0008F7D8083DF91CF911F91FF90EF90DF90BC
:10390000CF9008951F920F920FB60F9211242F930C
:103910008F939F93EF93FF93E091E905F091EA0570
:103920008081E091EF05F091F00582FD1BC0908150
:103930008091F2058F5F8F732091F305821741F01C
:10394000E091F205F0E0E752FA4F958F8093F2058F
:10395000FF91EF919F918F912F910F900FBE0F903C
:103960001F9018958081F4CF1F920F920FB60F927F
:1039700011242F933F934F935F936F937F938F9374
:103980009F93AF93BF93EF93FF9389ED95E00E94D0
:103990009B1BFF91EF91BF91AF919F918F917F9171
:1039A0006F915F914F913F912F910F900FBE0F90AC
:1039B0001F90189589ED95E00E94501B21E0892BFE
:1039C00009F420E0822F0895E9EDF5E013821282D8
:1039D00088EE93E0A0E0B0E084839583A683B7836C
:1039E00088E093E09183808385EC90E095878487DD
:1039F00084EC90E09787868780EC90E0918B808BB9
:103A000081EC90E0938B828B82EC90E0958B848BA1
:103A100086EC90E0978B868B118E128E138E148E0F
:103A2000089508950E940F1A0E94111D0E941A07FE
:103A3000CDE8DBE10E94E3092097E1F30E948D1BB2
:103A4000F9CF0C94B4220C94211DAF92BF92CF9267
:103A5000DF92EF92FF920F931F93CF93DF936C014E
:103A60007B018B01040F151FEB015E01AE18BF082F
:103A7000C017D10759F06991D601ED91FC910190E1
:103A8000F081E02DC6010995892B79F7C501DF91F9
:103A9000CF911F910F91FF90EF90DF90CF90BF904B
:103AA000AF900895FB0101900020E9F73197AF0135
:103AB000461B570BDC01ED91FC910280F381E02D58
:103AC00009946115710511F00C94521D90E080E08D
:103AD0000895DC01ED91FC910190F081E02D0994B5
:103AE00066E173E00C94521D0F931F93CF93DF9305
:103AF0008C01D0E0C0E06115710519F00E94521DE3
:103B0000EC01C8010E94701D8C0F9D1FDF91CF91A9
:103B10001F910F9108958F929F92AF92BF92EF9253
:103B2000FF920F931F93CF93DF93CDB7DEB7A1978B
:103B30000FB6F894DEBF0FBECDBF7C01FA01CB01FA
:103B400019A2223008F42AE08E010F5D1F4F822E49
:103B5000912CB12CA12CBF01A50194010E94D6216A
:103B6000F901CA016A300CF5605DD8016E938D01D0
:103B7000232B242B252B79F790E080E0109721F060
:103B8000BD01C7010E94521DA1960FB6F894DEBF79
:103B90000FBECDBFDF91CF911F910F91FF90EF909E
:103BA000BF90AF909F908F900895695CDECFCF92C9
:103BB000DF92EF92FF920F931F93CF93DF93211524
:103BC000310581F4DC01ED91FC910190F081E02D53
:103BD000642FDF91CF911F910F91FF90EF90DF90B5
:103BE000CF9009942A30310501F52AE077FF1DC0F6
:103BF0006A017B01EC016DE20E94691D8C01442782
:103C00005527BA014C195D096E097F092AE0CE01DA
:103C10000E948B1D800F911FDF91CF911F910F91FB
:103C2000FF90EF90DF90CF900895DF91CF911F919B
:103C30000F91FF90EF90DF90CF900C948B1D9A0125
:103C4000AB01770F660B770B0C94D71D0F931F9367
:103C5000CF93DF93EC010E941F1E8C01CE010E94C6
:103C6000701D800F911FDF91CF911F910F910895CB
:103C70002115310541F4DC01ED91FC910190F081B9
:103C8000E02D642F09940C948B1D9A01462F50E06F
:103C900070E060E00C94381E9A01AB0170E060E0C7
:103CA0000C94381E0F931F93CF93DF93EC010E9467
:103CB000381E8C01CE010E94701D800F911FDF9174
:103CC000CF911F910F9108952F923F924F925F9243
:103CD0006F927F928F929F92AF92BF92CF92DF921C
:103CE000EF92FF921F93CF93DF93EC016A017B0168
:103CF000722EAB019601CB01B6010E94992169E1B8
:103D000073E0811126C046015701E894B7F82FEF00
:103D10003FEF4FE75FE7C501B4010E949921811190
:103D20000CC02FEF3FEF4FE75FE7C501B4010E94E2
:103D3000C81F6DE173E0181664F02FEF3FEF4FE7F7
:103D40005FE4C701B6010E9427211816B4F461E2AE
:103D500073E0CE01DF91CF911F91FF90EF90DF9044
:103D6000CF90BF90AF909F908F907F906F905F901B
:103D70004F903F902F900C94521D2FEF3FEF4FE745
:103D80005FECC701B6010E94C81F87FDE0CF20E0AD
:103D900030E0A901C701B6010E94C81F312C212CB7
:103DA00087FF09C06DE2CE010E94691D1C01F7FA70
:103DB000F094F7F8F09410E060E070E080E09FE3AA
:103DC000711641F020E030E040E251E40E94CD1F46
:103DD0001F5FF6CFA70196010E945C1F2B013C01DB
:103DE0000E9446204B015C012AE0BC01A401CE01E7
:103DF0000E948B1D7C01E20CF31C1123B1F1C50163
:103E0000B4010E9475209B01AC01C301B2010E9464
:103E10005B1F4B015C016EE2CE010E94691DE80E42
:103E2000F91E115010F120E030E040E251E4C501EC
:103E3000B4010E942C212B013C010E9446204B0121
:103E40004AE050E0CE010E944C1EE80EF91EB4017B
:103E500090E080E00E9475209B01AC01C301B2019B
:103E60000E945B1F4B015C01DCCFC701DF91CF914A
:103E70001F91FF90EF90DF90CF90BF90AF909F90F9
:103E80008F907F906F905F904F903F902F9008950C
:103E90000F931F93CF93DF93EC010E94641E8C015C
:103EA000CE010E94701D800F911FDF91CF911F9155
:103EB0000F91089508955058BB27AA270E94731F99
:103EC0000C94ED200E94DF2038F00E94E62020F0C4
:103ED00039F49F3F19F426F40C94DC200EF4E0959D
:103EE000E7FB0C94D620E92F0E94FE2058F3BA1766
:103EF000620773078407950720F079F4A6F50C9400
:103F000020210EF4E0950B2EBA2FA02D0B01B90144
:103F100090010C01CA01A0011124FF27591B99F03F
:103F2000593F50F4503E68F11A16F040A22F232F4B
:103F3000342F4427585FF3CF469537952795A7959B
:103F4000F0405395C9F77EF41F16BA0B620B730B42
:103F5000840BBAF09150A1F0FF0FBB1F661F771FB3
:103F6000881FC2F70EC0BA0F621F731F841F48F468
:103F7000879577956795B795F7959E3F08F0B0CFF1
:103F80009395880F08F09927EE0F979587950895D8
:103F90000E94B22008F481E008950E94E11F0C9471
:103FA000ED200E94E62058F00E94DF2040F029F426
:103FB0005F3F29F00C94D62051110C9421210C94D0
:103FC000DC200E94FE2068F39923B1F3552391F37E
:103FD000951B550BBB27AA2762177307840738F078
:103FE0009F5F5F4F220F331F441FAA1FA9F335D0D5
:103FF0000E2E3AF0E0E832D091505040E695001C89
:10400000CAF72BD0FE2F29D0660F771F881FBB1F42
:10401000261737074807AB07B0E809F0BB0B802D20
:10402000BF01FF2793585F4F3AF09E3F510578F04C
:104030000C94D6200C9421215F3FE4F3983ED4F3F6
:10404000869577956795B795F7959F5FC9F7880F20
:10405000911D9695879597F90895E1E0660F771F72
:10406000881FBB1F621773078407BA0720F0621B03
:10407000730B840BBA0BEE1F88F7E09508950E942E
:1040800046206894B1110C94212108950E940621C4
:1040900088F09F5798F0B92F9927B751B0F0E1F009
:1040A000660F771F881F991F1AF0BA95C9F714C0B9
:1040B000B13091F00E942021B1E008950C942021AC
:1040C000672F782F8827B85F39F0B93FCCF38695F2
:1040D00077956795B395D9F73EF49095809570954F
:1040E00061957F4F8F4F9F4F0895E89409C097FBCC
:1040F0003EF490958095709561957F4F8F4F9F4FBF
:104100009923A9F0F92F96E9BB279395F695879502
:1041100077956795B795F111F8CFFAF4BB0F11F4C5
:1041200060FF1BC06F5F7F4F8F4F9F4F16C088236C
:1041300011F096E911C0772321F09EE8872F762FA2
:1041400005C0662371F096E8862F70E060E02AF0E3
:104150009A95660F771F881FDAF7880F96958795CF
:1041600097F90895990F0008550FAA0BE0E8FEEFA4
:1041700016161706E807F907C0F012161306E4072B
:10418000F50798F0621B730B840B950B39F40A2624
:1041900061F0232B242B252B21F408950A2609F402
:1041A000A140A6958FEF811D811D089597F99F6706
:1041B00080E870E060E008959FEF80EC08950024AF
:1041C0000A941616170618060906089500240A947C
:1041D00012161306140605060895092E0394000C02
:1041E00011F4882352F0BB0F40F4BF2B11F460FF91
:1041F00004C06F5F7F4F8F4F9F4F089557FD9058BA
:10420000440F551F59F05F3F71F04795880F97FB9A
:10421000991F61F09F3F79F0879508951216130654
:104220001406551FF2CF4695F1DF08C01616170683
:104230001806991FF1CF86957105610508940895B8
:10424000E894BB2766277727CB0197F908950E944A
:10425000B22008F48FEF08950E943F210C94ED20C6
:104260000E94DF2038F00E94E62020F0952311F014
:104270000C94D6200C94DC2011240C9421210E9453
:10428000FE2070F3959FC1F3950F50E0551F629F7C
:10429000F001729FBB27F00DB11D639FAA27F00D9F
:1042A000B11DAA1F649F6627B00DA11D661F829FC6
:1042B0002227B00DA11D621F739FB00DA11D621FAB
:1042C000839FA00D611D221F749F3327A00D611DC8
:1042D000231F849F600D211D822F762F6A2F1124AA
:1042E0009F5750409AF0F1F088234AF0EE0FFF1FDD
:1042F000BB1F661F771F881F91505040A9F79E3F34
:10430000510580F00C94D6200C9421215F3FE4F3FA
:10431000983ED4F3869577956795B795F795E79589
:104320009F5FC1F7FE2B880F911D9695879597F992
:1043300008950E94B220880B990B0895DB018F939A
:104340009F930E940722BF91AF91A29F800D911D64
:10435000A39F900DB29F900D11240895AA1BBB1B23
:1043600051E107C0AA1FBB1FA617B70710F0A61B75
:10437000B70B881F991F5A95A9F780959095BC0196
:10438000CD01089597FB072E16F4009407D077FD12
:1043900009D00E94AE2107FC05D03EF4909581958E
:1043A0009F4F0895709561957F4F0895A1E21A2E51
:1043B000AA1BBB1BFD010DC0AA1FBB1FEE1FFF1FC9
:1043C000A217B307E407F50720F0A21BB30BE40B19
:1043D000F50B661F771F881F991F1A9469F7609560
:1043E0007095809590959B01AC01BD01CF0108951A
:1043F000A29FB001B39FC001A39F700D811D112426
:10440000911DB29F700D811D1124911D08950E9470
:10441000F821A59F900DB49F900DA49F800D911D34
:1044200011240895EE0FFF1F0590F491E02D0994DB
:104430000F931F93CF93DF938230910510F482E0A6
:1044400090E0E0917806F091790630E020E0B0E06D
:10445000A0E0309799F42115310509F44AC0281BD2
:10446000390B24303105D8F58A819B81611571059E
:1044700089F1FB0193838283FE0111C04081518148
:104480000281138148175907E0F04817590799F43A
:10449000109761F012960C93129713961C93329614
:1044A000CF01DF91CF911F910F910895009378066E
:1044B00010937906F4CF2115310551F042175307B7
:1044C00038F0A901DB019A01BD01DF01F801C1CF7C
:1044D000EF01F9CF9093790680937806CDCFFE0156
:1044E000E20FF31F8193919322503109398328837E
:1044F000D7CF2091760630917706232B41F4209177
:1045000002013091030130937706209376062091C3
:104510000001309101012115310541F42DB73EB75D
:104520004091040150910501241B350BE091760662
:10453000F0917706E217F307A0F42E1B3F0B281724
:10454000390778F0AC014E5F5F4F2417350748F00C
:104550004E0F5F1F50937706409376068193919399
:104560009FCFF0E0E0E09CCFCF93DF930097E9F09E
:10457000FC01329713821282A0917806B0917906DD
:10458000ED0130E020E01097A1F420813181820F0D
:10459000931F20917606309177062817390709F086
:1045A00061C0F0937706E0937606DF91CF9108958E
:1045B000EA01CE17DF07E8F54A815B819E014115CC
:1045C0005105B1F7E901FB83EA8349915991C40F81
:1045D000D51FEC17FD0761F4808191810296840F4D
:1045E000951FE90199838883828193819B838A83C4
:1045F000F0E0E0E012968D919C9113970097B9F549
:104600002D913C911197CD010296820F931F20911D
:104610007606309177062817390739F6309751F525
:104620001092790610927806B0937706A0937606DA
:10463000BCCFD383C28340815181840F951FC8179B
:10464000D90761F44E5F5F4F88819981480F591FE8
:10465000518340838A819B81938382832115310515
:1046600009F0B0CFF0937906E09378069ECFFD0174
:10467000DC01C0CF13821282D7CF10E0CAEDD0E0A8
:1046800004C0FE010E9412222196CB3DD107C9F73A
:04469000F894FFCFCC
:1046940000007A068000C309015468652066756EBF
:1046A4006374696F6E206465636F64652826726540
:1046B40073756C747329292069732064657072653D
:1046C400636174656420616E64206D6179206E6F2E
:1046D4007420776F726B20617320657870656374E2
:1046E400656421204A75737420757365206465635D
:1046F4006F6465282920776974686F757420612058
:10470400706172616D6574657220616E64204972B6
:1047140052656365697665722E6465636F6465646A
:104724004952446174612E3C6669656C646E616DC6
:10473400653E202E00504D2073656E736F72206F9E
:104744007065726174696F6E206D6F6465203E3EA2
:1047540000436C6F73650054696D696E67206D6505
:1047640061737572696E67206D6F64650044796E5C
:10477400616D6963206D6561737572696E67206D23
:104784006F646500436F6E74696E756F7573206D29
:104794006561737572696E67206D6F646500536936
:1047A4006E676C65206D6561737572696E67206DE7
:1047B4006F646500564D4450565F317C315F564DF1
:1047C4004450560A00564D4450525F00736574734A
:1047D40065676D656E74496E743A2000503130001F
:1047E400706D312E303A200050323500706D322E0B
:1047F400353A2000706D31303A200068756D696477
:104804006974793A200074656D70657261747572AB
:10481400653A2000564D4450435F005F564D445066
:104824004300000000000E0B0F0B0000000093116A
:10483400C21130115C1133113A114D110000000006
:10484400FE14DF1416192917441756179717A017C3
:10485400CA172A171B18371738158C159015B31556
:10486400D6152318B5143A1600000000D816E81619
:1048740016192917441756179717A017CA172A1776
:104884001B1837171E18221871188118911823182D
:104894004018CC1800000000DD1B251D7E1BBD1B2D
:1048A400501B6A1B5C1B0D0A006E616E00696E660C
:0648B400006F76660000B3
:00000001FF
