:100000000C9447010C946F010C946F010C946F01D8
:100010000C946F010C946F010C946F010C94ED1013
:100020000C946F010C946F010C946F010C946F0190
:100030000C946F010C946F010C946F010C946F0180
:100040000C94770F0C946F010C94450F0C941F0FB8
:100050000C946F010C946F010C946F010C946F0160
:100060000C94C10F0C946F010C946F010C946F01F0
:100070000C946F010C946F010C946F010C946F0140
:100080000C946F010C946F010C946F010C946F0130
:100090000C946F010C946F010C946F010C946F0120
:1000A0000C946F010C946F010C946F010C946F0110
:1000B0000C946F0107634236B79BD8A71A3968566C
:1000C00018AEBAAB558C1D3CB7CC5763BD6DEDFD7A
:1000D000753EF6177231BF000000803F0800000037
:1000E000BE922449123EABAAAA2ABECDCCCC4C3E2D
:1000F00000000080BEABAAAAAA3E00000000BF001C
:100100000000803F0000000000084178D3BB438717
:10011000D1133D190E3CC3BD4282AD2B3E68EC822B
:1001200076BED98FE1A93E4C80EFFFBE01C4FF7FB0
:100130003F00000000000086227E6D0000023006B5
:100140006300044080523F065B4F666D7D277F6FE2
:100150000000004800535F777F393F79713D760694
:100160001E693815373F7367316D783E2A1D766EEC
:100170005B39640F0008205F7C585E7B316F74042C
:100180000E753055545C7367506D781C2A1D766E61
:1001900047460670013F065B4F666D7D077F6F77B0
:1001A0007C395E797100000000240027002A002DB0
:1001B0000000000000250028002B002E0000000099
:1001C000002300260029002C000404040404040475
:1001D00004020202020202030303030303020203F6
:1001E00005050505010204081020408001020408ED
:1001F0001020010204081020408040010204083F42
:10020000065B4F666D7D077F6F777C395E79710085
:1002100086227E6D00000230066300044080523F5B
:10022000065B4F666D7D277F6F0000004800535FBF
:10023000777F393F79713D76061E693815373F73F0
:1002400067316D783E2A1D766E5B39640F00082099
:100250005F7C585E7B316F74040E753055545C734F
:1002600067506D781C2A1D766E47460670010A0D90
:100270000E09000302000004050800000000000051
:10028000000000000000000000009E11B8201124B2
:100290001FBECFEFD8E0DEBFCDBF25E0A6E9B2E0BC
:1002A00001C01D92A034B207E1F712E0A0E0B1E076
:1002B000E6E8FCE402C005900D92A639B107D9F733
:1002C00011E0C6E4D1E004C02197FE010E94F724AA
:1002D000C534D107C9F70E948B120C9436260C94B2
:1002E0000000880F8093BA0008959B01AC0160E084
:1002F00072E18AE790E00E9403222051310941090E
:10030000510956954795379527952093B80008953C
:10031000882321F085EC8093BC00089585E8FBCF0D
:1003200085ED8093BC008091BC0084FDFCCF1092D1
:10033000E202089585EC8093BC001092E2020895D9
:10034000CF93DF93D0914E04C0914D04DC3339F448
:10035000C43101F560E070E080E89FE316C06C2FC7
:100360000C2E000C770B880B990B0E94D620DC34E6
:1003700078F025E531EC48E25CEB0E94352123E280
:100380003AE443E95FE30E944022DF91CF91089570
:10039000D33390F06C2FCC0F770B880B990B0E9406
:1003A000D62028E338EF42E45CEB0E94352125EAB1
:1003B0003DEB49EA5FE3E7CF20EB33E047E65CEB58
:1003C0000E94352122E739EF47EC5FE3DCCFAF92A3
:1003D000BF92CF92DF92EF92FF920F931F93CF9332
:1003E000DF937C016B015A01FC0180819181209196
:1003F000310530913205C1E0D0E08217930708F053
:1004000062C09C01220F331FE0912F05F09130054F
:10041000E20FF31F00811181EC01C095D095C170EE
:10042000DD272CE93FEF80FF02C024E630E02A0DF3
:100430003B1DC90163E470E00E94E324061717071F
:1004400054F0C90168E270E00E94E3246F5F7F4FBF
:10045000601771076CF52A0D3B1DC90163E470E05C
:100460000E94E3240617170754F0C90168E270E000
:100470000E94E3246F5F7F4F6017710784F52A0D98
:100480003B1DC90163E470E00E94E32406171707CF
:1004900064F0C90168E270E00E94E3246F5F7F4F5F
:1004A00023E030E0601771072CF4CFEFDFEF0BC0D3
:1004B00021E030E0F6018081918101968217930757
:1004C0008CF491838083CE01DF91CF911F910F91A6
:1004D000FF90EF90DF90CF90BF90AF90089522E013
:1004E00030E0E8CF11821082F7018081918101967E
:1004F000E8CF0000000085E090E00197F1F7089553
:10050000AF92BF92CF92DF92EF92FF920F931F9321
:10051000CF93DF936C017B018B01040F151FEB015F
:100520005E01AE18BF08C017D10759F06991D60116
:10053000ED91FC910190F081E02DC6010995892B88
:1005400079F7C501DF91CF911F910F91FF90EF9047
:10055000DF90CF90BF90AF900895FC01538D448DF4
:10056000252F30E0842F90E0821B930B541710F05E
:10057000CF96089501970895FC01918D828D98176B
:1005800061F0A28DAE0FBF2FB11D5D968C91928D43
:100590009F5F9F73928F90E008958FEF9FEF089574
:1005A000FC01918D828D981731F0828DE80FF11D3D
:1005B000858D90E008958FEF9FEF0895FC01918D58
:1005C000228D892F90E0805C9F4F821B91098F7351
:1005D000992708958FE593E00E94DE0221E0892BA0
:1005E00009F420E0822F0895FC01A48DA80FB92FF3
:1005F000B11DA35ABF4F2C91848D90E001968F734B
:100600009927848FA689B7892C93A089B1898C9169
:10061000837080648C93938D848D981306C00288B8
:10062000F389E02D80818F7D80830895EF92FF9282
:100630000F931F93CF93DF93EC0181E0888F9B8D05
:100640008C8D98131AC0E889F989808185FF15C0BF
:100650009FB7F894EE89FF896083E889F9898081E2
:100660008370806480839FBF81E090E0DF91CF91B1
:100670001F910F91FF90EF900895F62E0B8D10E0D3
:100680000F5F1F4F0F731127E02E8C8D8E110CC042
:100690000FB607FCFACFE889F989808185FFF5CF8D
:1006A000CE010E94F402F1CFEB8DEC0FFD2FF11D76
:1006B000E35AFF4FF0829FB7F8940B8FEA89FB89CA
:1006C00080818062CFCFCF93DF93EC01888D882328
:1006D000B9F0AA89BB89E889F9898C9185FD03C0A5
:1006E000808186FD0DC00FB607FCF7CF8C9185FF8A
:1006F000F2CF808185FFEDCFCE010E94F402E9CFD9
:10070000DF91CF91089580E090E0892B29F00E943D
:10071000EA0281110E94000080E090E0892B49F0FC
:1007200080E090E0892B29F00E94000081110C9458
:100730000000089582508D3008F03EC0E82FF0E0B0
:10074000EC55FC4F0C94F724D903DD03B103B70338
:10075000DC03DC03BB03C103C503CB03DC03CF0312
:10076000D503809180008F778093800008958091D9
:1007700080008F7DF9CF8091B0008F778093B0009B
:1007800008958091B0008F7DF9CF809190008F7790
:10079000809390000895809190008F7DF9CF809193
:1007A000A0008F778093A00008958091A0008F7D96
:1007B000F9CF84B58F7784BD089584B58F7DFBCF45
:1007C000CF93DF93282F30E0F901E259FD4F849158
:1007D000F901EC51FE4FD491F901E753FE4FC4915A
:1007E000CC23A1F081110E949A03EC2FF0E0EE0FD0
:1007F000FF1FE354FE4FA591B491EC91ED2381E0EE
:1008000090E009F480E0DF91CF91089580E090E0DE
:10081000FACF1F93CF93DF93282F30E0F901E259ED
:10082000FD4F8491F901EC51FE4FD491F901E7534A
:10083000FE4FC491CC23A9F0162F81110E949A0378
:10084000EC2FF0E0EE0FFF1FEF54FE4FA591B49197
:100850008FB7F894EC91111108C0D095DE23DC938A
:100860008FBFDF91CF911F910895DE2BF8CF1092AB
:10087000E20281E08093E4021092E30261E082E10F
:100880000E94090461E083E10E940904E9EBF0E0C1
:1008900080818E7F808380818D7F808380E28093C2
:1008A000B80085E48093BC000895ECEBF0E0808113
:1008B0008A7B808360E082E10E94090460E083E13A
:1008C0000C940904E7E7F2E0E491E250ED3008F01F
:1008D0006FC0F0E0E259FB4F0C94F7247B048004D6
:1008E00085048F04D804D8049904A104A904B3048E
:1008F000D804BE04CD0494B5906894BD87BD089516
:1009000094B5906294BD88BD0895209180002068C0
:10091000209380009093890080938800089520910F
:10092000800020622093800090938B0080938A0047
:1009300008959091B00090689093B0008093B300B8
:1009400008959091B00090629093B0008093B400AD
:100950000895209190002068209390009093990032
:100960008093980008955A9A2091900020622093D5
:10097000900090939B0080939A0008952091A0008E
:1009800020682093A0002091A0002F7B2093A0003E
:100990009093A9008093A80008955A9A2091A000EE
:1009A00020622093A0009093AB008093AA0008954A
:1009B00060E0803891050CF061E089E00C94090456
:1009C000CF93DF9390E0FC01EC51FE4F24918753CD
:1009D0009E4FFC0184918823D1F090E0880F991FED
:1009E000FC01EB55FE4FA591B491FC01EF54FE4F75
:1009F000C591D49161110EC09FB7F8948C91E22FEC
:100A0000E0958E238C932881E223E8839FBFDF91BA
:100A1000CF9108958FB7F894EC91E22BEC938FBFB0
:100A2000F6CF3FB7F8948091EB029091EC02A09141
:100A3000ED02B091EE0226B5A89B05C02F3F19F03C
:100A40000196A11DB11D3FBFBA2FA92F982F88274E
:100A5000BC01CD01620F711D811D911D43E0660F28
:100A6000771F881F991F4A95D1F70895CF92DF927B
:100A7000EF92FF920E9411056B017C010E9411050B
:100A80006C197D098E099F09683E734081059105A7
:100A9000A8F3FF90EF90DF90CF900895CF92DF9270
:100AA000EF92FF921F93CF93DF93EC0160E08D8173
:100AB0000E94E00461E08D810E94090498E0C92E43
:100AC000D12C10E0E12EF12CF594E7941E2D60E07E
:100AD0008E810E940904E881F981028CF38DE02D5A
:100AE000CE0109958D810E94E003892B09F01068E1
:100AF00061E08E810E940904E881F981028CF38D06
:100B0000E02DCE01099581E0C81AD108D9F661E03F
:100B10008D810E94E00460E08D810E940904812F94
:100B2000DF91CF911F91FF90EF90DF90CF900895CC
:100B30000F931F93CF93DF93EC01162F042FE881BF
:100B4000F98102A0F3A1E02D64E40995E881F9811F
:100B5000048CF58DE02DCE010995612F606CE88144
:100B6000F98100A0F1A1E02DCE010995E881F9817C
:100B700000A0F1A1E02D602FCE010995E881F98157
:100B8000068CF78DE02DCE01DF91CF911F910F9153
:100B900009941F93CF93DF93EC01162FE881F9811D
:100BA000048CF58DE02D0995E881F98100A0F1A173
:100BB000E02D612FCE010995E881F981068CF78D32
:100BC000E02DCE01DF91CF911F910994FF920F93F9
:100BD0001F93CF93DF93EC01F62E08E010E060E066
:100BE0008E810E940904E881F981028CF38DE02D49
:100BF000CE0109956F2D61708D810E940904E881F5
:100C0000F981028CF38DE02DCE010995F69461E017
:100C10008E810E940904E881F981028CF38DE02D18
:100C2000CE01099501501109D1F6E881F981028CB4
:100C3000F38DE02DCE01DF91CF911F910F91FF90A9
:100C40000994CF93DF93EC0161E08F810E94090446
:100C5000E881F981028CF38DE02DCE01DF91CF91F7
:100C60000994CF93DF93EC0160E08F810E94090427
:100C7000E881F981028CF38DE02DCE01DF91CF91D7
:100C80000994089560E070E0CB010895FC0184812F
:100C900008957F928F929F92AF92BF92CF92DF92F0
:100CA000EF92FF920F931F93CF93DF937C016A0122
:100CB000722E8B01D0E0C0E0A22EB12C8824839448
:100CC000912CD70114968C9190E09C012A193B0934
:100CD000C217D3070CF5F80141918F014423E1F0CD
:100CE0008C1B9D0B0197940102C0220F331F8A9524
:100CF000E2F7C9018C219D2121E0892B09F420E034
:100D00006C2F670DD701ED91FC910688F789E02DD6
:100D1000C70109952196D5CFDF91CF911F910F91F2
:100D2000FF90EF90DF90CF90BF90AF909F908F900B
:100D30007F900895CF92DF92EF92FF920F931F93CF
:100D4000CF93DF937C016B01042F10E0D0E0C0E073
:100D5000C017D10781F0F601EC0FFD1F4491D701B8
:100D6000ED91FC910288F389E02D20E06C2FC70102
:100D700009952196EDCFDF91CF911F910F91FF90B3
:100D8000EF90DF90CF900895242FDC01ED91FC913E
:100D90000288F389E02D40E009949F92AF92BF92C0
:100DA000CF92DF92EF92FF920F931F93CF93DF9337
:100DB0007C01C1E0C42ED12C8AE0A82EB12CD70131
:100DC00014964C914C17F0F096010C2E02C03595FC
:100DD00027950A94E2F721704C1BCB01B5010E94C4
:100DE000E324962ED72FD701ED91FC910084F18555
:100DF000E02D05E911E0682FC7010995692D7D2FC8
:100E0000CF5FDDCFDF91CF911F910F91FF90EF90DA
:100E1000DF90CF90BF90AF909F9008950F931F9356
:100E2000E62F642FEF70E00FF12FF11D4491DC01EC
:100E3000ED91FC910288F389E02D1F910F910994A7
:100E4000E42F440FFF0BEA5EFE4F4491DC01ED916D
:100E5000FC910288F389E02D0994362FDC01ED9195
:100E6000FC910480F581E02D60E0211160E8642BA5
:100E7000432F09940895242FDC0112963C91129778
:100E8000431740F4ED91FC9104A0F5A1E02D462F0D
:100E9000622F099408950F931F93CF93DF93EC0172
:100EA000E881F98102A0F3A1E02D60E40995E881D1
:100EB000F981048CF58DE02DCE010995E881F98149
:100EC00000A0F1A1E02D60ECCE01099510E000E05A
:100ED000E881F9818A8180171106A9F0A4F000A0A9
:100EE000F1A1E02D60E0CE0109958B81893040F0C1
:100EF000E881F98100A0F1A1E02D60E0CE01099523
:100F00000F5F1F4FE5CF068CF78DE02DCE01DF91EF
:100F1000CF911F910F910994DC01ED91FC9102A0FA
:100F2000F3A1E02D611106C060E8483008F047E009
:100F3000642B099468E8F9CF0F931F93CF938C012A
:100F4000DC01ED91FC91048CF58DE02D0995D80123
:100F5000ED91FC9100A0F1A1E02D69E4C801099593
:100F6000D801ED91FC9106A0F7A1E02DC8010995EB
:100F7000C82FD801ED91FC91068CF78DE02DC801AA
:100F8000099560E070E0CB01C43470F0C83480F49F
:100F9000C45461E070E080E090E004C0660F771F09
:100FA000881F991FCA95D2F7CF911F910F9108956D
:100FB000C03510F4C854EDCFC83510F4CC54E9CF87
:100FC000C03610F4C055E5CFC83610F4C455E1CF93
:100FD000C03710F4C855DDCFC837D8F6CC55D9CFB7
:100FE000EF92FF921F93CF93DF93EC0160E08E812D
:100FF0000E94090460E08D810E94E00461E08D811F
:101000000E94090488E0E82EF12C10E0110F61E045
:101010008E810E940904E881F981028CF38DE02D14
:10102000CE0109958D810E94E003892B09F01160A2
:1010300060E08E810E940904E881F981028CF38DC1
:10104000E02DCE01099581E0E81AF108F9F660E09B
:101050008E810E94090460E08D810E94E00461E0BD
:101060008D810E940904E881F981028CF38DE02DC5
:10107000CE01099561E08E810E940904E881F98121
:10108000028CF38DE02DCE0109958D810E94E00345
:10109000F82E60E08E810E940904F11004C060E027
:1010A0008D810E94090461E08D810E94E004812FFE
:1010B000DF91CF911F91FF90EF9008950F931F93B1
:1010C000CF93DF93EC01062F483008F047E011E0A2
:1010D000140F183009F410E0E881F981048CF58DC3
:1010E000E02DCE010995E881F98100A0F1A1E02D64
:1010F00068E4CE010995E881F98100A0F1A1E02D15
:1011000080E1189FA00111248B8160E0873009F4F1
:1011100068E0402B642BCE010995E881F981068CAB
:10112000F78DE02DCE01DF91CF911F910F910994A2
:101130000F931F93CF93DF938C01D0E0C0E0D801D1
:1011400012968C9112978C171D0661F05CF0ED9150
:10115000FC9104A0F5A1E02D40E06C2FC801099599
:101160002196EDCFDF91CF911F910F9108950F93AD
:101170001F93CF93DF93EC01162F042FE881F981A1
:10118000048CF58DE02D0995612F660F6866E88166
:10119000F98100A0F1A1E02DCE010995E881F98146
:1011A00000A0F1A1E02D602FCE010995E881F98121
:1011B000068CF78DE02DCE01DF91CF911F910F911D
:1011C0000994FF920F931F93CF93DF93EC01F62EB8
:1011D00008E010E060E08E810E940904E881F98156
:1011E000028CF38DE02DCE0109956F2D661F6627C9
:1011F000661F8D810E940904FF0C61E08E810E94B0
:101200000904E881F981028CF38DE02DCE01099566
:1012100001501109F9F6E881F981028CF38DE02D76
:10122000CE010995E881F981028CF38DE02DCE0184
:10123000099560E08E810E94090460E08D810E9422
:10124000E004E881F981028CF38DE02DCE0109954F
:1012500061E08E810E940904E881F981028CF38D9E
:10126000E02DCE0109958D810E94E003811104C01B
:1012700060E08D810E94090461E08D81DF91CF9152
:101280001F910F91FF900C94E004CF93DF93EC013A
:1012900060E08E810E94090460E08D810E94090453
:1012A000E881F981028CF38DE02DCE01099561E092
:1012B0008E810E94090461E08D810E940904E88109
:1012C000F981028CF38DE02DCE01DF91CF9109944D
:1012D000CF93DF93EC0161E08D810E94090461E00E
:1012E0008E810E940904E881F981028CF38DE02D42
:1012F000CE01099560E08D810E94090460E08E8135
:101300000E940904E881F981028CF38DE02DCE0161
:10131000DF91CF9109940C9479022091BE02260F9F
:101320003327331F21323105ECF42091E202FC0116
:1013300090E080E0243069F082E00895A091BE0240
:101340002191AC0142565D4FA40FB52FB11D2C93D6
:101350000196861798F38091BE02680F6093BE02D3
:1013600080E0089581E008950F93413208F044C071
:101370009091E2029111FCCF92E09093E2020093EF
:10138000E4029FEF9093E1027093E6026093E5021E
:101390001092E8024093E7021092E9029091E9026C
:1013A000880F892B8093E9028091E302813011F547
:1013B0001092E3028091E9028093BB008091BC000F
:1013C00083FDF8CF85EC8093BC00222321F080912F
:1013D000E2028230D1F38091E1028F3F79F0809177
:1013E000E102803269F08091E102803359F084E0BB
:1013F0000F91089585EEE7CF81E0FACF80E0F8CF36
:1014000082E0F6CF83E0F4CF4132E0F59091E20242
:101410009111FCCF91E09093E2022093E4022FEF30
:101420002093E1027093E6026093E5021092E802D5
:10143000240F2093E7029093E9029091E902880F2C
:10144000892B8093E9028091E3028130C9F41092E4
:10145000E3028091E9028093BB008091BC0083FD90
:10146000F8CF85EC8093BC008091E2028130E1F3FB
:101470008091E802841710F44091E802842F0895C7
:1014800085EEF0CF40E0FACFE0911804F091190416
:10149000309729F0109215041092160409940895BB
:1014A000DC0180911A0490911B04892B19F1909111
:1014B0001004809111049817E8F090E0292F30E093
:1014C000261737076CF4FD01E20FF31F4081E0910E
:1014D0000E04F0910F04E20FF31F40839F5FEECFE5
:1014E0001092100460931104E0911A04F0911B040F
:1014F000CB0109940895DC015096EC9150975196D8
:101500008C915197E81748F41E968D919C91E80FA5
:10151000F92FF11D808190E008958FEF9FEF0895DE
:10152000FC01908981892FEF3FEF981740F4A68541
:10153000B785A90FB11D2C9130E09F5F908BC90139
:101540000895FC0181899089891B990B0895CF9298
:10155000DF92EF92FF920F931F93CF93DF938C0153
:10156000CB017A01D80157962C915797222389F005
:10157000EB016B01C40ED51ECC15DD0579F0699128
:10158000D801ED91FC910190F081E02DC801099501
:10159000F3CF9896ED91FC91642F0995C701DF91E7
:1015A000CF911F910F91FF90EF90DF90CF90089512
:1015B000CF93DF931F92CDB7DEB7FC016983878994
:1015C0008823F9F02689848595852817190654F013
:1015D00081E090E09383828390E080E00F90DF9140
:1015E000CF9108958981A58923893489A20FB32FCA
:1015F000B11D8C9385898F5F858B868B81E090E010
:10160000EDCF00A4F1A5E02D61E0CE010196099592
:10161000F5CF90E080E0089522303105A1F023302D
:10162000310521F12130310539F020E030E04AE781
:1016300054E40E94AC22089520E030E04AE754E4EC
:101640000E9435210895452B31F020E030E04AE733
:1016500054E40E94AC2220E030E040E452E40E94D6
:1016600035212BE430EB45EB51E4E3CF413051051C
:1016700091F320E030E04AE754E40E943521EBCFBB
:1016800008958F929F92AF92BF92EF92FF920F9325
:101690001F93CF93DF934B015C01F42E84E395E01D
:1016A0000E949808C501B4010E941E23EB01CB01E2
:1016B00064E670E00E94E324E62E42E0BC0184E38D
:1016C00095E00E94CD062AE030E0CE01B9010E94EB
:1016D000E324CB01B9010E94E3240FEF11E021E0E4
:1016E00041E0682F84E395E00E940E0720E040E08F
:1016F0006E2D84E395E00E940E0720E043E061E058
:10170000F11005C00FEF11E020E043E065E084E355
:1017100095E00E940E07DF91CF911F910F91FF90EE
:10172000EF90BF90AF909F908F9008954F925F92EF
:101730006F927F928F929F92AF92BF92CF92DF92E1
:10174000EF92FF920F931F93CF93DF93F82FE62F23
:10175000C0902F05D09030054A0184E6880E911C78
:1017600083E4E82EF12CC401B7010E94E3245B015D
:10177000C8E2D0E0C401BE010E94E3242B018FEF38
:10178000481A580A24563109C901B7010E94E324B6
:101790004B01C901BE010E94E3243B018FEF681A8F
:1017A000780A04561109C801B7010E94E3249B017D
:1017B000C801BE010E94E324AB014F5F5F4FFF0FE2
:1017C000FE0F60E070E0CB01AE2FB0E0AA0FBB1FB0
:1017D000AC0DBD1D0D90BC91A02DAA15BB057CF1D3
:1017E0004A165B0664F1A1E0AE0FB0E0AA0FBB1F82
:1017F000AC0DBD1D0D90BC91A02DA815B905E4F050
:101800006A167B0604F1660F771F881F991F6160B7
:10181000EE5FFE13D9CFDF91CF911F910F91FF9013
:10182000EF90DF90CF90BF90AF909F908F907F9080
:101830006F905F904F900895A217B30724F460E073
:1018400070E0CB01E8CF4A175B07CCF3660F771F38
:10185000881F991FDDCF8091EF028130B1F028F011
:10186000823019F1833059F1089560E080E10E94DF
:10187000090460E08FE00E94090461E089E00E94B1
:10188000E00460E089E00C94090461E080E10E94DA
:10189000090461E08FE00E94090461E089E00E9490
:1018A000E0048CED90E00C94620460E08FE00E9414
:1018B000090461E089E00E94E00461E0E3CF60E0B8
:1018C00080E10E94090461E08FE00E94090461E068
:1018D00089E00E94E00484EB90E0E5CFFC010190F8
:1018E0000020E9F73197AF01481B590BBC018FE588
:1018F00093E00C9480028F929F92AF92BF920F93CD
:101900001F93CF93DF93CDB7DEB7A1970FB6F894AF
:10191000DEBF0FBECDBF19A2423008F44AE08E01EF
:101920000F5D1F4F842E912CB12CA12CA501940189
:101930000E940322E62FB901CA01EA30F4F4E05D07
:10194000D801EE938D01232B242B252B79F790E0E2
:1019500080E0109719F0CD010E946E0CA1960FB691
:10196000F894DEBF0FBECDBFDF91CF911F910F91D5
:10197000BF90AF909F908F900895E95CE1CFCF9397
:10198000DF930E946E0CEC0182E991E00E946E0CE4
:101990008C0F9D1FDF91CF9108950C946E0C4F9288
:1019A0005F926F927F928F929F92AF92BF92CF92EF
:1019B000DF92EF92FF920F931F93CF936B017C0105
:1019C000742EAC019B010E94A923882399F085E91C
:1019D00091E0CF911F910F91FF90EF90DF90CF900A
:1019E000BF90AF909F908F907F906F905F904F903F
:1019F0000C946E0C46015701E894B7F82FEF3FEFB7
:101A00004FE75FE7C501B4010E94A92381110DC012
:101A10002FEF3FEF4FE75FE7C501B4010E94CF20F2
:101A200018161CF489E991E0D4CF2FEF3FEF4FE770
:101A30005FE4C701B6010E94542318161CF48DE917
:101A400091E0C7CF2FEF3FEF4FE75FECC701B60143
:101A50000E94CF2087FDF3CF20E030E0A901C7012D
:101A6000B6010E94CF2010E000E087FF0AC06DE2BF
:101A70008FE593E00E9416038C01F7FAF094F7F8D3
:101A8000F094C0E060E070E080E09FE37C1641F0FD
:101A900020E030E040E251E40E94AC22CF5FF6CF7C
:101AA000A70196010E9440222B013C010E942523A0
:101AB0004B015C014AE00E947B0C7C01E00EF11EB0
:101AC000CC23C1F1C501B4010E94D4209B01AC011B
:101AD000C301B2010E943F224B015C016EE28FE51F
:101AE00093E00E941603E80EF91EC15018F120E0A1
:101AF00030E040E251E4C501B4010E9435212B01E0
:101B00003C010E9425234B01B12CA12C4AE0C501C8
:101B1000B4010E947B0CE80EF91EC501B4010E94BD
:101B2000D4209B01AC01C301B2010E943F224B01B2
:101B30005C01DBCFC701CF911F910F91FF90EF9018
:101B4000DF90CF90BF90AF909F908F907F906F90DD
:101B50005F904F900895CF92DF92EF92FF92CF93D4
:101B6000DF936C01990FEE08FF08F7FE1FC06DE2CE
:101B70008FE593E00E941603EC0166277727CB01DF
:101B80006C197D098E099F094AE00E947B0CC80FE1
:101B9000D91F82E991E00E946E0C8C0F9D1FDF918E
:101BA000CF91FF90EF90DF90CF9008954AE0C7016A
:101BB000B6010E947B0CEC01ECCFEF92FF920F93E9
:101BC0001F93CF93DF937C0184E395E00E949808F4
:101BD00081EA91E00E94CD0C80919C0290919D023F
:101BE0000E94AB0DF0929D02E0929C0280919C02BB
:101BF00090919D02CAE0D0E0BE010E94E3240FEF65
:101C000011E020E042E0682F84E395E00E940E0797
:101C10008AE0E816F1040CF446C080919C02909191
:101C20009D02BE010E94E32470939D0260939C027A
:101C300081EA91E00E94CD0C80919C0290919D02DE
:101C40000E94AB0D80919C0290919D02BE010E946A
:101C5000E32420E041E0682F84E395E00E940E0732
:101C600084E6E816F104FCF080919C0290919D02BC
:101C7000BE010E94E32470939D0260939C0281EA5E
:101C800091E00E94CD0C80919C0290919D020E9457
:101C9000AB0D60919C0270919D0220E040E084E3D6
:101CA00095E00E940E07DF91CF911F910F91FF9059
:101CB000EF900895CF92DF92EF92FF92CF93DF9350
:101CC000EC01C0904904D0904A04E0904B04F0909D
:101CD0004C0420E030E0A901C701B6010E94CF20EA
:101CE00087FD0CC0809132049091330481309105BE
:101CF00009F442C090F0029709F478C050E040E047
:101D000030E020E0652F742F832F922FDF91CF9149
:101D1000FF90EF90DF90CF9008952091450430918F
:101D200046044091470450914804C701B6010E94FF
:101D3000AC226B017C010E94A0019B01AC01C70198
:101D4000B6010E9435212DE53DE645E150E40E94B3
:101D500059232EE137EA47E151E40E943521B62F9D
:101D6000A72FF82FE92FAD019F01C130D10551F206
:101D70009E0141E050E02EC0209145043091460480
:101D80004091470450914804C701B6010E94AC221B
:101D90006B017C010E94A0019B01AC01C701B6014F
:101DA0000E9435212EEC39E145E150E40E9459238F
:101DB00028E03DE342E051E40E943521B62FA72FF1
:101DC000F82FE92FAD019F01209709F49BCF9E01C9
:101DD00050E040E06B2F7A2F8F2F9E2FDF91CF9115
:101DE000FF90EF90DF90CF900C940C0B26E636E638
:101DF00042E451E4C701B6010E9435212091450417
:101E00003091460440914704509148040E94AC220E
:101E10006B017C010E94A0019B01AC01C701B601CE
:101E20000E94352121EE3AE744E95FEB0E945923F5
:101E30002BE237E847ED51E490CF0C94AD251F928B
:101E40000F920FB60F9211242F933F934F935F93EE
:101E50006F937F938F939F93AF93BF93EF93FF9372
:101E60008FE593E00E94F402FF91EF91BF91AF9153
:101E70009F918F917F916F915F914F913F912F91A2
:101E80000F900FBE0F901F9018951F920F920FB6D4
:101E90000F9211242F938F939F93EF93FF93E091D1
:101EA0006F03F09170038081E0917503F0917603E8
:101EB00082FD1BC09081809178038F5F8F7320918A
:101EC0007903821741F0E0917803F0E0E15AFC4F8A
:101ED000958F80937803FF91EF919F918F912F9130
:101EE0000F900FBE0F901F9018958081F4CF1F9216
:101EF0000F920FB60F9211242F933F938F939F93BE
:101F0000AF93BF938091580390915903A0915A03C6
:101F1000B0915B033091EA0226E0230F2D3768F180
:101F200029E8230F0396A11DB11D2093EA02809397
:101F3000580390935903A0935A03B0935B03809185
:101F4000EB029091EC02A091ED02B091EE020196AD
:101F5000A11DB11D8093EB029093EC02A093ED02C2
:101F6000B093EE02BF91AF919F918F913F912F91CE
:101F70000F900FBE0F901F9018950296A11DB11DD6
:101F8000D4CF1F920F920FB60F9211242F933F932D
:101F90004F935F936F937F938F939F93AF93BF9371
:101FA000EF93FF938091B900887F803609F44CC08D
:101FB00008F03FC0883209F4A8C018F5803109F450
:101FC0009CC0B8F4882309F405C1883009F495C091
:101FD000FF91EF91BF91AF919F918F917F916F9101
:101FE0005F914F913F912F910F900FBE0F901F90D7
:101FF0001895883109F489C0803251F78093E10245
:1020000015C0803409F4A6C048F48033B9F388338E
:10201000F9F68093E1020E949A01DACF803509F443
:1020200089C0883509F49EC0883491F60E949001D9
:10203000CFCF883909F494C038F5883729F050F4A7
:10204000883611F0803721F683E08093E202109207
:10205000E00257C0883809F483C0803919F080380D
:1020600009F0B6CF8091E002803208F079C0E091AB
:10207000E00281E08E0F8093E0028091BB00F0E0EF
:10208000E054FD4F80833DC0803B39F0E0F4803A5E
:1020900009F485C0883A09F09BCF84E08093E2027E
:1020A0001092BF021092BE02E091FE03F091FF0376
:1020B00009958091BE0281110FC081E08093BE021C
:1020C00010929E0209C0803C09F482C0883C09F449
:1020D0007FC0883B09F07CCFE091BF0281E08E0F8A
:1020E0008093BF02F0E0E256FD4F80818093BB00F9
:1020F0009091BF028091BE0231C08091E90280932D
:10210000BB0085EC8093BC0063CF9091E802809186
:10211000E7029817B8F58091E5029091E602E09108
:10212000E80221E02E0F2093E802E80FF92FF11DBD
:102130008081E5CF2091E5023091E602E091E8024E
:1021400081E08E0F8093E8028091BB00E20FF32FB5
:10215000F11D80839091E8028091E702981788F240
:1021600085E8D0CF2091E5023091E602E091E802C7
:1021700081E08E0F8093E8028091BB00E20FF32F85
:10218000F11D80838091E402811150CF81E0809322
:10219000E30284EA8093BC001092E20219CF0E940D
:1021A0009A018091E002803230F4E091E002F0E0A8
:1021B000E054FD4F10826091E00270E0E091FC037A
:1021C000F091FD0380EC92E009951092E00200CFBF
:1021D00085ECE0CF1092E10229CF1F920F920FB64B
:1021E0000F9211242F933F934F935F936F937F939D
:1021F0008F939F93AF93BF93EF93FF93809150047E
:102200000E94E003982F40915504509156044F5F6F
:102210005F4F5093560440935504209153043091DE
:1022200054042536310530F081E08093210583E0A8
:1022300080934F0480914F04811138C0911107C0E1
:102240004436510508F510925604109255048091B9
:102250005204882341F080915104911167C061E0DC
:10226000811167C02D9AFF91EF91BF91AF919F911E
:102270008F917F916F915F914F913F912F910F902F
:102280000FBE0F901F9018951092210521E030E0AD
:1022900030935404209353045093580440935704AC
:1022A000109256041092550481E019C080914F0499
:1022B0008130C1F4913059F6B9016F5F7F4F70934F
:1022C000540460935304220F331FF901E95AFB4F62
:1022D00051834083109256041092550482E08093FB
:1022E0004F04B5CF80914F048230B9F491110FC0E3
:1022F000B9016F5F7F4F7093540460935304220FB2
:10230000331FF901E95AFB4F51834083C9CF45364A
:10231000510508F49CCF83E0E2CF80914F048330D5
:1023200009F095CF992309F48ECF91CF882321F01E
:1023300060E00E94090497CF2D9895CF0F931F93CB
:10234000CF93DF93EFE5F3E01382128288EE93E000
:10235000A0E0B0E084839583A683B78322E131E0D7
:102360003183208325EC30E03587248724EC30E06E
:102370003787268720EC30E0318B208B21EC30E052
:10238000338B228B22EC30E0358B248B26EC30E033
:10239000378B268B118E128E138E148EC0E0D4E0F4
:1023A0001B821A828C839D83AE83BF8384E291E07B
:1023B0009983888380E290E09D878C870E94112515
:1023C0009F878E87188A198A1A8A80E290E00E9475
:1023D00011259C8B8B8B1D8A1E8A1F8A87E394E0B4
:1023E0009D8F8C8F85E594E09F8F8E8F81E791E0A4
:1023F00099A388A385E791E09BA38AA384E09AE050
:102400009DA38CA384EB99E09FA38EA38DE899E014
:1024100099A788A788E891E09BA78AA780E991E01F
:102420009DA78CA78AE991E09FA78EA780E59AE0F7
:102430009093FD038093FC0384E49AE09093FF0360
:102440008093FE03E0E3F4E086E391E091838083F0
:102450001582148216828FEF878380878FEF9FEF1C
:10246000DC0185879687A787B08B818B928BA38BA6
:10247000B48B80E090E0A0E8BFEB858B968BA78BB8
:10248000B08F818F928FA38FB48F14E1158F81E469
:10249000868F80E492E4AFE0B0E081879287A387E3
:1024A000B487C4E3D5E08EE391E09983888308E0A4
:1024B0000B838BE08D839CE09E838F8384E08A83F3
:1024C0008C8361E08BE00E94E00461E08CE00E947C
:1024D000E00461E08BE00E94E00461E08BE00E9498
:1024E000090461E08CE00E9409048AE691E0998386
:1024F0008883CE010E9498080B8347E061E0CE01FB
:102500000E945E08EFE4F4E011831382DF91CF9123
:102510001F910F910895CF93DF93CDB7DEB7289722
:102520000FB6F894DEBF0FBECDBF789484B583603C
:1025300084BD85B5836085BD80916E008160809388
:102540006E0012E010938100809181008160809381
:102550008100809180008160809380008091B10033
:1025600084608093B1008091B00081608093B0005E
:1025700080919100836080939100809190008160B0
:10258000809390008091A10083608093A10080914E
:10259000A00081608093A00086E880937A0010926A
:1025A000C100E0916F03F09170031083E0916B0321
:1025B000F0916C031082E0916D03F0916E0383E360
:1025C000808310927703E0917303F091740386E0A7
:1025D0008083E0917103F091720380818869808328
:1025E000E0917103F091720380818F7D808381EB94
:1025F00091E00E94BF0C80918100887F826080936F
:10260000810080EC91E00E94BF0C80E094E0909308
:102610003D0380933C031092100410921104109219
:10262000150410921604E0911C04F0911D04099504
:1026300081ED91E00E94BF0CF8941093B0001093CC
:10264000B10082E38093B3001092B2001093700047
:10265000789410924F0460E0809150040E94E0044E
:102660008DED91E00E94BF0C10923604109235045B
:1026700010923404109233041092320483E0809359
:10268000370489E18093380480E492E4AFE0B0E05D
:102690008093390490933A04A0933B04B0933C0494
:1026A0008AE097EAAFEEB4E4809345049093460441
:1026B000A0934704B093480480E590E0A0E0B0E028
:1026C0008093410490934204A0934304B093440444
:1026D00061E083E00E94E00460E0809138040E94A1
:1026E000E00460E0809137040E94090488E491E6E8
:1026F000A4E7B4E48093450490934604A093470470
:10270000B093480410924104109242041092430482
:10271000109244048CEE91E00E94BF0C61E089E0CD
:102720000E94E00461E083E00E94E00461E085E053
:102730000E94E00461E086E00E94E00461E08AE13A
:102740000E94E00461E089E00E94E00461E08DE025
:102750000E94E00461E08FE00E94E00461E080E11B
:102760000E94E00461E08EE00E94E00461E085E107
:102770000E94E00484E395E00E94980860E087E00E
:102780000E94E00460E08AE00E94E00460E088E0EB
:102790000E94E00460E084E00E94E00480E092E0B7
:1027A0000E94BF0C80914F04833009F042C787E537
:1027B00094E09093300580932F05C0905304D090FF
:1027C0005404D0923205C092310581E090912105E8
:1027D000911101C080E0809333051092250510927D
:1027E000240510922E052090590430905A04C101FE
:1027F000875891098E35910508F014C194E0C916E7
:10280000D10409F0EAC080915B0490915C04809748
:10281000479708F007C180915D0490915E04099785
:10282000099708F0FFC010922B0510922A058FEF30
:102830009FEFDC018093260590932705A093280540
:10284000B093290581E080932E058BE090E0909372
:10285000230580932205FF24F39482E1E2E2F5E070
:10286000A3EFB2E001900D928A95E1F7F1100C947C
:10287000211DA0E2CA16D10409F4D6C073E0872E48
:10288000912CB0E6CB16D10409F4D1C082E1E2E28A
:10289000F5E0A3EFB2E001900D928A95E1F7F11017
:1028A0000C94211D90E2C916D10408F45CC08091FB
:1028B0009504909196040397059708F054C0809171
:1028C0009304909194040897099708F04CC02091C4
:1028D000570430915804A2E3B0E00E9430226135E1
:1028E000734C810591050CF416C1EFE4F4E090E01F
:1028F00080E024AD35AD283131050CF401C12B3217
:1029000031058CF5880F991F81603497B4E0EB3165
:10291000FB0779F72DE030E030932B0520932A0553
:102920009C012072332721503109309325052093D3
:10293000240535E0969587953A95E1F7B0E0A0E05B
:102940008093260590932705A0932805B093290529
:1029500082E190E0909323058093220581E08093AB
:102960000001FF24F39482E1E2E2F5E0A3EFB2E09C
:1029700001900D928A95E1F7F1100C94211D9AE1D6
:10298000C916D10408F41EC120915704309158048F
:1029900042E3429FC001439F900D1124843F914028
:1029A00008F0D9C010922B0510922A058FEF9FEFE7
:1029B000DC018093260590932705A0932805B0930A
:1029C000290581E080932E058FEF9FEF90932305DB
:1029D00080932205FF24F394F5C094E4C916D10432
:1029E00008F180915B0490915C04815491098F9768
:1029F000C8F400E312E02AE936E040E352E063E085
:102A000080E20E94960B20E230E030932B05209369
:102A10002A056093260570932705809328059093D7
:102A2000290513CFF12C19CF88248394912CC1014F
:102A30000397059708F02ACF80915B0490915C047E
:102A4000893191050CF454C08C970CF01FCFEE2403
:102A5000E394412C512C3201B12CA12C0BE113E059
:102A60002DE037E04AEF50E06E2D85E00E94960B96
:102A70006D837E838F8398872DE037E04AEF50E0A7
:102A800065E06E0D88E00E94960B411451046104CC
:102A9000710431F0641575058605970509F0F6CEC9
:102AA0002B013C014094EFEFAE1ABE0AF6E0EF0EA8
:102AB0008A149B0499F62FE030E030932B05209385
:102AC0002A05609326057093270580932805909327
:102AD00029058D819E81909325058093240581E1B0
:102AE00090E09093230580932205FF24F394CECEAB
:102AF0008A3091050CF4CACE43970CF4A8CFC6CE09
:102B0000283031050CF42FCF213131050CF02BCFBB
:102B1000880F991FFACE80910001811119C010927F
:102B20002B0510922A058FEF9FEFDC01809326057D
:102B300090932705A0932805B093290581E0809301
:102B40002E0581E190E0909323058093220509CF23
:102B50001092000108CFC10185974B9798F5EFE4DB
:102B6000F4E082E090E040E050E0BA019C012F5F89
:102B70003F4F2C153D05C8F4248535852750310974
:102B80002730310590F4268537852331310514F43B
:102B90000C94AD2022323105ACF4440F551F661F52
:102BA000771F416002963496E1CF019796958795FD
:102BB00090932B0580932A050C97E0F510922B0536
:102BC00010922A0582E1E2E2F5E0A3EFB2E0019083
:102BD0000D928A95E1F7F11034C79AE1C916D10434
:102BE00008F47CC0209157043091580442E3429F7E
:102BF000C001439F900D11248032934030F5109214
:102C00002B0510922A058FEF9FEFDC01809326059C
:102C100090932705A0932805B093290581E0809320
:102C20002E0580E190E09093230580932205FF24F8
:102C3000F39454C0409326055093270560932805CC
:102C40007093290583E190E0C1CEC101C5978797B4
:102C500008F044C080915B0490915C04C59787970D
:102C6000E8F5EFE4F4E083E090E040E050E0BA0102
:102C70009C012F5F3F4F2C153D0510F526853785AC
:102C80002C5031092B303105D8F420893189253277
:102C900031055CF0203431050CF5440F551F661FDB
:102CA000771F416002963496E3CF2B303105B4F0A4
:102CB000263131059CF4440F551F661F771FF2CF54
:102CC00001979695879590932B0580932A050C97ED
:102CD00008F0C6C010922B0510922A0582E1E2E2AC
:102CE000F5E0A3EFB2E001900D928A95E1F7F110C3
:102CF000A8C692E2C916D10408F447C0A6E02A1A71
:102D00003108B7E02B16310408F03FC0EFE4AE2ED7
:102D1000E4E0BE2E43E050E080E090E0DC019A0168
:102D2000215031094C155D0500F58501F50124851B
:102D300035852E3131050CF49EC0253331052CF537
:102D4000880F991FAA1FBB1F8160BA016E5F7F4F5A
:102D5000F4E0AF0EB11CF801268537852350310908
:102D60002530310508F485C09A0121503109369586
:102D7000279530932B0520932A052031310508F043
:102D800087C010922B0510922A0582E1E2E2F5E05D
:102D9000A3EFB2E001900D928A95E1F7F11051C6D0
:102DA0001C821B8281E090E09A838983FDE0CF162C
:102DB000D10408F49BC049E753E0BE016D5F7F4F2B
:102DC000CE0101960E94E701892B09F08FC049E7E7
:102DD00053E0BE016D5F7F4FCE0101960E94E70177
:102DE000019709F083C049E753E0BE016D5F7F4F53
:102DF000CE0101960E94E7018C01892B09F076C073
:102E0000812C912C5401209131053091320589811A
:102E10009A818217930708F055C049E753E0BE0135
:102E20006D5F7F4FCE0101960E94E7016C0149E77B
:102E300053E0BE016D5F7F4FCE0101960E94E70116
:102E400021E0C216D104A9F5892B09F04FC0880CE6
:102E5000991CAA1CBB1C689480F80F5F1F4FD3CF2E
:102E60004093260550932705609328057093290504
:102E7000D8CEAB0154CF2C3031050CF486CF27319E
:102E800031050CF082CF880F991FAA1FBB1F5DCFA1
:102E90008093260590932705A0932805B0932905D4
:102EA00089E090E09093230580932205FF24F3941A
:102EB0006CCFCD28D9F40197C9F4880C991CAA1CB1
:102EC000BB1CCBCF10932B0500932A0580922605BF
:102ED00090922705A0922805B09229058DE090E0F8
:102EE0009093230580932205FF24F39482E1E2E28C
:102EF000F5E0A3EFB2E001900D928A95E1F7F110B1
:102F0000A0C51C821B8281E090E09A838983809116
:102F1000310590913205892B09F480C0E0912F058D
:102F2000F09130058281938189974E9708F076C0A1
:102F300082E090E09A838983848195810B970A9738
:102F400008F06CC083E090E09A8389834CEB51E0F9
:102F5000BE016D5F7F4FCE0101960E94E7016C01BB
:102F6000892B09F05BC04CEB51E0BE016D5F7F4FD8
:102F7000CE0101960E94E701019709F04FC0412C54
:102F8000512C3201209131053091320589819A818D
:102F90008217930708F095C24CEB51E0BE016D5FBC
:102FA0007F4FCE0101960E94E7014C0193E0C916C4
:102FB000D10441F14CEB51E0BE016D5F7F4FCE017A
:102FC00001960E94E7015C01A3E0CA16D10461F4F6
:102FD0004CEB51E0BE016D5F7F4FCE0101960E9428
:102FE000E701A816B906D1F48114910409F45BC273
:102FF0008A94892899F4AB2889F4440C551C661CE2
:10300000771C5BC24CEB51E0BE016D5F7F4FCE0180
:1030100001960E94E7018816990661F282E1E2E2D8
:10302000F5E0A3EFB2E001900D928A95E1F7F1107F
:1030300008C5C0902F05D0903005D60112968D910D
:103040009C911397C597879798F514968D919C91AD
:103050004B97459768F500E911E02CED34E046EF19
:1030600051E063E080E10E94960B4B012CED34E0CF
:1030700046EF51E063E180E20E94960B60932605E3
:103080007093270580932805909329059092250534
:10309000809224058CE090E0909323058093220594
:1030A00080E390E090932B0580932A05FF24F3940E
:1030B00082E1E2E2F5E0A3EFB2E001900D928A95A1
:1030C000E1F7F110BEC48090530490905404B9E32A
:1030D0008B169104B0F1F601828193818E5791098C
:1030E0008835910570F584819581CD978B9748F54A
:1030F00006E212E020E436E048E552E063E08CE1CD
:103100000E94960BD60116962D913C912A503109BA
:1031100029303105B0F42CE130E030932B052093B9
:103120002A056093260570932705809328059093C0
:10313000290587E090E09093230580932205FF24E2
:10314000F39482E1E2E2F5E0A3EFB2E001900D92A8
:103150008A95E1F7F11075C4A0903105B090320561
:10316000F60182819381F2E2AF16B10409F0BEC18B
:103170009C012A5031092930310508F0B7C1F60108
:10318000EE5BFF4F208131812A5031092930310512
:1031900008F0ACC110922B0510922A058FEF9FEF1B
:1031A000DC018093260590932705A0932805B09312
:1031B000290581E080932E0585E090E0909323051A
:1031C00080932205FF24F39482E1E2E2F5E0A3EF8D
:1031D000B2E001900D928A95E1F7F11032C4D60168
:1031E00012968D919C9184549109C19750F5B4E049
:1031F0008B16910409F0AFC1F60184819581809707
:103200004797F8F48681978109970997D0F410922F
:103210002B0510922A058FEF9FEFDC018093260586
:1032200090932705A0932805B093290581E080930A
:103230002E058FE090E09093230580932205FF24D4
:10324000F39482E1E2E2F5E0A3EFB2E001900D92A7
:103250008A95E1F7F110F5C3B6E4AB16B104F0F1CD
:10326000F601828193810C970B97C0F5848195813B
:103270000997099798F5868197818C974F9770F5F4
:103280008085918589974D9748F50EEE12E026E6E8
:1032900038E04EEE52E065E080E20E94960BD601E7
:1032A0001A962D913C912C5031092B303105B0F4F8
:1032B00020E230E030932B0520932A056093260509
:1032C000709327058093280590932905E4E1F0E0A9
:1032D000F0932305E0932205FF24F39482E1E2E2D8
:1032E000F5E0A3EFB2E001900D928A95E1F7F110BD
:1032F000A8C3F8E5AF16B10408F456C0D60112967B
:103300008D919C911397845891098C35910508F003
:103310004BC014968D919C91815491098F9708F020
:1033200043C0F6014DE150E090E080E0D5011497F4
:103330004A175B0708F040C122AD33AD2850310970
:103340002930310588F59A012F5F3F4F64AD75AD87
:103350006730710554F06E3071050CF423C167516C
:1033600071096331710508F424C121503109369582
:10337000279530932B0520932A052A323105A0F09A
:10338000092E000CAA0BBB0B8093260590932705F2
:10339000A0932805B093290581E090E09093230540
:1033A00080932205FF24F39482E1E2E2F5E0A3EFAB
:1033B000B2E001900D928A95E1F7F11042C3B0E2BC
:1033C0008B16910459F5F601828193810597079731
:1033D00028F5848195810997099700F50EEE12E092
:1033E00028E037E04CE251E063E08EE00E94960B6B
:1033F0002EE030E030932B0520932A0560932605BC
:1034000070932705809328059093290583E090E029
:103410009093230580932205FF24F39482E1E2E256
:10342000F5E0A3EFB2E001900D928A95E1F7F1107B
:1034300008C3F6E0AF16B10408F4EEC022E0C20EF5
:10344000D11C03E010E025EC3DE94CE151E87AE0C5
:10345000F72ED60114968D919C911597ED91FD91C3
:103460006D01F89E4001F99E900C1124DF0163E08C
:10347000AA0FBB1F6A95E1F78A169B0608F49EC047
:10348000FE9EB001FF9E700D1124E3E0880F991F8E
:10349000EA95E1F7E2E0F0E06817790708F490C0F8
:1034A000E1E0F0E08DC0AA94AB2809F0B7CD440C60
:1034B000551C661C771C689440F8FFEFCF1ADF0A92
:1034C00061CDD0922B05C0922A05409226055092DC
:1034D000270560922805709229058EE090E0909370
:1034E000230580932205FF24F39498CD8E579109EC
:1034F0008835910508F068CE91E2A916B10408F468
:1035000063CED60114968D919C91CD978B9708F040
:103510005BCE06E212E020E436E048E552E063E0EC
:1035200080E10E94960BF601268137812A503109ED
:103530002930310508F048CE20E130E030932B05EA
:1035400020932A056093260570932705809328050C
:103550009093290531CE94E48916910408F471CE34
:10356000D60114968D919C91815491098F9708F002
:1035700068CE00E312E020E436E040E352E063E08E
:1035800080E20E94960B20E230E030932B052093DE
:103590002A0560932605709327058093280590934C
:1035A000290547CE880F991F81604E5F5F4F349683
:1035B000BFCE880F991FF9CF9A01D7CEF0E0E0E097
:1035C00063E971E080E091E00E94F3212F01FF0F99
:1035D00066087708A301920126273727482759272D
:1035E0000F5F1F4FA016B10609F033CF20932605B9
:1035F00030932705409328055093290580E290E0F9
:1036000090932B0580932A058FEF9FEF90932305CE
:1036100080932205FF24F39482E1E2E2F5E0A3EF38
:10362000B2E001900D928A95E1F7F1100AC2109272
:103630004F0480915E03882309F45BC580910301E8
:10364000882309F491C3813009F4C7C380910C0326
:1036500090910D03019690930D0380930C03803D90
:10366000974079F480910B038F5F80930B03109246
:103670000D0310920C0380910B03853010F0109213
:103680000B0380910B038111B5C380910C039091C2
:103690000D030197C1F484E395E00E9498080FE0C0
:1036A00012E020E050E040E063E172E084E395E066
:1036B0000E9449060FEF11E021E041E061E084E360
:1036C00095E00E940E0780910C0390910D03883EB7
:1036D000934081F487E192E00E94CD0C80911A031F
:1036E00090911B030E94AB0D80911A0390911B03D4
:1036F0000E94DD0D8091010190910201019690934D
:103700000201809301018031974209F039C1109282
:1037100002011092010100913C0310913D03D80178
:103720001C964D915C914931510514F049E150E0EE
:10373000F8016685778504A0F5A1E02D21E088E2F7
:103740000995D80150961C92509751968C930CE194
:1037500013E080913C0390913D03DC01ED91FC91DD
:103760000084F185E02D0995892B09F409C1809128
:103770003C0390913D03DC01ED91FC910284F385C3
:10378000E02D0995F80181938F01F3E005331F07C0
:1037900001F780911C03863109F0F2C090911D035E
:1037A000993109F0EDC0EDE1F3E024E333E09191CC
:1037B00089272E173F07D9F7909134038913E0C06A
:1037C00080911E0380933E0380911F0390E0982F09
:1037D000882720912003820F911D909340038093AE
:1037E0003F038091210390E0982F882720912203A6
:1037F000820F911D909342038093410360912303B4
:10380000862F90E0982F882760912403680F792FE6
:10381000711D072E000C880B990B0E94D62020E00A
:1038200030E040E251E40E94AC224B015C01809206
:10383000430390924403A0924503B09246036091E3
:103840002503862F90E0982F882760912603680F24
:10385000792F711D645F7140072E000C880B990B46
:103860000E94D62020E030E040E251E40E94AC22E9
:103870006B017C01C0924703D0924803E092490358
:10388000F0924A036091270370E0762F66278091BB
:103890002803680F711D70934C0360934B03409194
:1038A000290350E0542F442780912A03480F511DCB
:1038B00050934E0340934D0320912B0330E0322F61
:1038C000222780912C03280F311D30935003209321
:1038D0004F0380912D0390E0982F8827E0912E03CD
:1038E0008E0F911D909352038093510380912F036B
:1038F00090E0982F8827E09130038E0F911D9093D0
:103900005403809353038091310390E0982F8827CC
:10391000E09132038E0F911D9093560380935503CF
:10392000809133038093570370931B0360931A03B2
:1039300050931903409318033093170320931603F1
:1039400020E030E040E251E4C501B4010E9435219D
:1039500060931203709313038093140390931503E1
:1039600020E030E040E251E4C701B6010E94352179
:1039700060930E0370930F038093100390931103D1
:1039800080915C0390915D03019690935D03809319
:103990005C0381369A4E08F4ACC310925D0310921A
:1039A0005C038BE492E00E94BF0C61E080913704DD
:1039B0000E9409042FB7F89460915803709159033D
:1039C00080915A0390915B032FBF28EE33E040E0D3
:1039D00050E00E94032220933D0430933E04409324
:1039E0003F04509340042FB7F894609158037091AE
:1039F000590380915A0390915B032FBF28EE33E067
:103A000040E050E00E94032280913D0490913E04EA
:103A1000A0913F04B0914004C0904104D090420472
:103A2000E0904304F09044048C0D9D1DAE1DBF1D1D
:103A3000281739074A075B0708F098C20E94360525
:103A4000D2CF6091F7027091F8028091F9029091C3
:103A5000FA024AE00E947B0C82E991E00E946E0C1F
:103A60008091F7029091F802A091F902B091FA02C8
:103A70008F3F9F4FAF4FBF4FE1F58091F2028823F8
:103A8000C1F187E092E00E94CD0C6091F00270914C
:103A9000F10290E080E04AE00E947B0C82E991E034
:103AA0000E946E0C8091F0029091F1020196909329
:103AB000F1028093F0028431910509F510920A0316
:103AC0001092090390930803809307038CE291E01E
:103AD000909306038093050380915E03882379F019
:103AE00060E08AE10E94090461E08EE00E9409041E
:103AF00006C08091F0029091F102892BA1F580918E
:103B0000F7029091F802A091F902B091FA028F3475
:103B1000F0EB9F07FFE5AF07F0EABF0709F4F9C034
:103B200008F069C08F3AE0E59E07EFE5AE07E0EAEE
:103B3000BE0709F4CFC0E0F48F3C9043AF45B04AD4
:103B400009F075CD80915E03882309F470CD8091D2
:103B5000EF028F5F8093EF02843008F449C081E068
:103B60008093EF0245C01092F1021092F002C7CF8D
:103B70008737E8E89E07EFE5AE07E0EABE0709F4FD
:103B8000D9C08F35904AAF45B04A09F050CD8091E9
:103B90005E0311E0812780935E0380915E0388239A
:103BA00009F477C01092030161E08DE00E940904DE
:103BB00061E08AE10E94090461E085E10E94090454
:103BC0001093EF0210920A0310920903A4E1B0E0EF
:103BD000B0930803A0930703E0EAFFE0F093060325
:103BE000E093050310920B0310920D0310920C0347
:103BF0000E942B0C1CCD873328EC92072FE5A207DF
:103C000020EAB20709F4A3C020F58F33904CAF45EA
:103C1000B04A09F00CCD10920A031092090384E116
:103C200090E090930803809307038CE291E09093D7
:103C300006038093050380915E03882309F4F7CC83
:103C400060E08AE10E94090461E08EE00E940904BC
:103C5000EECC8F3220ED92072FE5A20720EAB207C3
:103C600009F453C08F30904FAF45B04A09F0DFCC14
:103C700010920A0310920903A4E1B0E0B093080384
:103C8000A0930703E0EAFFE0F0930603E093050347
:103C9000CECC1093030160E08AE10E94090460E049
:103CA00085E10E94090460E089E00E94090460E067
:103CB00083E00E94090460E08DE00E94090460E056
:103CC0008EE00E9409041092EF0284E395E00E94C6
:103CD00098088ECF10920A031092090384E190E0B5
:103CE0009093080380930703A0EABFE0B093060314
:103CF000A093050380915E03882309F498CC61E0CA
:103D00008AE10E94090460E0A0CF81E08093F20282
:103D10008ECC10920A0310920903E4E1F0E0F093D4
:103D20000803E093070388EE93E0909306038093E3
:103D300005037DCC10920A031092090384E190E000
:103D4000909308038093070380E797E1EECF1092EA
:103D50000A0310920903A4E1B0E0B0930803A09312
:103D60000703E0E4FFE190CF61E083E00E940904F3
:103D70008091090390910A03019690930A0380931E
:103D80000903209107033091080380910903909162
:103D90000A032817390741F460E085E00E9409040E
:103DA00060E086E00E94090420910503309106033B
:103DB0008091090390910A032817390709F046CC2E
:103DC00061E085E00E94090461E086E00E94090448
:103DD00010920A031092090339CC60E083E00E943C
:103DE000090460E085E00E94090460E086E00E942A
:103DF00009042CCC80910B038130A9F580910C0330
:103E000090910D03892BC1F484E395E00E949808FA
:103E10000FE012E020E050E040E06FE172E084E368
:103E200095E00E9449060FEF11E021E041E062E0D9
:103E300084E395E00E940E0780910C0390910D039E
:103E4000883E934009F056CC83E292E00E94CD0C6C
:103E500080911803909119030E94AB0D8091180373
:103E60009091190345CC80910B03823061F58091CC
:103E70000C0390910D03892B79F484E395E00E9463
:103E800098080FE012E020E050E040E063E172E0CB
:103E900084E395E00E94490680910C0390910D0304
:103EA000883E934009F026CC8BE292E00E94CD0C34
:103EB00080911603909117030E94AB0D8091160319
:103EC0009091170315CC80910B03833031F58091CD
:103ED0000C0390910D03892B09F00CCC82E392E046
:103EE0000E94CD0C60911203709113038091140312
:103EF0009091150342E00E94CF0C82E991E00E946C
:103F00006E0C6091120370911303809114039091D1
:103F1000150341E00E94410BEDCB80910B038430EF
:103F200009F0E8CB80910C0390910D03892B09F0E7
:103F3000E1CB8DE392E00E94CD0C60910E03709175
:103F40000F03809110039091110342E00E94CF0C67
:103F500082E991E00E946E0C60910E0370910F0354
:103F6000809110039091110340E0D4CF80913804E8
:103F7000883048F092EF980F9B3008F4C0C0893128
:103F800008F4BFC083518770806480937C00809167
:103F90007A00806480937A0080917A0086FDFCCF5D
:103FA000609178007091790090E080E00E94D420C8
:103FB00020E030E040E85AE30E94352120E030E084
:103FC00040EA50E40E9435216B017C0120E030E0A2
:103FD000A9010E94CF20882309F495C0609139047B
:103FE00070913A0480913B0490913C040E94D4204B
:103FF0004B015C01A701960160E070E080EA90E46B
:104000000E94AC2220E030E040E85FE30E943F22C3
:104010009B01AC01C501B4010E94352160934904A4
:1040200070934A0480934B0490934C0460E0809119
:1040300037040E9409048FEF9FEFDC0180933D0459
:1040400090933E04A0933F04B093400486E592E031
:104050000E94CD0C90E080E00E945A0E6093040113
:1040600070930501809306019093070142E00E943E
:10407000CF0C80E692E00E94CD0C81E090E00E949F
:104080005A0E42E00E94CF0C84E792E00E94BF0CDF
:1040900080E692E00E94CD0C82E090E00E945A0EF1
:1040A00042E00E94CF0C89E792E00E94BF0C80E6BC
:1040B00092E00E94CD0C83E090E00E945A0E42E014
:1040C0000E94CF0C80E892E00E94BF0C20E030E418
:1040D0004CE156E460914504709146048091470498
:1040E000909148040E94542387FD11C081E0809381
:1040F00003010E9436050E9483030C94D213892F7A
:1041000042CF8FEF40CF60E070E0CB0187CFC0900F
:104110000401D0900501E0900601F090070120E035
:1041200030E0A901C701B6010E94542387FDE1CF09
:104130002FE832EC45EF5CE3C701B6010E9454233F
:1041400087FD08C081E08093030187E892E00E9428
:10415000BF0CCFCF10920301CCCF2A30310514F41D
:104160000C94E215440F551F661F771F0C94D2154F
:1041700084E291E0909301048093000480910E0406
:1041800090910F04009711F00E94AD2580911304C7
:1041900090911404009711F00C94AD2508950E949D
:1041A000112108F481E00895E89409C097FB3EF4DA
:1041B00090958095709561957F4F8F4F9F4F992374
:1041C000A9F0F92F96E9BB279395F69587957795F2
:1041D0006795B795F111F8CFFAF4BB0F11F460FFB2
:1041E0001BC06F5F7F4F8F4F9F4F16C0882311F00A
:1041F00096E911C0772321F09EE8872F762F05C01E
:10420000662371F096E8862F70E060E02AF09A95B8
:10421000660F771F881FDAF7880F9695879597F9AD
:104220000895990F0008550FAA0BE0E8FEEF161647
:104230001706E807F907C0F012161306E407F5079A
:1042400098F0621B730B840B950B39F40A2661F00E
:10425000232B242B252B21F408950A2609F4A140B1
:10426000A6958FEF811D811D08950E9448210C9411
:10427000B9210E94AB2138F00E94B22120F0952391
:1042800011F00C94A2210C94A82111240C94ED217E
:104290000E94CA2170F3959FC1F3950F50E0551FFE
:1042A000629FF001729FBB27F00DB11D639FAA278B
:1042B000F00DB11DAA1F649F6627B00DA11D661FDA
:1042C000829F2227B00DA11D621F739FB00DA11DFB
:1042D000621F839FA00D611D221F749F3327A00DB5
:1042E000611D231F849F600D211D822F762F6A2F51
:1042F00011249F5750409AF0F1F088234AF0EE0FB6
:10430000FF1FBB1F661F771F881F91505040A9F7E2
:104310009E3F510580F00C94A2210C94ED215F3F4B
:10432000E4F3983ED4F3869577956795B795F7951E
:10433000E7959F5FC1F7FE2B880F911D9695879596
:1043400097F9089597F99F6780E870E060E0089515
:104350009FEF80EC089500240A941616170618069D
:104360000906089500240A94121613061406050679
:104370000895092E0394000C11F4882352F0BB0F0A
:1043800040F4BF2B11F460FF04C06F5F7F4F8F4F6D
:104390009F4F089557FD9058440F551F59F05F3FA8
:1043A00071F04795880F97FB991F61F09F3F79F057
:1043B00087950895121613061406551FF2CF4695D9
:1043C000F1DF08C0161617061806991FF1CF86955B
:1043D0007105610508940895E894BB27662777273F
:1043E000CB0197F90895DB018F939F930E942522BB
:1043F000BF91AF91A29F800D911DA39F900DB29F81
:10440000900D11240895A1E21A2EAA1BBB1BFD01D9
:104410000DC0AA1FBB1FEE1FFF1FA217B307E407A3
:10442000F50720F0A21BB30BE40BF50B661F771FFB
:10443000881F991F1A9469F76095709580959095DB
:104440009B01AC01BD01CF0108950E943022A59FC0
:10445000900DB49F900DA49F800D911D112408957F
:10446000A29FB001B39FC001A39F700D811D1124B5
:10447000911DB29F700D811D1124911D08955058FA
:10448000BB27AA270E9457220C94B9210E94AB2176
:1044900038F00E94B22120F039F49F3F19F426F43D
:1044A0000C94A8210EF4E095E7FB0C94A221E92FCF
:1044B0000E94CA2158F3BA17620773078407950749
:1044C00020F079F4A6F50C94EC210EF4E0950B2E77
:1044D000BA2FA02D0B01B90190010C01CA01A00156
:1044E0001124FF27591B99F0593F50F4503E68F1B1
:1044F0001A16F040A22F232F342F4427585FF3CFF2
:10450000469537952795A795F0405395C9F77EF4C2
:104510001F16BA0B620B730B840BBAF09150A1F00B
:10452000FF0FBB1F661F771F881FC2F70EC0BA0F91
:10453000621F731F841F48F4879577956795B79519
:10454000F7959E3F08F0B0CF9395880F08F0992714
:10455000EE0F9795879508950E94C0220C94B9217B
:104560000E94B22158F00E94AB2140F029F45F3F35
:1045700029F00C94A22151110C94ED210C94A82146
:104580000E94CA2168F39923B1F3552391F3951B37
:10459000550BBB27AA2762177307840738F09F5F64
:1045A0005F4F220F331F441FAA1FA9F335D00E2ED1
:1045B0003AF0E0E832D091505040E695001CCAF73E
:1045C0002BD0FE2F29D0660F771F881FBB1F261701
:1045D00037074807AB07B0E809F0BB0B802DBF01D8
:1045E000FF2793585F4F3AF09E3F510578F00C94A7
:1045F000A2210C94ED215F3FE4F3983ED4F386951D
:1046000077956795B795F7959F5FC9F7880F911DC7
:104610009695879597F90895E1E0660F771F881FB3
:10462000BB1F621773078407BA0720F0621B730B66
:10463000840BBA0BEE1F88F7E09508950E9425239E
:104640006894B1110C94ED2108950E94D22188F054
:104650009F5798F0B92F9927B751B0F0E1F0660F46
:10466000771F881F991F1AF0BA95C9F714C0B13087
:1046700091F00E94EC21B1E008950C94EC21672F99
:10468000782F8827B85F39F0B93FCCF386957795B6
:104690006795B395D9F73EF490958095709561959F
:1046A0007F4F8F4F9F4F08950E94112108F48FEF85
:1046B0000895FA01EE0FFF1F309621053105A1F193
:1046C0006115710561F48038BFE39B0749F1689477
:1046D0009038810561F08038BFEF9B0741F0992346
:1046E0004AF5FF3FE1053105210519F1E8940894E9
:1046F000E795D901AA2329F4AB2FBE2FF85FD0F399
:1047000010C0FF5F70F4A695E0F7F73950F019F08C
:10471000FF3A38F49F779F930DD00F9007FC905885
:10472000089546F00C94A82160E070E080E89FE3D3
:1047300008954FE79F775F934F933F932F930E9486
:1047400059242F913F914F915F910E9435210C94F4
:10475000B6230E941121880B990B089529F416F0B5
:104760000C94A2210C94EC210C94A8210E94D2213B
:10477000A8F39638A0F707F80F92E8942BE33AEAEB
:1047800048EB5FE70E944B210F920F920F924DB7BB
:104790005EB70F920E94A124E4EBF0E00E94E823B0
:1047A0004F915F91EF91FF91E595EE1FFF1F49F04B
:1047B000FE57E0684427EE0F441FFA95E1F7419554
:1047C000550B0E941B240F9007FE0C940F24089594
:1047D000DF93CF931F930F93FF92EF92DF927B01B2
:1047E0008C01689406C0DA2EEF010E944821FE0178
:1047F000E894A5912591359145915591A6F3EF0146
:104800000E945722FE019701A801DA9469F7DF9010
:10481000EF90FF900F911F91CF91DF9108959B0131
:10482000AC0160E070E080E89FE30C94AC220C9453
:10483000A2210C94D5240E94D221D8F39923C9F344
:10484000940F511DA3F39150504094F059F08823D8
:1048500032F0660F771F881F91505040C1F79E3F7E
:1048600051052CF7880F911D9695879597F9089516
:104870005F3FACF0983E9CF0BB2786957795679597
:10488000B79508F4B1609395C1F7BB0F58F711F4D1
:1048900060FFE8CF6F5F7F4F8F4F9F4FE3CF0C9448
:1048A000ED2116F00C94D5240C94A82168940C9456
:1048B000A2210E94D221A8F39923C1F3AEF3DF9382
:1048C000CF931F930F93FF92C92FDD2788232AF0E0
:1048D0002197660F771F881FDAF720E030E040E865
:1048E0005FEB9FE3883920F0803E38F021968F7788
:1048F0000E944022ECEDF0E004C00E944022E9E07A
:10490000F1E00E94E8238B01BE01EC01FB2E6F5702
:1049100071097595771F880B990B0E94D62028E1A5
:1049200032E741E35FE30E944821AF2D9801AE01D9
:10493000FF900F911F91CF91DF910E9457220C940D
:10494000B921FA01DC01AA0FBB1F9B01AC01BF57C3
:1049500028F4222733274427507820C0B75190F4F9
:10496000AB2F0024469537952795011CA395D2F3CC
:10497000002071F0220F331F441FB395DAF30ED0DD
:104980000C943F2261307105A0E88A07B94630F4E3
:104990009B01AC016627772788279078309621F015
:1049A000208331834283538308959F3F31F0915098
:1049B00020F4879577956795B795880F911D969503
:1049C000879597F9089597FB072E16F4009407D062
:1049D00077FD09D00E94FD2407FC05D03EF4909598
:1049E00081959F4F0895709561957F4F0895EE0FC3
:1049F000FF1F0590F491E02D0994AA1BBB1B51E108
:104A000007C0AA1FBB1FA617B70710F0A61BB70B3E
:104A1000881F991F5A95A9F780959095BC01CD01E3
:104A200008950F931F93CF93DF938230910510F475
:104A300082E090E0E0913E05F0913F0530E020E01B
:104A4000B0E0A0E0309799F42115310509F44AC08F
:104A5000281B390B24303105D8F58A819B816115DB
:104A6000710589F1FB0193838283FE0111C04081AE
:104A700051810281138148175907E0F048175907FF
:104A800099F4109761F012960C93129713961C9359
:104A90003296CF01DF91CF911F910F91089500932E
:104AA0003E0510933F05F4CF2115310551F0421713
:104AB000530738F0A901DB019A01BD01DF01F801BC
:104AC000C1CFEF01F9CF90933F0580933E05CDCF45
:104AD000FE01E20FF31F8193919322503109398334
:104AE0002883D7CF20913C0530913D05232B41F4FD
:104AF00020910A0130910B0130933D0520933C0534
:104B000020910801309109012115310541F42DB79B
:104B10003EB740910C0150910D01241B350BE091E3
:104B20003C05F0913D05E217F307A0F42E1B3F0B67
:104B30002817390778F0AC014E5F5F4F241735070F
:104B400048F04E0F5F1F50933D0540933C05819305
:104B500091939FCFF0E0E0E09CCFCF93DF9300975D
:104B6000E9F0FC01329713821282A0913E05B091C8
:104B70003F05ED0130E020E01097A1F42081318164
:104B8000820F931F20913C0530913D05281739076E
:104B900009F061C0F0933D05E0933C05DF91CF91B2
:104BA0000895EA01CE17DF07E8F54A815B819E018F
:104BB00041155105B1F7E901FB83EA834991599108
:104BC000C40FD51FEC17FD0761F480819181029617
:104BD000840F951FE90199838883828193819B8348
:104BE0008A83F0E0E0E012968D919C9113970097F4
:104BF000B9F52D913C911197CD010296820F931F2B
:104C000020913C0530913D052817390739F630973A
:104C100051F510923F0510923E05B0933D05A093CB
:104C20003C05BCCFD383C28340815181840F951F43
:104C3000C817D90761F44E5F5F4F88819981480F8B
:104C4000591F518340838A819B81938382832115DD
:104C5000310509F0B0CFF0933F05E0933E059ECFBC
:104C6000FD01DC01C0CF13821282D7CF11E0C6E470
:104C7000D1E004C0FE010E94F7242196C734D10779
:064C8000C9F7F894FFCF14
:104C860001C309016F12833A00004005800000004D
:104C9600000016038002AD026303DE02BC02D002EE
:104CA60000000000D80AA70A090B4106A10A900ACB
:104CB6007B0A00000000400B1D0F000000008C075F
:104CC6004B073B073A070E07CD06C4069A06490668
:104CD6002D07460620074206410631062106E6054F
:104CE600C90598054E05000000005E0898083B07B8
:104CF6003A070E07CD06C4069A0649062D0746064C
:104D060020079C078B0968094509E108C905B7080A
:104D1600F0070D0A006E616E00696E66006F7666BA
:104D2600007365747365676D656E74496E743A20B9
:104D3600006D6F746F722073706565642E2E2E0081
:104D4600616D31303038772073746172742E2E2E77
:104D56000069722073746172742E2E2E006D71318B
:104D660033312073746172742E2E2E0070696E209A
:104D7600636F6E6669672073746172742E2E2E00DF
:104D8600656E642E2E2E00707573685F636E7420D8
:104D96003A200050313000706D312E303A200050EC
:104DA600323500706D322E353A2000706D31303A52
:104DB600200068756D69646974793A200074656DC0
:104DC60070657261747572653A2000526561646936
:104DD6006E672E2E2E004F332056616C75653A0095
:104DE600436F6E63656E74726174696F6E204F33C4
:104DF600203A20002070706200206D672F6D33000E
:104E06002075672F6D3300506C617A6D61204F6697
:064E1600662E2E2E0000A6
:00000001FF
